{
    "contractName": "Friend",
    "abi": [
        {
            "inputs": [
                {
                    "internalType": "address",
                    "name": "owner",
                    "type": "address"
                },
                {
                    "internalType": "address",
                    "name": "friend",
                    "type": "address"
                }
            ],
            "name": "addFriend",
            "outputs": [
                {
                    "internalType": "bool",
                    "name": "",
                    "type": "bool"
                }
            ],
            "stateMutability": "nonpayable",
            "type": "function"
        },
        {
            "inputs": [
                {
                    "internalType": "address",
                    "name": "owner",
                    "type": "address"
                },
                {
                    "internalType": "address",
                    "name": "friend",
                    "type": "address"
                }
            ],
            "name": "deleteFriend",
            "outputs": [
                {
                    "internalType": "bool",
                    "name": "",
                    "type": "bool"
                }
            ],
            "stateMutability": "nonpayable",
            "type": "function"
        },
        {
            "inputs": [
                {
                    "internalType": "address",
                    "name": "",
                    "type": "address"
                },
                {
                    "internalType": "uint256",
                    "name": "",
                    "type": "uint256"
                }
            ],
            "name": "friendsDict",
            "outputs": [
                {
                    "internalType": "address",
                    "name": "",
                    "type": "address"
                }
            ],
            "stateMutability": "view",
            "type": "function"
        },
        {
            "inputs": [
                {
                    "internalType": "address",
                    "name": "owner",
                    "type": "address"
                }
            ],
            "name": "getFriendsByOwner",
            "outputs": [
                {
                    "internalType": "address[]",
                    "name": "",
                    "type": "address[]"
                }
            ],
            "stateMutability": "view",
            "type": "function"
        }
    ],
    "bytecode": "608060405234801561001057600080fd5b5061069f806100206000396000f3fe608060405234801561001057600080fd5b506004361061004c5760003560e01c806310e96da51461005157806372e6eaa61461007a578063a7a624e01461008d578063d13e736a146100ad575b600080fd5b61006461005f36600461055a565b6100cd565b6040516100719190610616565b60405180910390f35b61006461008836600461055a565b61018d565b6100a061009b36600461058c565b610206565b60405161007191906105b5565b6100c06100bb366004610539565b61023e565b60405161007191906105c9565b60006100d983836102b3565b806100f55750816001600160a01b0316836001600160a01b0316145b8061010757506001600160a01b038316155b8061011957506001600160a01b038216155b1561012657506000610187565b506001600160a01b038083166000818152602081815260408083208054600181810183559185528385200180549688166001600160a01b03199788168117909155845290832080548083018255908452919092200180549093169091179091555b92915050565b600061019983836102b3565b15806101b65750816001600160a01b0316836001600160a01b0316145b806101c857506001600160a01b038316155b806101da57506001600160a01b038216155b156101e757506000610187565b6101f18383610354565b506101fc8284610354565b5060019392505050565b6000602052816000526040600020818154811061022257600080fd5b6000918252602090912001546001600160a01b03169150829050565b6001600160a01b038116600090815260208181526040918290208054835181840281018401909452808452606093928301828280156102a657602002820191906000526020600020905b81546001600160a01b03168152600190910190602001808311610288575b505050505090505b919050565b6000805b6001600160a01b03841660009081526020819052604090205481101561034a576001600160a01b038416600090815260208190526040902080548290811061030f57634e487b7160e01b600052603260045260246000fd5b6000918252602090912001546001600160a01b0384811691161415610338576001915050610187565b8061034281610638565b9150506102b7565b5060009392505050565b600061036083836102b3565b61036c57506000610187565b60006103788484610487565b6001600160a01b038516600090815260208190526040902080549192506103a0600183610621565b815481106103be57634e487b7160e01b600052603260045260246000fd5b60009182526020808320909101546001600160a01b03888116845291839052604090922080549190921691908490811061040857634e487b7160e01b600052603260045260246000fd5b600091825260208083209190910180546001600160a01b0319166001600160a01b039485161790559187168152908190526040902080548061045a57634e487b7160e01b600052603160045260246000fd5b600082815260209020600019908201810180546001600160a01b0319169055019055506001949350505050565b60008060005b6001600160a01b03851660009081526020819052604090205481101561051a576001600160a01b03851660009081526020819052604090208054829081106104e557634e487b7160e01b600052603260045260246000fd5b6000918252602090912001546001600160a01b0385811691161415610508578091505b8061051281610638565b91505061048d565b509392505050565b80356001600160a01b03811681146102ae57600080fd5b60006020828403121561054a578081fd5b61055382610522565b9392505050565b6000806040838503121561056c578081fd5b61057583610522565b915061058360208401610522565b90509250929050565b6000806040838503121561059e578182fd5b6105a783610522565b946020939093013593505050565b6001600160a01b0391909116815260200190565b6020808252825182820181905260009190848201906040850190845b8181101561060a5783516001600160a01b0316835292840192918401916001016105e5565b50909695505050505050565b901515815260200190565b60008282101561063357610633610653565b500390565b600060001982141561064c5761064c610653565b5060010190565b634e487b7160e01b600052601160045260246000fdfea2646970667358221220c6440a5d68332ecf0f5d48b271c43a0d8f8a8465fe4f100a4052e31f07b4673764736f6c63430008000033",
    "sourcePath": "/Users/Cirno/Desktop/distributed_ether_farm-main/contracts/Friend.sol",
    "compiler": {
        "name": "solc",
        "version": "0.8.0+commit.c7dfd78e"
    },
    "functionHashes": {
        "addFriend(address,address)": "10e96da5",
        "deleteFriend(address,address)": "72e6eaa6",
        "friendsDict(address,uint256)": "a7a624e0",
        "getFriendsByOwner(address)": "d13e736a"
    },
    "gasEstimates": {
        "creation": {
            "codeDepositCost": "339000",
            "executionCost": "374",
            "totalCost": "339374"
        },
        "external": {
            "addFriend(address,address)": "infinite",
            "deleteFriend(address,address)": "infinite",
            "friendsDict(address,uint256)": "2230",
            "getFriendsByOwner(address)": "infinite"
        },
        "internal": {
            "contains(address,address)": "infinite",
            "getIndex(address,address)": "infinite",
            "isFriend(address,address)": "infinite",
            "removeFriend(address,address)": "infinite"
        }
    }
}