{
    "contractName": "SlotUtils",
    "abi": [
        {
            "anonymous": false,
            "inputs": [
                {
                    "indexed": true,
                    "internalType": "address",
                    "name": "previousOwner",
                    "type": "address"
                },
                {
                    "indexed": true,
                    "internalType": "address",
                    "name": "newOwner",
                    "type": "address"
                }
            ],
            "name": "OwnershipTransferred",
            "type": "event"
        },
        {
            "anonymous": false,
            "inputs": [
                {
                    "indexed": true,
                    "internalType": "address",
                    "name": "addr",
                    "type": "address"
                }
            ],
            "name": "createSlotEvent",
            "type": "event"
        },
        {
            "anonymous": false,
            "inputs": [
                {
                    "indexed": false,
                    "internalType": "uint256",
                    "name": "cropID",
                    "type": "uint256"
                }
            ],
            "name": "deleteCropList",
            "type": "event"
        },
        {
            "anonymous": false,
            "inputs": [
                {
                    "indexed": false,
                    "internalType": "uint256",
                    "name": "cropID",
                    "type": "uint256"
                },
                {
                    "indexed": false,
                    "internalType": "uint256",
                    "name": "grow_time",
                    "type": "uint256"
                },
                {
                    "indexed": false,
                    "internalType": "uint256",
                    "name": "price",
                    "type": "uint256"
                },
                {
                    "indexed": false,
                    "internalType": "uint256",
                    "name": "exp",
                    "type": "uint256"
                }
            ],
            "name": "updateCropList",
            "type": "event"
        },
        {
            "inputs": [
                {
                    "internalType": "address",
                    "name": "",
                    "type": "address"
                }
            ],
            "name": "OwnerMoneyCount",
            "outputs": [
                {
                    "internalType": "uint256",
                    "name": "",
                    "type": "uint256"
                }
            ],
            "stateMutability": "view",
            "type": "function"
        },
        {
            "inputs": [
                {
                    "internalType": "address",
                    "name": "",
                    "type": "address"
                }
            ],
            "name": "OwnerSlotCount",
            "outputs": [
                {
                    "internalType": "uint256",
                    "name": "",
                    "type": "uint256"
                }
            ],
            "stateMutability": "view",
            "type": "function"
        },
        {
            "inputs": [
                {
                    "internalType": "uint256",
                    "name": "_exp",
                    "type": "uint256"
                }
            ],
            "name": "addInLevelList",
            "outputs": [],
            "stateMutability": "nonpayable",
            "type": "function"
        },
        {
            "inputs": [],
            "name": "createFarm",
            "outputs": [],
            "stateMutability": "nonpayable",
            "type": "function"
        },
        {
            "inputs": [
                {
                    "internalType": "uint256",
                    "name": "",
                    "type": "uint256"
                }
            ],
            "name": "cropsList",
            "outputs": [
                {
                    "internalType": "uint256",
                    "name": "cropID",
                    "type": "uint256"
                },
                {
                    "internalType": "uint256",
                    "name": "grow_time",
                    "type": "uint256"
                },
                {
                    "internalType": "uint256",
                    "name": "price",
                    "type": "uint256"
                },
                {
                    "internalType": "uint256",
                    "name": "dry_time",
                    "type": "uint256"
                },
                {
                    "internalType": "uint256",
                    "name": "grass_time",
                    "type": "uint256"
                },
                {
                    "internalType": "bool",
                    "name": "stealed",
                    "type": "bool"
                },
                {
                    "internalType": "uint256",
                    "name": "exp",
                    "type": "uint256"
                }
            ],
            "stateMutability": "view",
            "type": "function"
        },
        {
            "inputs": [
                {
                    "internalType": "uint256",
                    "name": "_cropID",
                    "type": "uint256"
                }
            ],
            "name": "delInCropsList",
            "outputs": [],
            "stateMutability": "nonpayable",
            "type": "function"
        },
        {
            "inputs": [
                {
                    "internalType": "address",
                    "name": "_owner",
                    "type": "address"
                }
            ],
            "name": "getFarmByOwner",
            "outputs": [
                {
                    "internalType": "uint256[]",
                    "name": "",
                    "type": "uint256[]"
                }
            ],
            "stateMutability": "view",
            "type": "function"
        },
        {
            "inputs": [
                {
                    "internalType": "uint256",
                    "name": "exp",
                    "type": "uint256"
                }
            ],
            "name": "getLevel",
            "outputs": [
                {
                    "internalType": "uint256",
                    "name": "",
                    "type": "uint256"
                }
            ],
            "stateMutability": "view",
            "type": "function"
        },
        {
            "inputs": [],
            "name": "initLevelList",
            "outputs": [],
            "stateMutability": "nonpayable",
            "type": "function"
        },
        {
            "inputs": [
                {
                    "internalType": "uint256",
                    "name": "",
                    "type": "uint256"
                }
            ],
            "name": "levelList",
            "outputs": [
                {
                    "internalType": "uint256",
                    "name": "",
                    "type": "uint256"
                }
            ],
            "stateMutability": "view",
            "type": "function"
        },
        {
            "inputs": [
                {
                    "internalType": "uint256",
                    "name": "_cropID",
                    "type": "uint256"
                },
                {
                    "internalType": "uint256",
                    "name": "_grow_time",
                    "type": "uint256"
                },
                {
                    "internalType": "uint256",
                    "name": "_price",
                    "type": "uint256"
                },
                {
                    "internalType": "uint256",
                    "name": "_exp",
                    "type": "uint256"
                }
            ],
            "name": "modInCropsList",
            "outputs": [],
            "stateMutability": "nonpayable",
            "type": "function"
        },
        {
            "inputs": [],
            "name": "owner",
            "outputs": [
                {
                    "internalType": "address",
                    "name": "",
                    "type": "address"
                }
            ],
            "stateMutability": "view",
            "type": "function"
        },
        {
            "inputs": [],
            "name": "renounceOwnership",
            "outputs": [],
            "stateMutability": "nonpayable",
            "type": "function"
        },
        {
            "inputs": [
                {
                    "internalType": "uint256",
                    "name": "",
                    "type": "uint256"
                }
            ],
            "name": "slotToOwner",
            "outputs": [
                {
                    "internalType": "address",
                    "name": "",
                    "type": "address"
                }
            ],
            "stateMutability": "view",
            "type": "function"
        },
        {
            "inputs": [
                {
                    "internalType": "uint256",
                    "name": "",
                    "type": "uint256"
                }
            ],
            "name": "slots",
            "outputs": [
                {
                    "internalType": "uint256",
                    "name": "cropID",
                    "type": "uint256"
                },
                {
                    "internalType": "uint256",
                    "name": "grow_time",
                    "type": "uint256"
                },
                {
                    "internalType": "uint256",
                    "name": "price",
                    "type": "uint256"
                },
                {
                    "internalType": "uint256",
                    "name": "dry_time",
                    "type": "uint256"
                },
                {
                    "internalType": "uint256",
                    "name": "grass_time",
                    "type": "uint256"
                },
                {
                    "internalType": "bool",
                    "name": "stealed",
                    "type": "bool"
                },
                {
                    "internalType": "uint256",
                    "name": "exp",
                    "type": "uint256"
                }
            ],
            "stateMutability": "view",
            "type": "function"
        },
        {
            "inputs": [
                {
                    "internalType": "address",
                    "name": "newOwner",
                    "type": "address"
                }
            ],
            "name": "transferOwnership",
            "outputs": [],
            "stateMutability": "nonpayable",
            "type": "function"
        }
    ],
    "bytecode": "608060405234801561001057600080fd5b50600061001b61006e565b600480546001600160a01b0319166001600160a01b038316908117909155604051919250906000907f8be0079c531659141344cd1fd0a4f28419497f9722a3daafe3b4186f6b6457e0908290a350610072565b3390565b610da3806100816000396000f3fe608060405234801561001057600080fd5b50600436106101005760003560e01c806386481d4011610097578063a9bf928f11610066578063a9bf928f14610202578063e1928ac914610215578063eb32091514610228578063f2fde38b1461023b57610100565b806386481d40146101c15780638871c9c5146101d45780638da5cb5b146101e757806398815594146101ef57610100565b8063575c25b0116100d3578063575c25b014610166578063580405ba146101865780636099804d146101a6578063715018a6146101b957610100565b80630c10e499146101055780630d79e8351461012e5780631d5ec3cb14610138578063387dd9e914610140575b600080fd5b610118610113366004610bb3565b61024e565b6040516101259190610bfc565b60405180910390f35b610136610269565b005b61013661030f565b61015361014e366004610bb3565b610333565b6040516101259796959493929190610cf3565b610179610174366004610b85565b610385565b6040516101259190610c10565b610199610194366004610b85565b61047b565b6040516101259190610ccf565b6101366101b4366004610bb3565b61048d565b610136610583565b6101996101cf366004610bb3565b61060c565b6101996101e2366004610b85565b610670565b610118610682565b6101996101fd366004610bb3565b610691565b610153610210366004610bb3565b6106b2565b610136610223366004610bcb565b6106f3565b610136610236366004610bb3565b6107f5565b610136610249366004610b85565b6108b8565b6001602052600090815260409020546001600160a01b031681565b610271610979565b6001600160a01b0316610282610682565b6001600160a01b0316146102b15760405162461bcd60e51b81526004016102a890610c9a565b60405180910390fd5b600654156102be57600080fd5b600680546001818101835560008381527ff652222313e28459528d920b65115c16c04f3efc82aaedc97be59f3f377c0d3f92830155825480820184556005908301558254908101909255600a910155565b336000908152600360205260409020541561032957600080fd5b61033161097d565b565b6000818154811061034357600080fd5b600091825260209091206007909102018054600182015460028301546003840154600485015460058601546006909601549496509294919390929160ff169087565b6001600160a01b0381166000908152600360205260408120546060919067ffffffffffffffff8111156103c857634e487b7160e01b600052604160045260246000fd5b6040519080825280602002602001820160405280156103f1578160200160208202803683370190505b5090506000805b600054811015610470576000818152600160205260409020546001600160a01b038681169116141561045e578083838151811061044557634e487b7160e01b600052603260045260246000fd5b60209081029190910101528161045a81610d3c565b9250505b8061046881610d3c565b9150506103f8565b50909150505b919050565b60026020526000908152604090205481565b610495610979565b6001600160a01b03166104a6610682565b6001600160a01b0316146104cc5760405162461bcd60e51b81526004016102a890610c9a565b6040805160e08101825260008082526020808301828152838501838152606085018481526080860185815260a0870186815260c088018781528a88526005968790529689902097518855935160018801559151600287015551600386015551600485015551908301805460ff191691151591909117905551600690910155517fda5207af4ca2a8f617e7b6b247ccb5495c765df30e98c115443a569b8ac3d26490610578908390610ccf565b60405180910390a150565b61058b610979565b6001600160a01b031661059c610682565b6001600160a01b0316146105c25760405162461bcd60e51b81526004016102a890610c9a565b6004546040516000916001600160a01b0316907f8be0079c531659141344cd1fd0a4f28419497f9722a3daafe3b4186f6b6457e0908390a3600480546001600160a01b0319169055565b6000805b600654811015610666576006818154811061063b57634e487b7160e01b600052603260045260246000fd5b9060005260206000200154831015610654579050610476565b8061065e81610d3c565b915050610610565b5050600654919050565b60036020526000908152604090205481565b6004546001600160a01b031690565b600681815481106106a157600080fd5b600091825260209091200154905081565b6005602081905260009182526040909120805460018201546002830154600384015460048501549585015460069095015493959294919390929160ff169087565b6106fb610979565b6001600160a01b031661070c610682565b6001600160a01b0316146107325760405162461bcd60e51b81526004016102a890610c9a565b6040805160e08101825285815260208082018681528284018681526000606085018181526080860182815260a0870183815260c088018a81528d855260059788905293899020975188559451600188015592516002870155516003860155905160048501559051918301805460ff19169215159290921790915551600690910155517f0a99a7515cce8c21202b55bdd8c634a45cf0fc5ffc970a5faf445f6e26665057906107e7908690869086908690610cd8565b60405180910390a150505050565b6107fd610979565b6001600160a01b031661080e610682565b6001600160a01b0316146108345760405162461bcd60e51b81526004016102a890610c9a565b600654158061087a57506006805461084e90600190610d25565b8154811061086c57634e487b7160e01b600052603260045260246000fd5b906000526020600020015481115b61088357600080fd5b600680546001810182556000919091527ff652222313e28459528d920b65115c16c04f3efc82aaedc97be59f3f377c0d3f0155565b6108c0610979565b6001600160a01b03166108d1610682565b6001600160a01b0316146108f75760405162461bcd60e51b81526004016102a890610c9a565b6001600160a01b03811661091d5760405162461bcd60e51b81526004016102a890610c54565b6004546040516001600160a01b038084169216907f8be0079c531659141344cd1fd0a4f28419497f9722a3daafe3b4186f6b6457e090600090a3600480546001600160a01b0319166001600160a01b0392909216919091179055565b3390565b610987600661099c565b33600090815260026020526040902060649055565b60005b81811015610b5657600080546040805160e0810182528381526020808201858152828401868152606084018781526080850188815260a08601898152600160c08801818152818b018c558b8052975160078b027f290decd9548b62a8d60345a988386fc84ba6bc95484008f6362f93160ef3e56381019190915595517f290decd9548b62a8d60345a988386fc84ba6bc95484008f6362f93160ef3e56487015593517f290decd9548b62a8d60345a988386fc84ba6bc95484008f6362f93160ef3e56586015591517f290decd9548b62a8d60345a988386fc84ba6bc95484008f6362f93160ef3e566850155517f290decd9548b62a8d60345a988386fc84ba6bc95484008f6362f93160ef3e567840155517f290decd9548b62a8d60345a988386fc84ba6bc95484008f6362f93160ef3e5688301805491151560ff1990921691909117905592517f290decd9548b62a8d60345a988386fc84ba6bc95484008f6362f93160ef3e5699091015583855290815281842080546001600160a01b03191633908117909155845260039052822080549192610b3d83610d3c565b9190505550508080610b4e90610d3c565b91505061099f565b5060405133907ffa75433b62fa9aa3569a596aca6569a4687697e876289d01131561272e0e904890600090a250565b600060208284031215610b96578081fd5b81356001600160a01b0381168114610bac578182fd5b9392505050565b600060208284031215610bc4578081fd5b5035919050565b60008060008060808587031215610be0578283fd5b5050823594602084013594506040840135936060013592509050565b6001600160a01b0391909116815260200190565b6020808252825182820181905260009190848201906040850190845b81811015610c4857835183529284019291840191600101610c2c565b50909695505050505050565b60208082526026908201527f4f776e61626c653a206e6577206f776e657220697320746865207a65726f206160408201526564647265737360d01b606082015260800190565b6020808252818101527f4f776e61626c653a2063616c6c6572206973206e6f7420746865206f776e6572604082015260600190565b90815260200190565b93845260208401929092526040830152606082015260800190565b9687526020870195909552604086019390935260608501919091526080840152151560a083015260c082015260e00190565b600082821015610d3757610d37610d57565b500390565b6000600019821415610d5057610d50610d57565b5060010190565b634e487b7160e01b600052601160045260246000fdfea2646970667358221220fde1145f57f0b9c64c7161f2aae5c175cddb1bf5c091671589923c102113c63c64736f6c63430008000033",
    "sourcePath": "/Users/Cirno/Desktop/distributed_ether_farm-main/contracts/SlotUtils.sol",
    "compiler": {
        "name": "solc",
        "version": "0.8.0+commit.c7dfd78e"
    },
    "functionHashes": {
        "OwnerMoneyCount(address)": "580405ba",
        "OwnerSlotCount(address)": "8871c9c5",
        "addInLevelList(uint256)": "eb320915",
        "createFarm()": "1d5ec3cb",
        "cropsList(uint256)": "a9bf928f",
        "delInCropsList(uint256)": "6099804d",
        "getFarmByOwner(address)": "575c25b0",
        "getLevel(uint256)": "86481d40",
        "initLevelList()": "0d79e835",
        "levelList(uint256)": "98815594",
        "modInCropsList(uint256,uint256,uint256,uint256)": "e1928ac9",
        "owner()": "8da5cb5b",
        "renounceOwnership()": "715018a6",
        "slotToOwner(uint256)": "0c10e499",
        "slots(uint256)": "387dd9e9",
        "transferOwnership(address)": "f2fde38b"
    },
    "gasEstimates": {
        "creation": {
            "codeDepositCost": "698200",
            "executionCost": "23178",
            "totalCost": "721378"
        },
        "external": {
            "OwnerMoneyCount(address)": "1262",
            "OwnerSlotCount(address)": "1262",
            "addInLevelList(uint256)": "45454",
            "createFarm()": "infinite",
            "cropsList(uint256)": "6239",
            "delInCropsList(uint256)": "53479",
            "getFarmByOwner(address)": "infinite",
            "getLevel(uint256)": "infinite",
            "initLevelList()": "109439",
            "levelList(uint256)": "2085",
            "modInCropsList(uint256,uint256,uint256,uint256)": "114371",
            "owner()": "1137",
            "renounceOwnership()": "24341",
            "slotToOwner(uint256)": "1237",
            "slots(uint256)": "7134",
            "transferOwnership(address)": "24543"
        },
        "internal": {
            "_randomNumber(uint256)": "infinite"
        }
    }
}