{
    "contractName": "SlotMarket",
    "abi": [
        {
            "anonymous": false,
            "inputs": [
                {
                    "indexed": true,
                    "internalType": "address",
                    "name": "owner",
                    "type": "address"
                },
                {
                    "indexed": true,
                    "internalType": "address",
                    "name": "approved",
                    "type": "address"
                },
                {
                    "indexed": true,
                    "internalType": "uint256",
                    "name": "tokenId",
                    "type": "uint256"
                }
            ],
            "name": "Approval",
            "type": "event"
        },
        {
            "anonymous": false,
            "inputs": [
                {
                    "indexed": true,
                    "internalType": "address",
                    "name": "owner",
                    "type": "address"
                },
                {
                    "indexed": true,
                    "internalType": "address",
                    "name": "operator",
                    "type": "address"
                },
                {
                    "indexed": false,
                    "internalType": "bool",
                    "name": "approved",
                    "type": "bool"
                }
            ],
            "name": "ApprovalForAll",
            "type": "event"
        },
        {
            "anonymous": false,
            "inputs": [
                {
                    "indexed": true,
                    "internalType": "address",
                    "name": "previousOwner",
                    "type": "address"
                },
                {
                    "indexed": true,
                    "internalType": "address",
                    "name": "newOwner",
                    "type": "address"
                }
            ],
            "name": "OwnershipTransferred",
            "type": "event"
        },
        {
            "anonymous": false,
            "inputs": [
                {
                    "indexed": false,
                    "internalType": "uint256",
                    "name": "ad",
                    "type": "uint256"
                },
                {
                    "indexed": false,
                    "internalType": "bytes32",
                    "name": "status",
                    "type": "bytes32"
                }
            ],
            "name": "TradeStatusChange",
            "type": "event"
        },
        {
            "anonymous": false,
            "inputs": [
                {
                    "indexed": true,
                    "internalType": "address",
                    "name": "from",
                    "type": "address"
                },
                {
                    "indexed": true,
                    "internalType": "address",
                    "name": "to",
                    "type": "address"
                },
                {
                    "indexed": true,
                    "internalType": "uint256",
                    "name": "tokenId",
                    "type": "uint256"
                }
            ],
            "name": "Transfer",
            "type": "event"
        },
        {
            "anonymous": false,
            "inputs": [
                {
                    "indexed": true,
                    "internalType": "address",
                    "name": "addr",
                    "type": "address"
                }
            ],
            "name": "createSlotEvent",
            "type": "event"
        },
        {
            "anonymous": false,
            "inputs": [
                {
                    "indexed": false,
                    "internalType": "uint256",
                    "name": "cropID",
                    "type": "uint256"
                }
            ],
            "name": "deleteCropList",
            "type": "event"
        },
        {
            "anonymous": false,
            "inputs": [
                {
                    "indexed": false,
                    "internalType": "uint256",
                    "name": "cropID",
                    "type": "uint256"
                },
                {
                    "indexed": false,
                    "internalType": "uint256",
                    "name": "grow_time",
                    "type": "uint256"
                },
                {
                    "indexed": false,
                    "internalType": "uint256",
                    "name": "price",
                    "type": "uint256"
                },
                {
                    "indexed": false,
                    "internalType": "uint256",
                    "name": "exp",
                    "type": "uint256"
                }
            ],
            "name": "updateCropList",
            "type": "event"
        },
        {
            "anonymous": false,
            "inputs": [
                {
                    "indexed": true,
                    "internalType": "address",
                    "name": "owner",
                    "type": "address"
                },
                {
                    "indexed": false,
                    "internalType": "uint256",
                    "name": "slotID",
                    "type": "uint256"
                },
                {
                    "indexed": false,
                    "internalType": "uint256",
                    "name": "cropID",
                    "type": "uint256"
                },
                {
                    "indexed": false,
                    "internalType": "uint256",
                    "name": "grow_time",
                    "type": "uint256"
                },
                {
                    "indexed": false,
                    "internalType": "uint256",
                    "name": "price",
                    "type": "uint256"
                },
                {
                    "indexed": false,
                    "internalType": "uint256",
                    "name": "dry_time",
                    "type": "uint256"
                },
                {
                    "indexed": false,
                    "internalType": "uint256",
                    "name": "grass_time",
                    "type": "uint256"
                },
                {
                    "indexed": false,
                    "internalType": "bool",
                    "name": "stealed",
                    "type": "bool"
                },
                {
                    "indexed": false,
                    "internalType": "uint256",
                    "name": "exp",
                    "type": "uint256"
                },
                {
                    "indexed": false,
                    "internalType": "uint256",
                    "name": "balance",
                    "type": "uint256"
                }
            ],
            "name": "updateSlot",
            "type": "event"
        },
        {
            "inputs": [
                {
                    "internalType": "address",
                    "name": "",
                    "type": "address"
                }
            ],
            "name": "OwnerMoneyCount",
            "outputs": [
                {
                    "internalType": "uint256",
                    "name": "",
                    "type": "uint256"
                }
            ],
            "stateMutability": "view",
            "type": "function"
        },
        {
            "inputs": [
                {
                    "internalType": "address",
                    "name": "",
                    "type": "address"
                }
            ],
            "name": "OwnerSlotCount",
            "outputs": [
                {
                    "internalType": "uint256",
                    "name": "",
                    "type": "uint256"
                }
            ],
            "stateMutability": "view",
            "type": "function"
        },
        {
            "inputs": [
                {
                    "internalType": "uint256",
                    "name": "_slotID",
                    "type": "uint256"
                }
            ],
            "name": "UpgradeSlot",
            "outputs": [],
            "stateMutability": "payable",
            "type": "function"
        },
        {
            "inputs": [
                {
                    "internalType": "address",
                    "name": "owner",
                    "type": "address"
                },
                {
                    "internalType": "address",
                    "name": "friend",
                    "type": "address"
                }
            ],
            "name": "addFriend",
            "outputs": [
                {
                    "internalType": "bool",
                    "name": "",
                    "type": "bool"
                }
            ],
            "stateMutability": "nonpayable",
            "type": "function"
        },
        {
            "inputs": [
                {
                    "internalType": "uint256",
                    "name": "_exp",
                    "type": "uint256"
                }
            ],
            "name": "addInLevelList",
            "outputs": [],
            "stateMutability": "nonpayable",
            "type": "function"
        },
        {
            "inputs": [
                {
                    "internalType": "address",
                    "name": "_to",
                    "type": "address"
                },
                {
                    "internalType": "uint256",
                    "name": "_slotID",
                    "type": "uint256"
                }
            ],
            "name": "approve",
            "outputs": [],
            "stateMutability": "nonpayable",
            "type": "function"
        },
        {
            "inputs": [
                {
                    "internalType": "address",
                    "name": "_owner",
                    "type": "address"
                }
            ],
            "name": "balanceOf",
            "outputs": [
                {
                    "internalType": "uint256",
                    "name": "_balance",
                    "type": "uint256"
                }
            ],
            "stateMutability": "view",
            "type": "function"
        },
        {
            "inputs": [
                {
                    "internalType": "uint256",
                    "name": "_num",
                    "type": "uint256"
                }
            ],
            "name": "buySlot",
            "outputs": [],
            "stateMutability": "payable",
            "type": "function"
        },
        {
            "inputs": [
                {
                    "internalType": "uint256",
                    "name": "_trade",
                    "type": "uint256"
                }
            ],
            "name": "cancelTrade",
            "outputs": [],
            "stateMutability": "nonpayable",
            "type": "function"
        },
        {
            "inputs": [],
            "name": "createFarm",
            "outputs": [],
            "stateMutability": "nonpayable",
            "type": "function"
        },
        {
            "inputs": [
                {
                    "internalType": "uint256",
                    "name": "",
                    "type": "uint256"
                }
            ],
            "name": "cropsList",
            "outputs": [
                {
                    "internalType": "uint256",
                    "name": "cropID",
                    "type": "uint256"
                },
                {
                    "internalType": "uint256",
                    "name": "grow_time",
                    "type": "uint256"
                },
                {
                    "internalType": "uint256",
                    "name": "price",
                    "type": "uint256"
                },
                {
                    "internalType": "uint256",
                    "name": "dry_time",
                    "type": "uint256"
                },
                {
                    "internalType": "uint256",
                    "name": "grass_time",
                    "type": "uint256"
                },
                {
                    "internalType": "bool",
                    "name": "stealed",
                    "type": "bool"
                },
                {
                    "internalType": "uint256",
                    "name": "exp",
                    "type": "uint256"
                }
            ],
            "stateMutability": "view",
            "type": "function"
        },
        {
            "inputs": [
                {
                    "internalType": "uint256",
                    "name": "_cropID",
                    "type": "uint256"
                }
            ],
            "name": "delInCropsList",
            "outputs": [],
            "stateMutability": "nonpayable",
            "type": "function"
        },
        {
            "inputs": [
                {
                    "internalType": "address",
                    "name": "owner",
                    "type": "address"
                },
                {
                    "internalType": "address",
                    "name": "friend",
                    "type": "address"
                }
            ],
            "name": "deleteFriend",
            "outputs": [
                {
                    "internalType": "bool",
                    "name": "",
                    "type": "bool"
                }
            ],
            "stateMutability": "nonpayable",
            "type": "function"
        },
        {
            "inputs": [
                {
                    "internalType": "uint256",
                    "name": "_trade",
                    "type": "uint256"
                }
            ],
            "name": "executeTrade",
            "outputs": [],
            "stateMutability": "payable",
            "type": "function"
        },
        {
            "inputs": [
                {
                    "internalType": "address",
                    "name": "",
                    "type": "address"
                },
                {
                    "internalType": "uint256",
                    "name": "",
                    "type": "uint256"
                }
            ],
            "name": "friendsDict",
            "outputs": [
                {
                    "internalType": "address",
                    "name": "",
                    "type": "address"
                }
            ],
            "stateMutability": "view",
            "type": "function"
        },
        {
            "inputs": [
                {
                    "internalType": "uint256",
                    "name": "tokenId",
                    "type": "uint256"
                }
            ],
            "name": "getApproved",
            "outputs": [
                {
                    "internalType": "address",
                    "name": "",
                    "type": "address"
                }
            ],
            "stateMutability": "view",
            "type": "function"
        },
        {
            "inputs": [
                {
                    "internalType": "address",
                    "name": "_owner",
                    "type": "address"
                }
            ],
            "name": "getFarmByOwner",
            "outputs": [
                {
                    "internalType": "uint256[]",
                    "name": "",
                    "type": "uint256[]"
                }
            ],
            "stateMutability": "view",
            "type": "function"
        },
        {
            "inputs": [
                {
                    "internalType": "address",
                    "name": "owner",
                    "type": "address"
                }
            ],
            "name": "getFriendsByOwner",
            "outputs": [
                {
                    "internalType": "address[]",
                    "name": "",
                    "type": "address[]"
                }
            ],
            "stateMutability": "view",
            "type": "function"
        },
        {
            "inputs": [
                {
                    "internalType": "uint256",
                    "name": "exp",
                    "type": "uint256"
                }
            ],
            "name": "getLevel",
            "outputs": [
                {
                    "internalType": "uint256",
                    "name": "",
                    "type": "uint256"
                }
            ],
            "stateMutability": "view",
            "type": "function"
        },
        {
            "inputs": [
                {
                    "internalType": "uint256",
                    "name": "_trade",
                    "type": "uint256"
                }
            ],
            "name": "getTrade",
            "outputs": [
                {
                    "internalType": "address",
                    "name": "",
                    "type": "address"
                },
                {
                    "internalType": "uint256",
                    "name": "",
                    "type": "uint256"
                },
                {
                    "internalType": "uint256",
                    "name": "",
                    "type": "uint256"
                },
                {
                    "internalType": "bytes32",
                    "name": "",
                    "type": "bytes32"
                }
            ],
            "stateMutability": "view",
            "type": "function"
        },
        {
            "inputs": [],
            "name": "getTradeCounter",
            "outputs": [
                {
                    "internalType": "uint256",
                    "name": "",
                    "type": "uint256"
                }
            ],
            "stateMutability": "view",
            "type": "function"
        },
        {
            "inputs": [
                {
                    "internalType": "uint256",
                    "name": "_slotID",
                    "type": "uint256"
                }
            ],
            "name": "harvest",
            "outputs": [],
            "stateMutability": "nonpayable",
            "type": "function"
        },
        {
            "inputs": [],
            "name": "initLevelList",
            "outputs": [],
            "stateMutability": "nonpayable",
            "type": "function"
        },
        {
            "inputs": [
                {
                    "internalType": "address",
                    "name": "owner",
                    "type": "address"
                },
                {
                    "internalType": "address",
                    "name": "operator",
                    "type": "address"
                }
            ],
            "name": "isApprovedForAll",
            "outputs": [
                {
                    "internalType": "bool",
                    "name": "",
                    "type": "bool"
                }
            ],
            "stateMutability": "view",
            "type": "function"
        },
        {
            "inputs": [
                {
                    "internalType": "uint256",
                    "name": "",
                    "type": "uint256"
                }
            ],
            "name": "levelList",
            "outputs": [
                {
                    "internalType": "uint256",
                    "name": "",
                    "type": "uint256"
                }
            ],
            "stateMutability": "view",
            "type": "function"
        },
        {
            "inputs": [
                {
                    "internalType": "uint256",
                    "name": "_cropID",
                    "type": "uint256"
                },
                {
                    "internalType": "uint256",
                    "name": "_grow_time",
                    "type": "uint256"
                },
                {
                    "internalType": "uint256",
                    "name": "_price",
                    "type": "uint256"
                },
                {
                    "internalType": "uint256",
                    "name": "_exp",
                    "type": "uint256"
                }
            ],
            "name": "modInCropsList",
            "outputs": [],
            "stateMutability": "nonpayable",
            "type": "function"
        },
        {
            "inputs": [],
            "name": "name",
            "outputs": [
                {
                    "internalType": "string",
                    "name": "",
                    "type": "string"
                }
            ],
            "stateMutability": "view",
            "type": "function"
        },
        {
            "inputs": [
                {
                    "internalType": "uint256",
                    "name": "_item",
                    "type": "uint256"
                },
                {
                    "internalType": "uint256",
                    "name": "_price",
                    "type": "uint256"
                }
            ],
            "name": "openTrade",
            "outputs": [],
            "stateMutability": "nonpayable",
            "type": "function"
        },
        {
            "inputs": [],
            "name": "owner",
            "outputs": [
                {
                    "internalType": "address",
                    "name": "",
                    "type": "address"
                }
            ],
            "stateMutability": "view",
            "type": "function"
        },
        {
            "inputs": [
                {
                    "internalType": "uint256",
                    "name": "_slotID",
                    "type": "uint256"
                }
            ],
            "name": "ownerOf",
            "outputs": [
                {
                    "internalType": "address",
                    "name": "_owner",
                    "type": "address"
                }
            ],
            "stateMutability": "view",
            "type": "function"
        },
        {
            "inputs": [
                {
                    "internalType": "uint256",
                    "name": "_cropID",
                    "type": "uint256"
                },
                {
                    "internalType": "uint256",
                    "name": "_slotID",
                    "type": "uint256"
                }
            ],
            "name": "plant",
            "outputs": [],
            "stateMutability": "nonpayable",
            "type": "function"
        },
        {
            "inputs": [],
            "name": "renounceOwnership",
            "outputs": [],
            "stateMutability": "nonpayable",
            "type": "function"
        },
        {
            "inputs": [
                {
                    "internalType": "address",
                    "name": "from",
                    "type": "address"
                },
                {
                    "internalType": "address",
                    "name": "to",
                    "type": "address"
                },
                {
                    "internalType": "uint256",
                    "name": "tokenId",
                    "type": "uint256"
                }
            ],
            "name": "safeTransferFrom",
            "outputs": [],
            "stateMutability": "nonpayable",
            "type": "function"
        },
        {
            "inputs": [
                {
                    "internalType": "address",
                    "name": "from",
                    "type": "address"
                },
                {
                    "internalType": "address",
                    "name": "to",
                    "type": "address"
                },
                {
                    "internalType": "uint256",
                    "name": "tokenId",
                    "type": "uint256"
                },
                {
                    "internalType": "bytes",
                    "name": "_data",
                    "type": "bytes"
                }
            ],
            "name": "safeTransferFrom",
            "outputs": [],
            "stateMutability": "nonpayable",
            "type": "function"
        },
        {
            "inputs": [
                {
                    "internalType": "address",
                    "name": "operator",
                    "type": "address"
                },
                {
                    "internalType": "bool",
                    "name": "approved",
                    "type": "bool"
                }
            ],
            "name": "setApprovalForAll",
            "outputs": [],
            "stateMutability": "nonpayable",
            "type": "function"
        },
        {
            "inputs": [
                {
                    "internalType": "uint256",
                    "name": "_fee",
                    "type": "uint256"
                }
            ],
            "name": "setLevelUpFee",
            "outputs": [],
            "stateMutability": "nonpayable",
            "type": "function"
        },
        {
            "inputs": [
                {
                    "internalType": "uint256",
                    "name": "",
                    "type": "uint256"
                }
            ],
            "name": "slotToOwner",
            "outputs": [
                {
                    "internalType": "address",
                    "name": "",
                    "type": "address"
                }
            ],
            "stateMutability": "view",
            "type": "function"
        },
        {
            "inputs": [
                {
                    "internalType": "uint256",
                    "name": "",
                    "type": "uint256"
                }
            ],
            "name": "slots",
            "outputs": [
                {
                    "internalType": "uint256",
                    "name": "cropID",
                    "type": "uint256"
                },
                {
                    "internalType": "uint256",
                    "name": "grow_time",
                    "type": "uint256"
                },
                {
                    "internalType": "uint256",
                    "name": "price",
                    "type": "uint256"
                },
                {
                    "internalType": "uint256",
                    "name": "dry_time",
                    "type": "uint256"
                },
                {
                    "internalType": "uint256",
                    "name": "grass_time",
                    "type": "uint256"
                },
                {
                    "internalType": "bool",
                    "name": "stealed",
                    "type": "bool"
                },
                {
                    "internalType": "uint256",
                    "name": "exp",
                    "type": "uint256"
                }
            ],
            "stateMutability": "view",
            "type": "function"
        },
        {
            "inputs": [
                {
                    "internalType": "uint256",
                    "name": "_slotID",
                    "type": "uint256"
                }
            ],
            "name": "steal",
            "outputs": [],
            "stateMutability": "nonpayable",
            "type": "function"
        },
        {
            "inputs": [
                {
                    "internalType": "bytes4",
                    "name": "interfaceId",
                    "type": "bytes4"
                }
            ],
            "name": "supportsInterface",
            "outputs": [
                {
                    "internalType": "bool",
                    "name": "",
                    "type": "bool"
                }
            ],
            "stateMutability": "view",
            "type": "function"
        },
        {
            "inputs": [],
            "name": "symbol",
            "outputs": [
                {
                    "internalType": "string",
                    "name": "",
                    "type": "string"
                }
            ],
            "stateMutability": "view",
            "type": "function"
        },
        {
            "inputs": [
                {
                    "internalType": "uint256",
                    "name": "_slotID",
                    "type": "uint256"
                }
            ],
            "name": "takeOwnership",
            "outputs": [],
            "stateMutability": "nonpayable",
            "type": "function"
        },
        {
            "inputs": [
                {
                    "internalType": "uint256",
                    "name": "tokenId",
                    "type": "uint256"
                }
            ],
            "name": "tokenURI",
            "outputs": [
                {
                    "internalType": "string",
                    "name": "",
                    "type": "string"
                }
            ],
            "stateMutability": "view",
            "type": "function"
        },
        {
            "inputs": [
                {
                    "internalType": "uint256",
                    "name": "",
                    "type": "uint256"
                }
            ],
            "name": "trades",
            "outputs": [
                {
                    "internalType": "address",
                    "name": "poster",
                    "type": "address"
                },
                {
                    "internalType": "uint256",
                    "name": "item",
                    "type": "uint256"
                },
                {
                    "internalType": "uint256",
                    "name": "price",
                    "type": "uint256"
                },
                {
                    "internalType": "bytes32",
                    "name": "status",
                    "type": "bytes32"
                }
            ],
            "stateMutability": "view",
            "type": "function"
        },
        {
            "inputs": [
                {
                    "internalType": "address",
                    "name": "_to",
                    "type": "address"
                },
                {
                    "internalType": "uint256",
                    "name": "_slotID",
                    "type": "uint256"
                }
            ],
            "name": "transfer",
            "outputs": [],
            "stateMutability": "nonpayable",
            "type": "function"
        },
        {
            "inputs": [
                {
                    "internalType": "address",
                    "name": "_from",
                    "type": "address"
                },
                {
                    "internalType": "address",
                    "name": "_to",
                    "type": "address"
                },
                {
                    "internalType": "uint256",
                    "name": "_slotID",
                    "type": "uint256"
                }
            ],
            "name": "transferFrom",
            "outputs": [],
            "stateMutability": "nonpayable",
            "type": "function"
        },
        {
            "inputs": [
                {
                    "internalType": "address",
                    "name": "newOwner",
                    "type": "address"
                }
            ],
            "name": "transferOwnership",
            "outputs": [],
            "stateMutability": "nonpayable",
            "type": "function"
        },
        {
            "inputs": [
                {
                    "internalType": "uint256",
                    "name": "_slotID",
                    "type": "uint256"
                }
            ],
            "name": "watering",
            "outputs": [],
            "stateMutability": "nonpayable",
            "type": "function"
        },
        {
            "inputs": [
                {
                    "internalType": "uint256",
                    "name": "_slotID",
                    "type": "uint256"
                }
            ],
            "name": "weeding",
            "outputs": [],
            "stateMutability": "nonpayable",
            "type": "function"
        },
        {
            "inputs": [],
            "name": "withdraw",
            "outputs": [],
            "stateMutability": "nonpayable",
            "type": "function"
        }
    ],
    "bytecode": "608060405266038d7ea4c68000600e5560006011553480156200002157600080fd5b506040518060400160405280600481526020016314db1bdd60e21b8152506040518060400160405280600381526020016246414d60e81b81525060006200006d620000ef60201b60201c565b600580546001600160a01b0319166001600160a01b038316908117909155604051919250906000907f8be0079c531659141344cd1fd0a4f28419497f9722a3daafe3b4186f6b6457e0908290a3508151620000d0906008906020850190620000f3565b508051620000e6906009906020840190620000f3565b505050620001d6565b3390565b828054620001019062000199565b90600052602060002090601f01602090048101928262000125576000855562000170565b82601f106200014057805160ff191683800117855562000170565b8280016001018555821562000170579182015b828111156200017057825182559160200191906001019062000153565b506200017e92915062000182565b5090565b5b808211156200017e576000815560010162000183565b600281046001821680620001ae57607f821691505b60208210811415620001d057634e487b7160e01b600052602260045260246000fd5b50919050565b6134a080620001e66000396000f3fe6080604052600436106102c95760003560e01c806386481d4011610175578063ab2874cb116100dc578063d13e736a11610095578063e985e9c51161006f578063e985e9c514610896578063eb320915146108b6578063f2fde38b146108d6578063fe41146b146108f6576102c9565b8063d13e736a14610829578063ddc6326214610856578063e1928ac914610876576102c9565b8063ab2874cb14610776578063b2e6ceeb14610789578063b88d4fde146107a9578063b99c6e0a146107c9578063c87b56dd146107e9578063ccf670f814610809576102c9565b80639bcf5f0c1161012e5780639bcf5f0c146106b6578063a22cb465146106d6578063a5c14ec7146106f6578063a7a624e014610716578063a9059cbb14610736578063a9bf928f14610756576102c9565b806386481d401461060c5780638871c9c51461062c5780638da5cb5b1461064c57806392658a281461066157806395d89b41146106815780639881559414610696576102c9565b806323b872dd11610234578063575c25b0116101ed5780636352211e116101c75780636352211e1461059757806370a08231146105b7578063715018a6146105d757806372e6eaa6146105ec576102c9565b8063575c25b01461051d578063580405ba1461054a5780636099804d14610577576102c9565b806323b872dd1461046257806327adc95e146104825780632db25e0514610495578063387dd9e9146104b55780633ccfd60b146104e857806342842e0e146104fd576102c9565b80630c10e499116102865780630c10e499146103a85780630c493fba146103c85780630d79e835146103e857806310e96da5146103fd5780631d5ec3cb1461041d5780631e6c598e14610432576102c9565b806301ffc9a7146102ce57806302d2838b1461030457806306fdde0314610319578063081812fc1461033b578063095ea7b31461036857806309ec6cc714610388575b600080fd5b3480156102da57600080fd5b506102ee6102e9366004612cd1565b61090b565b6040516102fb9190612eec565b60405180910390f35b610317610312366004612d09565b610953565b005b34801561032557600080fd5b5061032e610a86565b6040516102fb9190612ef7565b34801561034757600080fd5b5061035b610356366004612d09565b610b18565b6040516102fb9190612df0565b34801561037457600080fd5b50610317610383366004612ca8565b610b5b565b34801561039457600080fd5b506103176103a3366004612d09565b610bda565b3480156103b457600080fd5b5061035b6103c3366004612d09565b610ccf565b3480156103d457600080fd5b506103176103e3366004612d21565b610cea565b3480156103f457600080fd5b50610317610dbc565b34801561040957600080fd5b506102ee610418366004612b35565b610e59565b34801561042957600080fd5b50610317610f19565b34801561043e57600080fd5b5061045261044d366004612d09565b610f3d565b6040516102fb9493929190612e41565b34801561046e57600080fd5b5061031761047d366004612b67565b610f6e565b610317610490366004612d09565b610fa4565b3480156104a157600080fd5b506104526104b0366004612d09565b611074565b3480156104c157600080fd5b506104d56104d0366004612d09565b6110c7565b6040516102fb97969594939291906132b1565b3480156104f457600080fd5b50610317611119565b34801561050957600080fd5b50610317610518366004612b67565b61119b565b34801561052957600080fd5b5061053d610538366004612b1b565b6111bb565b6040516102fb9190612eb4565b34801561055657600080fd5b5061056a610565366004612b1b565b6112af565b6040516102fb9190613201565b34801561058357600080fd5b50610317610592366004612d09565b6112c1565b3480156105a357600080fd5b5061035b6105b2366004612d09565b6113b6565b3480156105c357600080fd5b5061056a6105d2366004612b1b565b6113d1565b3480156105e357600080fd5b506103176113ec565b3480156105f857600080fd5b506102ee610607366004612b35565b611475565b34801561061857600080fd5b5061056a610627366004612d09565b6114ee565b34801561063857600080fd5b5061056a610647366004612b1b565b611552565b34801561065857600080fd5b5061035b611564565b34801561066d57600080fd5b5061031761067c366004612d21565b611573565b34801561068d57600080fd5b5061032e611719565b3480156106a257600080fd5b5061056a6106b1366004612d09565b611728565b3480156106c257600080fd5b506103176106d1366004612d09565b611749565b3480156106e257600080fd5b506103176106f1366004612c6e565b611860565b34801561070257600080fd5b50610317610711366004612d09565b61192e565b34801561072257600080fd5b5061035b610731366004612ca8565b611a17565b34801561074257600080fd5b50610317610751366004612ca8565b611a4f565b34801561076257600080fd5b506104d5610771366004612d09565b611a7f565b610317610784366004612d09565b611ac0565b34801561079557600080fd5b506103176107a4366004612d09565b611ae2565b3480156107b557600080fd5b506103176107c4366004612ba2565b611b21565b3480156107d557600080fd5b506103176107e4366004612d09565b611b5a565b3480156107f557600080fd5b5061032e610804366004612d09565b611bde565b34801561081557600080fd5b50610317610824366004612d09565b611c61565b34801561083557600080fd5b50610849610844366004612b1b565b611ca5565b6040516102fb9190612e67565b34801561086257600080fd5b50610317610871366004612d09565b611d19565b34801561088257600080fd5b50610317610891366004612d42565b611e73565b3480156108a257600080fd5b506102ee6108b1366004612b35565b611f72565b3480156108c257600080fd5b506103176108d1366004612d09565b611fa0565b3480156108e257600080fd5b506103176108f1366004612b1b565b612063565b34801561090257600080fd5b5061056a612124565b60006001600160e01b031982166380ac58cd60e01b148061093c57506001600160e01b03198216635b5e139f60e01b145b8061094b575061094b8261212a565b90505b919050565b600081815260106020908152604091829020825160808101845281546001600160a01b03168152600182015492810192909252600281015492820192909252600390910154606082018190526327b832b760e11b146109cd5760405162461bcd60e51b81526004016109c490612fa2565b60405180910390fd5b806040015134146109dd57600080fd5b805160408083015190516001600160a01b039092169181156108fc0291906000818181858888f19350505050158015610a1a573d6000803e3d6000fd5b50610a2a30338360200151610f6e565b6000828152601060205260409081902067115e1958dd5d195960c21b600390910155517f4d38ed2c5ea671a5ccddc331f0ebebd94a60aaf6e572543497485d4d148f9edf90610a7a90849061324b565b60405180910390a15050565b606060088054610a9590613388565b80601f0160208091040260200160405190810160405280929190818152602001828054610ac190613388565b8015610b0e5780601f10610ae357610100808354040283529160200191610b0e565b820191906000526020600020905b815481529060010190602001808311610af157829003601f168201915b5050505050905090565b6000610b2382612143565b610b3f5760405162461bcd60e51b81526004016109c4906130e0565b506000908152600c60205260409020546001600160a01b031690565b60008181526002602052604090205481906001600160a01b03163314610b8057600080fd5b6000828152600f602052604080822080546001600160a01b0319166001600160a01b0387169081179091559051849233917f8c5be1e5ebec7d5bd14f71427d1e84f3dd0314c0f7b2291e5b200ac8c7c3b9259190a4505050565b600081815260106020908152604091829020825160808101845281546001600160a01b03168082526001830154938201939093526002820154938101939093526003015460608301523314610c415760405162461bcd60e51b81526004016109c490612fce565b80606001516327b832b760e11b14610c6b5760405162461bcd60e51b81526004016109c490612fa2565b610c7e3082600001518360200151610f6e565b600082815260106020526040908190206810d85b98d95b1b195960ba1b600390910155517f4d38ed2c5ea671a5ccddc331f0ebebd94a60aaf6e572543497485d4d148f9edf90610a7a908490613265565b6002602052600090815260409020546001600160a01b031681565b610cf5333084610f6e565b6040805160808101825233815260208082018581528284018581526327b832b760e11b606085019081526011805460009081526010909552958420945185546001600160a01b0319166001600160a01b0390911617855591516001808601919091559051600285015590516003909301929092558254919291610d799084906132e3565b90915550506011547f4d38ed2c5ea671a5ccddc331f0ebebd94a60aaf6e572543497485d4d148f9edf90610daf9060019061332e565b604051610a7a9190613280565b610dc4612160565b6001600160a01b0316610dd5611564565b6001600160a01b031614610dfb5760405162461bcd60e51b81526004016109c49061312c565b60075415610e0857600080fd5b600780546001818101835560008381527fa66cc928b5edb82af9bd49922954155ab7b0942694bea4ce44661d9a8736c68892830155825480820184556005908301558254908101909255600a910155565b6000610e658383612164565b80610e815750816001600160a01b0316836001600160a01b0316145b80610e9357506001600160a01b038316155b80610ea557506001600160a01b038216155b15610eb257506000610f13565b506001600160a01b038083166000818152602081815260408083208054600181810183559185528385200180549688166001600160a01b03199788168117909155845290832080548083018255908452919092200180549093169091179091555b92915050565b3360009081526004602052604090205415610f3357600080fd5b610f3b612205565b565b60106020526000908152604090208054600182015460028301546003909301546001600160a01b0390921692909184565b60008181526002602052604090205481906001600160a01b03163314610f9357600080fd5b610f9e848484612224565b50505050565b600e543414610fb257600080fd5b600060018281548110610fd557634e487b7160e01b600052603260045260246000fd5b60009182526020909120600780549202019150610ff49060019061332e565b61100182600601546114ee565b1061100b57600080fd5b600761101a82600601546114ee565b8154811061103857634e487b7160e01b600052603260045260246000fd5b6000918252602082200154600683015560405133917ffa75433b62fa9aa3569a596aca6569a4687697e876289d01131561272e0e904891a25050565b600090815260106020908152604091829020825160808101845281546001600160a01b03168082526001830154938201849052600283015494820185905260039092015460609091018190529093919291565b600181815481106110d757600080fd5b600091825260209091206007909102018054600182015460028301546003840154600485015460058601546006909601549496509294919390929160ff169087565b611121612160565b6001600160a01b0316611132611564565b6001600160a01b0316146111585760405162461bcd60e51b81526004016109c49061312c565b611160611564565b6001600160a01b03166108fc479081150290604051600060405180830381858888f19350505050158015611198573d6000803e3d6000fd5b50565b6111b683838360405180602001604052806000815250611b21565b505050565b6001600160a01b0381166000908152600460205260408120546060919067ffffffffffffffff8111156111fe57634e487b7160e01b600052604160045260246000fd5b604051908082528060200260200182016040528015611227578160200160208202803683370190505b5090506000805b6001548110156112a6576000818152600260205260409020546001600160a01b0386811691161415611294578083838151811061127b57634e487b7160e01b600052603260045260246000fd5b602090810291909101015281611290816133c3565b9250505b8061129e816133c3565b91505061122e565b50909392505050565b60036020526000908152604090205481565b6112c9612160565b6001600160a01b03166112da611564565b6001600160a01b0316146113005760405162461bcd60e51b81526004016109c49061312c565b6040805160e08101825260008082526020808301828152838501838152606085018481526080860185815260a0870186815260c088018781528a8852600696879052968990209751885593516001880155915160028701555160038601555160048501555160058401805460ff19169115159190911790559051910155517fda5207af4ca2a8f617e7b6b247ccb5495c765df30e98c115443a569b8ac3d264906113ab908390613201565b60405180910390a150565b6000908152600260205260409020546001600160a01b031690565b6001600160a01b031660009081526004602052604090205490565b6113f4612160565b6001600160a01b0316611405611564565b6001600160a01b03161461142b5760405162461bcd60e51b81526004016109c49061312c565b6005546040516000916001600160a01b0316907f8be0079c531659141344cd1fd0a4f28419497f9722a3daafe3b4186f6b6457e0908390a3600580546001600160a01b0319169055565b60006114818383612164565b158061149e5750816001600160a01b0316836001600160a01b0316145b806114b057506001600160a01b038316155b806114c257506001600160a01b038216155b156114cf57506000610f13565b6114d983836122f7565b506114e482846122f7565b5060019392505050565b6000805b600754811015611548576007818154811061151d57634e487b7160e01b600052603260045260246000fd5b906000526020600020015483101561153657905061094e565b80611540816133c3565b9150506114f2565b5050600754919050565b60046020526000908152604090205481565b6005546001600160a01b031690565b60008181526002602052604090205481906001600160a01b0316331461159857600080fd5b6000600183815481106115bb57634e487b7160e01b600052603260045260246000fd5b90600052602060002090600702019050806000015460001480156115fe575060008481526006602090815260408083206002015433845260039092529091205410155b801561162b575060008481526006602081905260409091208101549082015461162890600a6132e3565b10155b61163457600080fd5b600084815260066020908152604080832060020154338452600390925282205461165e919061332e565b3360009081526003602090815260408083208490558883526006909152902080548455600180820154908501556002908101549084015560058301805460ff1916905590506116ac8261242a565b6116b582612456565b6116be82612491565b336001600160a01b031660008051602061344b8339815191528587856001015486600201548760030154886004015460008a600601548a60405161170a9998979695949392919061320a565b60405180910390a25050505050565b606060098054610a9590613388565b6007818154811061173857600080fd5b600091825260209091200154905081565b60008181526002602052604090205461176c9033906001600160a01b03166124c7565b61177557600080fd5b60006001828154811061179857634e487b7160e01b600052603260045260246000fd5b906000526020600020906007020190506117b1816124e9565b6117ba57600080fd5b600581015460ff16156117cc57600080fd5b6002810154336000908152600360205260409020546117eb91906132e3565b3360008181526003602081905260409182902093845560058501805460ff19166001908117909155855486820154600288015493880154600489015460068a015498549651979860008051602061344b83398151915298611854988d989697959695929161320a565b60405180910390a25050565b611868612160565b6001600160a01b0316826001600160a01b031614156118995760405162461bcd60e51b81526004016109c490613014565b80600d60006118a6612160565b6001600160a01b03908116825260208083019390935260409182016000908120918716808252919093529120805460ff1916921515929092179091556118ea612160565b6001600160a01b03167f17307eab39ab6107e8899845ad3d59bd9653f200f220920489ca2b5937696c31836040516119229190612eec565b60405180910390a35050565b60008181526002602052604090205481906001600160a01b0316331461195357600080fd5b60006001838154811061197657634e487b7160e01b600052603260045260246000fd5b9060005260206000209060070201905061198f816124e9565b1580156119a057506119a0816124f3565b6119a957600080fd5b6119b281612491565b805460018201546002830154600380850154600486015460068701543360008181526020959095526040808620549051919860008051602061344b83398151915298611a0a988e98929791969095919490939061320a565b60405180910390a2505050565b60006020528160005260406000208181548110611a3357600080fd5b6000918252602090912001546001600160a01b03169150829050565b60008181526002602052604090205481906001600160a01b03163314611a7457600080fd5b6111b6338484612224565b6006602081905260009182526040909120805460018201546002830154600384015460048501546005860154959096015493959294919390929160ff169087565b80600e54611ace919061330f565b3414611ad957600080fd5b611198816124fd565b6000818152600f60205260409020546001600160a01b03163314611b0557600080fd5b6000611b10826113b6565b9050611b1d813384612224565b5050565b611b32611b2c612160565b836126eb565b611b4e5760405162461bcd60e51b81526004016109c4906131b0565b610f9e84848484612770565b60008181526002602052604090205481906001600160a01b03163314611b7f57600080fd5b600060018381548110611ba257634e487b7160e01b600052603260045260246000fd5b90600052602060002090600702019050611bbb816124e9565b158015611bcc5750611bcc816127a3565b611bd557600080fd5b6119b281612456565b6060611be982612143565b611c055760405162461bcd60e51b81526004016109c490613161565b6000611c0f6127ad565b90506000815111611c2f5760405180602001604052806000815250611c5a565b80611c39846127bf565b604051602001611c4a929190612dc1565b6040516020818303038152906040525b9392505050565b611c69612160565b6001600160a01b0316611c7a611564565b6001600160a01b031614611ca05760405162461bcd60e51b81526004016109c49061312c565b600e55565b6001600160a01b03811660009081526020818152604091829020805483518184028101840190945280845260609392830182828015611d0d57602002820191906000526020600020905b81546001600160a01b03168152600190910190602001808311611cef575b50505050509050919050565b60008181526002602052604090205481906001600160a01b03163314611d3e57600080fd5b600060018381548110611d6157634e487b7160e01b600052603260045260246000fd5b90600052602060002090600702019050611d7a816124e9565b611d8357600080fd5b600181015460038201546002911015611da45780611da0816133c3565b9150505b816001015482600401541115611dc25780611dbe816133c3565b9150505b600582015460ff16611ddc5780611dd8816133c3565b9150505b6000818360020154611dee919061330f565b33600090815260036020526040902054611e0891906132e3565b336000908152600360205260408120829055845590506005821415611e3f57600683018054906000611e39836133c3565b91905055505b6006830154604051339160008051602061344b8339815191529161170a918991600091829182918291829182918c9061320a565b611e7b612160565b6001600160a01b0316611e8c611564565b6001600160a01b031614611eb25760405162461bcd60e51b81526004016109c49061312c565b6040805160e08101825285815260208082018681528284018681526000606085018181526080860182815260a0870183815260c088018a81528d85526006978890529389902097518855945160018801559251600287015551600386015590516004850155905160058401805460ff191691151591909117905551910155517f0a99a7515cce8c21202b55bdd8c634a45cf0fc5ffc970a5faf445f6e2666505790611f64908690869086908690613296565b60405180910390a150505050565b6001600160a01b039182166000908152600d6020908152604080832093909416825291909152205460ff1690565b611fa8612160565b6001600160a01b0316611fb9611564565b6001600160a01b031614611fdf5760405162461bcd60e51b81526004016109c49061312c565b6007541580612025575060078054611ff99060019061332e565b8154811061201757634e487b7160e01b600052603260045260246000fd5b906000526020600020015481115b61202e57600080fd5b600780546001810182556000919091527fa66cc928b5edb82af9bd49922954155ab7b0942694bea4ce44661d9a8736c6880155565b61206b612160565b6001600160a01b031661207c611564565b6001600160a01b0316146120a25760405162461bcd60e51b81526004016109c49061312c565b6001600160a01b0381166120c85760405162461bcd60e51b81526004016109c490612f5c565b6005546040516001600160a01b038084169216907f8be0079c531659141344cd1fd0a4f28419497f9722a3daafe3b4186f6b6457e090600090a3600580546001600160a01b0319166001600160a01b0392909216919091179055565b60115490565b6001600160e01b031981166301ffc9a760e01b14919050565b6000908152600a60205260409020546001600160a01b0316151590565b3390565b6000805b6001600160a01b0384166000908152602081905260409020548110156121fb576001600160a01b03841660009081526020819052604090208054829081106121c057634e487b7160e01b600052603260045260246000fd5b6000918252602090912001546001600160a01b03848116911614156121e9576001915050610f13565b806121f3816133c3565b915050612168565b5060009392505050565b61220f60066124fd565b33600090815260036020526040902060649055565b6001600160a01b03831660009081526004602052604090205460061061224957600080fd5b6001600160a01b038216600090815260046020526040812080549161226d836133c3565b90915550506001600160a01b038316600090815260046020526040812080549161229683613371565b909155505060008181526002602052604080822080546001600160a01b0319166001600160a01b0386811691821790925591518493918716917fddf252ad1be2c89b69c2b068fc378daa952ba7f163c4a11628f55a4df523b3ef91a4505050565b60006123038383612164565b61230f57506000610f13565b600061231b84846128da565b6001600160a01b0385166000908152602081905260409020805491925061234360018361332e565b8154811061236157634e487b7160e01b600052603260045260246000fd5b60009182526020808320909101546001600160a01b0388811684529183905260409092208054919092169190849081106123ab57634e487b7160e01b600052603260045260246000fd5b600091825260208083209190910180546001600160a01b0319166001600160a01b03948516179055918716815290819052604090208054806123fd57634e487b7160e01b600052603160045260246000fd5b600082815260209020600019908201810180546001600160a01b0319169055019055506001949350505050565b805460009081526006602052604090206001015461244890426132e3565b63ffffffff16600190910155565b61246e428260010154612469919061332e565b612975565b61247890426132e3565b6124839060646132e3565b63ffffffff16600390910155565b6124a4428260010154612469919061332e565b6124ae90426132e3565b6124b99060646132e3565b63ffffffff16600490910155565b60006124d38383612164565b156124e057506001610f13565b50600092915050565b6001015442101590565b6004015442101590565b60005b818110156126bc57600180546040805160e08101825260008082526020808301828152838501838152606085018481526080860185815260a0870186815260c088018b81528a8c018c559a8752965160078a027fb10e2d527612073b26eecdfd717e6a320cf44b4afac2b0732d9fcbe2b7fa0cf681019190915593517fb10e2d527612073b26eecdfd717e6a320cf44b4afac2b0732d9fcbe2b7fa0cf785015591517fb10e2d527612073b26eecdfd717e6a320cf44b4afac2b0732d9fcbe2b7fa0cf8840155517fb10e2d527612073b26eecdfd717e6a320cf44b4afac2b0732d9fcbe2b7fa0cf9830155517fb10e2d527612073b26eecdfd717e6a320cf44b4afac2b0732d9fcbe2b7fa0cfa82015592517fb10e2d527612073b26eecdfd717e6a320cf44b4afac2b0732d9fcbe2b7fa0cfb8401805491151560ff1990921691909117905594517fb10e2d527612073b26eecdfd717e6a320cf44b4afac2b0732d9fcbe2b7fa0cfc909201919091558281526002845281812080546001600160a01b03191633908117909155815260049093528220805491926126a3836133c3565b91905055505080806126b4906133c3565b915050612500565b5060405133907ffa75433b62fa9aa3569a596aca6569a4687697e876289d01131561272e0e904890600090a250565b60006126f682612143565b6127125760405162461bcd60e51b81526004016109c49061304b565b600061271d836129ae565b9050806001600160a01b0316846001600160a01b031614806127585750836001600160a01b031661274d84610b18565b6001600160a01b0316145b8061276857506127688185611f72565b949350505050565b61277b848484612224565b612787848484846129e3565b610f9e5760405162461bcd60e51b81526004016109c490612f0a565b6003015442101590565b60408051602081019091526000815290565b6060816127e457506040805180820190915260018152600360fc1b602082015261094e565b8160005b811561280e57806127f8816133c3565b91506128079050600a836132fb565b91506127e8565b60008167ffffffffffffffff81111561283757634e487b7160e01b600052604160045260246000fd5b6040519080825280601f01601f191660200182016040528015612861576020820181803683370190505b5090505b84156127685761287660018361332e565b9150612883600a866133de565b61288e9060306132e3565b60f81b8183815181106128b157634e487b7160e01b600052603260045260246000fd5b60200101906001600160f81b031916908160001a9053506128d3600a866132fb565b9450612865565b60008060005b6001600160a01b03851660009081526020819052604090205481101561296d576001600160a01b038516600090815260208190526040902080548290811061293857634e487b7160e01b600052603260045260246000fd5b6000918252602090912001546001600160a01b038581169116141561295b578091505b80612965816133c3565b9150506128e0565b509392505050565b600081334260405160200161298b929190612d9f565b6040516020818303038152906040528051906020012060001c61094b91906133de565b6000818152600a60205260408120546001600160a01b03168061094b5760405162461bcd60e51b81526004016109c490613097565b60006129f7846001600160a01b0316612afe565b15612af357836001600160a01b031663150b7a02612a13612160565b8786866040518563ffffffff1660e01b8152600401612a359493929190612e04565b602060405180830381600087803b158015612a4f57600080fd5b505af1925050508015612a7f575060408051601f3d908101601f19168201909252612a7c91810190612ced565b60015b612ad9573d808015612aad576040519150601f19603f3d011682016040523d82523d6000602084013e612ab2565b606091505b508051612ad15760405162461bcd60e51b81526004016109c490612f0a565b805181602001fd5b6001600160e01b031916630a85bd0160e11b149050612768565b506001949350505050565b3b151590565b80356001600160a01b038116811461094e57600080fd5b600060208284031215612b2c578081fd5b611c5a82612b04565b60008060408385031215612b47578081fd5b612b5083612b04565b9150612b5e60208401612b04565b90509250929050565b600080600060608486031215612b7b578081fd5b612b8484612b04565b9250612b9260208501612b04565b9150604084013590509250925092565b60008060008060808587031215612bb7578081fd5b612bc085612b04565b93506020612bcf818701612b04565b935060408601359250606086013567ffffffffffffffff80821115612bf2578384fd5b818801915088601f830112612c05578384fd5b813581811115612c1757612c1761341e565b604051601f8201601f1916810185018381118282101715612c3a57612c3a61341e565b60405281815283820185018b1015612c50578586fd5b81858501868301379081019093019390935250939692955090935050565b60008060408385031215612c80578182fd5b612c8983612b04565b915060208301358015158114612c9d578182fd5b809150509250929050565b60008060408385031215612cba578182fd5b612cc383612b04565b946020939093013593505050565b600060208284031215612ce2578081fd5b8135611c5a81613434565b600060208284031215612cfe578081fd5b8151611c5a81613434565b600060208284031215612d1a578081fd5b5035919050565b60008060408385031215612d33578182fd5b50508035926020909101359150565b60008060008060808587031215612d57578384fd5b5050823594602084013594506040840135936060013592509050565b60008151808452612d8b816020860160208601613345565b601f01601f19169290920160200192915050565b60609290921b6bffffffffffffffffffffffff19168252601482015260340190565b60008351612dd3818460208801613345565b835190830190612de7818360208801613345565b01949350505050565b6001600160a01b0391909116815260200190565b6001600160a01b0385811682528416602082015260408101839052608060608201819052600090612e3790830184612d73565b9695505050505050565b6001600160a01b0394909416845260208401929092526040830152606082015260800190565b6020808252825182820181905260009190848201906040850190845b81811015612ea85783516001600160a01b031683529284019291840191600101612e83565b50909695505050505050565b6020808252825182820181905260009190848201906040850190845b81811015612ea857835183529284019291840191600101612ed0565b901515815260200190565b600060208252611c5a6020830184612d73565b60208082526032908201527f4552433732313a207472616e7366657220746f206e6f6e20455243373231526560408201527131b2b4bb32b91034b6b83632b6b2b73a32b960711b606082015260800190565b60208082526026908201527f4f776e61626c653a206e6577206f776e657220697320746865207a65726f206160408201526564647265737360d01b606082015260800190565b6020808252601290820152712a3930b2329034b9903737ba1027b832b71760711b604082015260600190565b60208082526026908201527f54726164652063616e2062652063616e63656c6c6564206f6e6c79206279207060408201526537b9ba32b91760d11b606082015260800190565b60208082526019908201527f4552433732313a20617070726f766520746f2063616c6c657200000000000000604082015260600190565b6020808252602c908201527f4552433732313a206f70657261746f7220717565727920666f72206e6f6e657860408201526b34b9ba32b73a103a37b5b2b760a11b606082015260800190565b60208082526029908201527f4552433732313a206f776e657220717565727920666f72206e6f6e657869737460408201526832b73a103a37b5b2b760b91b606082015260800190565b6020808252602c908201527f4552433732313a20617070726f76656420717565727920666f72206e6f6e657860408201526b34b9ba32b73a103a37b5b2b760a11b606082015260800190565b6020808252818101527f4f776e61626c653a2063616c6c6572206973206e6f7420746865206f776e6572604082015260600190565b6020808252602f908201527f4552433732314d657461646174613a2055524920717565727920666f72206e6f60408201526e3732bc34b9ba32b73a103a37b5b2b760891b606082015260800190565b60208082526031908201527f4552433732313a207472616e736665722063616c6c6572206973206e6f74206f6040820152701ddb995c881b9bdc88185c1c1c9bdd9959607a1b606082015260800190565b90815260200190565b988952602089019790975260408801959095526060870193909352608086019190915260a0850152151560c084015260e08301526101008201526101200190565b90815267115e1958dd5d195960c21b602082015260400190565b9081526810d85b98d95b1b195960ba1b602082015260400190565b9081526327b832b760e11b602082015260400190565b93845260208401929092526040830152606082015260800190565b9687526020870195909552604086019390935260608501919091526080840152151560a083015260c082015260e00190565b600082198211156132f6576132f66133f2565b500190565b60008261330a5761330a613408565b500490565b6000816000190483118215151615613329576133296133f2565b500290565b600082821015613340576133406133f2565b500390565b60005b83811015613360578181015183820152602001613348565b83811115610f9e5750506000910152565b600081613380576133806133f2565b506000190190565b60028104600182168061339c57607f821691505b602082108114156133bd57634e487b7160e01b600052602260045260246000fd5b50919050565b60006000198214156133d7576133d76133f2565b5060010190565b6000826133ed576133ed613408565b500690565b634e487b7160e01b600052601160045260246000fd5b634e487b7160e01b600052601260045260246000fd5b634e487b7160e01b600052604160045260246000fd5b6001600160e01b03198116811461119857600080fdfe10b6615359775e93e7a308e2ee80875d995f6026b4a0e1f4e2dbe995c773fab7a26469706673582212200fe86dcc8fc6caa239d9b03a411287f7197a9d84b86aab3893cae6d2cd39749064736f6c63430008000033",
    "sourcePath": "/Users/Cirno/Desktop/distributed_ether_farm-main/contracts/SlotMarket.sol",
    "compiler": {
        "name": "solc",
        "version": "0.8.0+commit.c7dfd78e"
    },
    "functionHashes": {
        "OwnerMoneyCount(address)": "580405ba",
        "OwnerSlotCount(address)": "8871c9c5",
        "UpgradeSlot(uint256)": "27adc95e",
        "addFriend(address,address)": "10e96da5",
        "addInLevelList(uint256)": "eb320915",
        "approve(address,uint256)": "095ea7b3",
        "balanceOf(address)": "70a08231",
        "buySlot(uint256)": "ab2874cb",
        "cancelTrade(uint256)": "09ec6cc7",
        "createFarm()": "1d5ec3cb",
        "cropsList(uint256)": "a9bf928f",
        "delInCropsList(uint256)": "6099804d",
        "deleteFriend(address,address)": "72e6eaa6",
        "executeTrade(uint256)": "02d2838b",
        "friendsDict(address,uint256)": "a7a624e0",
        "getApproved(uint256)": "081812fc",
        "getFarmByOwner(address)": "575c25b0",
        "getFriendsByOwner(address)": "d13e736a",
        "getLevel(uint256)": "86481d40",
        "getTrade(uint256)": "2db25e05",
        "getTradeCounter()": "fe41146b",
        "harvest(uint256)": "ddc63262",
        "initLevelList()": "0d79e835",
        "isApprovedForAll(address,address)": "e985e9c5",
        "levelList(uint256)": "98815594",
        "modInCropsList(uint256,uint256,uint256,uint256)": "e1928ac9",
        "name()": "06fdde03",
        "openTrade(uint256,uint256)": "0c493fba",
        "owner()": "8da5cb5b",
        "ownerOf(uint256)": "6352211e",
        "plant(uint256,uint256)": "92658a28",
        "renounceOwnership()": "715018a6",
        "safeTransferFrom(address,address,uint256)": "42842e0e",
        "safeTransferFrom(address,address,uint256,bytes)": "b88d4fde",
        "setApprovalForAll(address,bool)": "a22cb465",
        "setLevelUpFee(uint256)": "ccf670f8",
        "slotToOwner(uint256)": "0c10e499",
        "slots(uint256)": "387dd9e9",
        "steal(uint256)": "9bcf5f0c",
        "supportsInterface(bytes4)": "01ffc9a7",
        "symbol()": "95d89b41",
        "takeOwnership(uint256)": "b2e6ceeb",
        "tokenURI(uint256)": "c87b56dd",
        "trades(uint256)": "1e6c598e",
        "transfer(address,uint256)": "a9059cbb",
        "transferFrom(address,address,uint256)": "23b872dd",
        "transferOwnership(address)": "f2fde38b",
        "watering(uint256)": "b99c6e0a",
        "weeding(uint256)": "a5c14ec7",
        "withdraw()": "3ccfd60b"
    },
    "gasEstimates": {
        "creation": {
            "codeDepositCost": "2694400",
            "executionCost": "infinite",
            "totalCost": "infinite"
        },
        "external": {
            "OwnerMoneyCount(address)": "1342",
            "OwnerSlotCount(address)": "1320",
            "UpgradeSlot(uint256)": "infinite",
            "addFriend(address,address)": "infinite",
            "addInLevelList(uint256)": "45476",
            "approve(address,uint256)": "24209",
            "balanceOf(address)": "1359",
            "buySlot(uint256)": "infinite",
            "cancelTrade(uint256)": "92029",
            "createFarm()": "infinite",
            "cropsList(uint256)": "6372",
            "delInCropsList(uint256)": "53521",
            "deleteFriend(address,address)": "infinite",
            "executeTrade(uint256)": "infinite",
            "friendsDict(address,uint256)": "2319",
            "getApproved(uint256)": "2268",
            "getFarmByOwner(address)": "infinite",
            "getFriendsByOwner(address)": "infinite",
            "getLevel(uint256)": "infinite",
            "getTrade(uint256)": "3922",
            "getTradeCounter()": "1160",
            "harvest(uint256)": "infinite",
            "initLevelList()": "109483",
            "isApprovedForAll(address,address)": "infinite",
            "levelList(uint256)": "2152",
            "modInCropsList(uint256,uint256,uint256,uint256)": "114429",
            "name()": "infinite",
            "openTrade(uint256,uint256)": "172054",
            "owner()": "1160",
            "ownerOf(uint256)": "1280",
            "plant(uint256,uint256)": "infinite",
            "renounceOwnership()": "24363",
            "safeTransferFrom(address,address,uint256)": "infinite",
            "safeTransferFrom(address,address,uint256,bytes)": "infinite",
            "setApprovalForAll(address,bool)": "infinite",
            "setLevelUpFee(uint256)": "21309",
            "slotToOwner(uint256)": "1259",
            "slots(uint256)": "7156",
            "steal(uint256)": "infinite",
            "supportsInterface(bytes4)": "627",
            "symbol()": "infinite",
            "takeOwnership(uint256)": "67854",
            "tokenURI(uint256)": "infinite",
            "trades(uint256)": "3880",
            "transfer(address,uint256)": "67105",
            "transferFrom(address,address,uint256)": "infinite",
            "transferOwnership(address)": "24600",
            "watering(uint256)": "infinite",
            "weeding(uint256)": "infinite",
            "withdraw()": "infinite"
        }
    }
}