{
    "contractName": "SlotOwnership",
    "abi": [
        {
            "inputs": [],
            "stateMutability": "nonpayable",
            "type": "constructor"
        },
        {
            "anonymous": false,
            "inputs": [
                {
                    "indexed": true,
                    "internalType": "address",
                    "name": "owner",
                    "type": "address"
                },
                {
                    "indexed": true,
                    "internalType": "address",
                    "name": "approved",
                    "type": "address"
                },
                {
                    "indexed": true,
                    "internalType": "uint256",
                    "name": "tokenId",
                    "type": "uint256"
                }
            ],
            "name": "Approval",
            "type": "event"
        },
        {
            "anonymous": false,
            "inputs": [
                {
                    "indexed": true,
                    "internalType": "address",
                    "name": "owner",
                    "type": "address"
                },
                {
                    "indexed": true,
                    "internalType": "address",
                    "name": "operator",
                    "type": "address"
                },
                {
                    "indexed": false,
                    "internalType": "bool",
                    "name": "approved",
                    "type": "bool"
                }
            ],
            "name": "ApprovalForAll",
            "type": "event"
        },
        {
            "anonymous": false,
            "inputs": [
                {
                    "indexed": true,
                    "internalType": "address",
                    "name": "previousOwner",
                    "type": "address"
                },
                {
                    "indexed": true,
                    "internalType": "address",
                    "name": "newOwner",
                    "type": "address"
                }
            ],
            "name": "OwnershipTransferred",
            "type": "event"
        },
        {
            "anonymous": false,
            "inputs": [
                {
                    "indexed": true,
                    "internalType": "address",
                    "name": "from",
                    "type": "address"
                },
                {
                    "indexed": true,
                    "internalType": "address",
                    "name": "to",
                    "type": "address"
                },
                {
                    "indexed": true,
                    "internalType": "uint256",
                    "name": "tokenId",
                    "type": "uint256"
                }
            ],
            "name": "Transfer",
            "type": "event"
        },
        {
            "anonymous": false,
            "inputs": [
                {
                    "indexed": true,
                    "internalType": "address",
                    "name": "addr",
                    "type": "address"
                }
            ],
            "name": "createSlotEvent",
            "type": "event"
        },
        {
            "anonymous": false,
            "inputs": [
                {
                    "indexed": false,
                    "internalType": "uint256",
                    "name": "cropID",
                    "type": "uint256"
                }
            ],
            "name": "deleteCropList",
            "type": "event"
        },
        {
            "anonymous": false,
            "inputs": [
                {
                    "indexed": false,
                    "internalType": "uint256",
                    "name": "cropID",
                    "type": "uint256"
                },
                {
                    "indexed": false,
                    "internalType": "uint256",
                    "name": "grow_time",
                    "type": "uint256"
                },
                {
                    "indexed": false,
                    "internalType": "uint256",
                    "name": "price",
                    "type": "uint256"
                },
                {
                    "indexed": false,
                    "internalType": "uint256",
                    "name": "exp",
                    "type": "uint256"
                }
            ],
            "name": "updateCropList",
            "type": "event"
        },
        {
            "anonymous": false,
            "inputs": [
                {
                    "indexed": true,
                    "internalType": "address",
                    "name": "owner",
                    "type": "address"
                },
                {
                    "indexed": false,
                    "internalType": "uint256",
                    "name": "slotID",
                    "type": "uint256"
                },
                {
                    "indexed": false,
                    "internalType": "uint256",
                    "name": "cropID",
                    "type": "uint256"
                },
                {
                    "indexed": false,
                    "internalType": "uint256",
                    "name": "grow_time",
                    "type": "uint256"
                },
                {
                    "indexed": false,
                    "internalType": "uint256",
                    "name": "price",
                    "type": "uint256"
                },
                {
                    "indexed": false,
                    "internalType": "uint256",
                    "name": "dry_time",
                    "type": "uint256"
                },
                {
                    "indexed": false,
                    "internalType": "uint256",
                    "name": "grass_time",
                    "type": "uint256"
                },
                {
                    "indexed": false,
                    "internalType": "bool",
                    "name": "stealed",
                    "type": "bool"
                },
                {
                    "indexed": false,
                    "internalType": "uint256",
                    "name": "exp",
                    "type": "uint256"
                },
                {
                    "indexed": false,
                    "internalType": "uint256",
                    "name": "balance",
                    "type": "uint256"
                }
            ],
            "name": "updateSlot",
            "type": "event"
        },
        {
            "inputs": [
                {
                    "internalType": "address",
                    "name": "",
                    "type": "address"
                }
            ],
            "name": "OwnerMoneyCount",
            "outputs": [
                {
                    "internalType": "uint256",
                    "name": "",
                    "type": "uint256"
                }
            ],
            "stateMutability": "view",
            "type": "function"
        },
        {
            "inputs": [
                {
                    "internalType": "address",
                    "name": "",
                    "type": "address"
                }
            ],
            "name": "OwnerSlotCount",
            "outputs": [
                {
                    "internalType": "uint256",
                    "name": "",
                    "type": "uint256"
                }
            ],
            "stateMutability": "view",
            "type": "function"
        },
        {
            "inputs": [
                {
                    "internalType": "uint256",
                    "name": "_slotID",
                    "type": "uint256"
                }
            ],
            "name": "UpgradeSlot",
            "outputs": [],
            "stateMutability": "payable",
            "type": "function"
        },
        {
            "inputs": [
                {
                    "internalType": "address",
                    "name": "owner",
                    "type": "address"
                },
                {
                    "internalType": "address",
                    "name": "friend",
                    "type": "address"
                }
            ],
            "name": "addFriend",
            "outputs": [
                {
                    "internalType": "bool",
                    "name": "",
                    "type": "bool"
                }
            ],
            "stateMutability": "nonpayable",
            "type": "function"
        },
        {
            "inputs": [
                {
                    "internalType": "uint256",
                    "name": "_exp",
                    "type": "uint256"
                }
            ],
            "name": "addInLevelList",
            "outputs": [],
            "stateMutability": "nonpayable",
            "type": "function"
        },
        {
            "inputs": [
                {
                    "internalType": "address",
                    "name": "_to",
                    "type": "address"
                },
                {
                    "internalType": "uint256",
                    "name": "_slotID",
                    "type": "uint256"
                }
            ],
            "name": "approve",
            "outputs": [],
            "stateMutability": "nonpayable",
            "type": "function"
        },
        {
            "inputs": [
                {
                    "internalType": "address",
                    "name": "_owner",
                    "type": "address"
                }
            ],
            "name": "balanceOf",
            "outputs": [
                {
                    "internalType": "uint256",
                    "name": "_balance",
                    "type": "uint256"
                }
            ],
            "stateMutability": "view",
            "type": "function"
        },
        {
            "inputs": [
                {
                    "internalType": "uint256",
                    "name": "_num",
                    "type": "uint256"
                }
            ],
            "name": "buySlot",
            "outputs": [],
            "stateMutability": "payable",
            "type": "function"
        },
        {
            "inputs": [],
            "name": "createFarm",
            "outputs": [],
            "stateMutability": "nonpayable",
            "type": "function"
        },
        {
            "inputs": [
                {
                    "internalType": "uint256",
                    "name": "",
                    "type": "uint256"
                }
            ],
            "name": "cropsList",
            "outputs": [
                {
                    "internalType": "uint256",
                    "name": "cropID",
                    "type": "uint256"
                },
                {
                    "internalType": "uint256",
                    "name": "grow_time",
                    "type": "uint256"
                },
                {
                    "internalType": "uint256",
                    "name": "price",
                    "type": "uint256"
                },
                {
                    "internalType": "uint256",
                    "name": "dry_time",
                    "type": "uint256"
                },
                {
                    "internalType": "uint256",
                    "name": "grass_time",
                    "type": "uint256"
                },
                {
                    "internalType": "bool",
                    "name": "stealed",
                    "type": "bool"
                },
                {
                    "internalType": "uint256",
                    "name": "exp",
                    "type": "uint256"
                }
            ],
            "stateMutability": "view",
            "type": "function"
        },
        {
            "inputs": [
                {
                    "internalType": "uint256",
                    "name": "_cropID",
                    "type": "uint256"
                }
            ],
            "name": "delInCropsList",
            "outputs": [],
            "stateMutability": "nonpayable",
            "type": "function"
        },
        {
            "inputs": [
                {
                    "internalType": "address",
                    "name": "owner",
                    "type": "address"
                },
                {
                    "internalType": "address",
                    "name": "friend",
                    "type": "address"
                }
            ],
            "name": "deleteFriend",
            "outputs": [
                {
                    "internalType": "bool",
                    "name": "",
                    "type": "bool"
                }
            ],
            "stateMutability": "nonpayable",
            "type": "function"
        },
        {
            "inputs": [
                {
                    "internalType": "address",
                    "name": "",
                    "type": "address"
                },
                {
                    "internalType": "uint256",
                    "name": "",
                    "type": "uint256"
                }
            ],
            "name": "friendsDict",
            "outputs": [
                {
                    "internalType": "address",
                    "name": "",
                    "type": "address"
                }
            ],
            "stateMutability": "view",
            "type": "function"
        },
        {
            "inputs": [
                {
                    "internalType": "uint256",
                    "name": "tokenId",
                    "type": "uint256"
                }
            ],
            "name": "getApproved",
            "outputs": [
                {
                    "internalType": "address",
                    "name": "",
                    "type": "address"
                }
            ],
            "stateMutability": "view",
            "type": "function"
        },
        {
            "inputs": [
                {
                    "internalType": "address",
                    "name": "_owner",
                    "type": "address"
                }
            ],
            "name": "getFarmByOwner",
            "outputs": [
                {
                    "internalType": "uint256[]",
                    "name": "",
                    "type": "uint256[]"
                }
            ],
            "stateMutability": "view",
            "type": "function"
        },
        {
            "inputs": [
                {
                    "internalType": "address",
                    "name": "owner",
                    "type": "address"
                }
            ],
            "name": "getFriendsByOwner",
            "outputs": [
                {
                    "internalType": "address[]",
                    "name": "",
                    "type": "address[]"
                }
            ],
            "stateMutability": "view",
            "type": "function"
        },
        {
            "inputs": [
                {
                    "internalType": "uint256",
                    "name": "exp",
                    "type": "uint256"
                }
            ],
            "name": "getLevel",
            "outputs": [
                {
                    "internalType": "uint256",
                    "name": "",
                    "type": "uint256"
                }
            ],
            "stateMutability": "view",
            "type": "function"
        },
        {
            "inputs": [
                {
                    "internalType": "uint256",
                    "name": "_slotID",
                    "type": "uint256"
                }
            ],
            "name": "harvest",
            "outputs": [],
            "stateMutability": "nonpayable",
            "type": "function"
        },
        {
            "inputs": [],
            "name": "initLevelList",
            "outputs": [],
            "stateMutability": "nonpayable",
            "type": "function"
        },
        {
            "inputs": [
                {
                    "internalType": "address",
                    "name": "owner",
                    "type": "address"
                },
                {
                    "internalType": "address",
                    "name": "operator",
                    "type": "address"
                }
            ],
            "name": "isApprovedForAll",
            "outputs": [
                {
                    "internalType": "bool",
                    "name": "",
                    "type": "bool"
                }
            ],
            "stateMutability": "view",
            "type": "function"
        },
        {
            "inputs": [
                {
                    "internalType": "uint256",
                    "name": "",
                    "type": "uint256"
                }
            ],
            "name": "levelList",
            "outputs": [
                {
                    "internalType": "uint256",
                    "name": "",
                    "type": "uint256"
                }
            ],
            "stateMutability": "view",
            "type": "function"
        },
        {
            "inputs": [
                {
                    "internalType": "uint256",
                    "name": "_cropID",
                    "type": "uint256"
                },
                {
                    "internalType": "uint256",
                    "name": "_grow_time",
                    "type": "uint256"
                },
                {
                    "internalType": "uint256",
                    "name": "_price",
                    "type": "uint256"
                },
                {
                    "internalType": "uint256",
                    "name": "_exp",
                    "type": "uint256"
                }
            ],
            "name": "modInCropsList",
            "outputs": [],
            "stateMutability": "nonpayable",
            "type": "function"
        },
        {
            "inputs": [],
            "name": "name",
            "outputs": [
                {
                    "internalType": "string",
                    "name": "",
                    "type": "string"
                }
            ],
            "stateMutability": "view",
            "type": "function"
        },
        {
            "inputs": [],
            "name": "owner",
            "outputs": [
                {
                    "internalType": "address",
                    "name": "",
                    "type": "address"
                }
            ],
            "stateMutability": "view",
            "type": "function"
        },
        {
            "inputs": [
                {
                    "internalType": "uint256",
                    "name": "_slotID",
                    "type": "uint256"
                }
            ],
            "name": "ownerOf",
            "outputs": [
                {
                    "internalType": "address",
                    "name": "_owner",
                    "type": "address"
                }
            ],
            "stateMutability": "view",
            "type": "function"
        },
        {
            "inputs": [
                {
                    "internalType": "uint256",
                    "name": "_cropID",
                    "type": "uint256"
                },
                {
                    "internalType": "uint256",
                    "name": "_slotID",
                    "type": "uint256"
                }
            ],
            "name": "plant",
            "outputs": [],
            "stateMutability": "nonpayable",
            "type": "function"
        },
        {
            "inputs": [],
            "name": "renounceOwnership",
            "outputs": [],
            "stateMutability": "nonpayable",
            "type": "function"
        },
        {
            "inputs": [
                {
                    "internalType": "address",
                    "name": "from",
                    "type": "address"
                },
                {
                    "internalType": "address",
                    "name": "to",
                    "type": "address"
                },
                {
                    "internalType": "uint256",
                    "name": "tokenId",
                    "type": "uint256"
                }
            ],
            "name": "safeTransferFrom",
            "outputs": [],
            "stateMutability": "nonpayable",
            "type": "function"
        },
        {
            "inputs": [
                {
                    "internalType": "address",
                    "name": "from",
                    "type": "address"
                },
                {
                    "internalType": "address",
                    "name": "to",
                    "type": "address"
                },
                {
                    "internalType": "uint256",
                    "name": "tokenId",
                    "type": "uint256"
                },
                {
                    "internalType": "bytes",
                    "name": "_data",
                    "type": "bytes"
                }
            ],
            "name": "safeTransferFrom",
            "outputs": [],
            "stateMutability": "nonpayable",
            "type": "function"
        },
        {
            "inputs": [
                {
                    "internalType": "address",
                    "name": "operator",
                    "type": "address"
                },
                {
                    "internalType": "bool",
                    "name": "approved",
                    "type": "bool"
                }
            ],
            "name": "setApprovalForAll",
            "outputs": [],
            "stateMutability": "nonpayable",
            "type": "function"
        },
        {
            "inputs": [
                {
                    "internalType": "uint256",
                    "name": "_fee",
                    "type": "uint256"
                }
            ],
            "name": "setLevelUpFee",
            "outputs": [],
            "stateMutability": "nonpayable",
            "type": "function"
        },
        {
            "inputs": [
                {
                    "internalType": "uint256",
                    "name": "",
                    "type": "uint256"
                }
            ],
            "name": "slotToOwner",
            "outputs": [
                {
                    "internalType": "address",
                    "name": "",
                    "type": "address"
                }
            ],
            "stateMutability": "view",
            "type": "function"
        },
        {
            "inputs": [
                {
                    "internalType": "uint256",
                    "name": "",
                    "type": "uint256"
                }
            ],
            "name": "slots",
            "outputs": [
                {
                    "internalType": "uint256",
                    "name": "cropID",
                    "type": "uint256"
                },
                {
                    "internalType": "uint256",
                    "name": "grow_time",
                    "type": "uint256"
                },
                {
                    "internalType": "uint256",
                    "name": "price",
                    "type": "uint256"
                },
                {
                    "internalType": "uint256",
                    "name": "dry_time",
                    "type": "uint256"
                },
                {
                    "internalType": "uint256",
                    "name": "grass_time",
                    "type": "uint256"
                },
                {
                    "internalType": "bool",
                    "name": "stealed",
                    "type": "bool"
                },
                {
                    "internalType": "uint256",
                    "name": "exp",
                    "type": "uint256"
                }
            ],
            "stateMutability": "view",
            "type": "function"
        },
        {
            "inputs": [
                {
                    "internalType": "uint256",
                    "name": "_slotID",
                    "type": "uint256"
                }
            ],
            "name": "steal",
            "outputs": [],
            "stateMutability": "nonpayable",
            "type": "function"
        },
        {
            "inputs": [
                {
                    "internalType": "bytes4",
                    "name": "interfaceId",
                    "type": "bytes4"
                }
            ],
            "name": "supportsInterface",
            "outputs": [
                {
                    "internalType": "bool",
                    "name": "",
                    "type": "bool"
                }
            ],
            "stateMutability": "view",
            "type": "function"
        },
        {
            "inputs": [],
            "name": "symbol",
            "outputs": [
                {
                    "internalType": "string",
                    "name": "",
                    "type": "string"
                }
            ],
            "stateMutability": "view",
            "type": "function"
        },
        {
            "inputs": [
                {
                    "internalType": "uint256",
                    "name": "_slotID",
                    "type": "uint256"
                }
            ],
            "name": "takeOwnership",
            "outputs": [],
            "stateMutability": "nonpayable",
            "type": "function"
        },
        {
            "inputs": [
                {
                    "internalType": "uint256",
                    "name": "tokenId",
                    "type": "uint256"
                }
            ],
            "name": "tokenURI",
            "outputs": [
                {
                    "internalType": "string",
                    "name": "",
                    "type": "string"
                }
            ],
            "stateMutability": "view",
            "type": "function"
        },
        {
            "inputs": [
                {
                    "internalType": "address",
                    "name": "_to",
                    "type": "address"
                },
                {
                    "internalType": "uint256",
                    "name": "_slotID",
                    "type": "uint256"
                }
            ],
            "name": "transfer",
            "outputs": [],
            "stateMutability": "nonpayable",
            "type": "function"
        },
        {
            "inputs": [
                {
                    "internalType": "address",
                    "name": "_from",
                    "type": "address"
                },
                {
                    "internalType": "address",
                    "name": "_to",
                    "type": "address"
                },
                {
                    "internalType": "uint256",
                    "name": "_slotID",
                    "type": "uint256"
                }
            ],
            "name": "transferFrom",
            "outputs": [],
            "stateMutability": "nonpayable",
            "type": "function"
        },
        {
            "inputs": [
                {
                    "internalType": "address",
                    "name": "newOwner",
                    "type": "address"
                }
            ],
            "name": "transferOwnership",
            "outputs": [],
            "stateMutability": "nonpayable",
            "type": "function"
        },
        {
            "inputs": [
                {
                    "internalType": "uint256",
                    "name": "_slotID",
                    "type": "uint256"
                }
            ],
            "name": "watering",
            "outputs": [],
            "stateMutability": "nonpayable",
            "type": "function"
        },
        {
            "inputs": [
                {
                    "internalType": "uint256",
                    "name": "_slotID",
                    "type": "uint256"
                }
            ],
            "name": "weeding",
            "outputs": [],
            "stateMutability": "nonpayable",
            "type": "function"
        },
        {
            "inputs": [],
            "name": "withdraw",
            "outputs": [],
            "stateMutability": "nonpayable",
            "type": "function"
        }
    ],
    "bytecode": "608060405266038d7ea4c68000600e553480156200001c57600080fd5b506040518060400160405280600481526020016314db1bdd60e21b8152506040518060400160405280600381526020016246414d60e81b815250600062000068620000ea60201b60201c565b600580546001600160a01b0319166001600160a01b038316908117909155604051919250906000907f8be0079c531659141344cd1fd0a4f28419497f9722a3daafe3b4186f6b6457e0908290a3508151620000cb906008906020850190620000ee565b508051620000e1906009906020840190620000ee565b505050620001d1565b3390565b828054620000fc9062000194565b90600052602060002090601f0160209004810192826200012057600085556200016b565b82601f106200013b57805160ff19168380011785556200016b565b828001600101855582156200016b579182015b828111156200016b5782518255916020019190600101906200014e565b50620001799291506200017d565b5090565b5b808211156200017957600081556001016200017e565b600281046001821680620001a957607f821691505b60208210811415620001cb57634e487b7160e01b600052602260045260246000fd5b50919050565b612f2880620001e16000396000f3fe6080604052600436106102675760003560e01c80638da5cb5b11610144578063b2e6ceeb116100b6578063d13e736a1161007a578063d13e736a14610724578063ddc6326214610751578063e1928ac914610771578063e985e9c514610791578063eb320915146107b1578063f2fde38b146107d157610267565b8063b2e6ceeb14610684578063b88d4fde146106a4578063b99c6e0a146106c4578063c87b56dd146106e4578063ccf670f81461070457610267565b8063a22cb46511610108578063a22cb465146105d1578063a5c14ec7146105f1578063a7a624e014610611578063a9059cbb14610631578063a9bf928f14610651578063ab2874cb1461067157610267565b80638da5cb5b1461054757806392658a281461055c57806395d89b411461057c57806398815594146105915780639bcf5f0c146105b157610267565b80633ccfd60b116101dd5780636352211e116101a15780636352211e1461049257806370a08231146104b2578063715018a6146104d257806372e6eaa6146104e757806386481d40146105075780638871c9c51461052757610267565b80633ccfd60b146103e357806342842e0e146103f8578063575c25b014610418578063580405ba146104455780636099804d1461047257610267565b80630d79e8351161022f5780630d79e8351461033357806310e96da5146103485780631d5ec3cb1461036857806323b872dd1461037d57806327adc95e1461039d578063387dd9e9146103b057610267565b806301ffc9a71461026c57806306fdde03146102a2578063081812fc146102c4578063095ea7b3146102f15780630c10e49914610313575b600080fd5b34801561027857600080fd5b5061028c61028736600461283c565b6107f1565b6040516102999190612a31565b60405180910390f35b3480156102ae57600080fd5b506102b7610839565b6040516102999190612a3c565b3480156102d057600080fd5b506102e46102df366004612874565b6108cb565b604051610299919061295b565b3480156102fd57600080fd5b5061031161030c366004612813565b610917565b005b34801561031f57600080fd5b506102e461032e366004612874565b610996565b34801561033f57600080fd5b506103116109b1565b34801561035457600080fd5b5061028c6103633660046126a0565b610a4e565b34801561037457600080fd5b50610311610b0e565b34801561038957600080fd5b506103116103983660046126d2565b610b32565b6103116103ab366004612874565b610b68565b3480156103bc57600080fd5b506103d06103cb366004612874565b610c38565b6040516102999796959493929190612d39565b3480156103ef57600080fd5b50610311610c8a565b34801561040457600080fd5b506103116104133660046126d2565b610d0c565b34801561042457600080fd5b50610438610433366004612686565b610d2c565b60405161029991906129f9565b34801561045157600080fd5b50610465610460366004612686565b610e20565b6040516102999190612cd4565b34801561047e57600080fd5b5061031161048d366004612874565b610e32565b34801561049e57600080fd5b506102e46104ad366004612874565b610f27565b3480156104be57600080fd5b506104656104cd366004612686565b610f42565b3480156104de57600080fd5b50610311610f5d565b3480156104f357600080fd5b5061028c6105023660046126a0565b610fe6565b34801561051357600080fd5b50610465610522366004612874565b61105f565b34801561053357600080fd5b50610465610542366004612686565b6110c3565b34801561055357600080fd5b506102e46110d5565b34801561056857600080fd5b5061031161057736600461288c565b6110e4565b34801561058857600080fd5b506102b761128a565b34801561059d57600080fd5b506104656105ac366004612874565b611299565b3480156105bd57600080fd5b506103116105cc366004612874565b6112ba565b3480156105dd57600080fd5b506103116105ec3660046127d9565b6113d1565b3480156105fd57600080fd5b5061031161060c366004612874565b61149f565b34801561061d57600080fd5b506102e461062c366004612813565b611588565b34801561063d57600080fd5b5061031161064c366004612813565b6115c0565b34801561065d57600080fd5b506103d061066c366004612874565b6115f0565b61031161067f366004612874565b611631565b34801561069057600080fd5b5061031161069f366004612874565b611653565b3480156106b057600080fd5b506103116106bf36600461270d565b611692565b3480156106d057600080fd5b506103116106df366004612874565b6116cb565b3480156106f057600080fd5b506102b76106ff366004612874565b61174f565b34801561071057600080fd5b5061031161071f366004612874565b6117d2565b34801561073057600080fd5b5061074461073f366004612686565b611816565b60405161029991906129ac565b34801561075d57600080fd5b5061031161076c366004612874565b61188a565b34801561077d57600080fd5b5061031161078c3660046128ad565b6119e4565b34801561079d57600080fd5b5061028c6107ac3660046126a0565b611ae3565b3480156107bd57600080fd5b506103116107cc366004612874565b611b11565b3480156107dd57600080fd5b506103116107ec366004612686565b611bd4565b60006001600160e01b031982166380ac58cd60e01b148061082257506001600160e01b03198216635b5e139f60e01b145b80610831575061083182611c95565b90505b919050565b60606008805461084890612e10565b80601f016020809104026020016040519081016040528092919081815260200182805461087490612e10565b80156108c15780601f10610896576101008083540402835291602001916108c1565b820191906000526020600020905b8154815290600101906020018083116108a457829003601f168201915b5050505050905090565b60006108d682611cae565b6108fb5760405162461bcd60e51b81526004016108f290612bb3565b60405180910390fd5b506000908152600c60205260409020546001600160a01b031690565b60008181526002602052604090205481906001600160a01b0316331461093c57600080fd5b6000828152600f602052604080822080546001600160a01b0319166001600160a01b0387169081179091559051849233917f8c5be1e5ebec7d5bd14f71427d1e84f3dd0314c0f7b2291e5b200ac8c7c3b9259190a4505050565b6002602052600090815260409020546001600160a01b031681565b6109b9611ccb565b6001600160a01b03166109ca6110d5565b6001600160a01b0316146109f05760405162461bcd60e51b81526004016108f290612bff565b600754156109fd57600080fd5b600780546001818101835560008381527fa66cc928b5edb82af9bd49922954155ab7b0942694bea4ce44661d9a8736c68892830155825480820184556005908301558254908101909255600a910155565b6000610a5a8383611ccf565b80610a765750816001600160a01b0316836001600160a01b0316145b80610a8857506001600160a01b038316155b80610a9a57506001600160a01b038216155b15610aa757506000610b08565b506001600160a01b038083166000818152602081815260408083208054600181810183559185528385200180549688166001600160a01b03199788168117909155845290832080548083018255908452919092200180549093169091179091555b92915050565b3360009081526004602052604090205415610b2857600080fd5b610b30611d70565b565b60008181526002602052604090205481906001600160a01b03163314610b5757600080fd5b610b62848484611d8f565b50505050565b600e543414610b7657600080fd5b600060018281548110610b9957634e487b7160e01b600052603260045260246000fd5b60009182526020909120600780549202019150610bb890600190612db6565b610bc5826006015461105f565b10610bcf57600080fd5b6007610bde826006015461105f565b81548110610bfc57634e487b7160e01b600052603260045260246000fd5b6000918252602082200154600683015560405133917ffa75433b62fa9aa3569a596aca6569a4687697e876289d01131561272e0e904891a25050565b60018181548110610c4857600080fd5b600091825260209091206007909102018054600182015460028301546003840154600485015460058601546006909601549496509294919390929160ff169087565b610c92611ccb565b6001600160a01b0316610ca36110d5565b6001600160a01b031614610cc95760405162461bcd60e51b81526004016108f290612bff565b610cd16110d5565b6001600160a01b03166108fc479081150290604051600060405180830381858888f19350505050158015610d09573d6000803e3d6000fd5b50565b610d2783838360405180602001604052806000815250611692565b505050565b6001600160a01b0381166000908152600460205260408120546060919067ffffffffffffffff811115610d6f57634e487b7160e01b600052604160045260246000fd5b604051908082528060200260200182016040528015610d98578160200160208202803683370190505b5090506000805b600154811015610e17576000818152600260205260409020546001600160a01b0386811691161415610e055780838381518110610dec57634e487b7160e01b600052603260045260246000fd5b602090810291909101015281610e0181612e4b565b9250505b80610e0f81612e4b565b915050610d9f565b50909392505050565b60036020526000908152604090205481565b610e3a611ccb565b6001600160a01b0316610e4b6110d5565b6001600160a01b031614610e715760405162461bcd60e51b81526004016108f290612bff565b6040805160e08101825260008082526020808301828152838501838152606085018481526080860185815260a0870186815260c088018781528a8852600696879052968990209751885593516001880155915160028701555160038601555160048501555160058401805460ff19169115159190911790559051910155517fda5207af4ca2a8f617e7b6b247ccb5495c765df30e98c115443a569b8ac3d26490610f1c908390612cd4565b60405180910390a150565b6000908152600260205260409020546001600160a01b031690565b6001600160a01b031660009081526004602052604090205490565b610f65611ccb565b6001600160a01b0316610f766110d5565b6001600160a01b031614610f9c5760405162461bcd60e51b81526004016108f290612bff565b6005546040516000916001600160a01b0316907f8be0079c531659141344cd1fd0a4f28419497f9722a3daafe3b4186f6b6457e0908390a3600580546001600160a01b0319169055565b6000610ff28383611ccf565b158061100f5750816001600160a01b0316836001600160a01b0316145b8061102157506001600160a01b038316155b8061103357506001600160a01b038216155b1561104057506000610b08565b61104a8383611e62565b506110558284611e62565b5060019392505050565b6000805b6007548110156110b9576007818154811061108e57634e487b7160e01b600052603260045260246000fd5b90600052602060002001548310156110a7579050610834565b806110b181612e4b565b915050611063565b5050600754919050565b60046020526000908152604090205481565b6005546001600160a01b031690565b60008181526002602052604090205481906001600160a01b0316331461110957600080fd5b60006001838154811061112c57634e487b7160e01b600052603260045260246000fd5b906000526020600020906007020190508060000154600014801561116f575060008481526006602090815260408083206002015433845260039092529091205410155b801561119c575060008481526006602081905260409091208101549082015461119990600a612d6b565b10155b6111a557600080fd5b60008481526006602090815260408083206002015433845260039092528220546111cf9190612db6565b3360009081526003602090815260408083208490558883526006909152902080548455600180820154908501556002908101549084015560058301805460ff19169055905061121d82611f95565b61122682611fc1565b61122f82611ffc565b336001600160a01b0316600080516020612ed38339815191528587856001015486600201548760030154886004015460008a600601548a60405161127b99989796959493929190612cdd565b60405180910390a25050505050565b60606009805461084890612e10565b600781815481106112a957600080fd5b600091825260209091200154905081565b6000818152600260205260409020546112dd9033906001600160a01b0316612032565b6112e657600080fd5b60006001828154811061130957634e487b7160e01b600052603260045260246000fd5b9060005260206000209060070201905061132281612054565b61132b57600080fd5b600581015460ff161561133d57600080fd5b60028101543360009081526003602052604090205461135c9190612d6b565b3360008181526003602081905260409182902093845560058501805460ff19166001908117909155855486820154600288015493880154600489015460068a0154985496519798600080516020612ed3833981519152986113c5988d9896979596959291612cdd565b60405180910390a25050565b6113d9611ccb565b6001600160a01b0316826001600160a01b0316141561140a5760405162461bcd60e51b81526004016108f290612ae7565b80600d6000611417611ccb565b6001600160a01b03908116825260208083019390935260409182016000908120918716808252919093529120805460ff19169215159290921790915561145b611ccb565b6001600160a01b03167f17307eab39ab6107e8899845ad3d59bd9653f200f220920489ca2b5937696c31836040516114939190612a31565b60405180910390a35050565b60008181526002602052604090205481906001600160a01b031633146114c457600080fd5b6000600183815481106114e757634e487b7160e01b600052603260045260246000fd5b9060005260206000209060070201905061150081612054565b15801561151157506115118161205e565b61151a57600080fd5b61152381611ffc565b8054600182015460028301546003808501546004860154600687015433600081815260209590955260408086205490519198600080516020612ed38339815191529861157b988e989297919690959194909390612cdd565b60405180910390a2505050565b600060205281600052604060002081815481106115a457600080fd5b6000918252602090912001546001600160a01b03169150829050565b60008181526002602052604090205481906001600160a01b031633146115e557600080fd5b610d27338484611d8f565b6006602081905260009182526040909120805460018201546002830154600384015460048501546005860154959096015493959294919390929160ff169087565b80600e5461163f9190612d97565b341461164a57600080fd5b610d0981612068565b6000818152600f60205260409020546001600160a01b0316331461167657600080fd5b600061168182610f27565b905061168e813384611d8f565b5050565b6116a361169d611ccb565b83612256565b6116bf5760405162461bcd60e51b81526004016108f290612c83565b610b62848484846122db565b60008181526002602052604090205481906001600160a01b031633146116f057600080fd5b60006001838154811061171357634e487b7160e01b600052603260045260246000fd5b9060005260206000209060070201905061172c81612054565b15801561173d575061173d8161230e565b61174657600080fd5b61152381611fc1565b606061175a82611cae565b6117765760405162461bcd60e51b81526004016108f290612c34565b6000611780612318565b905060008151116117a057604051806020016040528060008152506117cb565b806117aa8461232a565b6040516020016117bb92919061292c565b6040516020818303038152906040525b9392505050565b6117da611ccb565b6001600160a01b03166117eb6110d5565b6001600160a01b0316146118115760405162461bcd60e51b81526004016108f290612bff565b600e55565b6001600160a01b0381166000908152602081815260409182902080548351818402810184019094528084526060939283018282801561187e57602002820191906000526020600020905b81546001600160a01b03168152600190910190602001808311611860575b50505050509050919050565b60008181526002602052604090205481906001600160a01b031633146118af57600080fd5b6000600183815481106118d257634e487b7160e01b600052603260045260246000fd5b906000526020600020906007020190506118eb81612054565b6118f457600080fd5b600181015460038201546002911015611915578061191181612e4b565b9150505b816001015482600401541115611933578061192f81612e4b565b9150505b600582015460ff1661194d578061194981612e4b565b9150505b600081836002015461195f9190612d97565b336000908152600360205260409020546119799190612d6b565b3360009081526003602052604081208290558455905060058214156119b0576006830180549060006119aa83612e4b565b91905055505b60068301546040513391600080516020612ed38339815191529161127b918991600091829182918291829182918c90612cdd565b6119ec611ccb565b6001600160a01b03166119fd6110d5565b6001600160a01b031614611a235760405162461bcd60e51b81526004016108f290612bff565b6040805160e08101825285815260208082018681528284018681526000606085018181526080860182815260a0870183815260c088018a81528d85526006978890529389902097518855945160018801559251600287015551600386015590516004850155905160058401805460ff191691151591909117905551910155517f0a99a7515cce8c21202b55bdd8c634a45cf0fc5ffc970a5faf445f6e2666505790611ad5908690869086908690612d1e565b60405180910390a150505050565b6001600160a01b039182166000908152600d6020908152604080832093909416825291909152205460ff1690565b611b19611ccb565b6001600160a01b0316611b2a6110d5565b6001600160a01b031614611b505760405162461bcd60e51b81526004016108f290612bff565b6007541580611b96575060078054611b6a90600190612db6565b81548110611b8857634e487b7160e01b600052603260045260246000fd5b906000526020600020015481115b611b9f57600080fd5b600780546001810182556000919091527fa66cc928b5edb82af9bd49922954155ab7b0942694bea4ce44661d9a8736c6880155565b611bdc611ccb565b6001600160a01b0316611bed6110d5565b6001600160a01b031614611c135760405162461bcd60e51b81526004016108f290612bff565b6001600160a01b038116611c395760405162461bcd60e51b81526004016108f290612aa1565b6005546040516001600160a01b038084169216907f8be0079c531659141344cd1fd0a4f28419497f9722a3daafe3b4186f6b6457e090600090a3600580546001600160a01b0319166001600160a01b0392909216919091179055565b6001600160e01b031981166301ffc9a760e01b14919050565b6000908152600a60205260409020546001600160a01b0316151590565b3390565b6000805b6001600160a01b038416600090815260208190526040902054811015611d66576001600160a01b0384166000908152602081905260409020805482908110611d2b57634e487b7160e01b600052603260045260246000fd5b6000918252602090912001546001600160a01b0384811691161415611d54576001915050610b08565b80611d5e81612e4b565b915050611cd3565b5060009392505050565b611d7a6006612068565b33600090815260036020526040902060649055565b6001600160a01b038316600090815260046020526040902054600610611db457600080fd5b6001600160a01b0382166000908152600460205260408120805491611dd883612e4b565b90915550506001600160a01b0383166000908152600460205260408120805491611e0183612df9565b909155505060008181526002602052604080822080546001600160a01b0319166001600160a01b0386811691821790925591518493918716917fddf252ad1be2c89b69c2b068fc378daa952ba7f163c4a11628f55a4df523b3ef91a4505050565b6000611e6e8383611ccf565b611e7a57506000610b08565b6000611e868484612445565b6001600160a01b03851660009081526020819052604090208054919250611eae600183612db6565b81548110611ecc57634e487b7160e01b600052603260045260246000fd5b60009182526020808320909101546001600160a01b038881168452918390526040909220805491909216919084908110611f1657634e487b7160e01b600052603260045260246000fd5b600091825260208083209190910180546001600160a01b0319166001600160a01b0394851617905591871681529081905260409020805480611f6857634e487b7160e01b600052603160045260246000fd5b600082815260209020600019908201810180546001600160a01b0319169055019055506001949350505050565b8054600090815260066020526040902060010154611fb39042612d6b565b63ffffffff16600190910155565b611fd9428260010154611fd49190612db6565b6124e0565b611fe39042612d6b565b611fee906064612d6b565b63ffffffff16600390910155565b61200f428260010154611fd49190612db6565b6120199042612d6b565b612024906064612d6b565b63ffffffff16600490910155565b600061203e8383611ccf565b1561204b57506001610b08565b50600092915050565b6001015442101590565b6004015442101590565b60005b8181101561222757600180546040805160e08101825260008082526020808301828152838501838152606085018481526080860185815260a0870186815260c088018b81528a8c018c559a8752965160078a027fb10e2d527612073b26eecdfd717e6a320cf44b4afac2b0732d9fcbe2b7fa0cf681019190915593517fb10e2d527612073b26eecdfd717e6a320cf44b4afac2b0732d9fcbe2b7fa0cf785015591517fb10e2d527612073b26eecdfd717e6a320cf44b4afac2b0732d9fcbe2b7fa0cf8840155517fb10e2d527612073b26eecdfd717e6a320cf44b4afac2b0732d9fcbe2b7fa0cf9830155517fb10e2d527612073b26eecdfd717e6a320cf44b4afac2b0732d9fcbe2b7fa0cfa82015592517fb10e2d527612073b26eecdfd717e6a320cf44b4afac2b0732d9fcbe2b7fa0cfb8401805491151560ff1990921691909117905594517fb10e2d527612073b26eecdfd717e6a320cf44b4afac2b0732d9fcbe2b7fa0cfc909201919091558281526002845281812080546001600160a01b031916339081179091558152600490935282208054919261220e83612e4b565b919050555050808061221f90612e4b565b91505061206b565b5060405133907ffa75433b62fa9aa3569a596aca6569a4687697e876289d01131561272e0e904890600090a250565b600061226182611cae565b61227d5760405162461bcd60e51b81526004016108f290612b1e565b600061228883612519565b9050806001600160a01b0316846001600160a01b031614806122c35750836001600160a01b03166122b8846108cb565b6001600160a01b0316145b806122d357506122d38185611ae3565b949350505050565b6122e6848484611d8f565b6122f28484848461254e565b610b625760405162461bcd60e51b81526004016108f290612a4f565b6003015442101590565b60408051602081019091526000815290565b60608161234f57506040805180820190915260018152600360fc1b6020820152610834565b8160005b8115612379578061236381612e4b565b91506123729050600a83612d83565b9150612353565b60008167ffffffffffffffff8111156123a257634e487b7160e01b600052604160045260246000fd5b6040519080825280601f01601f1916602001820160405280156123cc576020820181803683370190505b5090505b84156122d3576123e1600183612db6565b91506123ee600a86612e66565b6123f9906030612d6b565b60f81b81838151811061241c57634e487b7160e01b600052603260045260246000fd5b60200101906001600160f81b031916908160001a90535061243e600a86612d83565b94506123d0565b60008060005b6001600160a01b0385166000908152602081905260409020548110156124d8576001600160a01b03851660009081526020819052604090208054829081106124a357634e487b7160e01b600052603260045260246000fd5b6000918252602090912001546001600160a01b03858116911614156124c6578091505b806124d081612e4b565b91505061244b565b509392505050565b60008133426040516020016124f692919061290a565b6040516020818303038152906040528051906020012060001c6108319190612e66565b6000818152600a60205260408120546001600160a01b0316806108315760405162461bcd60e51b81526004016108f290612b6a565b6000612562846001600160a01b0316612669565b1561265e57836001600160a01b031663150b7a0261257e611ccb565b8786866040518563ffffffff1660e01b81526004016125a0949392919061296f565b602060405180830381600087803b1580156125ba57600080fd5b505af19250505080156125ea575060408051601f3d908101601f191682019092526125e791810190612858565b60015b612644573d808015612618576040519150601f19603f3d011682016040523d82523d6000602084013e61261d565b606091505b50805161263c5760405162461bcd60e51b81526004016108f290612a4f565b805181602001fd5b6001600160e01b031916630a85bd0160e11b1490506122d3565b506001949350505050565b3b151590565b80356001600160a01b038116811461083457600080fd5b600060208284031215612697578081fd5b6117cb8261266f565b600080604083850312156126b2578081fd5b6126bb8361266f565b91506126c96020840161266f565b90509250929050565b6000806000606084860312156126e6578081fd5b6126ef8461266f565b92506126fd6020850161266f565b9150604084013590509250925092565b60008060008060808587031215612722578081fd5b61272b8561266f565b9350602061273a81870161266f565b935060408601359250606086013567ffffffffffffffff8082111561275d578384fd5b818801915088601f830112612770578384fd5b81358181111561278257612782612ea6565b604051601f8201601f19168101850183811182821017156127a5576127a5612ea6565b60405281815283820185018b10156127bb578586fd5b81858501868301379081019093019390935250939692955090935050565b600080604083850312156127eb578182fd5b6127f48361266f565b915060208301358015158114612808578182fd5b809150509250929050565b60008060408385031215612825578182fd5b61282e8361266f565b946020939093013593505050565b60006020828403121561284d578081fd5b81356117cb81612ebc565b600060208284031215612869578081fd5b81516117cb81612ebc565b600060208284031215612885578081fd5b5035919050565b6000806040838503121561289e578182fd5b50508035926020909101359150565b600080600080608085870312156128c2578384fd5b5050823594602084013594506040840135936060013592509050565b600081518084526128f6816020860160208601612dcd565b601f01601f19169290920160200192915050565b60609290921b6bffffffffffffffffffffffff19168252601482015260340190565b6000835161293e818460208801612dcd565b835190830190612952818360208801612dcd565b01949350505050565b6001600160a01b0391909116815260200190565b6001600160a01b03858116825284166020820152604081018390526080606082018190526000906129a2908301846128de565b9695505050505050565b6020808252825182820181905260009190848201906040850190845b818110156129ed5783516001600160a01b0316835292840192918401916001016129c8565b50909695505050505050565b6020808252825182820181905260009190848201906040850190845b818110156129ed57835183529284019291840191600101612a15565b901515815260200190565b6000602082526117cb60208301846128de565b60208082526032908201527f4552433732313a207472616e7366657220746f206e6f6e20455243373231526560408201527131b2b4bb32b91034b6b83632b6b2b73a32b960711b606082015260800190565b60208082526026908201527f4f776e61626c653a206e6577206f776e657220697320746865207a65726f206160408201526564647265737360d01b606082015260800190565b60208082526019908201527f4552433732313a20617070726f766520746f2063616c6c657200000000000000604082015260600190565b6020808252602c908201527f4552433732313a206f70657261746f7220717565727920666f72206e6f6e657860408201526b34b9ba32b73a103a37b5b2b760a11b606082015260800190565b60208082526029908201527f4552433732313a206f776e657220717565727920666f72206e6f6e657869737460408201526832b73a103a37b5b2b760b91b606082015260800190565b6020808252602c908201527f4552433732313a20617070726f76656420717565727920666f72206e6f6e657860408201526b34b9ba32b73a103a37b5b2b760a11b606082015260800190565b6020808252818101527f4f776e61626c653a2063616c6c6572206973206e6f7420746865206f776e6572604082015260600190565b6020808252602f908201527f4552433732314d657461646174613a2055524920717565727920666f72206e6f60408201526e3732bc34b9ba32b73a103a37b5b2b760891b606082015260800190565b60208082526031908201527f4552433732313a207472616e736665722063616c6c6572206973206e6f74206f6040820152701ddb995c881b9bdc88185c1c1c9bdd9959607a1b606082015260800190565b90815260200190565b988952602089019790975260408801959095526060870193909352608086019190915260a0850152151560c084015260e08301526101008201526101200190565b93845260208401929092526040830152606082015260800190565b9687526020870195909552604086019390935260608501919091526080840152151560a083015260c082015260e00190565b60008219821115612d7e57612d7e612e7a565b500190565b600082612d9257612d92612e90565b500490565b6000816000190483118215151615612db157612db1612e7a565b500290565b600082821015612dc857612dc8612e7a565b500390565b60005b83811015612de8578181015183820152602001612dd0565b83811115610b625750506000910152565b600081612e0857612e08612e7a565b506000190190565b600281046001821680612e2457607f821691505b60208210811415612e4557634e487b7160e01b600052602260045260246000fd5b50919050565b6000600019821415612e5f57612e5f612e7a565b5060010190565b600082612e7557612e75612e90565b500690565b634e487b7160e01b600052601160045260246000fd5b634e487b7160e01b600052601260045260246000fd5b634e487b7160e01b600052604160045260246000fd5b6001600160e01b031981168114610d0957600080fdfe10b6615359775e93e7a308e2ee80875d995f6026b4a0e1f4e2dbe995c773fab7a2646970667358221220db0502c531556cdf8e4cd8966c282c341fca8a2d7879919f2d7787bd4236a86d64736f6c63430008000033",
    "sourcePath": "/Users/Cirno/Desktop/distributed_ether_farm-main/contracts/SlotOwnership.sol",
    "compiler": {
        "name": "solc",
        "version": "0.8.0+commit.c7dfd78e"
    },
    "functionHashes": {
        "OwnerMoneyCount(address)": "580405ba",
        "OwnerSlotCount(address)": "8871c9c5",
        "UpgradeSlot(uint256)": "27adc95e",
        "addFriend(address,address)": "10e96da5",
        "addInLevelList(uint256)": "eb320915",
        "approve(address,uint256)": "095ea7b3",
        "balanceOf(address)": "70a08231",
        "buySlot(uint256)": "ab2874cb",
        "createFarm()": "1d5ec3cb",
        "cropsList(uint256)": "a9bf928f",
        "delInCropsList(uint256)": "6099804d",
        "deleteFriend(address,address)": "72e6eaa6",
        "friendsDict(address,uint256)": "a7a624e0",
        "getApproved(uint256)": "081812fc",
        "getFarmByOwner(address)": "575c25b0",
        "getFriendsByOwner(address)": "d13e736a",
        "getLevel(uint256)": "86481d40",
        "harvest(uint256)": "ddc63262",
        "initLevelList()": "0d79e835",
        "isApprovedForAll(address,address)": "e985e9c5",
        "levelList(uint256)": "98815594",
        "modInCropsList(uint256,uint256,uint256,uint256)": "e1928ac9",
        "name()": "06fdde03",
        "owner()": "8da5cb5b",
        "ownerOf(uint256)": "6352211e",
        "plant(uint256,uint256)": "92658a28",
        "renounceOwnership()": "715018a6",
        "safeTransferFrom(address,address,uint256)": "42842e0e",
        "safeTransferFrom(address,address,uint256,bytes)": "b88d4fde",
        "setApprovalForAll(address,bool)": "a22cb465",
        "setLevelUpFee(uint256)": "ccf670f8",
        "slotToOwner(uint256)": "0c10e499",
        "slots(uint256)": "387dd9e9",
        "steal(uint256)": "9bcf5f0c",
        "supportsInterface(bytes4)": "01ffc9a7",
        "symbol()": "95d89b41",
        "takeOwnership(uint256)": "b2e6ceeb",
        "tokenURI(uint256)": "c87b56dd",
        "transfer(address,uint256)": "a9059cbb",
        "transferFrom(address,address,uint256)": "23b872dd",
        "transferOwnership(address)": "f2fde38b",
        "watering(uint256)": "b99c6e0a",
        "weeding(uint256)": "a5c14ec7",
        "withdraw()": "3ccfd60b"
    },
    "gasEstimates": {
        "creation": {
            "codeDepositCost": "2414400",
            "executionCost": "infinite",
            "totalCost": "infinite"
        },
        "external": {
            "OwnerMoneyCount(address)": "1364",
            "OwnerSlotCount(address)": "1407",
            "UpgradeSlot(uint256)": "infinite",
            "addFriend(address,address)": "infinite",
            "addInLevelList(uint256)": "45520",
            "approve(address,uint256)": "24187",
            "balanceOf(address)": "1337",
            "buySlot(uint256)": "infinite",
            "createFarm()": "infinite",
            "cropsList(uint256)": "6350",
            "delInCropsList(uint256)": "53543",
            "deleteFriend(address,address)": "infinite",
            "friendsDict(address,uint256)": "2297",
            "getApproved(uint256)": "2246",
            "getFarmByOwner(address)": "infinite",
            "getFriendsByOwner(address)": "infinite",
            "getLevel(uint256)": "infinite",
            "harvest(uint256)": "infinite",
            "initLevelList()": "109439",
            "isApprovedForAll(address,address)": "infinite",
            "levelList(uint256)": "2108",
            "modInCropsList(uint256,uint256,uint256,uint256)": "114406",
            "name()": "infinite",
            "owner()": "1116",
            "ownerOf(uint256)": "1258",
            "plant(uint256,uint256)": "infinite",
            "renounceOwnership()": "24341",
            "safeTransferFrom(address,address,uint256)": "infinite",
            "safeTransferFrom(address,address,uint256,bytes)": "infinite",
            "setApprovalForAll(address,bool)": "infinite",
            "setLevelUpFee(uint256)": "21287",
            "slotToOwner(uint256)": "1348",
            "slots(uint256)": "7200",
            "steal(uint256)": "infinite",
            "supportsInterface(bytes4)": "627",
            "symbol()": "infinite",
            "takeOwnership(uint256)": "67832",
            "tokenURI(uint256)": "infinite",
            "transfer(address,uint256)": "67083",
            "transferFrom(address,address,uint256)": "infinite",
            "transferOwnership(address)": "24644",
            "watering(uint256)": "infinite",
            "weeding(uint256)": "infinite",
            "withdraw()": "infinite"
        },
        "internal": {
            "_transfer(address,address,uint256)": "65717"
        }
    }
}