{
    "contractName": "SlotFactory",
    "abi": [
        {
            "anonymous": false,
            "inputs": [
                {
                    "indexed": true,
                    "internalType": "address",
                    "name": "addr",
                    "type": "address"
                }
            ],
            "name": "createSlotEvent",
            "type": "event"
        },
        {
            "inputs": [
                {
                    "internalType": "address",
                    "name": "",
                    "type": "address"
                }
            ],
            "name": "OwnerMoneyCount",
            "outputs": [
                {
                    "internalType": "uint256",
                    "name": "",
                    "type": "uint256"
                }
            ],
            "stateMutability": "view",
            "type": "function"
        },
        {
            "inputs": [
                {
                    "internalType": "address",
                    "name": "",
                    "type": "address"
                }
            ],
            "name": "OwnerSlotCount",
            "outputs": [
                {
                    "internalType": "uint256",
                    "name": "",
                    "type": "uint256"
                }
            ],
            "stateMutability": "view",
            "type": "function"
        },
        {
            "inputs": [],
            "name": "createFarm",
            "outputs": [],
            "stateMutability": "nonpayable",
            "type": "function"
        },
        {
            "inputs": [
                {
                    "internalType": "address",
                    "name": "_owner",
                    "type": "address"
                }
            ],
            "name": "getFarmByOwner",
            "outputs": [
                {
                    "internalType": "uint256[]",
                    "name": "",
                    "type": "uint256[]"
                }
            ],
            "stateMutability": "view",
            "type": "function"
        },
        {
            "inputs": [
                {
                    "internalType": "uint256",
                    "name": "",
                    "type": "uint256"
                }
            ],
            "name": "slotToOwner",
            "outputs": [
                {
                    "internalType": "address",
                    "name": "",
                    "type": "address"
                }
            ],
            "stateMutability": "view",
            "type": "function"
        },
        {
            "inputs": [
                {
                    "internalType": "uint256",
                    "name": "",
                    "type": "uint256"
                }
            ],
            "name": "slots",
            "outputs": [
                {
                    "internalType": "uint256",
                    "name": "cropID",
                    "type": "uint256"
                },
                {
                    "internalType": "uint256",
                    "name": "grow_time",
                    "type": "uint256"
                },
                {
                    "internalType": "uint256",
                    "name": "price",
                    "type": "uint256"
                },
                {
                    "internalType": "uint256",
                    "name": "dry_time",
                    "type": "uint256"
                },
                {
                    "internalType": "uint256",
                    "name": "grass_time",
                    "type": "uint256"
                },
                {
                    "internalType": "bool",
                    "name": "stealed",
                    "type": "bool"
                },
                {
                    "internalType": "uint256",
                    "name": "exp",
                    "type": "uint256"
                }
            ],
            "stateMutability": "view",
            "type": "function"
        }
    ],
    "bytecode": "608060405234801561001057600080fd5b506105fa806100206000396000f3fe608060405234801561001057600080fd5b50600436106100625760003560e01c80630c10e499146100675780631d5ec3cb14610090578063387dd9e91461009a578063575c25b0146100c0578063580405ba146100e05780638871c9c514610100575b600080fd5b61007a6100753660046104f2565b610113565b604051610087919061050a565b60405180910390f35b61009861012e565b005b6100ad6100a83660046104f2565b610152565b604051610087979695949392919061056b565b6100d36100ce3660046104c4565b6101a4565b604051610087919061051e565b6100f36100ee3660046104c4565b610298565b6040516100879190610562565b6100f361010e3660046104c4565b6102aa565b6001602052600090815260409020546001600160a01b031681565b336000908152600360205260409020541561014857600080fd5b6101506102bc565b565b6000818154811061016257600080fd5b600091825260209091206007909102018054600182015460028301546003840154600485015460058601546006909601549496509294919390929160ff169087565b6001600160a01b0381166000908152600360205260408120546060919067ffffffffffffffff8111156101e757634e487b7160e01b600052604160045260246000fd5b604051908082528060200260200182016040528015610210578160200160208202803683370190505b5090506000805b60005481101561028f576000818152600160205260409020546001600160a01b038681169116141561027d578083838151811061026457634e487b7160e01b600052603260045260246000fd5b6020908102919091010152816102798161059d565b9250505b806102878161059d565b915050610217565b50909392505050565b60026020526000908152604090205481565b60036020526000908152604090205481565b6102c660066102db565b33600090815260026020526040902060649055565b60005b8181101561049557600080546040805160e0810182528381526020808201858152828401868152606084018781526080850188815260a08601898152600160c08801818152818b018c558b8052975160078b027f290decd9548b62a8d60345a988386fc84ba6bc95484008f6362f93160ef3e56381019190915595517f290decd9548b62a8d60345a988386fc84ba6bc95484008f6362f93160ef3e56487015593517f290decd9548b62a8d60345a988386fc84ba6bc95484008f6362f93160ef3e56586015591517f290decd9548b62a8d60345a988386fc84ba6bc95484008f6362f93160ef3e566850155517f290decd9548b62a8d60345a988386fc84ba6bc95484008f6362f93160ef3e567840155517f290decd9548b62a8d60345a988386fc84ba6bc95484008f6362f93160ef3e5688301805491151560ff1990921691909117905592517f290decd9548b62a8d60345a988386fc84ba6bc95484008f6362f93160ef3e5699091015583855290815281842080546001600160a01b0319163390811790915584526003905282208054919261047c8361059d565b919050555050808061048d9061059d565b9150506102de565b5060405133907ffa75433b62fa9aa3569a596aca6569a4687697e876289d01131561272e0e904890600090a250565b6000602082840312156104d5578081fd5b81356001600160a01b03811681146104eb578182fd5b9392505050565b600060208284031215610503578081fd5b5035919050565b6001600160a01b0391909116815260200190565b6020808252825182820181905260009190848201906040850190845b818110156105565783518352928401929184019160010161053a565b50909695505050505050565b90815260200190565b9687526020870195909552604086019390935260608501919091526080840152151560a083015260c082015260e00190565b60006000198214156105bd57634e487b7160e01b81526011600452602481fd5b506001019056fea2646970667358221220f25a17f8e57e849b1ccd494a0edfdbeedbe576338c5988c3578a9210b1a216a564736f6c63430008000033",
    "sourcePath": "/Users/Cirno/Desktop/distributed_ether_farm-main/contracts/SlotFactory.sol",
    "compiler": {
        "name": "solc",
        "version": "0.8.0+commit.c7dfd78e"
    },
    "functionHashes": {
        "OwnerMoneyCount(address)": "580405ba",
        "OwnerSlotCount(address)": "8871c9c5",
        "createFarm()": "1d5ec3cb",
        "getFarmByOwner(address)": "575c25b0",
        "slotToOwner(uint256)": "0c10e499",
        "slots(uint256)": "387dd9e9"
    },
    "gasEstimates": {
        "creation": {
            "codeDepositCost": "306000",
            "executionCost": "343",
            "totalCost": "306343"
        },
        "external": {
            "OwnerMoneyCount(address)": "1283",
            "OwnerSlotCount(address)": "1305",
            "createFarm()": "infinite",
            "getFarmByOwner(address)": "infinite",
            "slotToOwner(uint256)": "1191",
            "slots(uint256)": "7066"
        },
        "internal": {
            "_createCrops(uint256)": "infinite",
            "_createFarm()": "infinite"
        }
    }
}