{
    "contractName": "SlotManagement",
    "abi": [
        {
            "anonymous": false,
            "inputs": [
                {
                    "indexed": true,
                    "internalType": "address",
                    "name": "previousOwner",
                    "type": "address"
                },
                {
                    "indexed": true,
                    "internalType": "address",
                    "name": "newOwner",
                    "type": "address"
                }
            ],
            "name": "OwnershipTransferred",
            "type": "event"
        },
        {
            "anonymous": false,
            "inputs": [
                {
                    "indexed": true,
                    "internalType": "address",
                    "name": "addr",
                    "type": "address"
                }
            ],
            "name": "createSlotEvent",
            "type": "event"
        },
        {
            "anonymous": false,
            "inputs": [
                {
                    "indexed": false,
                    "internalType": "uint256",
                    "name": "cropID",
                    "type": "uint256"
                }
            ],
            "name": "deleteCropList",
            "type": "event"
        },
        {
            "anonymous": false,
            "inputs": [
                {
                    "indexed": false,
                    "internalType": "uint256",
                    "name": "cropID",
                    "type": "uint256"
                },
                {
                    "indexed": false,
                    "internalType": "uint256",
                    "name": "grow_time",
                    "type": "uint256"
                },
                {
                    "indexed": false,
                    "internalType": "uint256",
                    "name": "price",
                    "type": "uint256"
                },
                {
                    "indexed": false,
                    "internalType": "uint256",
                    "name": "exp",
                    "type": "uint256"
                }
            ],
            "name": "updateCropList",
            "type": "event"
        },
        {
            "anonymous": false,
            "inputs": [
                {
                    "indexed": true,
                    "internalType": "address",
                    "name": "owner",
                    "type": "address"
                },
                {
                    "indexed": false,
                    "internalType": "uint256",
                    "name": "slotID",
                    "type": "uint256"
                },
                {
                    "indexed": false,
                    "internalType": "uint256",
                    "name": "cropID",
                    "type": "uint256"
                },
                {
                    "indexed": false,
                    "internalType": "uint256",
                    "name": "grow_time",
                    "type": "uint256"
                },
                {
                    "indexed": false,
                    "internalType": "uint256",
                    "name": "price",
                    "type": "uint256"
                },
                {
                    "indexed": false,
                    "internalType": "uint256",
                    "name": "dry_time",
                    "type": "uint256"
                },
                {
                    "indexed": false,
                    "internalType": "uint256",
                    "name": "grass_time",
                    "type": "uint256"
                },
                {
                    "indexed": false,
                    "internalType": "bool",
                    "name": "stealed",
                    "type": "bool"
                },
                {
                    "indexed": false,
                    "internalType": "uint256",
                    "name": "exp",
                    "type": "uint256"
                },
                {
                    "indexed": false,
                    "internalType": "uint256",
                    "name": "balance",
                    "type": "uint256"
                }
            ],
            "name": "updateSlot",
            "type": "event"
        },
        {
            "inputs": [
                {
                    "internalType": "address",
                    "name": "",
                    "type": "address"
                }
            ],
            "name": "OwnerMoneyCount",
            "outputs": [
                {
                    "internalType": "uint256",
                    "name": "",
                    "type": "uint256"
                }
            ],
            "stateMutability": "view",
            "type": "function"
        },
        {
            "inputs": [
                {
                    "internalType": "address",
                    "name": "",
                    "type": "address"
                }
            ],
            "name": "OwnerSlotCount",
            "outputs": [
                {
                    "internalType": "uint256",
                    "name": "",
                    "type": "uint256"
                }
            ],
            "stateMutability": "view",
            "type": "function"
        },
        {
            "inputs": [
                {
                    "internalType": "uint256",
                    "name": "_slotID",
                    "type": "uint256"
                }
            ],
            "name": "UpgradeSlot",
            "outputs": [],
            "stateMutability": "payable",
            "type": "function"
        },
        {
            "inputs": [
                {
                    "internalType": "address",
                    "name": "owner",
                    "type": "address"
                },
                {
                    "internalType": "address",
                    "name": "friend",
                    "type": "address"
                }
            ],
            "name": "addFriend",
            "outputs": [
                {
                    "internalType": "bool",
                    "name": "",
                    "type": "bool"
                }
            ],
            "stateMutability": "nonpayable",
            "type": "function"
        },
        {
            "inputs": [
                {
                    "internalType": "uint256",
                    "name": "_exp",
                    "type": "uint256"
                }
            ],
            "name": "addInLevelList",
            "outputs": [],
            "stateMutability": "nonpayable",
            "type": "function"
        },
        {
            "inputs": [
                {
                    "internalType": "uint256",
                    "name": "_num",
                    "type": "uint256"
                }
            ],
            "name": "buySlot",
            "outputs": [],
            "stateMutability": "payable",
            "type": "function"
        },
        {
            "inputs": [],
            "name": "createFarm",
            "outputs": [],
            "stateMutability": "nonpayable",
            "type": "function"
        },
        {
            "inputs": [
                {
                    "internalType": "uint256",
                    "name": "",
                    "type": "uint256"
                }
            ],
            "name": "cropsList",
            "outputs": [
                {
                    "internalType": "uint256",
                    "name": "cropID",
                    "type": "uint256"
                },
                {
                    "internalType": "uint256",
                    "name": "grow_time",
                    "type": "uint256"
                },
                {
                    "internalType": "uint256",
                    "name": "price",
                    "type": "uint256"
                },
                {
                    "internalType": "uint256",
                    "name": "dry_time",
                    "type": "uint256"
                },
                {
                    "internalType": "uint256",
                    "name": "grass_time",
                    "type": "uint256"
                },
                {
                    "internalType": "bool",
                    "name": "stealed",
                    "type": "bool"
                },
                {
                    "internalType": "uint256",
                    "name": "exp",
                    "type": "uint256"
                }
            ],
            "stateMutability": "view",
            "type": "function"
        },
        {
            "inputs": [
                {
                    "internalType": "uint256",
                    "name": "_cropID",
                    "type": "uint256"
                }
            ],
            "name": "delInCropsList",
            "outputs": [],
            "stateMutability": "nonpayable",
            "type": "function"
        },
        {
            "inputs": [
                {
                    "internalType": "address",
                    "name": "owner",
                    "type": "address"
                },
                {
                    "internalType": "address",
                    "name": "friend",
                    "type": "address"
                }
            ],
            "name": "deleteFriend",
            "outputs": [
                {
                    "internalType": "bool",
                    "name": "",
                    "type": "bool"
                }
            ],
            "stateMutability": "nonpayable",
            "type": "function"
        },
        {
            "inputs": [
                {
                    "internalType": "address",
                    "name": "",
                    "type": "address"
                },
                {
                    "internalType": "uint256",
                    "name": "",
                    "type": "uint256"
                }
            ],
            "name": "friendsDict",
            "outputs": [
                {
                    "internalType": "address",
                    "name": "",
                    "type": "address"
                }
            ],
            "stateMutability": "view",
            "type": "function"
        },
        {
            "inputs": [
                {
                    "internalType": "address",
                    "name": "_owner",
                    "type": "address"
                }
            ],
            "name": "getFarmByOwner",
            "outputs": [
                {
                    "internalType": "uint256[]",
                    "name": "",
                    "type": "uint256[]"
                }
            ],
            "stateMutability": "view",
            "type": "function"
        },
        {
            "inputs": [
                {
                    "internalType": "address",
                    "name": "owner",
                    "type": "address"
                }
            ],
            "name": "getFriendsByOwner",
            "outputs": [
                {
                    "internalType": "address[]",
                    "name": "",
                    "type": "address[]"
                }
            ],
            "stateMutability": "view",
            "type": "function"
        },
        {
            "inputs": [
                {
                    "internalType": "uint256",
                    "name": "exp",
                    "type": "uint256"
                }
            ],
            "name": "getLevel",
            "outputs": [
                {
                    "internalType": "uint256",
                    "name": "",
                    "type": "uint256"
                }
            ],
            "stateMutability": "view",
            "type": "function"
        },
        {
            "inputs": [
                {
                    "internalType": "uint256",
                    "name": "_slotID",
                    "type": "uint256"
                }
            ],
            "name": "harvest",
            "outputs": [],
            "stateMutability": "nonpayable",
            "type": "function"
        },
        {
            "inputs": [],
            "name": "initLevelList",
            "outputs": [],
            "stateMutability": "nonpayable",
            "type": "function"
        },
        {
            "inputs": [
                {
                    "internalType": "uint256",
                    "name": "",
                    "type": "uint256"
                }
            ],
            "name": "levelList",
            "outputs": [
                {
                    "internalType": "uint256",
                    "name": "",
                    "type": "uint256"
                }
            ],
            "stateMutability": "view",
            "type": "function"
        },
        {
            "inputs": [
                {
                    "internalType": "uint256",
                    "name": "_cropID",
                    "type": "uint256"
                },
                {
                    "internalType": "uint256",
                    "name": "_grow_time",
                    "type": "uint256"
                },
                {
                    "internalType": "uint256",
                    "name": "_price",
                    "type": "uint256"
                },
                {
                    "internalType": "uint256",
                    "name": "_exp",
                    "type": "uint256"
                }
            ],
            "name": "modInCropsList",
            "outputs": [],
            "stateMutability": "nonpayable",
            "type": "function"
        },
        {
            "inputs": [],
            "name": "owner",
            "outputs": [
                {
                    "internalType": "address",
                    "name": "",
                    "type": "address"
                }
            ],
            "stateMutability": "view",
            "type": "function"
        },
        {
            "inputs": [
                {
                    "internalType": "uint256",
                    "name": "_cropID",
                    "type": "uint256"
                },
                {
                    "internalType": "uint256",
                    "name": "_slotID",
                    "type": "uint256"
                }
            ],
            "name": "plant",
            "outputs": [],
            "stateMutability": "nonpayable",
            "type": "function"
        },
        {
            "inputs": [],
            "name": "renounceOwnership",
            "outputs": [],
            "stateMutability": "nonpayable",
            "type": "function"
        },
        {
            "inputs": [
                {
                    "internalType": "uint256",
                    "name": "_fee",
                    "type": "uint256"
                }
            ],
            "name": "setLevelUpFee",
            "outputs": [],
            "stateMutability": "nonpayable",
            "type": "function"
        },
        {
            "inputs": [
                {
                    "internalType": "uint256",
                    "name": "",
                    "type": "uint256"
                }
            ],
            "name": "slotToOwner",
            "outputs": [
                {
                    "internalType": "address",
                    "name": "",
                    "type": "address"
                }
            ],
            "stateMutability": "view",
            "type": "function"
        },
        {
            "inputs": [
                {
                    "internalType": "uint256",
                    "name": "",
                    "type": "uint256"
                }
            ],
            "name": "slots",
            "outputs": [
                {
                    "internalType": "uint256",
                    "name": "cropID",
                    "type": "uint256"
                },
                {
                    "internalType": "uint256",
                    "name": "grow_time",
                    "type": "uint256"
                },
                {
                    "internalType": "uint256",
                    "name": "price",
                    "type": "uint256"
                },
                {
                    "internalType": "uint256",
                    "name": "dry_time",
                    "type": "uint256"
                },
                {
                    "internalType": "uint256",
                    "name": "grass_time",
                    "type": "uint256"
                },
                {
                    "internalType": "bool",
                    "name": "stealed",
                    "type": "bool"
                },
                {
                    "internalType": "uint256",
                    "name": "exp",
                    "type": "uint256"
                }
            ],
            "stateMutability": "view",
            "type": "function"
        },
        {
            "inputs": [
                {
                    "internalType": "uint256",
                    "name": "_slotID",
                    "type": "uint256"
                }
            ],
            "name": "steal",
            "outputs": [],
            "stateMutability": "nonpayable",
            "type": "function"
        },
        {
            "inputs": [
                {
                    "internalType": "address",
                    "name": "newOwner",
                    "type": "address"
                }
            ],
            "name": "transferOwnership",
            "outputs": [],
            "stateMutability": "nonpayable",
            "type": "function"
        },
        {
            "inputs": [
                {
                    "internalType": "uint256",
                    "name": "_slotID",
                    "type": "uint256"
                }
            ],
            "name": "watering",
            "outputs": [],
            "stateMutability": "nonpayable",
            "type": "function"
        },
        {
            "inputs": [
                {
                    "internalType": "uint256",
                    "name": "_slotID",
                    "type": "uint256"
                }
            ],
            "name": "weeding",
            "outputs": [],
            "stateMutability": "nonpayable",
            "type": "function"
        },
        {
            "inputs": [],
            "name": "withdraw",
            "outputs": [],
            "stateMutability": "nonpayable",
            "type": "function"
        }
    ],
    "bytecode": "608060405266038d7ea4c6800060085534801561001b57600080fd5b506000610026610079565b600580546001600160a01b0319166001600160a01b038316908117909155604051919250906000907f8be0079c531659141344cd1fd0a4f28419497f9722a3daafe3b4186f6b6457e0908290a35061007d565b3390565b611f1d8061008c6000396000f3fe6080604052600436106101c25760003560e01c80638da5cb5b116100f7578063ab2874cb11610095578063ddc6326211610064578063ddc63262146104f5578063e1928ac914610515578063eb32091514610535578063f2fde38b14610555576101c2565b8063ab2874cb14610475578063b99c6e0a14610488578063ccf670f8146104a8578063d13e736a146104c8576101c2565b80639bcf5f0c116100d15780639bcf5f0c146103f5578063a5c14ec714610415578063a7a624e014610435578063a9bf928f14610455576101c2565b80638da5cb5b146103a057806392658a28146103b557806398815594146103d5576101c2565b8063575c25b011610164578063715018a61161013e578063715018a61461032b57806372e6eaa61461034057806386481d40146103605780638871c9c514610380576101c2565b8063575c25b0146102b1578063580405ba146102de5780636099804d1461030b576101c2565b80631d5ec3cb116101a05780631d5ec3cb1461024157806327adc95e14610256578063387dd9e9146102695780633ccfd60b1461029c576101c2565b80630c10e499146101c75780630d79e835146101fd57806310e96da514610214575b600080fd5b3480156101d357600080fd5b506101e76101e2366004611be6565b610575565b6040516101f49190611c72565b60405180910390f35b34801561020957600080fd5b50610212610590565b005b34801561022057600080fd5b5061023461022f366004611b8b565b610636565b6040516101f49190611d0b565b34801561024d57600080fd5b506102126106f6565b610212610264366004611be6565b61071a565b34801561027557600080fd5b50610289610284366004611be6565b6107ea565b6040516101f49796959493929190611df6565b3480156102a857600080fd5b5061021261083c565b3480156102bd57600080fd5b506102d16102cc366004611b6a565b6108be565b6040516101f49190611cd3565b3480156102ea57600080fd5b506102fe6102f9366004611b6a565b6109b4565b6040516101f49190611d91565b34801561031757600080fd5b50610212610326366004611be6565b6109c6565b34801561033757600080fd5b50610212610abb565b34801561034c57600080fd5b5061023461035b366004611b8b565b610b44565b34801561036c57600080fd5b506102fe61037b366004611be6565b610bbd565b34801561038c57600080fd5b506102fe61039b366004611b6a565b610c21565b3480156103ac57600080fd5b506101e7610c33565b3480156103c157600080fd5b506102126103d0366004611bfe565b610c42565b3480156103e157600080fd5b506102fe6103f0366004611be6565b610de8565b34801561040157600080fd5b50610212610410366004611be6565b610e09565b34801561042157600080fd5b50610212610430366004611be6565b610f20565b34801561044157600080fd5b506101e7610450366004611bbd565b611009565b34801561046157600080fd5b50610289610470366004611be6565b611041565b610212610483366004611be6565b611082565b34801561049457600080fd5b506102126104a3366004611be6565b6110a4565b3480156104b457600080fd5b506102126104c3366004611be6565b611128565b3480156104d457600080fd5b506104e86104e3366004611b6a565b61116c565b6040516101f49190611c86565b34801561050157600080fd5b50610212610510366004611be6565b6111e0565b34801561052157600080fd5b50610212610530366004611c1f565b61133a565b34801561054157600080fd5b50610212610550366004611be6565b611439565b34801561056157600080fd5b50610212610570366004611b6a565b6114fc565b6002602052600090815260409020546001600160a01b031681565b6105986115bd565b6001600160a01b03166105a9610c33565b6001600160a01b0316146105d85760405162461bcd60e51b81526004016105cf90611d5c565b60405180910390fd5b600754156105e557600080fd5b600780546001818101835560008381527fa66cc928b5edb82af9bd49922954155ab7b0942694bea4ce44661d9a8736c68892830155825480820184556005908301558254908101909255600a910155565b600061064283836115c1565b8061065e5750816001600160a01b0316836001600160a01b0316145b8061067057506001600160a01b038316155b8061068257506001600160a01b038216155b1561068f575060006106f0565b506001600160a01b038083166000818152602081815260408083208054600181810183559185528385200180549688166001600160a01b03199788168117909155845290832080548083018255908452919092200180549093169091179091555b92915050565b336000908152600460205260409020541561071057600080fd5b610718611662565b565b600854341461072857600080fd5b60006001828154811061074b57634e487b7160e01b600052603260045260246000fd5b6000918252602090912060078054920201915061076a90600190611e5f565b6107778260060154610bbd565b1061078157600080fd5b60076107908260060154610bbd565b815481106107ae57634e487b7160e01b600052603260045260246000fd5b6000918252602082200154600683015560405133917ffa75433b62fa9aa3569a596aca6569a4687697e876289d01131561272e0e904891a25050565b600181815481106107fa57600080fd5b600091825260209091206007909102018054600182015460028301546003840154600485015460058601546006909601549496509294919390929160ff169087565b6108446115bd565b6001600160a01b0316610855610c33565b6001600160a01b03161461087b5760405162461bcd60e51b81526004016105cf90611d5c565b610883610c33565b6001600160a01b03166108fc479081150290604051600060405180830381858888f193505050501580156108bb573d6000803e3d6000fd5b50565b6001600160a01b0381166000908152600460205260408120546060919067ffffffffffffffff81111561090157634e487b7160e01b600052604160045260246000fd5b60405190808252806020026020018201604052801561092a578160200160208202803683370190505b5090506000805b6001548110156109a9576000818152600260205260409020546001600160a01b0386811691161415610997578083838151811061097e57634e487b7160e01b600052603260045260246000fd5b60209081029190910101528161099381611e76565b9250505b806109a181611e76565b915050610931565b50909150505b919050565b60036020526000908152604090205481565b6109ce6115bd565b6001600160a01b03166109df610c33565b6001600160a01b031614610a055760405162461bcd60e51b81526004016105cf90611d5c565b6040805160e08101825260008082526020808301828152838501838152606085018481526080860185815260a0870186815260c088018781528a8852600696879052968990209751885593516001880155915160028701555160038601555160048501555160058401805460ff19169115159190911790559051910155517fda5207af4ca2a8f617e7b6b247ccb5495c765df30e98c115443a569b8ac3d26490610ab0908390611d91565b60405180910390a150565b610ac36115bd565b6001600160a01b0316610ad4610c33565b6001600160a01b031614610afa5760405162461bcd60e51b81526004016105cf90611d5c565b6005546040516000916001600160a01b0316907f8be0079c531659141344cd1fd0a4f28419497f9722a3daafe3b4186f6b6457e0908390a3600580546001600160a01b0319169055565b6000610b5083836115c1565b1580610b6d5750816001600160a01b0316836001600160a01b0316145b80610b7f57506001600160a01b038316155b80610b9157506001600160a01b038216155b15610b9e575060006106f0565b610ba88383611681565b50610bb38284611681565b5060019392505050565b6000805b600754811015610c175760078181548110610bec57634e487b7160e01b600052603260045260246000fd5b9060005260206000200154831015610c055790506109af565b80610c0f81611e76565b915050610bc1565b5050600754919050565b60046020526000908152604090205481565b6005546001600160a01b031690565b60008181526002602052604090205481906001600160a01b03163314610c6757600080fd5b600060018381548110610c8a57634e487b7160e01b600052603260045260246000fd5b9060005260206000209060070201905080600001546000148015610ccd575060008481526006602090815260408083206002015433845260039092529091205410155b8015610cfa5750600084815260066020819052604090912081015490820154610cf790600a611e28565b10155b610d0357600080fd5b6000848152600660209081526040808320600201543384526003909252822054610d2d9190611e5f565b3360009081526003602090815260408083208490558883526006909152902080548455600180820154908501556002908101549084015560058301805460ff191690559050610d7b826117b4565b610d84826117e0565b610d8d8261181b565b336001600160a01b0316600080516020611ec88339815191528587856001015486600201548760030154886004015460008a600601548a604051610dd999989796959493929190611d9a565b60405180910390a25050505050565b60078181548110610df857600080fd5b600091825260209091200154905081565b600081815260026020526040902054610e2c9033906001600160a01b0316611851565b610e3557600080fd5b600060018281548110610e5857634e487b7160e01b600052603260045260246000fd5b90600052602060002090600702019050610e7181611873565b610e7a57600080fd5b600581015460ff1615610e8c57600080fd5b600281015433600090815260036020526040902054610eab9190611e28565b3360008181526003602081905260409182902093845560058501805460ff19166001908117909155855486820154600288015493880154600489015460068a0154985496519798600080516020611ec883398151915298610f14988d9896979596959291611d9a565b60405180910390a25050565b60008181526002602052604090205481906001600160a01b03163314610f4557600080fd5b600060018381548110610f6857634e487b7160e01b600052603260045260246000fd5b90600052602060002090600702019050610f8181611873565b158015610f925750610f928161187d565b610f9b57600080fd5b610fa48161181b565b8054600182015460028301546003808501546004860154600687015433600081815260209590955260408086205490519198600080516020611ec883398151915298610ffc988e989297919690959194909390611d9a565b60405180910390a2505050565b6000602052816000526040600020818154811061102557600080fd5b6000918252602090912001546001600160a01b03169150829050565b6006602081905260009182526040909120805460018201546002830154600384015460048501546005860154959096015493959294919390929160ff169087565b806008546110909190611e40565b341461109b57600080fd5b6108bb81611887565b60008181526002602052604090205481906001600160a01b031633146110c957600080fd5b6000600183815481106110ec57634e487b7160e01b600052603260045260246000fd5b9060005260206000209060070201905061110581611873565b158015611116575061111681611a75565b61111f57600080fd5b610fa4816117e0565b6111306115bd565b6001600160a01b0316611141610c33565b6001600160a01b0316146111675760405162461bcd60e51b81526004016105cf90611d5c565b600855565b6001600160a01b038116600090815260208181526040918290208054835181840281018401909452808452606093928301828280156111d457602002820191906000526020600020905b81546001600160a01b031681526001909101906020018083116111b6575b50505050509050919050565b60008181526002602052604090205481906001600160a01b0316331461120557600080fd5b60006001838154811061122857634e487b7160e01b600052603260045260246000fd5b9060005260206000209060070201905061124181611873565b61124a57600080fd5b60018101546003820154600291101561126b578061126781611e76565b9150505b816001015482600401541115611289578061128581611e76565b9150505b600582015460ff166112a3578061129f81611e76565b9150505b60008183600201546112b59190611e40565b336000908152600360205260409020546112cf9190611e28565b3360009081526003602052604081208290558455905060058214156113065760068301805490600061130083611e76565b91905055505b60068301546040513391600080516020611ec883398151915291610dd9918991600091829182918291829182918c90611d9a565b6113426115bd565b6001600160a01b0316611353610c33565b6001600160a01b0316146113795760405162461bcd60e51b81526004016105cf90611d5c565b6040805160e08101825285815260208082018681528284018681526000606085018181526080860182815260a0870183815260c088018a81528d85526006978890529389902097518855945160018801559251600287015551600386015590516004850155905160058401805460ff191691151591909117905551910155517f0a99a7515cce8c21202b55bdd8c634a45cf0fc5ffc970a5faf445f6e266650579061142b908690869086908690611ddb565b60405180910390a150505050565b6114416115bd565b6001600160a01b0316611452610c33565b6001600160a01b0316146114785760405162461bcd60e51b81526004016105cf90611d5c565b60075415806114be57506007805461149290600190611e5f565b815481106114b057634e487b7160e01b600052603260045260246000fd5b906000526020600020015481115b6114c757600080fd5b600780546001810182556000919091527fa66cc928b5edb82af9bd49922954155ab7b0942694bea4ce44661d9a8736c6880155565b6115046115bd565b6001600160a01b0316611515610c33565b6001600160a01b03161461153b5760405162461bcd60e51b81526004016105cf90611d5c565b6001600160a01b0381166115615760405162461bcd60e51b81526004016105cf90611d16565b6005546040516001600160a01b038084169216907f8be0079c531659141344cd1fd0a4f28419497f9722a3daafe3b4186f6b6457e090600090a3600580546001600160a01b0319166001600160a01b0392909216919091179055565b3390565b6000805b6001600160a01b038416600090815260208190526040902054811015611658576001600160a01b038416600090815260208190526040902080548290811061161d57634e487b7160e01b600052603260045260246000fd5b6000918252602090912001546001600160a01b03848116911614156116465760019150506106f0565b8061165081611e76565b9150506115c5565b5060009392505050565b61166c6006611887565b33600090815260036020526040902060649055565b600061168d83836115c1565b611699575060006106f0565b60006116a58484611a7f565b6001600160a01b038516600090815260208190526040902080549192506116cd600183611e5f565b815481106116eb57634e487b7160e01b600052603260045260246000fd5b60009182526020808320909101546001600160a01b03888116845291839052604090922080549190921691908490811061173557634e487b7160e01b600052603260045260246000fd5b600091825260208083209190910180546001600160a01b0319166001600160a01b039485161790559187168152908190526040902080548061178757634e487b7160e01b600052603160045260246000fd5b600082815260209020600019908201810180546001600160a01b0319169055019055506001949350505050565b80546000908152600660205260409020600101546117d29042611e28565b63ffffffff16600190910155565b6117f84282600101546117f39190611e5f565b611b1a565b6118029042611e28565b61180d906064611e28565b63ffffffff16600390910155565b61182e4282600101546117f39190611e5f565b6118389042611e28565b611843906064611e28565b63ffffffff16600490910155565b600061185d83836115c1565b1561186a575060016106f0565b50600092915050565b6001015442101590565b6004015442101590565b60005b81811015611a4657600180546040805160e08101825260008082526020808301828152838501838152606085018481526080860185815260a0870186815260c088018b81528a8c018c559a8752965160078a027fb10e2d527612073b26eecdfd717e6a320cf44b4afac2b0732d9fcbe2b7fa0cf681019190915593517fb10e2d527612073b26eecdfd717e6a320cf44b4afac2b0732d9fcbe2b7fa0cf785015591517fb10e2d527612073b26eecdfd717e6a320cf44b4afac2b0732d9fcbe2b7fa0cf8840155517fb10e2d527612073b26eecdfd717e6a320cf44b4afac2b0732d9fcbe2b7fa0cf9830155517fb10e2d527612073b26eecdfd717e6a320cf44b4afac2b0732d9fcbe2b7fa0cfa82015592517fb10e2d527612073b26eecdfd717e6a320cf44b4afac2b0732d9fcbe2b7fa0cfb8401805491151560ff1990921691909117905594517fb10e2d527612073b26eecdfd717e6a320cf44b4afac2b0732d9fcbe2b7fa0cfc909201919091558281526002845281812080546001600160a01b0319163390811790915581526004909352822080549192611a2d83611e76565b9190505550508080611a3e90611e76565b91505061188a565b5060405133907ffa75433b62fa9aa3569a596aca6569a4687697e876289d01131561272e0e904890600090a250565b6003015442101590565b60008060005b6001600160a01b038516600090815260208190526040902054811015611b12576001600160a01b0385166000908152602081905260409020805482908110611add57634e487b7160e01b600052603260045260246000fd5b6000918252602090912001546001600160a01b0385811691161415611b00578091505b80611b0a81611e76565b915050611a85565b509392505050565b6000813342604051602001611b30929190611c50565b6040516020818303038152906040528051906020012060001c6106f09190611e91565b80356001600160a01b03811681146109af57600080fd5b600060208284031215611b7b578081fd5b611b8482611b53565b9392505050565b60008060408385031215611b9d578081fd5b611ba683611b53565b9150611bb460208401611b53565b90509250929050565b60008060408385031215611bcf578182fd5b611bd883611b53565b946020939093013593505050565b600060208284031215611bf7578081fd5b5035919050565b60008060408385031215611c10578182fd5b50508035926020909101359150565b60008060008060808587031215611c34578182fd5b5050823594602084013594506040840135936060013592509050565b60609290921b6bffffffffffffffffffffffff19168252601482015260340190565b6001600160a01b0391909116815260200190565b6020808252825182820181905260009190848201906040850190845b81811015611cc75783516001600160a01b031683529284019291840191600101611ca2565b50909695505050505050565b6020808252825182820181905260009190848201906040850190845b81811015611cc757835183529284019291840191600101611cef565b901515815260200190565b60208082526026908201527f4f776e61626c653a206e6577206f776e657220697320746865207a65726f206160408201526564647265737360d01b606082015260800190565b6020808252818101527f4f776e61626c653a2063616c6c6572206973206e6f7420746865206f776e6572604082015260600190565b90815260200190565b988952602089019790975260408801959095526060870193909352608086019190915260a0850152151560c084015260e08301526101008201526101200190565b93845260208401929092526040830152606082015260800190565b9687526020870195909552604086019390935260608501919091526080840152151560a083015260c082015260e00190565b60008219821115611e3b57611e3b611eb1565b500190565b6000816000190483118215151615611e5a57611e5a611eb1565b500290565b600082821015611e7157611e71611eb1565b500390565b6000600019821415611e8a57611e8a611eb1565b5060010190565b600082611eac57634e487b7160e01b81526012600452602481fd5b500690565b634e487b7160e01b600052601160045260246000fdfe10b6615359775e93e7a308e2ee80875d995f6026b4a0e1f4e2dbe995c773fab7a264697066735822122084d8c74e72cecbccd70f84c6a0208d7ba13d18b6e3433d8302952d824e71de8164736f6c63430008000033",
    "sourcePath": "/Users/Cirno/Desktop/distributed_ether_farm-main/contracts/SlotManagement.sol",
    "compiler": {
        "name": "solc",
        "version": "0.8.0+commit.c7dfd78e"
    },
    "functionHashes": {
        "OwnerMoneyCount(address)": "580405ba",
        "OwnerSlotCount(address)": "8871c9c5",
        "UpgradeSlot(uint256)": "27adc95e",
        "addFriend(address,address)": "10e96da5",
        "addInLevelList(uint256)": "eb320915",
        "buySlot(uint256)": "ab2874cb",
        "createFarm()": "1d5ec3cb",
        "cropsList(uint256)": "a9bf928f",
        "delInCropsList(uint256)": "6099804d",
        "deleteFriend(address,address)": "72e6eaa6",
        "friendsDict(address,uint256)": "a7a624e0",
        "getFarmByOwner(address)": "575c25b0",
        "getFriendsByOwner(address)": "d13e736a",
        "getLevel(uint256)": "86481d40",
        "harvest(uint256)": "ddc63262",
        "initLevelList()": "0d79e835",
        "levelList(uint256)": "98815594",
        "modInCropsList(uint256,uint256,uint256,uint256)": "e1928ac9",
        "owner()": "8da5cb5b",
        "plant(uint256,uint256)": "92658a28",
        "renounceOwnership()": "715018a6",
        "setLevelUpFee(uint256)": "ccf670f8",
        "slotToOwner(uint256)": "0c10e499",
        "slots(uint256)": "387dd9e9",
        "steal(uint256)": "9bcf5f0c",
        "transferOwnership(address)": "f2fde38b",
        "watering(uint256)": "b99c6e0a",
        "weeding(uint256)": "a5c14ec7",
        "withdraw()": "3ccfd60b"
    },
    "gasEstimates": {
        "creation": {
            "codeDepositCost": "1593000",
            "executionCost": "44116",
            "totalCost": "1637116"
        },
        "external": {
            "OwnerMoneyCount(address)": "1320",
            "OwnerSlotCount(address)": "1363",
            "UpgradeSlot(uint256)": "infinite",
            "addFriend(address,address)": "infinite",
            "addInLevelList(uint256)": "45476",
            "buySlot(uint256)": "infinite",
            "createFarm()": "infinite",
            "cropsList(uint256)": "6328",
            "delInCropsList(uint256)": "53499",
            "deleteFriend(address,address)": "infinite",
            "friendsDict(address,uint256)": "2297",
            "getFarmByOwner(address)": "infinite",
            "getFriendsByOwner(address)": "infinite",
            "getLevel(uint256)": "infinite",
            "harvest(uint256)": "infinite",
            "initLevelList()": "109462",
            "levelList(uint256)": "2086",
            "modInCropsList(uint256,uint256,uint256,uint256)": "114384",
            "owner()": "1116",
            "plant(uint256,uint256)": "infinite",
            "renounceOwnership()": "24297",
            "setLevelUpFee(uint256)": "21243",
            "slotToOwner(uint256)": "1260",
            "slots(uint256)": "7134",
            "steal(uint256)": "infinite",
            "transferOwnership(address)": "24600",
            "watering(uint256)": "infinite",
            "weeding(uint256)": "infinite",
            "withdraw()": "infinite"
        },
        "internal": {
            "_isDry(struct SlotFactory.Slot storage pointer)": "826",
            "_isGrass(struct SlotFactory.Slot storage pointer)": "826",
            "_isReady(struct SlotFactory.Slot storage pointer)": "826",
            "_triggerDry(struct SlotFactory.Slot storage pointer)": "infinite",
            "_triggerGrass(struct SlotFactory.Slot storage pointer)": "infinite",
            "_triggerGrow(struct SlotFactory.Slot storage pointer)": "21780"
        }
    }
}