{
    "contractName": "SlotUpgrade",
    "abi": [
        {
            "anonymous": false,
            "inputs": [
                {
                    "indexed": true,
                    "internalType": "address",
                    "name": "previousOwner",
                    "type": "address"
                },
                {
                    "indexed": true,
                    "internalType": "address",
                    "name": "newOwner",
                    "type": "address"
                }
            ],
            "name": "OwnershipTransferred",
            "type": "event"
        },
        {
            "anonymous": false,
            "inputs": [
                {
                    "indexed": true,
                    "internalType": "address",
                    "name": "addr",
                    "type": "address"
                }
            ],
            "name": "createSlotEvent",
            "type": "event"
        },
        {
            "anonymous": false,
            "inputs": [
                {
                    "indexed": false,
                    "internalType": "uint256",
                    "name": "cropID",
                    "type": "uint256"
                }
            ],
            "name": "deleteCropList",
            "type": "event"
        },
        {
            "anonymous": false,
            "inputs": [
                {
                    "indexed": false,
                    "internalType": "uint256",
                    "name": "cropID",
                    "type": "uint256"
                },
                {
                    "indexed": false,
                    "internalType": "uint256",
                    "name": "grow_time",
                    "type": "uint256"
                },
                {
                    "indexed": false,
                    "internalType": "uint256",
                    "name": "price",
                    "type": "uint256"
                },
                {
                    "indexed": false,
                    "internalType": "uint256",
                    "name": "exp",
                    "type": "uint256"
                }
            ],
            "name": "updateCropList",
            "type": "event"
        },
        {
            "inputs": [
                {
                    "internalType": "address",
                    "name": "",
                    "type": "address"
                }
            ],
            "name": "OwnerMoneyCount",
            "outputs": [
                {
                    "internalType": "uint256",
                    "name": "",
                    "type": "uint256"
                }
            ],
            "stateMutability": "view",
            "type": "function"
        },
        {
            "inputs": [
                {
                    "internalType": "address",
                    "name": "",
                    "type": "address"
                }
            ],
            "name": "OwnerSlotCount",
            "outputs": [
                {
                    "internalType": "uint256",
                    "name": "",
                    "type": "uint256"
                }
            ],
            "stateMutability": "view",
            "type": "function"
        },
        {
            "inputs": [
                {
                    "internalType": "uint256",
                    "name": "_slotID",
                    "type": "uint256"
                }
            ],
            "name": "UpgradeSlot",
            "outputs": [],
            "stateMutability": "payable",
            "type": "function"
        },
        {
            "inputs": [
                {
                    "internalType": "uint256",
                    "name": "_exp",
                    "type": "uint256"
                }
            ],
            "name": "addInLevelList",
            "outputs": [],
            "stateMutability": "nonpayable",
            "type": "function"
        },
        {
            "inputs": [
                {
                    "internalType": "uint256",
                    "name": "_num",
                    "type": "uint256"
                }
            ],
            "name": "buySlot",
            "outputs": [],
            "stateMutability": "payable",
            "type": "function"
        },
        {
            "inputs": [],
            "name": "createFarm",
            "outputs": [],
            "stateMutability": "nonpayable",
            "type": "function"
        },
        {
            "inputs": [
                {
                    "internalType": "uint256",
                    "name": "",
                    "type": "uint256"
                }
            ],
            "name": "cropsList",
            "outputs": [
                {
                    "internalType": "uint256",
                    "name": "cropID",
                    "type": "uint256"
                },
                {
                    "internalType": "uint256",
                    "name": "grow_time",
                    "type": "uint256"
                },
                {
                    "internalType": "uint256",
                    "name": "price",
                    "type": "uint256"
                },
                {
                    "internalType": "uint256",
                    "name": "dry_time",
                    "type": "uint256"
                },
                {
                    "internalType": "uint256",
                    "name": "grass_time",
                    "type": "uint256"
                },
                {
                    "internalType": "bool",
                    "name": "stealed",
                    "type": "bool"
                },
                {
                    "internalType": "uint256",
                    "name": "exp",
                    "type": "uint256"
                }
            ],
            "stateMutability": "view",
            "type": "function"
        },
        {
            "inputs": [
                {
                    "internalType": "uint256",
                    "name": "_cropID",
                    "type": "uint256"
                }
            ],
            "name": "delInCropsList",
            "outputs": [],
            "stateMutability": "nonpayable",
            "type": "function"
        },
        {
            "inputs": [
                {
                    "internalType": "address",
                    "name": "_owner",
                    "type": "address"
                }
            ],
            "name": "getFarmByOwner",
            "outputs": [
                {
                    "internalType": "uint256[]",
                    "name": "",
                    "type": "uint256[]"
                }
            ],
            "stateMutability": "view",
            "type": "function"
        },
        {
            "inputs": [
                {
                    "internalType": "uint256",
                    "name": "exp",
                    "type": "uint256"
                }
            ],
            "name": "getLevel",
            "outputs": [
                {
                    "internalType": "uint256",
                    "name": "",
                    "type": "uint256"
                }
            ],
            "stateMutability": "view",
            "type": "function"
        },
        {
            "inputs": [],
            "name": "initLevelList",
            "outputs": [],
            "stateMutability": "nonpayable",
            "type": "function"
        },
        {
            "inputs": [
                {
                    "internalType": "uint256",
                    "name": "",
                    "type": "uint256"
                }
            ],
            "name": "levelList",
            "outputs": [
                {
                    "internalType": "uint256",
                    "name": "",
                    "type": "uint256"
                }
            ],
            "stateMutability": "view",
            "type": "function"
        },
        {
            "inputs": [
                {
                    "internalType": "uint256",
                    "name": "_cropID",
                    "type": "uint256"
                },
                {
                    "internalType": "uint256",
                    "name": "_grow_time",
                    "type": "uint256"
                },
                {
                    "internalType": "uint256",
                    "name": "_price",
                    "type": "uint256"
                },
                {
                    "internalType": "uint256",
                    "name": "_exp",
                    "type": "uint256"
                }
            ],
            "name": "modInCropsList",
            "outputs": [],
            "stateMutability": "nonpayable",
            "type": "function"
        },
        {
            "inputs": [],
            "name": "owner",
            "outputs": [
                {
                    "internalType": "address",
                    "name": "",
                    "type": "address"
                }
            ],
            "stateMutability": "view",
            "type": "function"
        },
        {
            "inputs": [],
            "name": "renounceOwnership",
            "outputs": [],
            "stateMutability": "nonpayable",
            "type": "function"
        },
        {
            "inputs": [
                {
                    "internalType": "uint256",
                    "name": "_fee",
                    "type": "uint256"
                }
            ],
            "name": "setLevelUpFee",
            "outputs": [],
            "stateMutability": "nonpayable",
            "type": "function"
        },
        {
            "inputs": [
                {
                    "internalType": "uint256",
                    "name": "",
                    "type": "uint256"
                }
            ],
            "name": "slotToOwner",
            "outputs": [
                {
                    "internalType": "address",
                    "name": "",
                    "type": "address"
                }
            ],
            "stateMutability": "view",
            "type": "function"
        },
        {
            "inputs": [
                {
                    "internalType": "uint256",
                    "name": "",
                    "type": "uint256"
                }
            ],
            "name": "slots",
            "outputs": [
                {
                    "internalType": "uint256",
                    "name": "cropID",
                    "type": "uint256"
                },
                {
                    "internalType": "uint256",
                    "name": "grow_time",
                    "type": "uint256"
                },
                {
                    "internalType": "uint256",
                    "name": "price",
                    "type": "uint256"
                },
                {
                    "internalType": "uint256",
                    "name": "dry_time",
                    "type": "uint256"
                },
                {
                    "internalType": "uint256",
                    "name": "grass_time",
                    "type": "uint256"
                },
                {
                    "internalType": "bool",
                    "name": "stealed",
                    "type": "bool"
                },
                {
                    "internalType": "uint256",
                    "name": "exp",
                    "type": "uint256"
                }
            ],
            "stateMutability": "view",
            "type": "function"
        },
        {
            "inputs": [
                {
                    "internalType": "address",
                    "name": "newOwner",
                    "type": "address"
                }
            ],
            "name": "transferOwnership",
            "outputs": [],
            "stateMutability": "nonpayable",
            "type": "function"
        },
        {
            "inputs": [],
            "name": "withdraw",
            "outputs": [],
            "stateMutability": "nonpayable",
            "type": "function"
        }
    ],
    "bytecode": "608060405266038d7ea4c6800060075534801561001b57600080fd5b506000610026610079565b600480546001600160a01b0319166001600160a01b038316908117909155604051919250906000907f8be0079c531659141344cd1fd0a4f28419497f9722a3daafe3b4186f6b6457e0908290a35061007d565b3390565b6110c68061008c6000396000f3fe60806040526004361061011f5760003560e01c806386481d40116100a0578063ab2874cb11610064578063ab2874cb14610305578063ccf670f814610318578063e1928ac914610338578063eb32091514610358578063f2fde38b146103785761011f565b806386481d40146102705780638871c9c5146102905780638da5cb5b146102b057806398815594146102c5578063a9bf928f146102e55761011f565b80633ccfd60b116100e75780633ccfd60b146101cc578063575c25b0146101e1578063580405ba1461020e5780636099804d1461023b578063715018a61461025b5761011f565b80630c10e499146101245780630d79e8351461015a5780631d5ec3cb1461017157806327adc95e14610186578063387dd9e914610199575b600080fd5b34801561013057600080fd5b5061014461013f366004610eb7565b610398565b6040516101519190610f00565b60405180910390f35b34801561016657600080fd5b5061016f6103b3565b005b34801561017d57600080fd5b5061016f610459565b61016f610194366004610eb7565b61047d565b3480156101a557600080fd5b506101b96101b4366004610eb7565b61054f565b6040516101519796959493929190610ff7565b3480156101d857600080fd5b5061016f6105a1565b3480156101ed57600080fd5b506102016101fc366004610e89565b610623565b6040516101519190610f14565b34801561021a57600080fd5b5061022e610229366004610e89565b610719565b6040516101519190610fd3565b34801561024757600080fd5b5061016f610256366004610eb7565b61072b565b34801561026757600080fd5b5061016f610821565b34801561027c57600080fd5b5061022e61028b366004610eb7565b6108aa565b34801561029c57600080fd5b5061022e6102ab366004610e89565b61090e565b3480156102bc57600080fd5b50610144610920565b3480156102d157600080fd5b5061022e6102e0366004610eb7565b61092f565b3480156102f157600080fd5b506101b9610300366004610eb7565b610950565b61016f610313366004610eb7565b610991565b34801561032457600080fd5b5061016f610333366004610eb7565b6109b3565b34801561034457600080fd5b5061016f610353366004610ecf565b6109f7565b34801561036457600080fd5b5061016f610373366004610eb7565b610af9565b34801561038457600080fd5b5061016f610393366004610e89565b610bbc565b6001602052600090815260409020546001600160a01b031681565b6103bb610c7d565b6001600160a01b03166103cc610920565b6001600160a01b0316146103fb5760405162461bcd60e51b81526004016103f290610f9e565b60405180910390fd5b6006541561040857600080fd5b600680546001818101835560008381527ff652222313e28459528d920b65115c16c04f3efc82aaedc97be59f3f377c0d3f92830155825480820184556005908301558254908101909255600a910155565b336000908152600360205260409020541561047357600080fd5b61047b610c81565b565b600754341461048b57600080fd5b60008082815481106104ad57634e487b7160e01b600052603260045260246000fd5b9060005260206000209060070201905060016006805490506104cf9190611048565b6104dc82600601546108aa565b106104e657600080fd5b60066104f582600601546108aa565b8154811061051357634e487b7160e01b600052603260045260246000fd5b6000918252602082200154600683015560405133917ffa75433b62fa9aa3569a596aca6569a4687697e876289d01131561272e0e904891a25050565b6000818154811061055f57600080fd5b600091825260209091206007909102018054600182015460028301546003840154600485015460058601546006909601549496509294919390929160ff169087565b6105a9610c7d565b6001600160a01b03166105ba610920565b6001600160a01b0316146105e05760405162461bcd60e51b81526004016103f290610f9e565b6105e8610920565b6001600160a01b03166108fc479081150290604051600060405180830381858888f19350505050158015610620573d6000803e3d6000fd5b50565b6001600160a01b0381166000908152600360205260408120546060919067ffffffffffffffff81111561066657634e487b7160e01b600052604160045260246000fd5b60405190808252806020026020018201604052801561068f578160200160208202803683370190505b5090506000805b60005481101561070e576000818152600160205260409020546001600160a01b03868116911614156106fc57808383815181106106e357634e487b7160e01b600052603260045260246000fd5b6020908102919091010152816106f88161105f565b9250505b806107068161105f565b915050610696565b50909150505b919050565b60026020526000908152604090205481565b610733610c7d565b6001600160a01b0316610744610920565b6001600160a01b03161461076a5760405162461bcd60e51b81526004016103f290610f9e565b6040805160e08101825260008082526020808301828152838501838152606085018481526080860185815260a0870186815260c088018781528a88526005968790529689902097518855935160018801559151600287015551600386015551600485015551908301805460ff191691151591909117905551600690910155517fda5207af4ca2a8f617e7b6b247ccb5495c765df30e98c115443a569b8ac3d26490610816908390610fd3565b60405180910390a150565b610829610c7d565b6001600160a01b031661083a610920565b6001600160a01b0316146108605760405162461bcd60e51b81526004016103f290610f9e565b6004546040516000916001600160a01b0316907f8be0079c531659141344cd1fd0a4f28419497f9722a3daafe3b4186f6b6457e0908390a3600480546001600160a01b0319169055565b6000805b60065481101561090457600681815481106108d957634e487b7160e01b600052603260045260246000fd5b90600052602060002001548310156108f2579050610714565b806108fc8161105f565b9150506108ae565b5050600654919050565b60036020526000908152604090205481565b6004546001600160a01b031690565b6006818154811061093f57600080fd5b600091825260209091200154905081565b6005602081905260009182526040909120805460018201546002830154600384015460048501549585015460069095015493959294919390929160ff169087565b8060075461099f9190611029565b34146109aa57600080fd5b61062081610ca0565b6109bb610c7d565b6001600160a01b03166109cc610920565b6001600160a01b0316146109f25760405162461bcd60e51b81526004016103f290610f9e565b600755565b6109ff610c7d565b6001600160a01b0316610a10610920565b6001600160a01b031614610a365760405162461bcd60e51b81526004016103f290610f9e565b6040805160e08101825285815260208082018681528284018681526000606085018181526080860182815260a0870183815260c088018a81528d855260059788905293899020975188559451600188015592516002870155516003860155905160048501559051918301805460ff19169215159290921790915551600690910155517f0a99a7515cce8c21202b55bdd8c634a45cf0fc5ffc970a5faf445f6e2666505790610aeb908690869086908690610fdc565b60405180910390a150505050565b610b01610c7d565b6001600160a01b0316610b12610920565b6001600160a01b031614610b385760405162461bcd60e51b81526004016103f290610f9e565b6006541580610b7e575060068054610b5290600190611048565b81548110610b7057634e487b7160e01b600052603260045260246000fd5b906000526020600020015481115b610b8757600080fd5b600680546001810182556000919091527ff652222313e28459528d920b65115c16c04f3efc82aaedc97be59f3f377c0d3f0155565b610bc4610c7d565b6001600160a01b0316610bd5610920565b6001600160a01b031614610bfb5760405162461bcd60e51b81526004016103f290610f9e565b6001600160a01b038116610c215760405162461bcd60e51b81526004016103f290610f58565b6004546040516001600160a01b038084169216907f8be0079c531659141344cd1fd0a4f28419497f9722a3daafe3b4186f6b6457e090600090a3600480546001600160a01b0319166001600160a01b0392909216919091179055565b3390565b610c8b6006610ca0565b33600090815260026020526040902060649055565b60005b81811015610e5a57600080546040805160e0810182528381526020808201858152828401868152606084018781526080850188815260a08601898152600160c08801818152818b018c558b8052975160078b027f290decd9548b62a8d60345a988386fc84ba6bc95484008f6362f93160ef3e56381019190915595517f290decd9548b62a8d60345a988386fc84ba6bc95484008f6362f93160ef3e56487015593517f290decd9548b62a8d60345a988386fc84ba6bc95484008f6362f93160ef3e56586015591517f290decd9548b62a8d60345a988386fc84ba6bc95484008f6362f93160ef3e566850155517f290decd9548b62a8d60345a988386fc84ba6bc95484008f6362f93160ef3e567840155517f290decd9548b62a8d60345a988386fc84ba6bc95484008f6362f93160ef3e5688301805491151560ff1990921691909117905592517f290decd9548b62a8d60345a988386fc84ba6bc95484008f6362f93160ef3e5699091015583855290815281842080546001600160a01b03191633908117909155845260039052822080549192610e418361105f565b9190505550508080610e529061105f565b915050610ca3565b5060405133907ffa75433b62fa9aa3569a596aca6569a4687697e876289d01131561272e0e904890600090a250565b600060208284031215610e9a578081fd5b81356001600160a01b0381168114610eb0578182fd5b9392505050565b600060208284031215610ec8578081fd5b5035919050565b60008060008060808587031215610ee4578283fd5b5050823594602084013594506040840135936060013592509050565b6001600160a01b0391909116815260200190565b6020808252825182820181905260009190848201906040850190845b81811015610f4c57835183529284019291840191600101610f30565b50909695505050505050565b60208082526026908201527f4f776e61626c653a206e6577206f776e657220697320746865207a65726f206160408201526564647265737360d01b606082015260800190565b6020808252818101527f4f776e61626c653a2063616c6c6572206973206e6f7420746865206f776e6572604082015260600190565b90815260200190565b93845260208401929092526040830152606082015260800190565b9687526020870195909552604086019390935260608501919091526080840152151560a083015260c082015260e00190565b60008160001904831182151516156110435761104361107a565b500290565b60008282101561105a5761105a61107a565b500390565b60006000198214156110735761107361107a565b5060010190565b634e487b7160e01b600052601160045260246000fdfea2646970667358221220cc1a6bb7ab0947bdf26e56c837f3496935b4862848cb5321b38ea4c83bb017cd64736f6c63430008000033",
    "sourcePath": "/Users/Cirno/Desktop/distributed_ether_farm-main/contracts/SlotUpgrade.sol",
    "compiler": {
        "name": "solc",
        "version": "0.8.0+commit.c7dfd78e"
    },
    "functionHashes": {
        "OwnerMoneyCount(address)": "580405ba",
        "OwnerSlotCount(address)": "8871c9c5",
        "UpgradeSlot(uint256)": "27adc95e",
        "addInLevelList(uint256)": "eb320915",
        "buySlot(uint256)": "ab2874cb",
        "createFarm()": "1d5ec3cb",
        "cropsList(uint256)": "a9bf928f",
        "delInCropsList(uint256)": "6099804d",
        "getFarmByOwner(address)": "575c25b0",
        "getLevel(uint256)": "86481d40",
        "initLevelList()": "0d79e835",
        "levelList(uint256)": "98815594",
        "modInCropsList(uint256,uint256,uint256,uint256)": "e1928ac9",
        "owner()": "8da5cb5b",
        "renounceOwnership()": "715018a6",
        "setLevelUpFee(uint256)": "ccf670f8",
        "slotToOwner(uint256)": "0c10e499",
        "slots(uint256)": "387dd9e9",
        "transferOwnership(address)": "f2fde38b",
        "withdraw()": "3ccfd60b"
    },
    "gasEstimates": {
        "creation": {
            "codeDepositCost": "858800",
            "executionCost": "43346",
            "totalCost": "902146"
        },
        "external": {
            "OwnerMoneyCount(address)": "1284",
            "OwnerSlotCount(address)": "1262",
            "UpgradeSlot(uint256)": "infinite",
            "addInLevelList(uint256)": "45476",
            "buySlot(uint256)": "infinite",
            "createFarm()": "infinite",
            "cropsList(uint256)": "6328",
            "delInCropsList(uint256)": "53501",
            "getFarmByOwner(address)": "infinite",
            "getLevel(uint256)": "infinite",
            "initLevelList()": "109439",
            "levelList(uint256)": "2085",
            "modInCropsList(uint256,uint256,uint256,uint256)": "114393",
            "owner()": "1137",
            "renounceOwnership()": "24363",
            "setLevelUpFee(uint256)": "21198",
            "slotToOwner(uint256)": "1237",
            "slots(uint256)": "7156",
            "transferOwnership(address)": "24565",
            "withdraw()": "infinite"
        }
    }
}