{
	"data": {
		"bytecode": {
			"linkReferences": {},
			"object": "608060405266038d7ea4c68000600e553480156200001c57600080fd5b506040518060400160405280600481526020017f536c6f74000000000000000000000000000000000000000000000000000000008152506040518060400160405280600381526020017f46414d000000000000000000000000000000000000000000000000000000000081525060006200009b6200017460201b60201c565b905080600560006101000a81548173ffffffffffffffffffffffffffffffffffffffff021916908373ffffffffffffffffffffffffffffffffffffffff1602179055508073ffffffffffffffffffffffffffffffffffffffff16600073ffffffffffffffffffffffffffffffffffffffff167f8be0079c531659141344cd1fd0a4f28419497f9722a3daafe3b4186f6b6457e060405160405180910390a3508160089080519060200190620001529291906200017c565b5080600990805190602001906200016b9291906200017c565b50505062000291565b600033905090565b8280546200018a906200022c565b90600052602060002090601f016020900481019282620001ae5760008555620001fa565b82601f10620001c957805160ff1916838001178555620001fa565b82800160010185558215620001fa579182015b82811115620001f9578251825591602001919060010190620001dc565b5b5090506200020991906200020d565b5090565b5b80821115620002285760008160009055506001016200020e565b5090565b600060028204905060018216806200024557607f821691505b602082108114156200025c576200025b62000262565b5b50919050565b7f4e487b7100000000000000000000000000000000000000000000000000000000600052602260045260246000fd5b6152fb80620002a16000396000f3fe6080604052600436106102675760003560e01c80638da5cb5b11610144578063b2e6ceeb116100b6578063d13e736a1161007a578063d13e736a14610972578063ddc63262146109af578063e1928ac9146109d8578063e985e9c514610a01578063eb32091514610a3e578063f2fde38b14610a6757610267565b8063b2e6ceeb14610891578063b88d4fde146108ba578063b99c6e0a146108e3578063c87b56dd1461090c578063ccf670f81461094957610267565b8063a22cb46511610108578063a22cb4651461077a578063a5c14ec7146107a3578063a7a624e0146107cc578063a9059cbb14610809578063a9bf928f14610832578063ab2874cb1461087557610267565b80638da5cb5b1461069557806392658a28146106c057806395d89b41146106e957806398815594146107145780639bcf5f0c1461075157610267565b80633ccfd60b116101dd5780636352211e116101a15780636352211e1461054d57806370a082311461058a578063715018a6146105c757806372e6eaa6146105de57806386481d401461061b5780638871c9c51461065857610267565b80633ccfd60b1461046a57806342842e0e14610481578063575c25b0146104aa578063580405ba146104e75780636099804d1461052457610267565b80630d79e8351161022f5780630d79e8351461037757806310e96da51461038e5780631d5ec3cb146103cb57806323b872dd146103e257806327adc95e1461040b578063387dd9e91461042757610267565b806301ffc9a71461026c57806306fdde03146102a9578063081812fc146102d4578063095ea7b3146103115780630c10e4991461033a575b600080fd5b34801561027857600080fd5b50610293600480360381019061028e91906142dc565b610a90565b6040516102a09190614a52565b60405180910390f35b3480156102b557600080fd5b506102be610b72565b6040516102cb9190614a6d565b60405180910390f35b3480156102e057600080fd5b506102fb60048036038101906102f6919061432e565b610c04565b60405161030891906149a7565b60405180910390f35b34801561031d57600080fd5b50610338600480360381019061033391906142a0565b610c89565b005b34801561034657600080fd5b50610361600480360381019061035c919061432e565b610da7565b60405161036e91906149a7565b60405180910390f35b34801561038357600080fd5b5061038c610dda565b005b34801561039a57600080fd5b506103b560048036038101906103b0919061415e565b610ee8565b6040516103c29190614a52565b60405180910390f35b3480156103d757600080fd5b506103e06110ef565b005b3480156103ee57600080fd5b506104096004803603810190610404919061419a565b611145565b005b6104256004803603810190610420919061432e565b611155565b005b34801561043357600080fd5b5061044e6004803603810190610449919061432e565b611278565b6040516104619796959493929190614c9c565b60405180910390f35b34801561047657600080fd5b5061047f6112d7565b005b34801561048d57600080fd5b506104a860048036038101906104a3919061419a565b6113a3565b005b3480156104b657600080fd5b506104d160048036038101906104cc9190614135565b6113c3565b6040516104de9190614a30565b60405180910390f35b3480156104f357600080fd5b5061050e60048036038101906105099190614135565b611562565b60405161051b9190614baf565b60405180910390f35b34801561053057600080fd5b5061054b6004803603810190610546919061432e565b61157a565b005b34801561055957600080fd5b50610574600480360381019061056f919061432e565b6116de565b60405161058191906149a7565b60405180910390f35b34801561059657600080fd5b506105b160048036038101906105ac9190614135565b61171b565b6040516105be9190614baf565b60405180910390f35b3480156105d357600080fd5b506105dc611764565b005b3480156105ea57600080fd5b506106056004803603810190610600919061415e565b6118a1565b6040516106129190614a52565b60405180910390f35b34801561062757600080fd5b50610642600480360381019061063d919061432e565b611981565b60405161064f9190614baf565b60405180910390f35b34801561066457600080fd5b5061067f600480360381019061067a9190614135565b611a0d565b60405161068c9190614baf565b60405180910390f35b3480156106a157600080fd5b506106aa611a25565b6040516106b791906149a7565b60405180910390f35b3480156106cc57600080fd5b506106e760048036038101906106e29190614357565b611a4f565b005b3480156106f557600080fd5b506106fe611d63565b60405161070b9190614a6d565b60405180910390f35b34801561072057600080fd5b5061073b6004803603810190610736919061432e565b611df5565b6040516107489190614baf565b60405180910390f35b34801561075d57600080fd5b506107786004803603810190610773919061432e565b611e19565b005b34801561078657600080fd5b506107a1600480360381019061079c9190614264565b612042565b005b3480156107af57600080fd5b506107ca60048036038101906107c5919061432e565b6121c3565b005b3480156107d857600080fd5b506107f360048036038101906107ee91906142a0565b612363565b60405161080091906149a7565b60405180910390f35b34801561081557600080fd5b50610830600480360381019061082b91906142a0565b6123b1565b005b34801561083e57600080fd5b506108596004803603810190610854919061432e565b6123c0565b60405161086c9796959493929190614c9c565b60405180910390f35b61088f600480360381019061088a919061432e565b61240f565b005b34801561089d57600080fd5b506108b860048036038101906108b3919061432e565b612434565b005b3480156108c657600080fd5b506108e160048036038101906108dc91906141e9565b6124bb565b005b3480156108ef57600080fd5b5061090a6004803603810190610905919061432e565b61251d565b005b34801561091857600080fd5b50610933600480360381019061092e919061432e565b6126bd565b6040516109409190614a6d565b60405180910390f35b34801561095557600080fd5b50610970600480360381019061096b919061432e565b612764565b005b34801561097e57600080fd5b5061099960048036038101906109949190614135565b6127ea565b6040516109a69190614a0e565b60405180910390f35b3480156109bb57600080fd5b506109d660048036038101906109d1919061432e565b6128b6565b005b3480156109e457600080fd5b506109ff60048036038101906109fa9190614393565b612b25565b005b348015610a0d57600080fd5b50610a286004803603810190610a23919061415e565b612c8e565b604051610a359190614a52565b60405180910390f35b348015610a4a57600080fd5b50610a656004803603810190610a60919061432e565b612d22565b005b348015610a7357600080fd5b50610a8e6004803603810190610a899190614135565b612e3b565b005b60007f80ac58cd000000000000000000000000000000000000000000000000000000007bffffffffffffffffffffffffffffffffffffffffffffffffffffffff1916827bffffffffffffffffffffffffffffffffffffffffffffffffffffffff19161480610b5b57507f5b5e139f000000000000000000000000000000000000000000000000000000007bffffffffffffffffffffffffffffffffffffffffffffffffffffffff1916827bffffffffffffffffffffffffffffffffffffffffffffffffffffffff1916145b80610b6b5750610b6a82612fe7565b5b9050919050565b606060088054610b81906150b5565b80601f0160208091040260200160405190810160405280929190818152602001828054610bad906150b5565b8015610bfa5780601f10610bcf57610100808354040283529160200191610bfa565b820191906000526020600020905b815481529060010190602001808311610bdd57829003601f168201915b5050505050905090565b6000610c0f82613051565b610c4e576040517f08c379a0000000000000000000000000000000000000000000000000000000008152600401610c4590614b2f565b60405180910390fd5b600c600083815260200190815260200160002060009054906101000a900473ffffffffffffffffffffffffffffffffffffffff169050919050565b806002600082815260200190815260200160002060009054906101000a900473ffffffffffffffffffffffffffffffffffffffff1673ffffffffffffffffffffffffffffffffffffffff163373ffffffffffffffffffffffffffffffffffffffff1614610cf557600080fd5b82600f600084815260200190815260200160002060006101000a81548173ffffffffffffffffffffffffffffffffffffffff021916908373ffffffffffffffffffffffffffffffffffffffff160217905550818373ffffffffffffffffffffffffffffffffffffffff163373ffffffffffffffffffffffffffffffffffffffff167f8c5be1e5ebec7d5bd14f71427d1e84f3dd0314c0f7b2291e5b200ac8c7c3b92560405160405180910390a4505050565b60026020528060005260406000206000915054906101000a900473ffffffffffffffffffffffffffffffffffffffff1681565b610de26130bd565b73ffffffffffffffffffffffffffffffffffffffff16610e00611a25565b73ffffffffffffffffffffffffffffffffffffffff1614610e56576040517f08c379a0000000000000000000000000000000000000000000000000000000008152600401610e4d90614b4f565b60405180910390fd5b600060078054905014610e6857600080fd5b6007600090806001815401808255809150506001900390600052602060002001600090919091909150556007600590806001815401808255809150506001900390600052602060002001600090919091909150556007600a9080600181540180825580915050600190039060005260206000200160009091909190915055565b6000610ef483836130c5565b80610f2a57508173ffffffffffffffffffffffffffffffffffffffff168373ffffffffffffffffffffffffffffffffffffffff16145b80610f615750600073ffffffffffffffffffffffffffffffffffffffff168373ffffffffffffffffffffffffffffffffffffffff16145b80610f985750600073ffffffffffffffffffffffffffffffffffffffff168273ffffffffffffffffffffffffffffffffffffffff16145b15610fa657600090506110e9565b6000808473ffffffffffffffffffffffffffffffffffffffff1673ffffffffffffffffffffffffffffffffffffffff168152602001908152602001600020829080600181540180825580915050600190039060005260206000200160009091909190916101000a81548173ffffffffffffffffffffffffffffffffffffffff021916908373ffffffffffffffffffffffffffffffffffffffff1602179055506000808373ffffffffffffffffffffffffffffffffffffffff1673ffffffffffffffffffffffffffffffffffffffff168152602001908152602001600020839080600181540180825580915050600190039060005260206000200160009091909190916101000a81548173ffffffffffffffffffffffffffffffffffffffff021916908373ffffffffffffffffffffffffffffffffffffffff160217905550600190505b92915050565b6000600460003373ffffffffffffffffffffffffffffffffffffffff1673ffffffffffffffffffffffffffffffffffffffff168152602001908152602001600020541461113b57600080fd5b611143613213565b565b611150838383613264565b505050565b600e54341461116357600080fd5b60006001828154811061119f577f4e487b7100000000000000000000000000000000000000000000000000000000600052603260045260246000fd5b9060005260206000209060070201905060016007805490506111c19190614f8f565b6111ce8260060154611981565b106111d857600080fd5b60076111e78260060154611981565b8154811061121e577f4e487b7100000000000000000000000000000000000000000000000000000000600052603260045260246000fd5b906000526020600020015481600601819055503373ffffffffffffffffffffffffffffffffffffffff167ffa75433b62fa9aa3569a596aca6569a4687697e876289d01131561272e0e904860405160405180910390a25050565b6001818154811061128857600080fd5b90600052602060002090600702016000915090508060000154908060010154908060020154908060030154908060040154908060050160009054906101000a900460ff16908060060154905087565b6112df6130bd565b73ffffffffffffffffffffffffffffffffffffffff166112fd611a25565b73ffffffffffffffffffffffffffffffffffffffff1614611353576040517f08c379a000000000000000000000000000000000000000000000000000000000815260040161134a90614b4f565b60405180910390fd5b61135b611a25565b73ffffffffffffffffffffffffffffffffffffffff166108fc479081150290604051600060405180830381858888f193505050501580156113a0573d6000803e3d6000fd5b50565b6113be838383604051806020016040528060008152506124bb565b505050565b60606000600460008473ffffffffffffffffffffffffffffffffffffffff1673ffffffffffffffffffffffffffffffffffffffff1681526020019081526020016000205467ffffffffffffffff811115611446577f4e487b7100000000000000000000000000000000000000000000000000000000600052604160045260246000fd5b6040519080825280602002602001820160405280156114745781602001602082028036833780820191505090505b5090506000805b600180549050811015611557578473ffffffffffffffffffffffffffffffffffffffff166002600083815260200190815260200160002060009054906101000a900473ffffffffffffffffffffffffffffffffffffffff1673ffffffffffffffffffffffffffffffffffffffff1614156115445780838381518110611529577f4e487b7100000000000000000000000000000000000000000000000000000000600052603260045260246000fd5b6020026020010181815250508180611540906150e7565b9250505b808061154f906150e7565b91505061147b565b508192505050919050565b60036020528060005260406000206000915090505481565b6115826130bd565b73ffffffffffffffffffffffffffffffffffffffff166115a0611a25565b73ffffffffffffffffffffffffffffffffffffffff16146115f6576040517f08c379a00000000000000000000000000000000000000000000000000000000081526004016115ed90614b4f565b60405180910390fd5b6040518060e001604052806000815260200160008152602001600081526020016000815260200160008152602001600015158152602001600081525060066000838152602001908152602001600020600082015181600001556020820151816001015560408201518160020155606082015181600301556080820151816004015560a08201518160050160006101000a81548160ff02191690831515021790555060c082015181600601559050507fda5207af4ca2a8f617e7b6b247ccb5495c765df30e98c115443a569b8ac3d264816040516116d39190614baf565b60405180910390a150565b60006002600083815260200190815260200160002060009054906101000a900473ffffffffffffffffffffffffffffffffffffffff169050919050565b6000600460008373ffffffffffffffffffffffffffffffffffffffff1673ffffffffffffffffffffffffffffffffffffffff168152602001908152602001600020549050919050565b61176c6130bd565b73ffffffffffffffffffffffffffffffffffffffff1661178a611a25565b73ffffffffffffffffffffffffffffffffffffffff16146117e0576040517f08c379a00000000000000000000000000000000000000000000000000000000081526004016117d790614b4f565b60405180910390fd5b600073ffffffffffffffffffffffffffffffffffffffff16600560009054906101000a900473ffffffffffffffffffffffffffffffffffffffff1673ffffffffffffffffffffffffffffffffffffffff167f8be0079c531659141344cd1fd0a4f28419497f9722a3daafe3b4186f6b6457e060405160405180910390a36000600560006101000a81548173ffffffffffffffffffffffffffffffffffffffff021916908373ffffffffffffffffffffffffffffffffffffffff160217905550565b60006118ad83836130c5565b15806118e457508173ffffffffffffffffffffffffffffffffffffffff168373ffffffffffffffffffffffffffffffffffffffff16145b8061191b5750600073ffffffffffffffffffffffffffffffffffffffff168373ffffffffffffffffffffffffffffffffffffffff16145b806119525750600073ffffffffffffffffffffffffffffffffffffffff168273ffffffffffffffffffffffffffffffffffffffff16145b15611960576000905061197b565b61196a838361340c565b50611975828461340c565b50600190505b92915050565b600080600090505b6007805490508110156119fe57600781815481106119d0577f4e487b7100000000000000000000000000000000000000000000000000000000600052603260045260246000fd5b90600052602060002001548310156119eb5780915050611a08565b80806119f6906150e7565b915050611989565b5060078054905090505b919050565b60046020528060005260406000206000915090505481565b6000600560009054906101000a900473ffffffffffffffffffffffffffffffffffffffff16905090565b806002600082815260200190815260200160002060009054906101000a900473ffffffffffffffffffffffffffffffffffffffff1673ffffffffffffffffffffffffffffffffffffffff163373ffffffffffffffffffffffffffffffffffffffff1614611abb57600080fd5b600060018381548110611af7577f4e487b7100000000000000000000000000000000000000000000000000000000600052603260045260246000fd5b9060005260206000209060070201905060008160000154148015611b7057506006600085815260200190815260200160002060020154600360003373ffffffffffffffffffffffffffffffffffffffff1673ffffffffffffffffffffffffffffffffffffffff1681526020019081526020016000205410155b8015611ba257506006600085815260200190815260200160002060060154600a8260060154611b9f9190614eae565b10155b611bab57600080fd5b60006006600086815260200190815260200160002060020154600360003373ffffffffffffffffffffffffffffffffffffffff1673ffffffffffffffffffffffffffffffffffffffff16815260200190815260200160002054611c0e9190614f8f565b905080600360003373ffffffffffffffffffffffffffffffffffffffff1673ffffffffffffffffffffffffffffffffffffffff1681526020019081526020016000208190555060066000868152602001908152602001600020600001548260000181905550600660008681526020019081526020016000206001015482600101819055506006600086815260200190815260200160002060020154826002018190555060008260050160006101000a81548160ff021916908315150217905550611cd78261369a565b611ce0826136d1565b611ce982613711565b3373ffffffffffffffffffffffffffffffffffffffff167f10b6615359775e93e7a308e2ee80875d995f6026b4a0e1f4e2dbe995c773fab78587856001015486600201548760030154886004015460008a600601548a604051611d5499989796959493929190614d0b565b60405180910390a25050505050565b606060098054611d72906150b5565b80601f0160208091040260200160405190810160405280929190818152602001828054611d9e906150b5565b8015611deb5780601f10611dc057610100808354040283529160200191611deb565b820191906000526020600020905b815481529060010190602001808311611dce57829003601f168201915b5050505050905090565b60078181548110611e0557600080fd5b906000526020600020016000915090505481565b611e56336002600084815260200190815260200160002060009054906101000a900473ffffffffffffffffffffffffffffffffffffffff16613751565b611e5f57600080fd5b600060018281548110611e9b577f4e487b7100000000000000000000000000000000000000000000000000000000600052603260045260246000fd5b90600052602060002090600702019050611eb481613776565b611ebd57600080fd5b8060050160009054906101000a900460ff1615611ed957600080fd5b8060020154600360003373ffffffffffffffffffffffffffffffffffffffff1673ffffffffffffffffffffffffffffffffffffffff16815260200190815260200160002054611f289190614eae565b600360003373ffffffffffffffffffffffffffffffffffffffff1673ffffffffffffffffffffffffffffffffffffffff1681526020019081526020016000208190555060018160050160006101000a81548160ff0219169083151502179055503373ffffffffffffffffffffffffffffffffffffffff167f10b6615359775e93e7a308e2ee80875d995f6026b4a0e1f4e2dbe995c773fab7838360000154846001015485600201548660030154876004015460018960060154600360003373ffffffffffffffffffffffffffffffffffffffff1673ffffffffffffffffffffffffffffffffffffffff1681526020019081526020016000205460405161203699989796959493929190614d0b565b60405180910390a25050565b61204a6130bd565b73ffffffffffffffffffffffffffffffffffffffff168273ffffffffffffffffffffffffffffffffffffffff1614156120b8576040517f08c379a00000000000000000000000000000000000000000000000000000000081526004016120af90614acf565b60405180910390fd5b80600d60006120c56130bd565b73ffffffffffffffffffffffffffffffffffffffff1673ffffffffffffffffffffffffffffffffffffffff16815260200190815260200160002060008473ffffffffffffffffffffffffffffffffffffffff1673ffffffffffffffffffffffffffffffffffffffff16815260200190815260200160002060006101000a81548160ff0219169083151502179055508173ffffffffffffffffffffffffffffffffffffffff166121726130bd565b73ffffffffffffffffffffffffffffffffffffffff167f17307eab39ab6107e8899845ad3d59bd9653f200f220920489ca2b5937696c31836040516121b79190614a52565b60405180910390a35050565b806002600082815260200190815260200160002060009054906101000a900473ffffffffffffffffffffffffffffffffffffffff1673ffffffffffffffffffffffffffffffffffffffff163373ffffffffffffffffffffffffffffffffffffffff161461222f57600080fd5b60006001838154811061226b577f4e487b7100000000000000000000000000000000000000000000000000000000600052603260045260246000fd5b9060005260206000209060070201905061228481613776565b158015612296575061229581613787565b5b61229f57600080fd5b6122a881613711565b3373ffffffffffffffffffffffffffffffffffffffff167f10b6615359775e93e7a308e2ee80875d995f6026b4a0e1f4e2dbe995c773fab7848360000154846001015485600201548660030154876004015460008960060154600360003373ffffffffffffffffffffffffffffffffffffffff1673ffffffffffffffffffffffffffffffffffffffff1681526020019081526020016000205460405161235699989796959493929190614d0b565b60405180910390a2505050565b6000602052816000526040600020818154811061237f57600080fd5b906000526020600020016000915091509054906101000a900473ffffffffffffffffffffffffffffffffffffffff1681565b6123bc338383613264565b5050565b60066020528060005260406000206000915090508060000154908060010154908060020154908060030154908060040154908060050160009054906101000a900460ff16908060060154905087565b80600e5461241d9190614f35565b341461242857600080fd5b61243181613798565b50565b3373ffffffffffffffffffffffffffffffffffffffff16600f600083815260200190815260200160002060009054906101000a900473ffffffffffffffffffffffffffffffffffffffff1673ffffffffffffffffffffffffffffffffffffffff161461249f57600080fd5b60006124aa826116de565b90506124b7813384613264565b5050565b6124cc6124c66130bd565b83613974565b61250b576040517f08c379a000000000000000000000000000000000000000000000000000000000815260040161250290614b8f565b60405180910390fd5b61251784848484613a52565b50505050565b806002600082815260200190815260200160002060009054906101000a900473ffffffffffffffffffffffffffffffffffffffff1673ffffffffffffffffffffffffffffffffffffffff163373ffffffffffffffffffffffffffffffffffffffff161461258957600080fd5b6000600183815481106125c5577f4e487b7100000000000000000000000000000000000000000000000000000000600052603260045260246000fd5b906000526020600020906007020190506125de81613776565b1580156125f057506125ef81613aae565b5b6125f957600080fd5b612602816136d1565b3373ffffffffffffffffffffffffffffffffffffffff167f10b6615359775e93e7a308e2ee80875d995f6026b4a0e1f4e2dbe995c773fab7848360000154846001015485600201548660030154876004015460008960060154600360003373ffffffffffffffffffffffffffffffffffffffff1673ffffffffffffffffffffffffffffffffffffffff168152602001908152602001600020546040516126b099989796959493929190614d0b565b60405180910390a2505050565b60606126c882613051565b612707576040517f08c379a00000000000000000000000000000000000000000000000000000000081526004016126fe90614b6f565b60405180910390fd5b6000612711613abf565b90506000815111612731576040518060200160405280600081525061275c565b8061273b84613ad6565b60405160200161274c929190614983565b6040516020818303038152906040525b915050919050565b61276c6130bd565b73ffffffffffffffffffffffffffffffffffffffff1661278a611a25565b73ffffffffffffffffffffffffffffffffffffffff16146127e0576040517f08c379a00000000000000000000000000000000000000000000000000000000081526004016127d790614b4f565b60405180910390fd5b80600e8190555050565b60606000808373ffffffffffffffffffffffffffffffffffffffff1673ffffffffffffffffffffffffffffffffffffffff1681526020019081526020016000208054806020026020016040519081016040528092919081815260200182805480156128aa57602002820191906000526020600020905b8160009054906101000a900473ffffffffffffffffffffffffffffffffffffffff1673ffffffffffffffffffffffffffffffffffffffff1681526020019060010190808311612860575b50505050509050919050565b806002600082815260200190815260200160002060009054906101000a900473ffffffffffffffffffffffffffffffffffffffff1673ffffffffffffffffffffffffffffffffffffffff163373ffffffffffffffffffffffffffffffffffffffff161461292257600080fd5b60006001838154811061295e577f4e487b7100000000000000000000000000000000000000000000000000000000600052603260045260246000fd5b9060005260206000209060070201905061297781613776565b61298057600080fd5b6000600290508160010154826003015411156129a55780806129a1906150e7565b9150505b8160010154826004015411156129c45780806129c0906150e7565b9150505b8160050160009054906101000a900460ff166129e95780806129e5906150e7565b9150505b60008183600201546129fb9190614f35565b600360003373ffffffffffffffffffffffffffffffffffffffff1673ffffffffffffffffffffffffffffffffffffffff16815260200190815260200160002054612a459190614eae565b905080600360003373ffffffffffffffffffffffffffffffffffffffff1673ffffffffffffffffffffffffffffffffffffffff16815260200190815260200160002081905550600083600001819055506005821415612ab957826006016000815480929190612ab3906150e7565b91905055505b3373ffffffffffffffffffffffffffffffffffffffff167f10b6615359775e93e7a308e2ee80875d995f6026b4a0e1f4e2dbe995c773fab7866000806000806000808b600601548a604051612b1699989796959493929190614bca565b60405180910390a25050505050565b612b2d6130bd565b73ffffffffffffffffffffffffffffffffffffffff16612b4b611a25565b73ffffffffffffffffffffffffffffffffffffffff1614612ba1576040517f08c379a0000000000000000000000000000000000000000000000000000000008152600401612b9890614b4f565b60405180910390fd5b6040518060e0016040528085815260200184815260200183815260200160008152602001600081526020016000151581526020018281525060066000868152602001908152602001600020600082015181600001556020820151816001015560408201518160020155606082015181600301556080820151816004015560a08201518160050160006101000a81548160ff02191690831515021790555060c082015181600601559050507f0a99a7515cce8c21202b55bdd8c634a45cf0fc5ffc970a5faf445f6e2666505784848484604051612c809493929190614c57565b60405180910390a150505050565b6000600d60008473ffffffffffffffffffffffffffffffffffffffff1673ffffffffffffffffffffffffffffffffffffffff16815260200190815260200160002060008373ffffffffffffffffffffffffffffffffffffffff1673ffffffffffffffffffffffffffffffffffffffff16815260200190815260200160002060009054906101000a900460ff16905092915050565b612d2a6130bd565b73ffffffffffffffffffffffffffffffffffffffff16612d48611a25565b73ffffffffffffffffffffffffffffffffffffffff1614612d9e576040517f08c379a0000000000000000000000000000000000000000000000000000000008152600401612d9590614b4f565b60405180910390fd5b60006007805490501480612e06575060076001600780549050612dc19190614f8f565b81548110612df8577f4e487b7100000000000000000000000000000000000000000000000000000000600052603260045260246000fd5b906000526020600020015481115b612e0f57600080fd5b600781908060018154018082558091505060019003906000526020600020016000909190919091505550565b612e436130bd565b73ffffffffffffffffffffffffffffffffffffffff16612e61611a25565b73ffffffffffffffffffffffffffffffffffffffff1614612eb7576040517f08c379a0000000000000000000000000000000000000000000000000000000008152600401612eae90614b4f565b60405180910390fd5b600073ffffffffffffffffffffffffffffffffffffffff168173ffffffffffffffffffffffffffffffffffffffff161415612f27576040517f08c379a0000000000000000000000000000000000000000000000000000000008152600401612f1e90614aaf565b60405180910390fd5b8073ffffffffffffffffffffffffffffffffffffffff16600560009054906101000a900473ffffffffffffffffffffffffffffffffffffffff1673ffffffffffffffffffffffffffffffffffffffff167f8be0079c531659141344cd1fd0a4f28419497f9722a3daafe3b4186f6b6457e060405160405180910390a380600560006101000a81548173ffffffffffffffffffffffffffffffffffffffff021916908373ffffffffffffffffffffffffffffffffffffffff16021790555050565b60007f01ffc9a7000000000000000000000000000000000000000000000000000000007bffffffffffffffffffffffffffffffffffffffffffffffffffffffff1916827bffffffffffffffffffffffffffffffffffffffffffffffffffffffff1916149050919050565b60008073ffffffffffffffffffffffffffffffffffffffff16600a600084815260200190815260200160002060009054906101000a900473ffffffffffffffffffffffffffffffffffffffff1673ffffffffffffffffffffffffffffffffffffffff1614159050919050565b600033905090565b600080600090505b6000808573ffffffffffffffffffffffffffffffffffffffff1673ffffffffffffffffffffffffffffffffffffffff16815260200190815260200160002080549050811015613207576000808573ffffffffffffffffffffffffffffffffffffffff1673ffffffffffffffffffffffffffffffffffffffff168152602001908152602001600020818154811061318c577f4e487b7100000000000000000000000000000000000000000000000000000000600052603260045260246000fd5b9060005260206000200160009054906101000a900473ffffffffffffffffffffffffffffffffffffffff1673ffffffffffffffffffffffffffffffffffffffff168373ffffffffffffffffffffffffffffffffffffffff1614156131f457600191505061320d565b80806131ff906150e7565b9150506130cd565b50600090505b92915050565b61321d6006613798565b6064600360003373ffffffffffffffffffffffffffffffffffffffff1673ffffffffffffffffffffffffffffffffffffffff16815260200190815260200160002081905550565b6006600460008573ffffffffffffffffffffffffffffffffffffffff1673ffffffffffffffffffffffffffffffffffffffff16815260200190815260200160002054116132b057600080fd5b600460008373ffffffffffffffffffffffffffffffffffffffff1673ffffffffffffffffffffffffffffffffffffffff1681526020019081526020016000206000815480929190613300906150e7565b9190505550600460008473ffffffffffffffffffffffffffffffffffffffff1673ffffffffffffffffffffffffffffffffffffffff16815260200190815260200160002060008154809291906133559061508b565b9190505550816002600083815260200190815260200160002060006101000a81548173ffffffffffffffffffffffffffffffffffffffff021916908373ffffffffffffffffffffffffffffffffffffffff160217905550808273ffffffffffffffffffffffffffffffffffffffff168473ffffffffffffffffffffffffffffffffffffffff167fddf252ad1be2c89b69c2b068fc378daa952ba7f163c4a11628f55a4df523b3ef60405160405180910390a4505050565b600061341883836130c5565b6134255760009050613694565b60006134318484613c83565b905060008060008673ffffffffffffffffffffffffffffffffffffffff1673ffffffffffffffffffffffffffffffffffffffff1681526020019081526020016000208054905090506000808673ffffffffffffffffffffffffffffffffffffffff1673ffffffffffffffffffffffffffffffffffffffff1681526020019081526020016000206001826134c49190614f8f565b815481106134fb577f4e487b7100000000000000000000000000000000000000000000000000000000600052603260045260246000fd5b9060005260206000200160009054906101000a900473ffffffffffffffffffffffffffffffffffffffff166000808773ffffffffffffffffffffffffffffffffffffffff1673ffffffffffffffffffffffffffffffffffffffff168152602001908152602001600020838154811061359c577f4e487b7100000000000000000000000000000000000000000000000000000000600052603260045260246000fd5b9060005260206000200160006101000a81548173ffffffffffffffffffffffffffffffffffffffff021916908373ffffffffffffffffffffffffffffffffffffffff1602179055506000808673ffffffffffffffffffffffffffffffffffffffff1673ffffffffffffffffffffffffffffffffffffffff168152602001908152602001600020805480613658577f4e487b7100000000000000000000000000000000000000000000000000000000600052603160045260246000fd5b6001900381819060005260206000200160006101000a81549073ffffffffffffffffffffffffffffffffffffffff021916905590556001925050505b92915050565b600660008260000154815260200190815260200160002060010154426136c09190614eae565b63ffffffff16816001018190555050565b60646136eb4283600101546136e69190614f8f565b613dc8565b426136f69190614eae565b6137009190614eae565b63ffffffff16816003018190555050565b606461372b4283600101546137269190614f8f565b613dc8565b426137369190614eae565b6137409190614eae565b63ffffffff16816004018190555050565b600061375d83836130c5565b1561376b5760019050613770565b600090505b92915050565b600042826001015411159050919050565b600042826004015411159050919050565b60005b8181101561392d576000600180549050905060016040518060e00160405280600081526020016000815260200160008152602001600081526020016000815260200160001515815260200160018152509080600181540180825580915050600190039060005260206000209060070201600090919091909150600082015181600001556020820151816001015560408201518160020155606082015181600301556080820151816004015560a08201518160050160006101000a81548160ff02191690831515021790555060c082015181600601555050336002600083815260200190815260200160002060006101000a81548173ffffffffffffffffffffffffffffffffffffffff021916908373ffffffffffffffffffffffffffffffffffffffff160217905550600460003373ffffffffffffffffffffffffffffffffffffffff1673ffffffffffffffffffffffffffffffffffffffff1681526020019081526020016000206000815480929190613914906150e7565b9190505550508080613925906150e7565b91505061379b565b503373ffffffffffffffffffffffffffffffffffffffff167ffa75433b62fa9aa3569a596aca6569a4687697e876289d01131561272e0e904860405160405180910390a250565b600061397f82613051565b6139be576040517f08c379a00000000000000000000000000000000000000000000000000000000081526004016139b590614aef565b60405180910390fd5b60006139c983613e08565b90508073ffffffffffffffffffffffffffffffffffffffff168473ffffffffffffffffffffffffffffffffffffffff161480613a3857508373ffffffffffffffffffffffffffffffffffffffff16613a2084610c04565b73ffffffffffffffffffffffffffffffffffffffff16145b80613a495750613a488185612c8e565b5b91505092915050565b613a5d848484613264565b613a6984848484613eba565b613aa8576040517f08c379a0000000000000000000000000000000000000000000000000000000008152600401613a9f90614a8f565b60405180910390fd5b50505050565b600042826003015411159050919050565b606060405180602001604052806000815250905090565b60606000821415613b1e576040518060400160405280600181526020017f30000000000000000000000000000000000000000000000000000000000000008152509050613c7e565b600082905060005b60008214613b50578080613b39906150e7565b915050600a82613b499190614f04565b9150613b26565b60008167ffffffffffffffff811115613b92577f4e487b7100000000000000000000000000000000000000000000000000000000600052604160045260246000fd5b6040519080825280601f01601f191660200182016040528015613bc45781602001600182028036833780820191505090505b5090505b60008514613c7757600182613bdd9190614f8f565b9150600a85613bec919061515e565b6030613bf89190614eae565b60f81b818381518110613c34577f4e487b7100000000000000000000000000000000000000000000000000000000600052603260045260246000fd5b60200101907effffffffffffffffffffffffffffffffffffffffffffffffffffffffffffff1916908160001a905350600a85613c709190614f04565b9450613bc8565b8093505050505b919050565b60008060005b6000808673ffffffffffffffffffffffffffffffffffffffff1673ffffffffffffffffffffffffffffffffffffffff16815260200190815260200160002080549050811015613dbd576000808673ffffffffffffffffffffffffffffffffffffffff1673ffffffffffffffffffffffffffffffffffffffff1681526020019081526020016000208181548110613d48577f4e487b7100000000000000000000000000000000000000000000000000000000600052603260045260246000fd5b9060005260206000200160009054906101000a900473ffffffffffffffffffffffffffffffffffffffff1673ffffffffffffffffffffffffffffffffffffffff168473ffffffffffffffffffffffffffffffffffffffff161415613daa578091505b8080613db5906150e7565b915050613c89565b508091505092915050565b6000813342604051602001613dde929190614957565b6040516020818303038152906040528051906020012060001c613e01919061515e565b9050919050565b600080600a600084815260200190815260200160002060009054906101000a900473ffffffffffffffffffffffffffffffffffffffff169050600073ffffffffffffffffffffffffffffffffffffffff168173ffffffffffffffffffffffffffffffffffffffff161415613eb1576040517f08c379a0000000000000000000000000000000000000000000000000000000008152600401613ea890614b0f565b60405180910390fd5b80915050919050565b6000613edb8473ffffffffffffffffffffffffffffffffffffffff16614051565b15614044578373ffffffffffffffffffffffffffffffffffffffff1663150b7a02613f046130bd565b8786866040518563ffffffff1660e01b8152600401613f2694939291906149c2565b602060405180830381600087803b158015613f4057600080fd5b505af1925050508015613f7157506040513d601f19601f82011682018060405250810190613f6e9190614305565b60015b613ff4573d8060008114613fa1576040519150601f19603f3d011682016040523d82523d6000602084013e613fa6565b606091505b50600081511415613fec576040517f08c379a0000000000000000000000000000000000000000000000000000000008152600401613fe390614a8f565b60405180910390fd5b805181602001fd5b63150b7a0260e01b7bffffffffffffffffffffffffffffffffffffffffffffffffffffffff1916817bffffffffffffffffffffffffffffffffffffffffffffffffffffffff191614915050614049565b600190505b949350505050565b600080823b905060008111915050919050565b600061407761407284614dc9565b614d98565b90508281526020810184848401111561408f57600080fd5b61409a848285615049565b509392505050565b6000813590506140b181615269565b92915050565b6000813590506140c681615280565b92915050565b6000813590506140db81615297565b92915050565b6000815190506140f081615297565b92915050565b600082601f83011261410757600080fd5b8135614117848260208601614064565b91505092915050565b60008135905061412f816152ae565b92915050565b60006020828403121561414757600080fd5b6000614155848285016140a2565b91505092915050565b6000806040838503121561417157600080fd5b600061417f858286016140a2565b9250506020614190858286016140a2565b9150509250929050565b6000806000606084860312156141af57600080fd5b60006141bd868287016140a2565b93505060206141ce868287016140a2565b92505060406141df86828701614120565b9150509250925092565b600080600080608085870312156141ff57600080fd5b600061420d878288016140a2565b945050602061421e878288016140a2565b935050604061422f87828801614120565b925050606085013567ffffffffffffffff81111561424c57600080fd5b614258878288016140f6565b91505092959194509250565b6000806040838503121561427757600080fd5b6000614285858286016140a2565b9250506020614296858286016140b7565b9150509250929050565b600080604083850312156142b357600080fd5b60006142c1858286016140a2565b92505060206142d285828601614120565b9150509250929050565b6000602082840312156142ee57600080fd5b60006142fc848285016140cc565b91505092915050565b60006020828403121561431757600080fd5b6000614325848285016140e1565b91505092915050565b60006020828403121561434057600080fd5b600061434e84828501614120565b91505092915050565b6000806040838503121561436a57600080fd5b600061437885828601614120565b925050602061438985828601614120565b9150509250929050565b600080600080608085870312156143a957600080fd5b60006143b787828801614120565b94505060206143c887828801614120565b93505060406143d987828801614120565b92505060606143ea87828801614120565b91505092959194509250565b60006144028383614426565b60208301905092915050565b600061441a8383614922565b60208301905092915050565b61442f81614fc3565b82525050565b61443e81614fc3565b82525050565b61445561445082614fc3565b615130565b82525050565b600061446682614e19565b6144708185614e5f565b935061447b83614df9565b8060005b838110156144ac57815161449388826143f6565b975061449e83614e45565b92505060018101905061447f565b5085935050505092915050565b60006144c482614e24565b6144ce8185614e70565b93506144d983614e09565b8060005b8381101561450a5781516144f1888261440e565b97506144fc83614e52565b9250506001810190506144dd565b5085935050505092915050565b61452081614fd5565b82525050565b600061453182614e2f565b61453b8185614e81565b935061454b818560208601615058565b6145548161524b565b840191505092915050565b61456881615037565b82525050565b600061457982614e3a565b6145838185614e92565b9350614593818560208601615058565b61459c8161524b565b840191505092915050565b60006145b282614e3a565b6145bc8185614ea3565b93506145cc818560208601615058565b80840191505092915050565b60006145e5603283614e92565b91507f4552433732313a207472616e7366657220746f206e6f6e20455243373231526560008301527f63656976657220696d706c656d656e74657200000000000000000000000000006020830152604082019050919050565b600061464b602683614e92565b91507f4f776e61626c653a206e6577206f776e657220697320746865207a65726f206160008301527f64647265737300000000000000000000000000000000000000000000000000006020830152604082019050919050565b60006146b1601983614e92565b91507f4552433732313a20617070726f766520746f2063616c6c6572000000000000006000830152602082019050919050565b60006146f1602c83614e92565b91507f4552433732313a206f70657261746f7220717565727920666f72206e6f6e657860008301527f697374656e7420746f6b656e00000000000000000000000000000000000000006020830152604082019050919050565b6000614757602983614e92565b91507f4552433732313a206f776e657220717565727920666f72206e6f6e657869737460008301527f656e7420746f6b656e00000000000000000000000000000000000000000000006020830152604082019050919050565b60006147bd602c83614e92565b91507f4552433732313a20617070726f76656420717565727920666f72206e6f6e657860008301527f697374656e7420746f6b656e00000000000000000000000000000000000000006020830152604082019050919050565b6000614823602083614e92565b91507f4f776e61626c653a2063616c6c6572206973206e6f7420746865206f776e65726000830152602082019050919050565b6000614863602f83614e92565b91507f4552433732314d657461646174613a2055524920717565727920666f72206e6f60008301527f6e6578697374656e7420746f6b656e00000000000000000000000000000000006020830152604082019050919050565b60006148c9603183614e92565b91507f4552433732313a207472616e736665722063616c6c6572206973206e6f74206f60008301527f776e6572206e6f7220617070726f7665640000000000000000000000000000006020830152604082019050919050565b61492b8161502d565b82525050565b61493a8161502d565b82525050565b61495161494c8261502d565b615154565b82525050565b60006149638285614444565b6014820191506149738284614940565b6020820191508190509392505050565b600061498f82856145a7565b915061499b82846145a7565b91508190509392505050565b60006020820190506149bc6000830184614435565b92915050565b60006080820190506149d76000830187614435565b6149e46020830186614435565b6149f16040830185614931565b8181036060830152614a038184614526565b905095945050505050565b60006020820190508181036000830152614a28818461445b565b905092915050565b60006020820190508181036000830152614a4a81846144b9565b905092915050565b6000602082019050614a676000830184614517565b92915050565b60006020820190508181036000830152614a87818461456e565b905092915050565b60006020820190508181036000830152614aa8816145d8565b9050919050565b60006020820190508181036000830152614ac88161463e565b9050919050565b60006020820190508181036000830152614ae8816146a4565b9050919050565b60006020820190508181036000830152614b08816146e4565b9050919050565b60006020820190508181036000830152614b288161474a565b9050919050565b60006020820190508181036000830152614b48816147b0565b9050919050565b60006020820190508181036000830152614b6881614816565b9050919050565b60006020820190508181036000830152614b8881614856565b9050919050565b60006020820190508181036000830152614ba8816148bc565b9050919050565b6000602082019050614bc46000830184614931565b92915050565b600061012082019050614be0600083018c614931565b614bed602083018b61455f565b614bfa604083018a61455f565b614c07606083018961455f565b614c14608083018861455f565b614c2160a083018761455f565b614c2e60c0830186614517565b614c3b60e0830185614931565b614c49610100830184614931565b9a9950505050505050505050565b6000608082019050614c6c6000830187614931565b614c796020830186614931565b614c866040830185614931565b614c936060830184614931565b95945050505050565b600060e082019050614cb1600083018a614931565b614cbe6020830189614931565b614ccb6040830188614931565b614cd86060830187614931565b614ce56080830186614931565b614cf260a0830185614517565b614cff60c0830184614931565b98975050505050505050565b600061012082019050614d21600083018c614931565b614d2e602083018b614931565b614d3b604083018a614931565b614d486060830189614931565b614d556080830188614931565b614d6260a0830187614931565b614d6f60c0830186614517565b614d7c60e0830185614931565b614d8a610100830184614931565b9a9950505050505050505050565b6000604051905081810181811067ffffffffffffffff82111715614dbf57614dbe61521c565b5b8060405250919050565b600067ffffffffffffffff821115614de457614de361521c565b5b601f19601f8301169050602081019050919050565b6000819050602082019050919050565b6000819050602082019050919050565b600081519050919050565b600081519050919050565b600081519050919050565b600081519050919050565b6000602082019050919050565b6000602082019050919050565b600082825260208201905092915050565b600082825260208201905092915050565b600082825260208201905092915050565b600082825260208201905092915050565b600081905092915050565b6000614eb98261502d565b9150614ec48361502d565b9250827fffffffffffffffffffffffffffffffffffffffffffffffffffffffffffffffff03821115614ef957614ef861518f565b5b828201905092915050565b6000614f0f8261502d565b9150614f1a8361502d565b925082614f2a57614f296151be565b5b828204905092915050565b6000614f408261502d565b9150614f4b8361502d565b9250817fffffffffffffffffffffffffffffffffffffffffffffffffffffffffffffffff0483118215151615614f8457614f8361518f565b5b828202905092915050565b6000614f9a8261502d565b9150614fa58361502d565b925082821015614fb857614fb761518f565b5b828203905092915050565b6000614fce8261500d565b9050919050565b60008115159050919050565b60007fffffffff0000000000000000000000000000000000000000000000000000000082169050919050565b600073ffffffffffffffffffffffffffffffffffffffff82169050919050565b6000819050919050565b60006150428261502d565b9050919050565b82818337600083830152505050565b60005b8381101561507657808201518184015260208101905061505b565b83811115615085576000848401525b50505050565b60006150968261502d565b915060008214156150aa576150a961518f565b5b600182039050919050565b600060028204905060018216806150cd57607f821691505b602082108114156150e1576150e06151ed565b5b50919050565b60006150f28261502d565b91507fffffffffffffffffffffffffffffffffffffffffffffffffffffffffffffffff8214156151255761512461518f565b5b600182019050919050565b600061513b82615142565b9050919050565b600061514d8261525c565b9050919050565b6000819050919050565b60006151698261502d565b91506151748361502d565b925082615184576151836151be565b5b828206905092915050565b7f4e487b7100000000000000000000000000000000000000000000000000000000600052601160045260246000fd5b7f4e487b7100000000000000000000000000000000000000000000000000000000600052601260045260246000fd5b7f4e487b7100000000000000000000000000000000000000000000000000000000600052602260045260246000fd5b7f4e487b7100000000000000000000000000000000000000000000000000000000600052604160045260246000fd5b6000601f19601f8301169050919050565b60008160601b9050919050565b61527281614fc3565b811461527d57600080fd5b50565b61528981614fd5565b811461529457600080fd5b50565b6152a081614fe1565b81146152ab57600080fd5b50565b6152b78161502d565b81146152c257600080fd5b5056fea264697066735822122069435a6a2dfdceee53404e0d7587c26a7988ddd86c9778d264ad49b42072ceef64736f6c63430008000033",
			"opcodes": "PUSH1 0x80 PUSH1 0x40 MSTORE PUSH7 0x38D7EA4C68000 PUSH1 0xE SSTORE CALLVALUE DUP1 ISZERO PUSH3 0x1C JUMPI PUSH1 0x0 DUP1 REVERT JUMPDEST POP PUSH1 0x40 MLOAD DUP1 PUSH1 0x40 ADD PUSH1 0x40 MSTORE DUP1 PUSH1 0x4 DUP2 MSTORE PUSH1 0x20 ADD PUSH32 0x536C6F7400000000000000000000000000000000000000000000000000000000 DUP2 MSTORE POP PUSH1 0x40 MLOAD DUP1 PUSH1 0x40 ADD PUSH1 0x40 MSTORE DUP1 PUSH1 0x3 DUP2 MSTORE PUSH1 0x20 ADD PUSH32 0x46414D0000000000000000000000000000000000000000000000000000000000 DUP2 MSTORE POP PUSH1 0x0 PUSH3 0x9B PUSH3 0x174 PUSH1 0x20 SHL PUSH1 0x20 SHR JUMP JUMPDEST SWAP1 POP DUP1 PUSH1 0x5 PUSH1 0x0 PUSH2 0x100 EXP DUP2 SLOAD DUP2 PUSH20 0xFFFFFFFFFFFFFFFFFFFFFFFFFFFFFFFFFFFFFFFF MUL NOT AND SWAP1 DUP4 PUSH20 0xFFFFFFFFFFFFFFFFFFFFFFFFFFFFFFFFFFFFFFFF AND MUL OR SWAP1 SSTORE POP DUP1 PUSH20 0xFFFFFFFFFFFFFFFFFFFFFFFFFFFFFFFFFFFFFFFF AND PUSH1 0x0 PUSH20 0xFFFFFFFFFFFFFFFFFFFFFFFFFFFFFFFFFFFFFFFF AND PUSH32 0x8BE0079C531659141344CD1FD0A4F28419497F9722A3DAAFE3B4186F6B6457E0 PUSH1 0x40 MLOAD PUSH1 0x40 MLOAD DUP1 SWAP2 SUB SWAP1 LOG3 POP DUP2 PUSH1 0x8 SWAP1 DUP1 MLOAD SWAP1 PUSH1 0x20 ADD SWAP1 PUSH3 0x152 SWAP3 SWAP2 SWAP1 PUSH3 0x17C JUMP JUMPDEST POP DUP1 PUSH1 0x9 SWAP1 DUP1 MLOAD SWAP1 PUSH1 0x20 ADD SWAP1 PUSH3 0x16B SWAP3 SWAP2 SWAP1 PUSH3 0x17C JUMP JUMPDEST POP POP POP PUSH3 0x291 JUMP JUMPDEST PUSH1 0x0 CALLER SWAP1 POP SWAP1 JUMP JUMPDEST DUP3 DUP1 SLOAD PUSH3 0x18A SWAP1 PUSH3 0x22C JUMP JUMPDEST SWAP1 PUSH1 0x0 MSTORE PUSH1 0x20 PUSH1 0x0 KECCAK256 SWAP1 PUSH1 0x1F ADD PUSH1 0x20 SWAP1 DIV DUP2 ADD SWAP3 DUP3 PUSH3 0x1AE JUMPI PUSH1 0x0 DUP6 SSTORE PUSH3 0x1FA JUMP JUMPDEST DUP3 PUSH1 0x1F LT PUSH3 0x1C9 JUMPI DUP1 MLOAD PUSH1 0xFF NOT AND DUP4 DUP1 ADD OR DUP6 SSTORE PUSH3 0x1FA JUMP JUMPDEST DUP3 DUP1 ADD PUSH1 0x1 ADD DUP6 SSTORE DUP3 ISZERO PUSH3 0x1FA JUMPI SWAP2 DUP3 ADD JUMPDEST DUP3 DUP2 GT ISZERO PUSH3 0x1F9 JUMPI DUP3 MLOAD DUP3 SSTORE SWAP2 PUSH1 0x20 ADD SWAP2 SWAP1 PUSH1 0x1 ADD SWAP1 PUSH3 0x1DC JUMP JUMPDEST JUMPDEST POP SWAP1 POP PUSH3 0x209 SWAP2 SWAP1 PUSH3 0x20D JUMP JUMPDEST POP SWAP1 JUMP JUMPDEST JUMPDEST DUP1 DUP3 GT ISZERO PUSH3 0x228 JUMPI PUSH1 0x0 DUP2 PUSH1 0x0 SWAP1 SSTORE POP PUSH1 0x1 ADD PUSH3 0x20E JUMP JUMPDEST POP SWAP1 JUMP JUMPDEST PUSH1 0x0 PUSH1 0x2 DUP3 DIV SWAP1 POP PUSH1 0x1 DUP3 AND DUP1 PUSH3 0x245 JUMPI PUSH1 0x7F DUP3 AND SWAP2 POP JUMPDEST PUSH1 0x20 DUP3 LT DUP2 EQ ISZERO PUSH3 0x25C JUMPI PUSH3 0x25B PUSH3 0x262 JUMP JUMPDEST JUMPDEST POP SWAP2 SWAP1 POP JUMP JUMPDEST PUSH32 0x4E487B7100000000000000000000000000000000000000000000000000000000 PUSH1 0x0 MSTORE PUSH1 0x22 PUSH1 0x4 MSTORE PUSH1 0x24 PUSH1 0x0 REVERT JUMPDEST PUSH2 0x52FB DUP1 PUSH3 0x2A1 PUSH1 0x0 CODECOPY PUSH1 0x0 RETURN INVALID PUSH1 0x80 PUSH1 0x40 MSTORE PUSH1 0x4 CALLDATASIZE LT PUSH2 0x267 JUMPI PUSH1 0x0 CALLDATALOAD PUSH1 0xE0 SHR DUP1 PUSH4 0x8DA5CB5B GT PUSH2 0x144 JUMPI DUP1 PUSH4 0xB2E6CEEB GT PUSH2 0xB6 JUMPI DUP1 PUSH4 0xD13E736A GT PUSH2 0x7A JUMPI DUP1 PUSH4 0xD13E736A EQ PUSH2 0x972 JUMPI DUP1 PUSH4 0xDDC63262 EQ PUSH2 0x9AF JUMPI DUP1 PUSH4 0xE1928AC9 EQ PUSH2 0x9D8 JUMPI DUP1 PUSH4 0xE985E9C5 EQ PUSH2 0xA01 JUMPI DUP1 PUSH4 0xEB320915 EQ PUSH2 0xA3E JUMPI DUP1 PUSH4 0xF2FDE38B EQ PUSH2 0xA67 JUMPI PUSH2 0x267 JUMP JUMPDEST DUP1 PUSH4 0xB2E6CEEB EQ PUSH2 0x891 JUMPI DUP1 PUSH4 0xB88D4FDE EQ PUSH2 0x8BA JUMPI DUP1 PUSH4 0xB99C6E0A EQ PUSH2 0x8E3 JUMPI DUP1 PUSH4 0xC87B56DD EQ PUSH2 0x90C JUMPI DUP1 PUSH4 0xCCF670F8 EQ PUSH2 0x949 JUMPI PUSH2 0x267 JUMP JUMPDEST DUP1 PUSH4 0xA22CB465 GT PUSH2 0x108 JUMPI DUP1 PUSH4 0xA22CB465 EQ PUSH2 0x77A JUMPI DUP1 PUSH4 0xA5C14EC7 EQ PUSH2 0x7A3 JUMPI DUP1 PUSH4 0xA7A624E0 EQ PUSH2 0x7CC JUMPI DUP1 PUSH4 0xA9059CBB EQ PUSH2 0x809 JUMPI DUP1 PUSH4 0xA9BF928F EQ PUSH2 0x832 JUMPI DUP1 PUSH4 0xAB2874CB EQ PUSH2 0x875 JUMPI PUSH2 0x267 JUMP JUMPDEST DUP1 PUSH4 0x8DA5CB5B EQ PUSH2 0x695 JUMPI DUP1 PUSH4 0x92658A28 EQ PUSH2 0x6C0 JUMPI DUP1 PUSH4 0x95D89B41 EQ PUSH2 0x6E9 JUMPI DUP1 PUSH4 0x98815594 EQ PUSH2 0x714 JUMPI DUP1 PUSH4 0x9BCF5F0C EQ PUSH2 0x751 JUMPI PUSH2 0x267 JUMP JUMPDEST DUP1 PUSH4 0x3CCFD60B GT PUSH2 0x1DD JUMPI DUP1 PUSH4 0x6352211E GT PUSH2 0x1A1 JUMPI DUP1 PUSH4 0x6352211E EQ PUSH2 0x54D JUMPI DUP1 PUSH4 0x70A08231 EQ PUSH2 0x58A JUMPI DUP1 PUSH4 0x715018A6 EQ PUSH2 0x5C7 JUMPI DUP1 PUSH4 0x72E6EAA6 EQ PUSH2 0x5DE JUMPI DUP1 PUSH4 0x86481D40 EQ PUSH2 0x61B JUMPI DUP1 PUSH4 0x8871C9C5 EQ PUSH2 0x658 JUMPI PUSH2 0x267 JUMP JUMPDEST DUP1 PUSH4 0x3CCFD60B EQ PUSH2 0x46A JUMPI DUP1 PUSH4 0x42842E0E EQ PUSH2 0x481 JUMPI DUP1 PUSH4 0x575C25B0 EQ PUSH2 0x4AA JUMPI DUP1 PUSH4 0x580405BA EQ PUSH2 0x4E7 JUMPI DUP1 PUSH4 0x6099804D EQ PUSH2 0x524 JUMPI PUSH2 0x267 JUMP JUMPDEST DUP1 PUSH4 0xD79E835 GT PUSH2 0x22F JUMPI DUP1 PUSH4 0xD79E835 EQ PUSH2 0x377 JUMPI DUP1 PUSH4 0x10E96DA5 EQ PUSH2 0x38E JUMPI DUP1 PUSH4 0x1D5EC3CB EQ PUSH2 0x3CB JUMPI DUP1 PUSH4 0x23B872DD EQ PUSH2 0x3E2 JUMPI DUP1 PUSH4 0x27ADC95E EQ PUSH2 0x40B JUMPI DUP1 PUSH4 0x387DD9E9 EQ PUSH2 0x427 JUMPI PUSH2 0x267 JUMP JUMPDEST DUP1 PUSH4 0x1FFC9A7 EQ PUSH2 0x26C JUMPI DUP1 PUSH4 0x6FDDE03 EQ PUSH2 0x2A9 JUMPI DUP1 PUSH4 0x81812FC EQ PUSH2 0x2D4 JUMPI DUP1 PUSH4 0x95EA7B3 EQ PUSH2 0x311 JUMPI DUP1 PUSH4 0xC10E499 EQ PUSH2 0x33A JUMPI JUMPDEST PUSH1 0x0 DUP1 REVERT JUMPDEST CALLVALUE DUP1 ISZERO PUSH2 0x278 JUMPI PUSH1 0x0 DUP1 REVERT JUMPDEST POP PUSH2 0x293 PUSH1 0x4 DUP1 CALLDATASIZE SUB DUP2 ADD SWAP1 PUSH2 0x28E SWAP2 SWAP1 PUSH2 0x42DC JUMP JUMPDEST PUSH2 0xA90 JUMP JUMPDEST PUSH1 0x40 MLOAD PUSH2 0x2A0 SWAP2 SWAP1 PUSH2 0x4A52 JUMP JUMPDEST PUSH1 0x40 MLOAD DUP1 SWAP2 SUB SWAP1 RETURN JUMPDEST CALLVALUE DUP1 ISZERO PUSH2 0x2B5 JUMPI PUSH1 0x0 DUP1 REVERT JUMPDEST POP PUSH2 0x2BE PUSH2 0xB72 JUMP JUMPDEST PUSH1 0x40 MLOAD PUSH2 0x2CB SWAP2 SWAP1 PUSH2 0x4A6D JUMP JUMPDEST PUSH1 0x40 MLOAD DUP1 SWAP2 SUB SWAP1 RETURN JUMPDEST CALLVALUE DUP1 ISZERO PUSH2 0x2E0 JUMPI PUSH1 0x0 DUP1 REVERT JUMPDEST POP PUSH2 0x2FB PUSH1 0x4 DUP1 CALLDATASIZE SUB DUP2 ADD SWAP1 PUSH2 0x2F6 SWAP2 SWAP1 PUSH2 0x432E JUMP JUMPDEST PUSH2 0xC04 JUMP JUMPDEST PUSH1 0x40 MLOAD PUSH2 0x308 SWAP2 SWAP1 PUSH2 0x49A7 JUMP JUMPDEST PUSH1 0x40 MLOAD DUP1 SWAP2 SUB SWAP1 RETURN JUMPDEST CALLVALUE DUP1 ISZERO PUSH2 0x31D JUMPI PUSH1 0x0 DUP1 REVERT JUMPDEST POP PUSH2 0x338 PUSH1 0x4 DUP1 CALLDATASIZE SUB DUP2 ADD SWAP1 PUSH2 0x333 SWAP2 SWAP1 PUSH2 0x42A0 JUMP JUMPDEST PUSH2 0xC89 JUMP JUMPDEST STOP JUMPDEST CALLVALUE DUP1 ISZERO PUSH2 0x346 JUMPI PUSH1 0x0 DUP1 REVERT JUMPDEST POP PUSH2 0x361 PUSH1 0x4 DUP1 CALLDATASIZE SUB DUP2 ADD SWAP1 PUSH2 0x35C SWAP2 SWAP1 PUSH2 0x432E JUMP JUMPDEST PUSH2 0xDA7 JUMP JUMPDEST PUSH1 0x40 MLOAD PUSH2 0x36E SWAP2 SWAP1 PUSH2 0x49A7 JUMP JUMPDEST PUSH1 0x40 MLOAD DUP1 SWAP2 SUB SWAP1 RETURN JUMPDEST CALLVALUE DUP1 ISZERO PUSH2 0x383 JUMPI PUSH1 0x0 DUP1 REVERT JUMPDEST POP PUSH2 0x38C PUSH2 0xDDA JUMP JUMPDEST STOP JUMPDEST CALLVALUE DUP1 ISZERO PUSH2 0x39A JUMPI PUSH1 0x0 DUP1 REVERT JUMPDEST POP PUSH2 0x3B5 PUSH1 0x4 DUP1 CALLDATASIZE SUB DUP2 ADD SWAP1 PUSH2 0x3B0 SWAP2 SWAP1 PUSH2 0x415E JUMP JUMPDEST PUSH2 0xEE8 JUMP JUMPDEST PUSH1 0x40 MLOAD PUSH2 0x3C2 SWAP2 SWAP1 PUSH2 0x4A52 JUMP JUMPDEST PUSH1 0x40 MLOAD DUP1 SWAP2 SUB SWAP1 RETURN JUMPDEST CALLVALUE DUP1 ISZERO PUSH2 0x3D7 JUMPI PUSH1 0x0 DUP1 REVERT JUMPDEST POP PUSH2 0x3E0 PUSH2 0x10EF JUMP JUMPDEST STOP JUMPDEST CALLVALUE DUP1 ISZERO PUSH2 0x3EE JUMPI PUSH1 0x0 DUP1 REVERT JUMPDEST POP PUSH2 0x409 PUSH1 0x4 DUP1 CALLDATASIZE SUB DUP2 ADD SWAP1 PUSH2 0x404 SWAP2 SWAP1 PUSH2 0x419A JUMP JUMPDEST PUSH2 0x1145 JUMP JUMPDEST STOP JUMPDEST PUSH2 0x425 PUSH1 0x4 DUP1 CALLDATASIZE SUB DUP2 ADD SWAP1 PUSH2 0x420 SWAP2 SWAP1 PUSH2 0x432E JUMP JUMPDEST PUSH2 0x1155 JUMP JUMPDEST STOP JUMPDEST CALLVALUE DUP1 ISZERO PUSH2 0x433 JUMPI PUSH1 0x0 DUP1 REVERT JUMPDEST POP PUSH2 0x44E PUSH1 0x4 DUP1 CALLDATASIZE SUB DUP2 ADD SWAP1 PUSH2 0x449 SWAP2 SWAP1 PUSH2 0x432E JUMP JUMPDEST PUSH2 0x1278 JUMP JUMPDEST PUSH1 0x40 MLOAD PUSH2 0x461 SWAP8 SWAP7 SWAP6 SWAP5 SWAP4 SWAP3 SWAP2 SWAP1 PUSH2 0x4C9C JUMP JUMPDEST PUSH1 0x40 MLOAD DUP1 SWAP2 SUB SWAP1 RETURN JUMPDEST CALLVALUE DUP1 ISZERO PUSH2 0x476 JUMPI PUSH1 0x0 DUP1 REVERT JUMPDEST POP PUSH2 0x47F PUSH2 0x12D7 JUMP JUMPDEST STOP JUMPDEST CALLVALUE DUP1 ISZERO PUSH2 0x48D JUMPI PUSH1 0x0 DUP1 REVERT JUMPDEST POP PUSH2 0x4A8 PUSH1 0x4 DUP1 CALLDATASIZE SUB DUP2 ADD SWAP1 PUSH2 0x4A3 SWAP2 SWAP1 PUSH2 0x419A JUMP JUMPDEST PUSH2 0x13A3 JUMP JUMPDEST STOP JUMPDEST CALLVALUE DUP1 ISZERO PUSH2 0x4B6 JUMPI PUSH1 0x0 DUP1 REVERT JUMPDEST POP PUSH2 0x4D1 PUSH1 0x4 DUP1 CALLDATASIZE SUB DUP2 ADD SWAP1 PUSH2 0x4CC SWAP2 SWAP1 PUSH2 0x4135 JUMP JUMPDEST PUSH2 0x13C3 JUMP JUMPDEST PUSH1 0x40 MLOAD PUSH2 0x4DE SWAP2 SWAP1 PUSH2 0x4A30 JUMP JUMPDEST PUSH1 0x40 MLOAD DUP1 SWAP2 SUB SWAP1 RETURN JUMPDEST CALLVALUE DUP1 ISZERO PUSH2 0x4F3 JUMPI PUSH1 0x0 DUP1 REVERT JUMPDEST POP PUSH2 0x50E PUSH1 0x4 DUP1 CALLDATASIZE SUB DUP2 ADD SWAP1 PUSH2 0x509 SWAP2 SWAP1 PUSH2 0x4135 JUMP JUMPDEST PUSH2 0x1562 JUMP JUMPDEST PUSH1 0x40 MLOAD PUSH2 0x51B SWAP2 SWAP1 PUSH2 0x4BAF JUMP JUMPDEST PUSH1 0x40 MLOAD DUP1 SWAP2 SUB SWAP1 RETURN JUMPDEST CALLVALUE DUP1 ISZERO PUSH2 0x530 JUMPI PUSH1 0x0 DUP1 REVERT JUMPDEST POP PUSH2 0x54B PUSH1 0x4 DUP1 CALLDATASIZE SUB DUP2 ADD SWAP1 PUSH2 0x546 SWAP2 SWAP1 PUSH2 0x432E JUMP JUMPDEST PUSH2 0x157A JUMP JUMPDEST STOP JUMPDEST CALLVALUE DUP1 ISZERO PUSH2 0x559 JUMPI PUSH1 0x0 DUP1 REVERT JUMPDEST POP PUSH2 0x574 PUSH1 0x4 DUP1 CALLDATASIZE SUB DUP2 ADD SWAP1 PUSH2 0x56F SWAP2 SWAP1 PUSH2 0x432E JUMP JUMPDEST PUSH2 0x16DE JUMP JUMPDEST PUSH1 0x40 MLOAD PUSH2 0x581 SWAP2 SWAP1 PUSH2 0x49A7 JUMP JUMPDEST PUSH1 0x40 MLOAD DUP1 SWAP2 SUB SWAP1 RETURN JUMPDEST CALLVALUE DUP1 ISZERO PUSH2 0x596 JUMPI PUSH1 0x0 DUP1 REVERT JUMPDEST POP PUSH2 0x5B1 PUSH1 0x4 DUP1 CALLDATASIZE SUB DUP2 ADD SWAP1 PUSH2 0x5AC SWAP2 SWAP1 PUSH2 0x4135 JUMP JUMPDEST PUSH2 0x171B JUMP JUMPDEST PUSH1 0x40 MLOAD PUSH2 0x5BE SWAP2 SWAP1 PUSH2 0x4BAF JUMP JUMPDEST PUSH1 0x40 MLOAD DUP1 SWAP2 SUB SWAP1 RETURN JUMPDEST CALLVALUE DUP1 ISZERO PUSH2 0x5D3 JUMPI PUSH1 0x0 DUP1 REVERT JUMPDEST POP PUSH2 0x5DC PUSH2 0x1764 JUMP JUMPDEST STOP JUMPDEST CALLVALUE DUP1 ISZERO PUSH2 0x5EA JUMPI PUSH1 0x0 DUP1 REVERT JUMPDEST POP PUSH2 0x605 PUSH1 0x4 DUP1 CALLDATASIZE SUB DUP2 ADD SWAP1 PUSH2 0x600 SWAP2 SWAP1 PUSH2 0x415E JUMP JUMPDEST PUSH2 0x18A1 JUMP JUMPDEST PUSH1 0x40 MLOAD PUSH2 0x612 SWAP2 SWAP1 PUSH2 0x4A52 JUMP JUMPDEST PUSH1 0x40 MLOAD DUP1 SWAP2 SUB SWAP1 RETURN JUMPDEST CALLVALUE DUP1 ISZERO PUSH2 0x627 JUMPI PUSH1 0x0 DUP1 REVERT JUMPDEST POP PUSH2 0x642 PUSH1 0x4 DUP1 CALLDATASIZE SUB DUP2 ADD SWAP1 PUSH2 0x63D SWAP2 SWAP1 PUSH2 0x432E JUMP JUMPDEST PUSH2 0x1981 JUMP JUMPDEST PUSH1 0x40 MLOAD PUSH2 0x64F SWAP2 SWAP1 PUSH2 0x4BAF JUMP JUMPDEST PUSH1 0x40 MLOAD DUP1 SWAP2 SUB SWAP1 RETURN JUMPDEST CALLVALUE DUP1 ISZERO PUSH2 0x664 JUMPI PUSH1 0x0 DUP1 REVERT JUMPDEST POP PUSH2 0x67F PUSH1 0x4 DUP1 CALLDATASIZE SUB DUP2 ADD SWAP1 PUSH2 0x67A SWAP2 SWAP1 PUSH2 0x4135 JUMP JUMPDEST PUSH2 0x1A0D JUMP JUMPDEST PUSH1 0x40 MLOAD PUSH2 0x68C SWAP2 SWAP1 PUSH2 0x4BAF JUMP JUMPDEST PUSH1 0x40 MLOAD DUP1 SWAP2 SUB SWAP1 RETURN JUMPDEST CALLVALUE DUP1 ISZERO PUSH2 0x6A1 JUMPI PUSH1 0x0 DUP1 REVERT JUMPDEST POP PUSH2 0x6AA PUSH2 0x1A25 JUMP JUMPDEST PUSH1 0x40 MLOAD PUSH2 0x6B7 SWAP2 SWAP1 PUSH2 0x49A7 JUMP JUMPDEST PUSH1 0x40 MLOAD DUP1 SWAP2 SUB SWAP1 RETURN JUMPDEST CALLVALUE DUP1 ISZERO PUSH2 0x6CC JUMPI PUSH1 0x0 DUP1 REVERT JUMPDEST POP PUSH2 0x6E7 PUSH1 0x4 DUP1 CALLDATASIZE SUB DUP2 ADD SWAP1 PUSH2 0x6E2 SWAP2 SWAP1 PUSH2 0x4357 JUMP JUMPDEST PUSH2 0x1A4F JUMP JUMPDEST STOP JUMPDEST CALLVALUE DUP1 ISZERO PUSH2 0x6F5 JUMPI PUSH1 0x0 DUP1 REVERT JUMPDEST POP PUSH2 0x6FE PUSH2 0x1D63 JUMP JUMPDEST PUSH1 0x40 MLOAD PUSH2 0x70B SWAP2 SWAP1 PUSH2 0x4A6D JUMP JUMPDEST PUSH1 0x40 MLOAD DUP1 SWAP2 SUB SWAP1 RETURN JUMPDEST CALLVALUE DUP1 ISZERO PUSH2 0x720 JUMPI PUSH1 0x0 DUP1 REVERT JUMPDEST POP PUSH2 0x73B PUSH1 0x4 DUP1 CALLDATASIZE SUB DUP2 ADD SWAP1 PUSH2 0x736 SWAP2 SWAP1 PUSH2 0x432E JUMP JUMPDEST PUSH2 0x1DF5 JUMP JUMPDEST PUSH1 0x40 MLOAD PUSH2 0x748 SWAP2 SWAP1 PUSH2 0x4BAF JUMP JUMPDEST PUSH1 0x40 MLOAD DUP1 SWAP2 SUB SWAP1 RETURN JUMPDEST CALLVALUE DUP1 ISZERO PUSH2 0x75D JUMPI PUSH1 0x0 DUP1 REVERT JUMPDEST POP PUSH2 0x778 PUSH1 0x4 DUP1 CALLDATASIZE SUB DUP2 ADD SWAP1 PUSH2 0x773 SWAP2 SWAP1 PUSH2 0x432E JUMP JUMPDEST PUSH2 0x1E19 JUMP JUMPDEST STOP JUMPDEST CALLVALUE DUP1 ISZERO PUSH2 0x786 JUMPI PUSH1 0x0 DUP1 REVERT JUMPDEST POP PUSH2 0x7A1 PUSH1 0x4 DUP1 CALLDATASIZE SUB DUP2 ADD SWAP1 PUSH2 0x79C SWAP2 SWAP1 PUSH2 0x4264 JUMP JUMPDEST PUSH2 0x2042 JUMP JUMPDEST STOP JUMPDEST CALLVALUE DUP1 ISZERO PUSH2 0x7AF JUMPI PUSH1 0x0 DUP1 REVERT JUMPDEST POP PUSH2 0x7CA PUSH1 0x4 DUP1 CALLDATASIZE SUB DUP2 ADD SWAP1 PUSH2 0x7C5 SWAP2 SWAP1 PUSH2 0x432E JUMP JUMPDEST PUSH2 0x21C3 JUMP JUMPDEST STOP JUMPDEST CALLVALUE DUP1 ISZERO PUSH2 0x7D8 JUMPI PUSH1 0x0 DUP1 REVERT JUMPDEST POP PUSH2 0x7F3 PUSH1 0x4 DUP1 CALLDATASIZE SUB DUP2 ADD SWAP1 PUSH2 0x7EE SWAP2 SWAP1 PUSH2 0x42A0 JUMP JUMPDEST PUSH2 0x2363 JUMP JUMPDEST PUSH1 0x40 MLOAD PUSH2 0x800 SWAP2 SWAP1 PUSH2 0x49A7 JUMP JUMPDEST PUSH1 0x40 MLOAD DUP1 SWAP2 SUB SWAP1 RETURN JUMPDEST CALLVALUE DUP1 ISZERO PUSH2 0x815 JUMPI PUSH1 0x0 DUP1 REVERT JUMPDEST POP PUSH2 0x830 PUSH1 0x4 DUP1 CALLDATASIZE SUB DUP2 ADD SWAP1 PUSH2 0x82B SWAP2 SWAP1 PUSH2 0x42A0 JUMP JUMPDEST PUSH2 0x23B1 JUMP JUMPDEST STOP JUMPDEST CALLVALUE DUP1 ISZERO PUSH2 0x83E JUMPI PUSH1 0x0 DUP1 REVERT JUMPDEST POP PUSH2 0x859 PUSH1 0x4 DUP1 CALLDATASIZE SUB DUP2 ADD SWAP1 PUSH2 0x854 SWAP2 SWAP1 PUSH2 0x432E JUMP JUMPDEST PUSH2 0x23C0 JUMP JUMPDEST PUSH1 0x40 MLOAD PUSH2 0x86C SWAP8 SWAP7 SWAP6 SWAP5 SWAP4 SWAP3 SWAP2 SWAP1 PUSH2 0x4C9C JUMP JUMPDEST PUSH1 0x40 MLOAD DUP1 SWAP2 SUB SWAP1 RETURN JUMPDEST PUSH2 0x88F PUSH1 0x4 DUP1 CALLDATASIZE SUB DUP2 ADD SWAP1 PUSH2 0x88A SWAP2 SWAP1 PUSH2 0x432E JUMP JUMPDEST PUSH2 0x240F JUMP JUMPDEST STOP JUMPDEST CALLVALUE DUP1 ISZERO PUSH2 0x89D JUMPI PUSH1 0x0 DUP1 REVERT JUMPDEST POP PUSH2 0x8B8 PUSH1 0x4 DUP1 CALLDATASIZE SUB DUP2 ADD SWAP1 PUSH2 0x8B3 SWAP2 SWAP1 PUSH2 0x432E JUMP JUMPDEST PUSH2 0x2434 JUMP JUMPDEST STOP JUMPDEST CALLVALUE DUP1 ISZERO PUSH2 0x8C6 JUMPI PUSH1 0x0 DUP1 REVERT JUMPDEST POP PUSH2 0x8E1 PUSH1 0x4 DUP1 CALLDATASIZE SUB DUP2 ADD SWAP1 PUSH2 0x8DC SWAP2 SWAP1 PUSH2 0x41E9 JUMP JUMPDEST PUSH2 0x24BB JUMP JUMPDEST STOP JUMPDEST CALLVALUE DUP1 ISZERO PUSH2 0x8EF JUMPI PUSH1 0x0 DUP1 REVERT JUMPDEST POP PUSH2 0x90A PUSH1 0x4 DUP1 CALLDATASIZE SUB DUP2 ADD SWAP1 PUSH2 0x905 SWAP2 SWAP1 PUSH2 0x432E JUMP JUMPDEST PUSH2 0x251D JUMP JUMPDEST STOP JUMPDEST CALLVALUE DUP1 ISZERO PUSH2 0x918 JUMPI PUSH1 0x0 DUP1 REVERT JUMPDEST POP PUSH2 0x933 PUSH1 0x4 DUP1 CALLDATASIZE SUB DUP2 ADD SWAP1 PUSH2 0x92E SWAP2 SWAP1 PUSH2 0x432E JUMP JUMPDEST PUSH2 0x26BD JUMP JUMPDEST PUSH1 0x40 MLOAD PUSH2 0x940 SWAP2 SWAP1 PUSH2 0x4A6D JUMP JUMPDEST PUSH1 0x40 MLOAD DUP1 SWAP2 SUB SWAP1 RETURN JUMPDEST CALLVALUE DUP1 ISZERO PUSH2 0x955 JUMPI PUSH1 0x0 DUP1 REVERT JUMPDEST POP PUSH2 0x970 PUSH1 0x4 DUP1 CALLDATASIZE SUB DUP2 ADD SWAP1 PUSH2 0x96B SWAP2 SWAP1 PUSH2 0x432E JUMP JUMPDEST PUSH2 0x2764 JUMP JUMPDEST STOP JUMPDEST CALLVALUE DUP1 ISZERO PUSH2 0x97E JUMPI PUSH1 0x0 DUP1 REVERT JUMPDEST POP PUSH2 0x999 PUSH1 0x4 DUP1 CALLDATASIZE SUB DUP2 ADD SWAP1 PUSH2 0x994 SWAP2 SWAP1 PUSH2 0x4135 JUMP JUMPDEST PUSH2 0x27EA JUMP JUMPDEST PUSH1 0x40 MLOAD PUSH2 0x9A6 SWAP2 SWAP1 PUSH2 0x4A0E JUMP JUMPDEST PUSH1 0x40 MLOAD DUP1 SWAP2 SUB SWAP1 RETURN JUMPDEST CALLVALUE DUP1 ISZERO PUSH2 0x9BB JUMPI PUSH1 0x0 DUP1 REVERT JUMPDEST POP PUSH2 0x9D6 PUSH1 0x4 DUP1 CALLDATASIZE SUB DUP2 ADD SWAP1 PUSH2 0x9D1 SWAP2 SWAP1 PUSH2 0x432E JUMP JUMPDEST PUSH2 0x28B6 JUMP JUMPDEST STOP JUMPDEST CALLVALUE DUP1 ISZERO PUSH2 0x9E4 JUMPI PUSH1 0x0 DUP1 REVERT JUMPDEST POP PUSH2 0x9FF PUSH1 0x4 DUP1 CALLDATASIZE SUB DUP2 ADD SWAP1 PUSH2 0x9FA SWAP2 SWAP1 PUSH2 0x4393 JUMP JUMPDEST PUSH2 0x2B25 JUMP JUMPDEST STOP JUMPDEST CALLVALUE DUP1 ISZERO PUSH2 0xA0D JUMPI PUSH1 0x0 DUP1 REVERT JUMPDEST POP PUSH2 0xA28 PUSH1 0x4 DUP1 CALLDATASIZE SUB DUP2 ADD SWAP1 PUSH2 0xA23 SWAP2 SWAP1 PUSH2 0x415E JUMP JUMPDEST PUSH2 0x2C8E JUMP JUMPDEST PUSH1 0x40 MLOAD PUSH2 0xA35 SWAP2 SWAP1 PUSH2 0x4A52 JUMP JUMPDEST PUSH1 0x40 MLOAD DUP1 SWAP2 SUB SWAP1 RETURN JUMPDEST CALLVALUE DUP1 ISZERO PUSH2 0xA4A JUMPI PUSH1 0x0 DUP1 REVERT JUMPDEST POP PUSH2 0xA65 PUSH1 0x4 DUP1 CALLDATASIZE SUB DUP2 ADD SWAP1 PUSH2 0xA60 SWAP2 SWAP1 PUSH2 0x432E JUMP JUMPDEST PUSH2 0x2D22 JUMP JUMPDEST STOP JUMPDEST CALLVALUE DUP1 ISZERO PUSH2 0xA73 JUMPI PUSH1 0x0 DUP1 REVERT JUMPDEST POP PUSH2 0xA8E PUSH1 0x4 DUP1 CALLDATASIZE SUB DUP2 ADD SWAP1 PUSH2 0xA89 SWAP2 SWAP1 PUSH2 0x4135 JUMP JUMPDEST PUSH2 0x2E3B JUMP JUMPDEST STOP JUMPDEST PUSH1 0x0 PUSH32 0x80AC58CD00000000000000000000000000000000000000000000000000000000 PUSH28 0xFFFFFFFFFFFFFFFFFFFFFFFFFFFFFFFFFFFFFFFFFFFFFFFFFFFFFFFF NOT AND DUP3 PUSH28 0xFFFFFFFFFFFFFFFFFFFFFFFFFFFFFFFFFFFFFFFFFFFFFFFFFFFFFFFF NOT AND EQ DUP1 PUSH2 0xB5B JUMPI POP PUSH32 0x5B5E139F00000000000000000000000000000000000000000000000000000000 PUSH28 0xFFFFFFFFFFFFFFFFFFFFFFFFFFFFFFFFFFFFFFFFFFFFFFFFFFFFFFFF NOT AND DUP3 PUSH28 0xFFFFFFFFFFFFFFFFFFFFFFFFFFFFFFFFFFFFFFFFFFFFFFFFFFFFFFFF NOT AND EQ JUMPDEST DUP1 PUSH2 0xB6B JUMPI POP PUSH2 0xB6A DUP3 PUSH2 0x2FE7 JUMP JUMPDEST JUMPDEST SWAP1 POP SWAP2 SWAP1 POP JUMP JUMPDEST PUSH1 0x60 PUSH1 0x8 DUP1 SLOAD PUSH2 0xB81 SWAP1 PUSH2 0x50B5 JUMP JUMPDEST DUP1 PUSH1 0x1F ADD PUSH1 0x20 DUP1 SWAP2 DIV MUL PUSH1 0x20 ADD PUSH1 0x40 MLOAD SWAP1 DUP2 ADD PUSH1 0x40 MSTORE DUP1 SWAP3 SWAP2 SWAP1 DUP2 DUP2 MSTORE PUSH1 0x20 ADD DUP3 DUP1 SLOAD PUSH2 0xBAD SWAP1 PUSH2 0x50B5 JUMP JUMPDEST DUP1 ISZERO PUSH2 0xBFA JUMPI DUP1 PUSH1 0x1F LT PUSH2 0xBCF JUMPI PUSH2 0x100 DUP1 DUP4 SLOAD DIV MUL DUP4 MSTORE SWAP2 PUSH1 0x20 ADD SWAP2 PUSH2 0xBFA JUMP JUMPDEST DUP3 ADD SWAP2 SWAP1 PUSH1 0x0 MSTORE PUSH1 0x20 PUSH1 0x0 KECCAK256 SWAP1 JUMPDEST DUP2 SLOAD DUP2 MSTORE SWAP1 PUSH1 0x1 ADD SWAP1 PUSH1 0x20 ADD DUP1 DUP4 GT PUSH2 0xBDD JUMPI DUP3 SWAP1 SUB PUSH1 0x1F AND DUP3 ADD SWAP2 JUMPDEST POP POP POP POP POP SWAP1 POP SWAP1 JUMP JUMPDEST PUSH1 0x0 PUSH2 0xC0F DUP3 PUSH2 0x3051 JUMP JUMPDEST PUSH2 0xC4E JUMPI PUSH1 0x40 MLOAD PUSH32 0x8C379A000000000000000000000000000000000000000000000000000000000 DUP2 MSTORE PUSH1 0x4 ADD PUSH2 0xC45 SWAP1 PUSH2 0x4B2F JUMP JUMPDEST PUSH1 0x40 MLOAD DUP1 SWAP2 SUB SWAP1 REVERT JUMPDEST PUSH1 0xC PUSH1 0x0 DUP4 DUP2 MSTORE PUSH1 0x20 ADD SWAP1 DUP2 MSTORE PUSH1 0x20 ADD PUSH1 0x0 KECCAK256 PUSH1 0x0 SWAP1 SLOAD SWAP1 PUSH2 0x100 EXP SWAP1 DIV PUSH20 0xFFFFFFFFFFFFFFFFFFFFFFFFFFFFFFFFFFFFFFFF AND SWAP1 POP SWAP2 SWAP1 POP JUMP JUMPDEST DUP1 PUSH1 0x2 PUSH1 0x0 DUP3 DUP2 MSTORE PUSH1 0x20 ADD SWAP1 DUP2 MSTORE PUSH1 0x20 ADD PUSH1 0x0 KECCAK256 PUSH1 0x0 SWAP1 SLOAD SWAP1 PUSH2 0x100 EXP SWAP1 DIV PUSH20 0xFFFFFFFFFFFFFFFFFFFFFFFFFFFFFFFFFFFFFFFF AND PUSH20 0xFFFFFFFFFFFFFFFFFFFFFFFFFFFFFFFFFFFFFFFF AND CALLER PUSH20 0xFFFFFFFFFFFFFFFFFFFFFFFFFFFFFFFFFFFFFFFF AND EQ PUSH2 0xCF5 JUMPI PUSH1 0x0 DUP1 REVERT JUMPDEST DUP3 PUSH1 0xF PUSH1 0x0 DUP5 DUP2 MSTORE PUSH1 0x20 ADD SWAP1 DUP2 MSTORE PUSH1 0x20 ADD PUSH1 0x0 KECCAK256 PUSH1 0x0 PUSH2 0x100 EXP DUP2 SLOAD DUP2 PUSH20 0xFFFFFFFFFFFFFFFFFFFFFFFFFFFFFFFFFFFFFFFF MUL NOT AND SWAP1 DUP4 PUSH20 0xFFFFFFFFFFFFFFFFFFFFFFFFFFFFFFFFFFFFFFFF AND MUL OR SWAP1 SSTORE POP DUP2 DUP4 PUSH20 0xFFFFFFFFFFFFFFFFFFFFFFFFFFFFFFFFFFFFFFFF AND CALLER PUSH20 0xFFFFFFFFFFFFFFFFFFFFFFFFFFFFFFFFFFFFFFFF AND PUSH32 0x8C5BE1E5EBEC7D5BD14F71427D1E84F3DD0314C0F7B2291E5B200AC8C7C3B925 PUSH1 0x40 MLOAD PUSH1 0x40 MLOAD DUP1 SWAP2 SUB SWAP1 LOG4 POP POP POP JUMP JUMPDEST PUSH1 0x2 PUSH1 0x20 MSTORE DUP1 PUSH1 0x0 MSTORE PUSH1 0x40 PUSH1 0x0 KECCAK256 PUSH1 0x0 SWAP2 POP SLOAD SWAP1 PUSH2 0x100 EXP SWAP1 DIV PUSH20 0xFFFFFFFFFFFFFFFFFFFFFFFFFFFFFFFFFFFFFFFF AND DUP2 JUMP JUMPDEST PUSH2 0xDE2 PUSH2 0x30BD JUMP JUMPDEST PUSH20 0xFFFFFFFFFFFFFFFFFFFFFFFFFFFFFFFFFFFFFFFF AND PUSH2 0xE00 PUSH2 0x1A25 JUMP JUMPDEST PUSH20 0xFFFFFFFFFFFFFFFFFFFFFFFFFFFFFFFFFFFFFFFF AND EQ PUSH2 0xE56 JUMPI PUSH1 0x40 MLOAD PUSH32 0x8C379A000000000000000000000000000000000000000000000000000000000 DUP2 MSTORE PUSH1 0x4 ADD PUSH2 0xE4D SWAP1 PUSH2 0x4B4F JUMP JUMPDEST PUSH1 0x40 MLOAD DUP1 SWAP2 SUB SWAP1 REVERT JUMPDEST PUSH1 0x0 PUSH1 0x7 DUP1 SLOAD SWAP1 POP EQ PUSH2 0xE68 JUMPI PUSH1 0x0 DUP1 REVERT JUMPDEST PUSH1 0x7 PUSH1 0x0 SWAP1 DUP1 PUSH1 0x1 DUP2 SLOAD ADD DUP1 DUP3 SSTORE DUP1 SWAP2 POP POP PUSH1 0x1 SWAP1 SUB SWAP1 PUSH1 0x0 MSTORE PUSH1 0x20 PUSH1 0x0 KECCAK256 ADD PUSH1 0x0 SWAP1 SWAP2 SWAP1 SWAP2 SWAP1 SWAP2 POP SSTORE PUSH1 0x7 PUSH1 0x5 SWAP1 DUP1 PUSH1 0x1 DUP2 SLOAD ADD DUP1 DUP3 SSTORE DUP1 SWAP2 POP POP PUSH1 0x1 SWAP1 SUB SWAP1 PUSH1 0x0 MSTORE PUSH1 0x20 PUSH1 0x0 KECCAK256 ADD PUSH1 0x0 SWAP1 SWAP2 SWAP1 SWAP2 SWAP1 SWAP2 POP SSTORE PUSH1 0x7 PUSH1 0xA SWAP1 DUP1 PUSH1 0x1 DUP2 SLOAD ADD DUP1 DUP3 SSTORE DUP1 SWAP2 POP POP PUSH1 0x1 SWAP1 SUB SWAP1 PUSH1 0x0 MSTORE PUSH1 0x20 PUSH1 0x0 KECCAK256 ADD PUSH1 0x0 SWAP1 SWAP2 SWAP1 SWAP2 SWAP1 SWAP2 POP SSTORE JUMP JUMPDEST PUSH1 0x0 PUSH2 0xEF4 DUP4 DUP4 PUSH2 0x30C5 JUMP JUMPDEST DUP1 PUSH2 0xF2A JUMPI POP DUP2 PUSH20 0xFFFFFFFFFFFFFFFFFFFFFFFFFFFFFFFFFFFFFFFF AND DUP4 PUSH20 0xFFFFFFFFFFFFFFFFFFFFFFFFFFFFFFFFFFFFFFFF AND EQ JUMPDEST DUP1 PUSH2 0xF61 JUMPI POP PUSH1 0x0 PUSH20 0xFFFFFFFFFFFFFFFFFFFFFFFFFFFFFFFFFFFFFFFF AND DUP4 PUSH20 0xFFFFFFFFFFFFFFFFFFFFFFFFFFFFFFFFFFFFFFFF AND EQ JUMPDEST DUP1 PUSH2 0xF98 JUMPI POP PUSH1 0x0 PUSH20 0xFFFFFFFFFFFFFFFFFFFFFFFFFFFFFFFFFFFFFFFF AND DUP3 PUSH20 0xFFFFFFFFFFFFFFFFFFFFFFFFFFFFFFFFFFFFFFFF AND EQ JUMPDEST ISZERO PUSH2 0xFA6 JUMPI PUSH1 0x0 SWAP1 POP PUSH2 0x10E9 JUMP JUMPDEST PUSH1 0x0 DUP1 DUP5 PUSH20 0xFFFFFFFFFFFFFFFFFFFFFFFFFFFFFFFFFFFFFFFF AND PUSH20 0xFFFFFFFFFFFFFFFFFFFFFFFFFFFFFFFFFFFFFFFF AND DUP2 MSTORE PUSH1 0x20 ADD SWAP1 DUP2 MSTORE PUSH1 0x20 ADD PUSH1 0x0 KECCAK256 DUP3 SWAP1 DUP1 PUSH1 0x1 DUP2 SLOAD ADD DUP1 DUP3 SSTORE DUP1 SWAP2 POP POP PUSH1 0x1 SWAP1 SUB SWAP1 PUSH1 0x0 MSTORE PUSH1 0x20 PUSH1 0x0 KECCAK256 ADD PUSH1 0x0 SWAP1 SWAP2 SWAP1 SWAP2 SWAP1 SWAP2 PUSH2 0x100 EXP DUP2 SLOAD DUP2 PUSH20 0xFFFFFFFFFFFFFFFFFFFFFFFFFFFFFFFFFFFFFFFF MUL NOT AND SWAP1 DUP4 PUSH20 0xFFFFFFFFFFFFFFFFFFFFFFFFFFFFFFFFFFFFFFFF AND MUL OR SWAP1 SSTORE POP PUSH1 0x0 DUP1 DUP4 PUSH20 0xFFFFFFFFFFFFFFFFFFFFFFFFFFFFFFFFFFFFFFFF AND PUSH20 0xFFFFFFFFFFFFFFFFFFFFFFFFFFFFFFFFFFFFFFFF AND DUP2 MSTORE PUSH1 0x20 ADD SWAP1 DUP2 MSTORE PUSH1 0x20 ADD PUSH1 0x0 KECCAK256 DUP4 SWAP1 DUP1 PUSH1 0x1 DUP2 SLOAD ADD DUP1 DUP3 SSTORE DUP1 SWAP2 POP POP PUSH1 0x1 SWAP1 SUB SWAP1 PUSH1 0x0 MSTORE PUSH1 0x20 PUSH1 0x0 KECCAK256 ADD PUSH1 0x0 SWAP1 SWAP2 SWAP1 SWAP2 SWAP1 SWAP2 PUSH2 0x100 EXP DUP2 SLOAD DUP2 PUSH20 0xFFFFFFFFFFFFFFFFFFFFFFFFFFFFFFFFFFFFFFFF MUL NOT AND SWAP1 DUP4 PUSH20 0xFFFFFFFFFFFFFFFFFFFFFFFFFFFFFFFFFFFFFFFF AND MUL OR SWAP1 SSTORE POP PUSH1 0x1 SWAP1 POP JUMPDEST SWAP3 SWAP2 POP POP JUMP JUMPDEST PUSH1 0x0 PUSH1 0x4 PUSH1 0x0 CALLER PUSH20 0xFFFFFFFFFFFFFFFFFFFFFFFFFFFFFFFFFFFFFFFF AND PUSH20 0xFFFFFFFFFFFFFFFFFFFFFFFFFFFFFFFFFFFFFFFF AND DUP2 MSTORE PUSH1 0x20 ADD SWAP1 DUP2 MSTORE PUSH1 0x20 ADD PUSH1 0x0 KECCAK256 SLOAD EQ PUSH2 0x113B JUMPI PUSH1 0x0 DUP1 REVERT JUMPDEST PUSH2 0x1143 PUSH2 0x3213 JUMP JUMPDEST JUMP JUMPDEST PUSH2 0x1150 DUP4 DUP4 DUP4 PUSH2 0x3264 JUMP JUMPDEST POP POP POP JUMP JUMPDEST PUSH1 0xE SLOAD CALLVALUE EQ PUSH2 0x1163 JUMPI PUSH1 0x0 DUP1 REVERT JUMPDEST PUSH1 0x0 PUSH1 0x1 DUP3 DUP2 SLOAD DUP2 LT PUSH2 0x119F JUMPI PUSH32 0x4E487B7100000000000000000000000000000000000000000000000000000000 PUSH1 0x0 MSTORE PUSH1 0x32 PUSH1 0x4 MSTORE PUSH1 0x24 PUSH1 0x0 REVERT JUMPDEST SWAP1 PUSH1 0x0 MSTORE PUSH1 0x20 PUSH1 0x0 KECCAK256 SWAP1 PUSH1 0x7 MUL ADD SWAP1 POP PUSH1 0x1 PUSH1 0x7 DUP1 SLOAD SWAP1 POP PUSH2 0x11C1 SWAP2 SWAP1 PUSH2 0x4F8F JUMP JUMPDEST PUSH2 0x11CE DUP3 PUSH1 0x6 ADD SLOAD PUSH2 0x1981 JUMP JUMPDEST LT PUSH2 0x11D8 JUMPI PUSH1 0x0 DUP1 REVERT JUMPDEST PUSH1 0x7 PUSH2 0x11E7 DUP3 PUSH1 0x6 ADD SLOAD PUSH2 0x1981 JUMP JUMPDEST DUP2 SLOAD DUP2 LT PUSH2 0x121E JUMPI PUSH32 0x4E487B7100000000000000000000000000000000000000000000000000000000 PUSH1 0x0 MSTORE PUSH1 0x32 PUSH1 0x4 MSTORE PUSH1 0x24 PUSH1 0x0 REVERT JUMPDEST SWAP1 PUSH1 0x0 MSTORE PUSH1 0x20 PUSH1 0x0 KECCAK256 ADD SLOAD DUP2 PUSH1 0x6 ADD DUP2 SWAP1 SSTORE POP CALLER PUSH20 0xFFFFFFFFFFFFFFFFFFFFFFFFFFFFFFFFFFFFFFFF AND PUSH32 0xFA75433B62FA9AA3569A596ACA6569A4687697E876289D01131561272E0E9048 PUSH1 0x40 MLOAD PUSH1 0x40 MLOAD DUP1 SWAP2 SUB SWAP1 LOG2 POP POP JUMP JUMPDEST PUSH1 0x1 DUP2 DUP2 SLOAD DUP2 LT PUSH2 0x1288 JUMPI PUSH1 0x0 DUP1 REVERT JUMPDEST SWAP1 PUSH1 0x0 MSTORE PUSH1 0x20 PUSH1 0x0 KECCAK256 SWAP1 PUSH1 0x7 MUL ADD PUSH1 0x0 SWAP2 POP SWAP1 POP DUP1 PUSH1 0x0 ADD SLOAD SWAP1 DUP1 PUSH1 0x1 ADD SLOAD SWAP1 DUP1 PUSH1 0x2 ADD SLOAD SWAP1 DUP1 PUSH1 0x3 ADD SLOAD SWAP1 DUP1 PUSH1 0x4 ADD SLOAD SWAP1 DUP1 PUSH1 0x5 ADD PUSH1 0x0 SWAP1 SLOAD SWAP1 PUSH2 0x100 EXP SWAP1 DIV PUSH1 0xFF AND SWAP1 DUP1 PUSH1 0x6 ADD SLOAD SWAP1 POP DUP8 JUMP JUMPDEST PUSH2 0x12DF PUSH2 0x30BD JUMP JUMPDEST PUSH20 0xFFFFFFFFFFFFFFFFFFFFFFFFFFFFFFFFFFFFFFFF AND PUSH2 0x12FD PUSH2 0x1A25 JUMP JUMPDEST PUSH20 0xFFFFFFFFFFFFFFFFFFFFFFFFFFFFFFFFFFFFFFFF AND EQ PUSH2 0x1353 JUMPI PUSH1 0x40 MLOAD PUSH32 0x8C379A000000000000000000000000000000000000000000000000000000000 DUP2 MSTORE PUSH1 0x4 ADD PUSH2 0x134A SWAP1 PUSH2 0x4B4F JUMP JUMPDEST PUSH1 0x40 MLOAD DUP1 SWAP2 SUB SWAP1 REVERT JUMPDEST PUSH2 0x135B PUSH2 0x1A25 JUMP JUMPDEST PUSH20 0xFFFFFFFFFFFFFFFFFFFFFFFFFFFFFFFFFFFFFFFF AND PUSH2 0x8FC SELFBALANCE SWAP1 DUP2 ISZERO MUL SWAP1 PUSH1 0x40 MLOAD PUSH1 0x0 PUSH1 0x40 MLOAD DUP1 DUP4 SUB DUP2 DUP6 DUP9 DUP9 CALL SWAP4 POP POP POP POP ISZERO DUP1 ISZERO PUSH2 0x13A0 JUMPI RETURNDATASIZE PUSH1 0x0 DUP1 RETURNDATACOPY RETURNDATASIZE PUSH1 0x0 REVERT JUMPDEST POP JUMP JUMPDEST PUSH2 0x13BE DUP4 DUP4 DUP4 PUSH1 0x40 MLOAD DUP1 PUSH1 0x20 ADD PUSH1 0x40 MSTORE DUP1 PUSH1 0x0 DUP2 MSTORE POP PUSH2 0x24BB JUMP JUMPDEST POP POP POP JUMP JUMPDEST PUSH1 0x60 PUSH1 0x0 PUSH1 0x4 PUSH1 0x0 DUP5 PUSH20 0xFFFFFFFFFFFFFFFFFFFFFFFFFFFFFFFFFFFFFFFF AND PUSH20 0xFFFFFFFFFFFFFFFFFFFFFFFFFFFFFFFFFFFFFFFF AND DUP2 MSTORE PUSH1 0x20 ADD SWAP1 DUP2 MSTORE PUSH1 0x20 ADD PUSH1 0x0 KECCAK256 SLOAD PUSH8 0xFFFFFFFFFFFFFFFF DUP2 GT ISZERO PUSH2 0x1446 JUMPI PUSH32 0x4E487B7100000000000000000000000000000000000000000000000000000000 PUSH1 0x0 MSTORE PUSH1 0x41 PUSH1 0x4 MSTORE PUSH1 0x24 PUSH1 0x0 REVERT JUMPDEST PUSH1 0x40 MLOAD SWAP1 DUP1 DUP3 MSTORE DUP1 PUSH1 0x20 MUL PUSH1 0x20 ADD DUP3 ADD PUSH1 0x40 MSTORE DUP1 ISZERO PUSH2 0x1474 JUMPI DUP2 PUSH1 0x20 ADD PUSH1 0x20 DUP3 MUL DUP1 CALLDATASIZE DUP4 CALLDATACOPY DUP1 DUP3 ADD SWAP2 POP POP SWAP1 POP JUMPDEST POP SWAP1 POP PUSH1 0x0 DUP1 JUMPDEST PUSH1 0x1 DUP1 SLOAD SWAP1 POP DUP2 LT ISZERO PUSH2 0x1557 JUMPI DUP5 PUSH20 0xFFFFFFFFFFFFFFFFFFFFFFFFFFFFFFFFFFFFFFFF AND PUSH1 0x2 PUSH1 0x0 DUP4 DUP2 MSTORE PUSH1 0x20 ADD SWAP1 DUP2 MSTORE PUSH1 0x20 ADD PUSH1 0x0 KECCAK256 PUSH1 0x0 SWAP1 SLOAD SWAP1 PUSH2 0x100 EXP SWAP1 DIV PUSH20 0xFFFFFFFFFFFFFFFFFFFFFFFFFFFFFFFFFFFFFFFF AND PUSH20 0xFFFFFFFFFFFFFFFFFFFFFFFFFFFFFFFFFFFFFFFF AND EQ ISZERO PUSH2 0x1544 JUMPI DUP1 DUP4 DUP4 DUP2 MLOAD DUP2 LT PUSH2 0x1529 JUMPI PUSH32 0x4E487B7100000000000000000000000000000000000000000000000000000000 PUSH1 0x0 MSTORE PUSH1 0x32 PUSH1 0x4 MSTORE PUSH1 0x24 PUSH1 0x0 REVERT JUMPDEST PUSH1 0x20 MUL PUSH1 0x20 ADD ADD DUP2 DUP2 MSTORE POP POP DUP2 DUP1 PUSH2 0x1540 SWAP1 PUSH2 0x50E7 JUMP JUMPDEST SWAP3 POP POP JUMPDEST DUP1 DUP1 PUSH2 0x154F SWAP1 PUSH2 0x50E7 JUMP JUMPDEST SWAP2 POP POP PUSH2 0x147B JUMP JUMPDEST POP DUP2 SWAP3 POP POP POP SWAP2 SWAP1 POP JUMP JUMPDEST PUSH1 0x3 PUSH1 0x20 MSTORE DUP1 PUSH1 0x0 MSTORE PUSH1 0x40 PUSH1 0x0 KECCAK256 PUSH1 0x0 SWAP2 POP SWAP1 POP SLOAD DUP2 JUMP JUMPDEST PUSH2 0x1582 PUSH2 0x30BD JUMP JUMPDEST PUSH20 0xFFFFFFFFFFFFFFFFFFFFFFFFFFFFFFFFFFFFFFFF AND PUSH2 0x15A0 PUSH2 0x1A25 JUMP JUMPDEST PUSH20 0xFFFFFFFFFFFFFFFFFFFFFFFFFFFFFFFFFFFFFFFF AND EQ PUSH2 0x15F6 JUMPI PUSH1 0x40 MLOAD PUSH32 0x8C379A000000000000000000000000000000000000000000000000000000000 DUP2 MSTORE PUSH1 0x4 ADD PUSH2 0x15ED SWAP1 PUSH2 0x4B4F JUMP JUMPDEST PUSH1 0x40 MLOAD DUP1 SWAP2 SUB SWAP1 REVERT JUMPDEST PUSH1 0x40 MLOAD DUP1 PUSH1 0xE0 ADD PUSH1 0x40 MSTORE DUP1 PUSH1 0x0 DUP2 MSTORE PUSH1 0x20 ADD PUSH1 0x0 DUP2 MSTORE PUSH1 0x20 ADD PUSH1 0x0 DUP2 MSTORE PUSH1 0x20 ADD PUSH1 0x0 DUP2 MSTORE PUSH1 0x20 ADD PUSH1 0x0 DUP2 MSTORE PUSH1 0x20 ADD PUSH1 0x0 ISZERO ISZERO DUP2 MSTORE PUSH1 0x20 ADD PUSH1 0x0 DUP2 MSTORE POP PUSH1 0x6 PUSH1 0x0 DUP4 DUP2 MSTORE PUSH1 0x20 ADD SWAP1 DUP2 MSTORE PUSH1 0x20 ADD PUSH1 0x0 KECCAK256 PUSH1 0x0 DUP3 ADD MLOAD DUP2 PUSH1 0x0 ADD SSTORE PUSH1 0x20 DUP3 ADD MLOAD DUP2 PUSH1 0x1 ADD SSTORE PUSH1 0x40 DUP3 ADD MLOAD DUP2 PUSH1 0x2 ADD SSTORE PUSH1 0x60 DUP3 ADD MLOAD DUP2 PUSH1 0x3 ADD SSTORE PUSH1 0x80 DUP3 ADD MLOAD DUP2 PUSH1 0x4 ADD SSTORE PUSH1 0xA0 DUP3 ADD MLOAD DUP2 PUSH1 0x5 ADD PUSH1 0x0 PUSH2 0x100 EXP DUP2 SLOAD DUP2 PUSH1 0xFF MUL NOT AND SWAP1 DUP4 ISZERO ISZERO MUL OR SWAP1 SSTORE POP PUSH1 0xC0 DUP3 ADD MLOAD DUP2 PUSH1 0x6 ADD SSTORE SWAP1 POP POP PUSH32 0xDA5207AF4CA2A8F617E7B6B247CCB5495C765DF30E98C115443A569B8AC3D264 DUP2 PUSH1 0x40 MLOAD PUSH2 0x16D3 SWAP2 SWAP1 PUSH2 0x4BAF JUMP JUMPDEST PUSH1 0x40 MLOAD DUP1 SWAP2 SUB SWAP1 LOG1 POP JUMP JUMPDEST PUSH1 0x0 PUSH1 0x2 PUSH1 0x0 DUP4 DUP2 MSTORE PUSH1 0x20 ADD SWAP1 DUP2 MSTORE PUSH1 0x20 ADD PUSH1 0x0 KECCAK256 PUSH1 0x0 SWAP1 SLOAD SWAP1 PUSH2 0x100 EXP SWAP1 DIV PUSH20 0xFFFFFFFFFFFFFFFFFFFFFFFFFFFFFFFFFFFFFFFF AND SWAP1 POP SWAP2 SWAP1 POP JUMP JUMPDEST PUSH1 0x0 PUSH1 0x4 PUSH1 0x0 DUP4 PUSH20 0xFFFFFFFFFFFFFFFFFFFFFFFFFFFFFFFFFFFFFFFF AND PUSH20 0xFFFFFFFFFFFFFFFFFFFFFFFFFFFFFFFFFFFFFFFF AND DUP2 MSTORE PUSH1 0x20 ADD SWAP1 DUP2 MSTORE PUSH1 0x20 ADD PUSH1 0x0 KECCAK256 SLOAD SWAP1 POP SWAP2 SWAP1 POP JUMP JUMPDEST PUSH2 0x176C PUSH2 0x30BD JUMP JUMPDEST PUSH20 0xFFFFFFFFFFFFFFFFFFFFFFFFFFFFFFFFFFFFFFFF AND PUSH2 0x178A PUSH2 0x1A25 JUMP JUMPDEST PUSH20 0xFFFFFFFFFFFFFFFFFFFFFFFFFFFFFFFFFFFFFFFF AND EQ PUSH2 0x17E0 JUMPI PUSH1 0x40 MLOAD PUSH32 0x8C379A000000000000000000000000000000000000000000000000000000000 DUP2 MSTORE PUSH1 0x4 ADD PUSH2 0x17D7 SWAP1 PUSH2 0x4B4F JUMP JUMPDEST PUSH1 0x40 MLOAD DUP1 SWAP2 SUB SWAP1 REVERT JUMPDEST PUSH1 0x0 PUSH20 0xFFFFFFFFFFFFFFFFFFFFFFFFFFFFFFFFFFFFFFFF AND PUSH1 0x5 PUSH1 0x0 SWAP1 SLOAD SWAP1 PUSH2 0x100 EXP SWAP1 DIV PUSH20 0xFFFFFFFFFFFFFFFFFFFFFFFFFFFFFFFFFFFFFFFF AND PUSH20 0xFFFFFFFFFFFFFFFFFFFFFFFFFFFFFFFFFFFFFFFF AND PUSH32 0x8BE0079C531659141344CD1FD0A4F28419497F9722A3DAAFE3B4186F6B6457E0 PUSH1 0x40 MLOAD PUSH1 0x40 MLOAD DUP1 SWAP2 SUB SWAP1 LOG3 PUSH1 0x0 PUSH1 0x5 PUSH1 0x0 PUSH2 0x100 EXP DUP2 SLOAD DUP2 PUSH20 0xFFFFFFFFFFFFFFFFFFFFFFFFFFFFFFFFFFFFFFFF MUL NOT AND SWAP1 DUP4 PUSH20 0xFFFFFFFFFFFFFFFFFFFFFFFFFFFFFFFFFFFFFFFF AND MUL OR SWAP1 SSTORE POP JUMP JUMPDEST PUSH1 0x0 PUSH2 0x18AD DUP4 DUP4 PUSH2 0x30C5 JUMP JUMPDEST ISZERO DUP1 PUSH2 0x18E4 JUMPI POP DUP2 PUSH20 0xFFFFFFFFFFFFFFFFFFFFFFFFFFFFFFFFFFFFFFFF AND DUP4 PUSH20 0xFFFFFFFFFFFFFFFFFFFFFFFFFFFFFFFFFFFFFFFF AND EQ JUMPDEST DUP1 PUSH2 0x191B JUMPI POP PUSH1 0x0 PUSH20 0xFFFFFFFFFFFFFFFFFFFFFFFFFFFFFFFFFFFFFFFF AND DUP4 PUSH20 0xFFFFFFFFFFFFFFFFFFFFFFFFFFFFFFFFFFFFFFFF AND EQ JUMPDEST DUP1 PUSH2 0x1952 JUMPI POP PUSH1 0x0 PUSH20 0xFFFFFFFFFFFFFFFFFFFFFFFFFFFFFFFFFFFFFFFF AND DUP3 PUSH20 0xFFFFFFFFFFFFFFFFFFFFFFFFFFFFFFFFFFFFFFFF AND EQ JUMPDEST ISZERO PUSH2 0x1960 JUMPI PUSH1 0x0 SWAP1 POP PUSH2 0x197B JUMP JUMPDEST PUSH2 0x196A DUP4 DUP4 PUSH2 0x340C JUMP JUMPDEST POP PUSH2 0x1975 DUP3 DUP5 PUSH2 0x340C JUMP JUMPDEST POP PUSH1 0x1 SWAP1 POP JUMPDEST SWAP3 SWAP2 POP POP JUMP JUMPDEST PUSH1 0x0 DUP1 PUSH1 0x0 SWAP1 POP JUMPDEST PUSH1 0x7 DUP1 SLOAD SWAP1 POP DUP2 LT ISZERO PUSH2 0x19FE JUMPI PUSH1 0x7 DUP2 DUP2 SLOAD DUP2 LT PUSH2 0x19D0 JUMPI PUSH32 0x4E487B7100000000000000000000000000000000000000000000000000000000 PUSH1 0x0 MSTORE PUSH1 0x32 PUSH1 0x4 MSTORE PUSH1 0x24 PUSH1 0x0 REVERT JUMPDEST SWAP1 PUSH1 0x0 MSTORE PUSH1 0x20 PUSH1 0x0 KECCAK256 ADD SLOAD DUP4 LT ISZERO PUSH2 0x19EB JUMPI DUP1 SWAP2 POP POP PUSH2 0x1A08 JUMP JUMPDEST DUP1 DUP1 PUSH2 0x19F6 SWAP1 PUSH2 0x50E7 JUMP JUMPDEST SWAP2 POP POP PUSH2 0x1989 JUMP JUMPDEST POP PUSH1 0x7 DUP1 SLOAD SWAP1 POP SWAP1 POP JUMPDEST SWAP2 SWAP1 POP JUMP JUMPDEST PUSH1 0x4 PUSH1 0x20 MSTORE DUP1 PUSH1 0x0 MSTORE PUSH1 0x40 PUSH1 0x0 KECCAK256 PUSH1 0x0 SWAP2 POP SWAP1 POP SLOAD DUP2 JUMP JUMPDEST PUSH1 0x0 PUSH1 0x5 PUSH1 0x0 SWAP1 SLOAD SWAP1 PUSH2 0x100 EXP SWAP1 DIV PUSH20 0xFFFFFFFFFFFFFFFFFFFFFFFFFFFFFFFFFFFFFFFF AND SWAP1 POP SWAP1 JUMP JUMPDEST DUP1 PUSH1 0x2 PUSH1 0x0 DUP3 DUP2 MSTORE PUSH1 0x20 ADD SWAP1 DUP2 MSTORE PUSH1 0x20 ADD PUSH1 0x0 KECCAK256 PUSH1 0x0 SWAP1 SLOAD SWAP1 PUSH2 0x100 EXP SWAP1 DIV PUSH20 0xFFFFFFFFFFFFFFFFFFFFFFFFFFFFFFFFFFFFFFFF AND PUSH20 0xFFFFFFFFFFFFFFFFFFFFFFFFFFFFFFFFFFFFFFFF AND CALLER PUSH20 0xFFFFFFFFFFFFFFFFFFFFFFFFFFFFFFFFFFFFFFFF AND EQ PUSH2 0x1ABB JUMPI PUSH1 0x0 DUP1 REVERT JUMPDEST PUSH1 0x0 PUSH1 0x1 DUP4 DUP2 SLOAD DUP2 LT PUSH2 0x1AF7 JUMPI PUSH32 0x4E487B7100000000000000000000000000000000000000000000000000000000 PUSH1 0x0 MSTORE PUSH1 0x32 PUSH1 0x4 MSTORE PUSH1 0x24 PUSH1 0x0 REVERT JUMPDEST SWAP1 PUSH1 0x0 MSTORE PUSH1 0x20 PUSH1 0x0 KECCAK256 SWAP1 PUSH1 0x7 MUL ADD SWAP1 POP PUSH1 0x0 DUP2 PUSH1 0x0 ADD SLOAD EQ DUP1 ISZERO PUSH2 0x1B70 JUMPI POP PUSH1 0x6 PUSH1 0x0 DUP6 DUP2 MSTORE PUSH1 0x20 ADD SWAP1 DUP2 MSTORE PUSH1 0x20 ADD PUSH1 0x0 KECCAK256 PUSH1 0x2 ADD SLOAD PUSH1 0x3 PUSH1 0x0 CALLER PUSH20 0xFFFFFFFFFFFFFFFFFFFFFFFFFFFFFFFFFFFFFFFF AND PUSH20 0xFFFFFFFFFFFFFFFFFFFFFFFFFFFFFFFFFFFFFFFF AND DUP2 MSTORE PUSH1 0x20 ADD SWAP1 DUP2 MSTORE PUSH1 0x20 ADD PUSH1 0x0 KECCAK256 SLOAD LT ISZERO JUMPDEST DUP1 ISZERO PUSH2 0x1BA2 JUMPI POP PUSH1 0x6 PUSH1 0x0 DUP6 DUP2 MSTORE PUSH1 0x20 ADD SWAP1 DUP2 MSTORE PUSH1 0x20 ADD PUSH1 0x0 KECCAK256 PUSH1 0x6 ADD SLOAD PUSH1 0xA DUP3 PUSH1 0x6 ADD SLOAD PUSH2 0x1B9F SWAP2 SWAP1 PUSH2 0x4EAE JUMP JUMPDEST LT ISZERO JUMPDEST PUSH2 0x1BAB JUMPI PUSH1 0x0 DUP1 REVERT JUMPDEST PUSH1 0x0 PUSH1 0x6 PUSH1 0x0 DUP7 DUP2 MSTORE PUSH1 0x20 ADD SWAP1 DUP2 MSTORE PUSH1 0x20 ADD PUSH1 0x0 KECCAK256 PUSH1 0x2 ADD SLOAD PUSH1 0x3 PUSH1 0x0 CALLER PUSH20 0xFFFFFFFFFFFFFFFFFFFFFFFFFFFFFFFFFFFFFFFF AND PUSH20 0xFFFFFFFFFFFFFFFFFFFFFFFFFFFFFFFFFFFFFFFF AND DUP2 MSTORE PUSH1 0x20 ADD SWAP1 DUP2 MSTORE PUSH1 0x20 ADD PUSH1 0x0 KECCAK256 SLOAD PUSH2 0x1C0E SWAP2 SWAP1 PUSH2 0x4F8F JUMP JUMPDEST SWAP1 POP DUP1 PUSH1 0x3 PUSH1 0x0 CALLER PUSH20 0xFFFFFFFFFFFFFFFFFFFFFFFFFFFFFFFFFFFFFFFF AND PUSH20 0xFFFFFFFFFFFFFFFFFFFFFFFFFFFFFFFFFFFFFFFF AND DUP2 MSTORE PUSH1 0x20 ADD SWAP1 DUP2 MSTORE PUSH1 0x20 ADD PUSH1 0x0 KECCAK256 DUP2 SWAP1 SSTORE POP PUSH1 0x6 PUSH1 0x0 DUP7 DUP2 MSTORE PUSH1 0x20 ADD SWAP1 DUP2 MSTORE PUSH1 0x20 ADD PUSH1 0x0 KECCAK256 PUSH1 0x0 ADD SLOAD DUP3 PUSH1 0x0 ADD DUP2 SWAP1 SSTORE POP PUSH1 0x6 PUSH1 0x0 DUP7 DUP2 MSTORE PUSH1 0x20 ADD SWAP1 DUP2 MSTORE PUSH1 0x20 ADD PUSH1 0x0 KECCAK256 PUSH1 0x1 ADD SLOAD DUP3 PUSH1 0x1 ADD DUP2 SWAP1 SSTORE POP PUSH1 0x6 PUSH1 0x0 DUP7 DUP2 MSTORE PUSH1 0x20 ADD SWAP1 DUP2 MSTORE PUSH1 0x20 ADD PUSH1 0x0 KECCAK256 PUSH1 0x2 ADD SLOAD DUP3 PUSH1 0x2 ADD DUP2 SWAP1 SSTORE POP PUSH1 0x0 DUP3 PUSH1 0x5 ADD PUSH1 0x0 PUSH2 0x100 EXP DUP2 SLOAD DUP2 PUSH1 0xFF MUL NOT AND SWAP1 DUP4 ISZERO ISZERO MUL OR SWAP1 SSTORE POP PUSH2 0x1CD7 DUP3 PUSH2 0x369A JUMP JUMPDEST PUSH2 0x1CE0 DUP3 PUSH2 0x36D1 JUMP JUMPDEST PUSH2 0x1CE9 DUP3 PUSH2 0x3711 JUMP JUMPDEST CALLER PUSH20 0xFFFFFFFFFFFFFFFFFFFFFFFFFFFFFFFFFFFFFFFF AND PUSH32 0x10B6615359775E93E7A308E2EE80875D995F6026B4A0E1F4E2DBE995C773FAB7 DUP6 DUP8 DUP6 PUSH1 0x1 ADD SLOAD DUP7 PUSH1 0x2 ADD SLOAD DUP8 PUSH1 0x3 ADD SLOAD DUP9 PUSH1 0x4 ADD SLOAD PUSH1 0x0 DUP11 PUSH1 0x6 ADD SLOAD DUP11 PUSH1 0x40 MLOAD PUSH2 0x1D54 SWAP10 SWAP9 SWAP8 SWAP7 SWAP6 SWAP5 SWAP4 SWAP3 SWAP2 SWAP1 PUSH2 0x4D0B JUMP JUMPDEST PUSH1 0x40 MLOAD DUP1 SWAP2 SUB SWAP1 LOG2 POP POP POP POP POP JUMP JUMPDEST PUSH1 0x60 PUSH1 0x9 DUP1 SLOAD PUSH2 0x1D72 SWAP1 PUSH2 0x50B5 JUMP JUMPDEST DUP1 PUSH1 0x1F ADD PUSH1 0x20 DUP1 SWAP2 DIV MUL PUSH1 0x20 ADD PUSH1 0x40 MLOAD SWAP1 DUP2 ADD PUSH1 0x40 MSTORE DUP1 SWAP3 SWAP2 SWAP1 DUP2 DUP2 MSTORE PUSH1 0x20 ADD DUP3 DUP1 SLOAD PUSH2 0x1D9E SWAP1 PUSH2 0x50B5 JUMP JUMPDEST DUP1 ISZERO PUSH2 0x1DEB JUMPI DUP1 PUSH1 0x1F LT PUSH2 0x1DC0 JUMPI PUSH2 0x100 DUP1 DUP4 SLOAD DIV MUL DUP4 MSTORE SWAP2 PUSH1 0x20 ADD SWAP2 PUSH2 0x1DEB JUMP JUMPDEST DUP3 ADD SWAP2 SWAP1 PUSH1 0x0 MSTORE PUSH1 0x20 PUSH1 0x0 KECCAK256 SWAP1 JUMPDEST DUP2 SLOAD DUP2 MSTORE SWAP1 PUSH1 0x1 ADD SWAP1 PUSH1 0x20 ADD DUP1 DUP4 GT PUSH2 0x1DCE JUMPI DUP3 SWAP1 SUB PUSH1 0x1F AND DUP3 ADD SWAP2 JUMPDEST POP POP POP POP POP SWAP1 POP SWAP1 JUMP JUMPDEST PUSH1 0x7 DUP2 DUP2 SLOAD DUP2 LT PUSH2 0x1E05 JUMPI PUSH1 0x0 DUP1 REVERT JUMPDEST SWAP1 PUSH1 0x0 MSTORE PUSH1 0x20 PUSH1 0x0 KECCAK256 ADD PUSH1 0x0 SWAP2 POP SWAP1 POP SLOAD DUP2 JUMP JUMPDEST PUSH2 0x1E56 CALLER PUSH1 0x2 PUSH1 0x0 DUP5 DUP2 MSTORE PUSH1 0x20 ADD SWAP1 DUP2 MSTORE PUSH1 0x20 ADD PUSH1 0x0 KECCAK256 PUSH1 0x0 SWAP1 SLOAD SWAP1 PUSH2 0x100 EXP SWAP1 DIV PUSH20 0xFFFFFFFFFFFFFFFFFFFFFFFFFFFFFFFFFFFFFFFF AND PUSH2 0x3751 JUMP JUMPDEST PUSH2 0x1E5F JUMPI PUSH1 0x0 DUP1 REVERT JUMPDEST PUSH1 0x0 PUSH1 0x1 DUP3 DUP2 SLOAD DUP2 LT PUSH2 0x1E9B JUMPI PUSH32 0x4E487B7100000000000000000000000000000000000000000000000000000000 PUSH1 0x0 MSTORE PUSH1 0x32 PUSH1 0x4 MSTORE PUSH1 0x24 PUSH1 0x0 REVERT JUMPDEST SWAP1 PUSH1 0x0 MSTORE PUSH1 0x20 PUSH1 0x0 KECCAK256 SWAP1 PUSH1 0x7 MUL ADD SWAP1 POP PUSH2 0x1EB4 DUP2 PUSH2 0x3776 JUMP JUMPDEST PUSH2 0x1EBD JUMPI PUSH1 0x0 DUP1 REVERT JUMPDEST DUP1 PUSH1 0x5 ADD PUSH1 0x0 SWAP1 SLOAD SWAP1 PUSH2 0x100 EXP SWAP1 DIV PUSH1 0xFF AND ISZERO PUSH2 0x1ED9 JUMPI PUSH1 0x0 DUP1 REVERT JUMPDEST DUP1 PUSH1 0x2 ADD SLOAD PUSH1 0x3 PUSH1 0x0 CALLER PUSH20 0xFFFFFFFFFFFFFFFFFFFFFFFFFFFFFFFFFFFFFFFF AND PUSH20 0xFFFFFFFFFFFFFFFFFFFFFFFFFFFFFFFFFFFFFFFF AND DUP2 MSTORE PUSH1 0x20 ADD SWAP1 DUP2 MSTORE PUSH1 0x20 ADD PUSH1 0x0 KECCAK256 SLOAD PUSH2 0x1F28 SWAP2 SWAP1 PUSH2 0x4EAE JUMP JUMPDEST PUSH1 0x3 PUSH1 0x0 CALLER PUSH20 0xFFFFFFFFFFFFFFFFFFFFFFFFFFFFFFFFFFFFFFFF AND PUSH20 0xFFFFFFFFFFFFFFFFFFFFFFFFFFFFFFFFFFFFFFFF AND DUP2 MSTORE PUSH1 0x20 ADD SWAP1 DUP2 MSTORE PUSH1 0x20 ADD PUSH1 0x0 KECCAK256 DUP2 SWAP1 SSTORE POP PUSH1 0x1 DUP2 PUSH1 0x5 ADD PUSH1 0x0 PUSH2 0x100 EXP DUP2 SLOAD DUP2 PUSH1 0xFF MUL NOT AND SWAP1 DUP4 ISZERO ISZERO MUL OR SWAP1 SSTORE POP CALLER PUSH20 0xFFFFFFFFFFFFFFFFFFFFFFFFFFFFFFFFFFFFFFFF AND PUSH32 0x10B6615359775E93E7A308E2EE80875D995F6026B4A0E1F4E2DBE995C773FAB7 DUP4 DUP4 PUSH1 0x0 ADD SLOAD DUP5 PUSH1 0x1 ADD SLOAD DUP6 PUSH1 0x2 ADD SLOAD DUP7 PUSH1 0x3 ADD SLOAD DUP8 PUSH1 0x4 ADD SLOAD PUSH1 0x1 DUP10 PUSH1 0x6 ADD SLOAD PUSH1 0x3 PUSH1 0x0 CALLER PUSH20 0xFFFFFFFFFFFFFFFFFFFFFFFFFFFFFFFFFFFFFFFF AND PUSH20 0xFFFFFFFFFFFFFFFFFFFFFFFFFFFFFFFFFFFFFFFF AND DUP2 MSTORE PUSH1 0x20 ADD SWAP1 DUP2 MSTORE PUSH1 0x20 ADD PUSH1 0x0 KECCAK256 SLOAD PUSH1 0x40 MLOAD PUSH2 0x2036 SWAP10 SWAP9 SWAP8 SWAP7 SWAP6 SWAP5 SWAP4 SWAP3 SWAP2 SWAP1 PUSH2 0x4D0B JUMP JUMPDEST PUSH1 0x40 MLOAD DUP1 SWAP2 SUB SWAP1 LOG2 POP POP JUMP JUMPDEST PUSH2 0x204A PUSH2 0x30BD JUMP JUMPDEST PUSH20 0xFFFFFFFFFFFFFFFFFFFFFFFFFFFFFFFFFFFFFFFF AND DUP3 PUSH20 0xFFFFFFFFFFFFFFFFFFFFFFFFFFFFFFFFFFFFFFFF AND EQ ISZERO PUSH2 0x20B8 JUMPI PUSH1 0x40 MLOAD PUSH32 0x8C379A000000000000000000000000000000000000000000000000000000000 DUP2 MSTORE PUSH1 0x4 ADD PUSH2 0x20AF SWAP1 PUSH2 0x4ACF JUMP JUMPDEST PUSH1 0x40 MLOAD DUP1 SWAP2 SUB SWAP1 REVERT JUMPDEST DUP1 PUSH1 0xD PUSH1 0x0 PUSH2 0x20C5 PUSH2 0x30BD JUMP JUMPDEST PUSH20 0xFFFFFFFFFFFFFFFFFFFFFFFFFFFFFFFFFFFFFFFF AND PUSH20 0xFFFFFFFFFFFFFFFFFFFFFFFFFFFFFFFFFFFFFFFF AND DUP2 MSTORE PUSH1 0x20 ADD SWAP1 DUP2 MSTORE PUSH1 0x20 ADD PUSH1 0x0 KECCAK256 PUSH1 0x0 DUP5 PUSH20 0xFFFFFFFFFFFFFFFFFFFFFFFFFFFFFFFFFFFFFFFF AND PUSH20 0xFFFFFFFFFFFFFFFFFFFFFFFFFFFFFFFFFFFFFFFF AND DUP2 MSTORE PUSH1 0x20 ADD SWAP1 DUP2 MSTORE PUSH1 0x20 ADD PUSH1 0x0 KECCAK256 PUSH1 0x0 PUSH2 0x100 EXP DUP2 SLOAD DUP2 PUSH1 0xFF MUL NOT AND SWAP1 DUP4 ISZERO ISZERO MUL OR SWAP1 SSTORE POP DUP2 PUSH20 0xFFFFFFFFFFFFFFFFFFFFFFFFFFFFFFFFFFFFFFFF AND PUSH2 0x2172 PUSH2 0x30BD JUMP JUMPDEST PUSH20 0xFFFFFFFFFFFFFFFFFFFFFFFFFFFFFFFFFFFFFFFF AND PUSH32 0x17307EAB39AB6107E8899845AD3D59BD9653F200F220920489CA2B5937696C31 DUP4 PUSH1 0x40 MLOAD PUSH2 0x21B7 SWAP2 SWAP1 PUSH2 0x4A52 JUMP JUMPDEST PUSH1 0x40 MLOAD DUP1 SWAP2 SUB SWAP1 LOG3 POP POP JUMP JUMPDEST DUP1 PUSH1 0x2 PUSH1 0x0 DUP3 DUP2 MSTORE PUSH1 0x20 ADD SWAP1 DUP2 MSTORE PUSH1 0x20 ADD PUSH1 0x0 KECCAK256 PUSH1 0x0 SWAP1 SLOAD SWAP1 PUSH2 0x100 EXP SWAP1 DIV PUSH20 0xFFFFFFFFFFFFFFFFFFFFFFFFFFFFFFFFFFFFFFFF AND PUSH20 0xFFFFFFFFFFFFFFFFFFFFFFFFFFFFFFFFFFFFFFFF AND CALLER PUSH20 0xFFFFFFFFFFFFFFFFFFFFFFFFFFFFFFFFFFFFFFFF AND EQ PUSH2 0x222F JUMPI PUSH1 0x0 DUP1 REVERT JUMPDEST PUSH1 0x0 PUSH1 0x1 DUP4 DUP2 SLOAD DUP2 LT PUSH2 0x226B JUMPI PUSH32 0x4E487B7100000000000000000000000000000000000000000000000000000000 PUSH1 0x0 MSTORE PUSH1 0x32 PUSH1 0x4 MSTORE PUSH1 0x24 PUSH1 0x0 REVERT JUMPDEST SWAP1 PUSH1 0x0 MSTORE PUSH1 0x20 PUSH1 0x0 KECCAK256 SWAP1 PUSH1 0x7 MUL ADD SWAP1 POP PUSH2 0x2284 DUP2 PUSH2 0x3776 JUMP JUMPDEST ISZERO DUP1 ISZERO PUSH2 0x2296 JUMPI POP PUSH2 0x2295 DUP2 PUSH2 0x3787 JUMP JUMPDEST JUMPDEST PUSH2 0x229F JUMPI PUSH1 0x0 DUP1 REVERT JUMPDEST PUSH2 0x22A8 DUP2 PUSH2 0x3711 JUMP JUMPDEST CALLER PUSH20 0xFFFFFFFFFFFFFFFFFFFFFFFFFFFFFFFFFFFFFFFF AND PUSH32 0x10B6615359775E93E7A308E2EE80875D995F6026B4A0E1F4E2DBE995C773FAB7 DUP5 DUP4 PUSH1 0x0 ADD SLOAD DUP5 PUSH1 0x1 ADD SLOAD DUP6 PUSH1 0x2 ADD SLOAD DUP7 PUSH1 0x3 ADD SLOAD DUP8 PUSH1 0x4 ADD SLOAD PUSH1 0x0 DUP10 PUSH1 0x6 ADD SLOAD PUSH1 0x3 PUSH1 0x0 CALLER PUSH20 0xFFFFFFFFFFFFFFFFFFFFFFFFFFFFFFFFFFFFFFFF AND PUSH20 0xFFFFFFFFFFFFFFFFFFFFFFFFFFFFFFFFFFFFFFFF AND DUP2 MSTORE PUSH1 0x20 ADD SWAP1 DUP2 MSTORE PUSH1 0x20 ADD PUSH1 0x0 KECCAK256 SLOAD PUSH1 0x40 MLOAD PUSH2 0x2356 SWAP10 SWAP9 SWAP8 SWAP7 SWAP6 SWAP5 SWAP4 SWAP3 SWAP2 SWAP1 PUSH2 0x4D0B JUMP JUMPDEST PUSH1 0x40 MLOAD DUP1 SWAP2 SUB SWAP1 LOG2 POP POP POP JUMP JUMPDEST PUSH1 0x0 PUSH1 0x20 MSTORE DUP2 PUSH1 0x0 MSTORE PUSH1 0x40 PUSH1 0x0 KECCAK256 DUP2 DUP2 SLOAD DUP2 LT PUSH2 0x237F JUMPI PUSH1 0x0 DUP1 REVERT JUMPDEST SWAP1 PUSH1 0x0 MSTORE PUSH1 0x20 PUSH1 0x0 KECCAK256 ADD PUSH1 0x0 SWAP2 POP SWAP2 POP SWAP1 SLOAD SWAP1 PUSH2 0x100 EXP SWAP1 DIV PUSH20 0xFFFFFFFFFFFFFFFFFFFFFFFFFFFFFFFFFFFFFFFF AND DUP2 JUMP JUMPDEST PUSH2 0x23BC CALLER DUP4 DUP4 PUSH2 0x3264 JUMP JUMPDEST POP POP JUMP JUMPDEST PUSH1 0x6 PUSH1 0x20 MSTORE DUP1 PUSH1 0x0 MSTORE PUSH1 0x40 PUSH1 0x0 KECCAK256 PUSH1 0x0 SWAP2 POP SWAP1 POP DUP1 PUSH1 0x0 ADD SLOAD SWAP1 DUP1 PUSH1 0x1 ADD SLOAD SWAP1 DUP1 PUSH1 0x2 ADD SLOAD SWAP1 DUP1 PUSH1 0x3 ADD SLOAD SWAP1 DUP1 PUSH1 0x4 ADD SLOAD SWAP1 DUP1 PUSH1 0x5 ADD PUSH1 0x0 SWAP1 SLOAD SWAP1 PUSH2 0x100 EXP SWAP1 DIV PUSH1 0xFF AND SWAP1 DUP1 PUSH1 0x6 ADD SLOAD SWAP1 POP DUP8 JUMP JUMPDEST DUP1 PUSH1 0xE SLOAD PUSH2 0x241D SWAP2 SWAP1 PUSH2 0x4F35 JUMP JUMPDEST CALLVALUE EQ PUSH2 0x2428 JUMPI PUSH1 0x0 DUP1 REVERT JUMPDEST PUSH2 0x2431 DUP2 PUSH2 0x3798 JUMP JUMPDEST POP JUMP JUMPDEST CALLER PUSH20 0xFFFFFFFFFFFFFFFFFFFFFFFFFFFFFFFFFFFFFFFF AND PUSH1 0xF PUSH1 0x0 DUP4 DUP2 MSTORE PUSH1 0x20 ADD SWAP1 DUP2 MSTORE PUSH1 0x20 ADD PUSH1 0x0 KECCAK256 PUSH1 0x0 SWAP1 SLOAD SWAP1 PUSH2 0x100 EXP SWAP1 DIV PUSH20 0xFFFFFFFFFFFFFFFFFFFFFFFFFFFFFFFFFFFFFFFF AND PUSH20 0xFFFFFFFFFFFFFFFFFFFFFFFFFFFFFFFFFFFFFFFF AND EQ PUSH2 0x249F JUMPI PUSH1 0x0 DUP1 REVERT JUMPDEST PUSH1 0x0 PUSH2 0x24AA DUP3 PUSH2 0x16DE JUMP JUMPDEST SWAP1 POP PUSH2 0x24B7 DUP2 CALLER DUP5 PUSH2 0x3264 JUMP JUMPDEST POP POP JUMP JUMPDEST PUSH2 0x24CC PUSH2 0x24C6 PUSH2 0x30BD JUMP JUMPDEST DUP4 PUSH2 0x3974 JUMP JUMPDEST PUSH2 0x250B JUMPI PUSH1 0x40 MLOAD PUSH32 0x8C379A000000000000000000000000000000000000000000000000000000000 DUP2 MSTORE PUSH1 0x4 ADD PUSH2 0x2502 SWAP1 PUSH2 0x4B8F JUMP JUMPDEST PUSH1 0x40 MLOAD DUP1 SWAP2 SUB SWAP1 REVERT JUMPDEST PUSH2 0x2517 DUP5 DUP5 DUP5 DUP5 PUSH2 0x3A52 JUMP JUMPDEST POP POP POP POP JUMP JUMPDEST DUP1 PUSH1 0x2 PUSH1 0x0 DUP3 DUP2 MSTORE PUSH1 0x20 ADD SWAP1 DUP2 MSTORE PUSH1 0x20 ADD PUSH1 0x0 KECCAK256 PUSH1 0x0 SWAP1 SLOAD SWAP1 PUSH2 0x100 EXP SWAP1 DIV PUSH20 0xFFFFFFFFFFFFFFFFFFFFFFFFFFFFFFFFFFFFFFFF AND PUSH20 0xFFFFFFFFFFFFFFFFFFFFFFFFFFFFFFFFFFFFFFFF AND CALLER PUSH20 0xFFFFFFFFFFFFFFFFFFFFFFFFFFFFFFFFFFFFFFFF AND EQ PUSH2 0x2589 JUMPI PUSH1 0x0 DUP1 REVERT JUMPDEST PUSH1 0x0 PUSH1 0x1 DUP4 DUP2 SLOAD DUP2 LT PUSH2 0x25C5 JUMPI PUSH32 0x4E487B7100000000000000000000000000000000000000000000000000000000 PUSH1 0x0 MSTORE PUSH1 0x32 PUSH1 0x4 MSTORE PUSH1 0x24 PUSH1 0x0 REVERT JUMPDEST SWAP1 PUSH1 0x0 MSTORE PUSH1 0x20 PUSH1 0x0 KECCAK256 SWAP1 PUSH1 0x7 MUL ADD SWAP1 POP PUSH2 0x25DE DUP2 PUSH2 0x3776 JUMP JUMPDEST ISZERO DUP1 ISZERO PUSH2 0x25F0 JUMPI POP PUSH2 0x25EF DUP2 PUSH2 0x3AAE JUMP JUMPDEST JUMPDEST PUSH2 0x25F9 JUMPI PUSH1 0x0 DUP1 REVERT JUMPDEST PUSH2 0x2602 DUP2 PUSH2 0x36D1 JUMP JUMPDEST CALLER PUSH20 0xFFFFFFFFFFFFFFFFFFFFFFFFFFFFFFFFFFFFFFFF AND PUSH32 0x10B6615359775E93E7A308E2EE80875D995F6026B4A0E1F4E2DBE995C773FAB7 DUP5 DUP4 PUSH1 0x0 ADD SLOAD DUP5 PUSH1 0x1 ADD SLOAD DUP6 PUSH1 0x2 ADD SLOAD DUP7 PUSH1 0x3 ADD SLOAD DUP8 PUSH1 0x4 ADD SLOAD PUSH1 0x0 DUP10 PUSH1 0x6 ADD SLOAD PUSH1 0x3 PUSH1 0x0 CALLER PUSH20 0xFFFFFFFFFFFFFFFFFFFFFFFFFFFFFFFFFFFFFFFF AND PUSH20 0xFFFFFFFFFFFFFFFFFFFFFFFFFFFFFFFFFFFFFFFF AND DUP2 MSTORE PUSH1 0x20 ADD SWAP1 DUP2 MSTORE PUSH1 0x20 ADD PUSH1 0x0 KECCAK256 SLOAD PUSH1 0x40 MLOAD PUSH2 0x26B0 SWAP10 SWAP9 SWAP8 SWAP7 SWAP6 SWAP5 SWAP4 SWAP3 SWAP2 SWAP1 PUSH2 0x4D0B JUMP JUMPDEST PUSH1 0x40 MLOAD DUP1 SWAP2 SUB SWAP1 LOG2 POP POP POP JUMP JUMPDEST PUSH1 0x60 PUSH2 0x26C8 DUP3 PUSH2 0x3051 JUMP JUMPDEST PUSH2 0x2707 JUMPI PUSH1 0x40 MLOAD PUSH32 0x8C379A000000000000000000000000000000000000000000000000000000000 DUP2 MSTORE PUSH1 0x4 ADD PUSH2 0x26FE SWAP1 PUSH2 0x4B6F JUMP JUMPDEST PUSH1 0x40 MLOAD DUP1 SWAP2 SUB SWAP1 REVERT JUMPDEST PUSH1 0x0 PUSH2 0x2711 PUSH2 0x3ABF JUMP JUMPDEST SWAP1 POP PUSH1 0x0 DUP2 MLOAD GT PUSH2 0x2731 JUMPI PUSH1 0x40 MLOAD DUP1 PUSH1 0x20 ADD PUSH1 0x40 MSTORE DUP1 PUSH1 0x0 DUP2 MSTORE POP PUSH2 0x275C JUMP JUMPDEST DUP1 PUSH2 0x273B DUP5 PUSH2 0x3AD6 JUMP JUMPDEST PUSH1 0x40 MLOAD PUSH1 0x20 ADD PUSH2 0x274C SWAP3 SWAP2 SWAP1 PUSH2 0x4983 JUMP JUMPDEST PUSH1 0x40 MLOAD PUSH1 0x20 DUP2 DUP4 SUB SUB DUP2 MSTORE SWAP1 PUSH1 0x40 MSTORE JUMPDEST SWAP2 POP POP SWAP2 SWAP1 POP JUMP JUMPDEST PUSH2 0x276C PUSH2 0x30BD JUMP JUMPDEST PUSH20 0xFFFFFFFFFFFFFFFFFFFFFFFFFFFFFFFFFFFFFFFF AND PUSH2 0x278A PUSH2 0x1A25 JUMP JUMPDEST PUSH20 0xFFFFFFFFFFFFFFFFFFFFFFFFFFFFFFFFFFFFFFFF AND EQ PUSH2 0x27E0 JUMPI PUSH1 0x40 MLOAD PUSH32 0x8C379A000000000000000000000000000000000000000000000000000000000 DUP2 MSTORE PUSH1 0x4 ADD PUSH2 0x27D7 SWAP1 PUSH2 0x4B4F JUMP JUMPDEST PUSH1 0x40 MLOAD DUP1 SWAP2 SUB SWAP1 REVERT JUMPDEST DUP1 PUSH1 0xE DUP2 SWAP1 SSTORE POP POP JUMP JUMPDEST PUSH1 0x60 PUSH1 0x0 DUP1 DUP4 PUSH20 0xFFFFFFFFFFFFFFFFFFFFFFFFFFFFFFFFFFFFFFFF AND PUSH20 0xFFFFFFFFFFFFFFFFFFFFFFFFFFFFFFFFFFFFFFFF AND DUP2 MSTORE PUSH1 0x20 ADD SWAP1 DUP2 MSTORE PUSH1 0x20 ADD PUSH1 0x0 KECCAK256 DUP1 SLOAD DUP1 PUSH1 0x20 MUL PUSH1 0x20 ADD PUSH1 0x40 MLOAD SWAP1 DUP2 ADD PUSH1 0x40 MSTORE DUP1 SWAP3 SWAP2 SWAP1 DUP2 DUP2 MSTORE PUSH1 0x20 ADD DUP3 DUP1 SLOAD DUP1 ISZERO PUSH2 0x28AA JUMPI PUSH1 0x20 MUL DUP3 ADD SWAP2 SWAP1 PUSH1 0x0 MSTORE PUSH1 0x20 PUSH1 0x0 KECCAK256 SWAP1 JUMPDEST DUP2 PUSH1 0x0 SWAP1 SLOAD SWAP1 PUSH2 0x100 EXP SWAP1 DIV PUSH20 0xFFFFFFFFFFFFFFFFFFFFFFFFFFFFFFFFFFFFFFFF AND PUSH20 0xFFFFFFFFFFFFFFFFFFFFFFFFFFFFFFFFFFFFFFFF AND DUP2 MSTORE PUSH1 0x20 ADD SWAP1 PUSH1 0x1 ADD SWAP1 DUP1 DUP4 GT PUSH2 0x2860 JUMPI JUMPDEST POP POP POP POP POP SWAP1 POP SWAP2 SWAP1 POP JUMP JUMPDEST DUP1 PUSH1 0x2 PUSH1 0x0 DUP3 DUP2 MSTORE PUSH1 0x20 ADD SWAP1 DUP2 MSTORE PUSH1 0x20 ADD PUSH1 0x0 KECCAK256 PUSH1 0x0 SWAP1 SLOAD SWAP1 PUSH2 0x100 EXP SWAP1 DIV PUSH20 0xFFFFFFFFFFFFFFFFFFFFFFFFFFFFFFFFFFFFFFFF AND PUSH20 0xFFFFFFFFFFFFFFFFFFFFFFFFFFFFFFFFFFFFFFFF AND CALLER PUSH20 0xFFFFFFFFFFFFFFFFFFFFFFFFFFFFFFFFFFFFFFFF AND EQ PUSH2 0x2922 JUMPI PUSH1 0x0 DUP1 REVERT JUMPDEST PUSH1 0x0 PUSH1 0x1 DUP4 DUP2 SLOAD DUP2 LT PUSH2 0x295E JUMPI PUSH32 0x4E487B7100000000000000000000000000000000000000000000000000000000 PUSH1 0x0 MSTORE PUSH1 0x32 PUSH1 0x4 MSTORE PUSH1 0x24 PUSH1 0x0 REVERT JUMPDEST SWAP1 PUSH1 0x0 MSTORE PUSH1 0x20 PUSH1 0x0 KECCAK256 SWAP1 PUSH1 0x7 MUL ADD SWAP1 POP PUSH2 0x2977 DUP2 PUSH2 0x3776 JUMP JUMPDEST PUSH2 0x2980 JUMPI PUSH1 0x0 DUP1 REVERT JUMPDEST PUSH1 0x0 PUSH1 0x2 SWAP1 POP DUP2 PUSH1 0x1 ADD SLOAD DUP3 PUSH1 0x3 ADD SLOAD GT ISZERO PUSH2 0x29A5 JUMPI DUP1 DUP1 PUSH2 0x29A1 SWAP1 PUSH2 0x50E7 JUMP JUMPDEST SWAP2 POP POP JUMPDEST DUP2 PUSH1 0x1 ADD SLOAD DUP3 PUSH1 0x4 ADD SLOAD GT ISZERO PUSH2 0x29C4 JUMPI DUP1 DUP1 PUSH2 0x29C0 SWAP1 PUSH2 0x50E7 JUMP JUMPDEST SWAP2 POP POP JUMPDEST DUP2 PUSH1 0x5 ADD PUSH1 0x0 SWAP1 SLOAD SWAP1 PUSH2 0x100 EXP SWAP1 DIV PUSH1 0xFF AND PUSH2 0x29E9 JUMPI DUP1 DUP1 PUSH2 0x29E5 SWAP1 PUSH2 0x50E7 JUMP JUMPDEST SWAP2 POP POP JUMPDEST PUSH1 0x0 DUP2 DUP4 PUSH1 0x2 ADD SLOAD PUSH2 0x29FB SWAP2 SWAP1 PUSH2 0x4F35 JUMP JUMPDEST PUSH1 0x3 PUSH1 0x0 CALLER PUSH20 0xFFFFFFFFFFFFFFFFFFFFFFFFFFFFFFFFFFFFFFFF AND PUSH20 0xFFFFFFFFFFFFFFFFFFFFFFFFFFFFFFFFFFFFFFFF AND DUP2 MSTORE PUSH1 0x20 ADD SWAP1 DUP2 MSTORE PUSH1 0x20 ADD PUSH1 0x0 KECCAK256 SLOAD PUSH2 0x2A45 SWAP2 SWAP1 PUSH2 0x4EAE JUMP JUMPDEST SWAP1 POP DUP1 PUSH1 0x3 PUSH1 0x0 CALLER PUSH20 0xFFFFFFFFFFFFFFFFFFFFFFFFFFFFFFFFFFFFFFFF AND PUSH20 0xFFFFFFFFFFFFFFFFFFFFFFFFFFFFFFFFFFFFFFFF AND DUP2 MSTORE PUSH1 0x20 ADD SWAP1 DUP2 MSTORE PUSH1 0x20 ADD PUSH1 0x0 KECCAK256 DUP2 SWAP1 SSTORE POP PUSH1 0x0 DUP4 PUSH1 0x0 ADD DUP2 SWAP1 SSTORE POP PUSH1 0x5 DUP3 EQ ISZERO PUSH2 0x2AB9 JUMPI DUP3 PUSH1 0x6 ADD PUSH1 0x0 DUP2 SLOAD DUP1 SWAP3 SWAP2 SWAP1 PUSH2 0x2AB3 SWAP1 PUSH2 0x50E7 JUMP JUMPDEST SWAP2 SWAP1 POP SSTORE POP JUMPDEST CALLER PUSH20 0xFFFFFFFFFFFFFFFFFFFFFFFFFFFFFFFFFFFFFFFF AND PUSH32 0x10B6615359775E93E7A308E2EE80875D995F6026B4A0E1F4E2DBE995C773FAB7 DUP7 PUSH1 0x0 DUP1 PUSH1 0x0 DUP1 PUSH1 0x0 DUP1 DUP12 PUSH1 0x6 ADD SLOAD DUP11 PUSH1 0x40 MLOAD PUSH2 0x2B16 SWAP10 SWAP9 SWAP8 SWAP7 SWAP6 SWAP5 SWAP4 SWAP3 SWAP2 SWAP1 PUSH2 0x4BCA JUMP JUMPDEST PUSH1 0x40 MLOAD DUP1 SWAP2 SUB SWAP1 LOG2 POP POP POP POP POP JUMP JUMPDEST PUSH2 0x2B2D PUSH2 0x30BD JUMP JUMPDEST PUSH20 0xFFFFFFFFFFFFFFFFFFFFFFFFFFFFFFFFFFFFFFFF AND PUSH2 0x2B4B PUSH2 0x1A25 JUMP JUMPDEST PUSH20 0xFFFFFFFFFFFFFFFFFFFFFFFFFFFFFFFFFFFFFFFF AND EQ PUSH2 0x2BA1 JUMPI PUSH1 0x40 MLOAD PUSH32 0x8C379A000000000000000000000000000000000000000000000000000000000 DUP2 MSTORE PUSH1 0x4 ADD PUSH2 0x2B98 SWAP1 PUSH2 0x4B4F JUMP JUMPDEST PUSH1 0x40 MLOAD DUP1 SWAP2 SUB SWAP1 REVERT JUMPDEST PUSH1 0x40 MLOAD DUP1 PUSH1 0xE0 ADD PUSH1 0x40 MSTORE DUP1 DUP6 DUP2 MSTORE PUSH1 0x20 ADD DUP5 DUP2 MSTORE PUSH1 0x20 ADD DUP4 DUP2 MSTORE PUSH1 0x20 ADD PUSH1 0x0 DUP2 MSTORE PUSH1 0x20 ADD PUSH1 0x0 DUP2 MSTORE PUSH1 0x20 ADD PUSH1 0x0 ISZERO ISZERO DUP2 MSTORE PUSH1 0x20 ADD DUP3 DUP2 MSTORE POP PUSH1 0x6 PUSH1 0x0 DUP7 DUP2 MSTORE PUSH1 0x20 ADD SWAP1 DUP2 MSTORE PUSH1 0x20 ADD PUSH1 0x0 KECCAK256 PUSH1 0x0 DUP3 ADD MLOAD DUP2 PUSH1 0x0 ADD SSTORE PUSH1 0x20 DUP3 ADD MLOAD DUP2 PUSH1 0x1 ADD SSTORE PUSH1 0x40 DUP3 ADD MLOAD DUP2 PUSH1 0x2 ADD SSTORE PUSH1 0x60 DUP3 ADD MLOAD DUP2 PUSH1 0x3 ADD SSTORE PUSH1 0x80 DUP3 ADD MLOAD DUP2 PUSH1 0x4 ADD SSTORE PUSH1 0xA0 DUP3 ADD MLOAD DUP2 PUSH1 0x5 ADD PUSH1 0x0 PUSH2 0x100 EXP DUP2 SLOAD DUP2 PUSH1 0xFF MUL NOT AND SWAP1 DUP4 ISZERO ISZERO MUL OR SWAP1 SSTORE POP PUSH1 0xC0 DUP3 ADD MLOAD DUP2 PUSH1 0x6 ADD SSTORE SWAP1 POP POP PUSH32 0xA99A7515CCE8C21202B55BDD8C634A45CF0FC5FFC970A5FAF445F6E26665057 DUP5 DUP5 DUP5 DUP5 PUSH1 0x40 MLOAD PUSH2 0x2C80 SWAP5 SWAP4 SWAP3 SWAP2 SWAP1 PUSH2 0x4C57 JUMP JUMPDEST PUSH1 0x40 MLOAD DUP1 SWAP2 SUB SWAP1 LOG1 POP POP POP POP JUMP JUMPDEST PUSH1 0x0 PUSH1 0xD PUSH1 0x0 DUP5 PUSH20 0xFFFFFFFFFFFFFFFFFFFFFFFFFFFFFFFFFFFFFFFF AND PUSH20 0xFFFFFFFFFFFFFFFFFFFFFFFFFFFFFFFFFFFFFFFF AND DUP2 MSTORE PUSH1 0x20 ADD SWAP1 DUP2 MSTORE PUSH1 0x20 ADD PUSH1 0x0 KECCAK256 PUSH1 0x0 DUP4 PUSH20 0xFFFFFFFFFFFFFFFFFFFFFFFFFFFFFFFFFFFFFFFF AND PUSH20 0xFFFFFFFFFFFFFFFFFFFFFFFFFFFFFFFFFFFFFFFF AND DUP2 MSTORE PUSH1 0x20 ADD SWAP1 DUP2 MSTORE PUSH1 0x20 ADD PUSH1 0x0 KECCAK256 PUSH1 0x0 SWAP1 SLOAD SWAP1 PUSH2 0x100 EXP SWAP1 DIV PUSH1 0xFF AND SWAP1 POP SWAP3 SWAP2 POP POP JUMP JUMPDEST PUSH2 0x2D2A PUSH2 0x30BD JUMP JUMPDEST PUSH20 0xFFFFFFFFFFFFFFFFFFFFFFFFFFFFFFFFFFFFFFFF AND PUSH2 0x2D48 PUSH2 0x1A25 JUMP JUMPDEST PUSH20 0xFFFFFFFFFFFFFFFFFFFFFFFFFFFFFFFFFFFFFFFF AND EQ PUSH2 0x2D9E JUMPI PUSH1 0x40 MLOAD PUSH32 0x8C379A000000000000000000000000000000000000000000000000000000000 DUP2 MSTORE PUSH1 0x4 ADD PUSH2 0x2D95 SWAP1 PUSH2 0x4B4F JUMP JUMPDEST PUSH1 0x40 MLOAD DUP1 SWAP2 SUB SWAP1 REVERT JUMPDEST PUSH1 0x0 PUSH1 0x7 DUP1 SLOAD SWAP1 POP EQ DUP1 PUSH2 0x2E06 JUMPI POP PUSH1 0x7 PUSH1 0x1 PUSH1 0x7 DUP1 SLOAD SWAP1 POP PUSH2 0x2DC1 SWAP2 SWAP1 PUSH2 0x4F8F JUMP JUMPDEST DUP2 SLOAD DUP2 LT PUSH2 0x2DF8 JUMPI PUSH32 0x4E487B7100000000000000000000000000000000000000000000000000000000 PUSH1 0x0 MSTORE PUSH1 0x32 PUSH1 0x4 MSTORE PUSH1 0x24 PUSH1 0x0 REVERT JUMPDEST SWAP1 PUSH1 0x0 MSTORE PUSH1 0x20 PUSH1 0x0 KECCAK256 ADD SLOAD DUP2 GT JUMPDEST PUSH2 0x2E0F JUMPI PUSH1 0x0 DUP1 REVERT JUMPDEST PUSH1 0x7 DUP2 SWAP1 DUP1 PUSH1 0x1 DUP2 SLOAD ADD DUP1 DUP3 SSTORE DUP1 SWAP2 POP POP PUSH1 0x1 SWAP1 SUB SWAP1 PUSH1 0x0 MSTORE PUSH1 0x20 PUSH1 0x0 KECCAK256 ADD PUSH1 0x0 SWAP1 SWAP2 SWAP1 SWAP2 SWAP1 SWAP2 POP SSTORE POP JUMP JUMPDEST PUSH2 0x2E43 PUSH2 0x30BD JUMP JUMPDEST PUSH20 0xFFFFFFFFFFFFFFFFFFFFFFFFFFFFFFFFFFFFFFFF AND PUSH2 0x2E61 PUSH2 0x1A25 JUMP JUMPDEST PUSH20 0xFFFFFFFFFFFFFFFFFFFFFFFFFFFFFFFFFFFFFFFF AND EQ PUSH2 0x2EB7 JUMPI PUSH1 0x40 MLOAD PUSH32 0x8C379A000000000000000000000000000000000000000000000000000000000 DUP2 MSTORE PUSH1 0x4 ADD PUSH2 0x2EAE SWAP1 PUSH2 0x4B4F JUMP JUMPDEST PUSH1 0x40 MLOAD DUP1 SWAP2 SUB SWAP1 REVERT JUMPDEST PUSH1 0x0 PUSH20 0xFFFFFFFFFFFFFFFFFFFFFFFFFFFFFFFFFFFFFFFF AND DUP2 PUSH20 0xFFFFFFFFFFFFFFFFFFFFFFFFFFFFFFFFFFFFFFFF AND EQ ISZERO PUSH2 0x2F27 JUMPI PUSH1 0x40 MLOAD PUSH32 0x8C379A000000000000000000000000000000000000000000000000000000000 DUP2 MSTORE PUSH1 0x4 ADD PUSH2 0x2F1E SWAP1 PUSH2 0x4AAF JUMP JUMPDEST PUSH1 0x40 MLOAD DUP1 SWAP2 SUB SWAP1 REVERT JUMPDEST DUP1 PUSH20 0xFFFFFFFFFFFFFFFFFFFFFFFFFFFFFFFFFFFFFFFF AND PUSH1 0x5 PUSH1 0x0 SWAP1 SLOAD SWAP1 PUSH2 0x100 EXP SWAP1 DIV PUSH20 0xFFFFFFFFFFFFFFFFFFFFFFFFFFFFFFFFFFFFFFFF AND PUSH20 0xFFFFFFFFFFFFFFFFFFFFFFFFFFFFFFFFFFFFFFFF AND PUSH32 0x8BE0079C531659141344CD1FD0A4F28419497F9722A3DAAFE3B4186F6B6457E0 PUSH1 0x40 MLOAD PUSH1 0x40 MLOAD DUP1 SWAP2 SUB SWAP1 LOG3 DUP1 PUSH1 0x5 PUSH1 0x0 PUSH2 0x100 EXP DUP2 SLOAD DUP2 PUSH20 0xFFFFFFFFFFFFFFFFFFFFFFFFFFFFFFFFFFFFFFFF MUL NOT AND SWAP1 DUP4 PUSH20 0xFFFFFFFFFFFFFFFFFFFFFFFFFFFFFFFFFFFFFFFF AND MUL OR SWAP1 SSTORE POP POP JUMP JUMPDEST PUSH1 0x0 PUSH32 0x1FFC9A700000000000000000000000000000000000000000000000000000000 PUSH28 0xFFFFFFFFFFFFFFFFFFFFFFFFFFFFFFFFFFFFFFFFFFFFFFFFFFFFFFFF NOT AND DUP3 PUSH28 0xFFFFFFFFFFFFFFFFFFFFFFFFFFFFFFFFFFFFFFFFFFFFFFFFFFFFFFFF NOT AND EQ SWAP1 POP SWAP2 SWAP1 POP JUMP JUMPDEST PUSH1 0x0 DUP1 PUSH20 0xFFFFFFFFFFFFFFFFFFFFFFFFFFFFFFFFFFFFFFFF AND PUSH1 0xA PUSH1 0x0 DUP5 DUP2 MSTORE PUSH1 0x20 ADD SWAP1 DUP2 MSTORE PUSH1 0x20 ADD PUSH1 0x0 KECCAK256 PUSH1 0x0 SWAP1 SLOAD SWAP1 PUSH2 0x100 EXP SWAP1 DIV PUSH20 0xFFFFFFFFFFFFFFFFFFFFFFFFFFFFFFFFFFFFFFFF AND PUSH20 0xFFFFFFFFFFFFFFFFFFFFFFFFFFFFFFFFFFFFFFFF AND EQ ISZERO SWAP1 POP SWAP2 SWAP1 POP JUMP JUMPDEST PUSH1 0x0 CALLER SWAP1 POP SWAP1 JUMP JUMPDEST PUSH1 0x0 DUP1 PUSH1 0x0 SWAP1 POP JUMPDEST PUSH1 0x0 DUP1 DUP6 PUSH20 0xFFFFFFFFFFFFFFFFFFFFFFFFFFFFFFFFFFFFFFFF AND PUSH20 0xFFFFFFFFFFFFFFFFFFFFFFFFFFFFFFFFFFFFFFFF AND DUP2 MSTORE PUSH1 0x20 ADD SWAP1 DUP2 MSTORE PUSH1 0x20 ADD PUSH1 0x0 KECCAK256 DUP1 SLOAD SWAP1 POP DUP2 LT ISZERO PUSH2 0x3207 JUMPI PUSH1 0x0 DUP1 DUP6 PUSH20 0xFFFFFFFFFFFFFFFFFFFFFFFFFFFFFFFFFFFFFFFF AND PUSH20 0xFFFFFFFFFFFFFFFFFFFFFFFFFFFFFFFFFFFFFFFF AND DUP2 MSTORE PUSH1 0x20 ADD SWAP1 DUP2 MSTORE PUSH1 0x20 ADD PUSH1 0x0 KECCAK256 DUP2 DUP2 SLOAD DUP2 LT PUSH2 0x318C JUMPI PUSH32 0x4E487B7100000000000000000000000000000000000000000000000000000000 PUSH1 0x0 MSTORE PUSH1 0x32 PUSH1 0x4 MSTORE PUSH1 0x24 PUSH1 0x0 REVERT JUMPDEST SWAP1 PUSH1 0x0 MSTORE PUSH1 0x20 PUSH1 0x0 KECCAK256 ADD PUSH1 0x0 SWAP1 SLOAD SWAP1 PUSH2 0x100 EXP SWAP1 DIV PUSH20 0xFFFFFFFFFFFFFFFFFFFFFFFFFFFFFFFFFFFFFFFF AND PUSH20 0xFFFFFFFFFFFFFFFFFFFFFFFFFFFFFFFFFFFFFFFF AND DUP4 PUSH20 0xFFFFFFFFFFFFFFFFFFFFFFFFFFFFFFFFFFFFFFFF AND EQ ISZERO PUSH2 0x31F4 JUMPI PUSH1 0x1 SWAP2 POP POP PUSH2 0x320D JUMP JUMPDEST DUP1 DUP1 PUSH2 0x31FF SWAP1 PUSH2 0x50E7 JUMP JUMPDEST SWAP2 POP POP PUSH2 0x30CD JUMP JUMPDEST POP PUSH1 0x0 SWAP1 POP JUMPDEST SWAP3 SWAP2 POP POP JUMP JUMPDEST PUSH2 0x321D PUSH1 0x6 PUSH2 0x3798 JUMP JUMPDEST PUSH1 0x64 PUSH1 0x3 PUSH1 0x0 CALLER PUSH20 0xFFFFFFFFFFFFFFFFFFFFFFFFFFFFFFFFFFFFFFFF AND PUSH20 0xFFFFFFFFFFFFFFFFFFFFFFFFFFFFFFFFFFFFFFFF AND DUP2 MSTORE PUSH1 0x20 ADD SWAP1 DUP2 MSTORE PUSH1 0x20 ADD PUSH1 0x0 KECCAK256 DUP2 SWAP1 SSTORE POP JUMP JUMPDEST PUSH1 0x6 PUSH1 0x4 PUSH1 0x0 DUP6 PUSH20 0xFFFFFFFFFFFFFFFFFFFFFFFFFFFFFFFFFFFFFFFF AND PUSH20 0xFFFFFFFFFFFFFFFFFFFFFFFFFFFFFFFFFFFFFFFF AND DUP2 MSTORE PUSH1 0x20 ADD SWAP1 DUP2 MSTORE PUSH1 0x20 ADD PUSH1 0x0 KECCAK256 SLOAD GT PUSH2 0x32B0 JUMPI PUSH1 0x0 DUP1 REVERT JUMPDEST PUSH1 0x4 PUSH1 0x0 DUP4 PUSH20 0xFFFFFFFFFFFFFFFFFFFFFFFFFFFFFFFFFFFFFFFF AND PUSH20 0xFFFFFFFFFFFFFFFFFFFFFFFFFFFFFFFFFFFFFFFF AND DUP2 MSTORE PUSH1 0x20 ADD SWAP1 DUP2 MSTORE PUSH1 0x20 ADD PUSH1 0x0 KECCAK256 PUSH1 0x0 DUP2 SLOAD DUP1 SWAP3 SWAP2 SWAP1 PUSH2 0x3300 SWAP1 PUSH2 0x50E7 JUMP JUMPDEST SWAP2 SWAP1 POP SSTORE POP PUSH1 0x4 PUSH1 0x0 DUP5 PUSH20 0xFFFFFFFFFFFFFFFFFFFFFFFFFFFFFFFFFFFFFFFF AND PUSH20 0xFFFFFFFFFFFFFFFFFFFFFFFFFFFFFFFFFFFFFFFF AND DUP2 MSTORE PUSH1 0x20 ADD SWAP1 DUP2 MSTORE PUSH1 0x20 ADD PUSH1 0x0 KECCAK256 PUSH1 0x0 DUP2 SLOAD DUP1 SWAP3 SWAP2 SWAP1 PUSH2 0x3355 SWAP1 PUSH2 0x508B JUMP JUMPDEST SWAP2 SWAP1 POP SSTORE POP DUP2 PUSH1 0x2 PUSH1 0x0 DUP4 DUP2 MSTORE PUSH1 0x20 ADD SWAP1 DUP2 MSTORE PUSH1 0x20 ADD PUSH1 0x0 KECCAK256 PUSH1 0x0 PUSH2 0x100 EXP DUP2 SLOAD DUP2 PUSH20 0xFFFFFFFFFFFFFFFFFFFFFFFFFFFFFFFFFFFFFFFF MUL NOT AND SWAP1 DUP4 PUSH20 0xFFFFFFFFFFFFFFFFFFFFFFFFFFFFFFFFFFFFFFFF AND MUL OR SWAP1 SSTORE POP DUP1 DUP3 PUSH20 0xFFFFFFFFFFFFFFFFFFFFFFFFFFFFFFFFFFFFFFFF AND DUP5 PUSH20 0xFFFFFFFFFFFFFFFFFFFFFFFFFFFFFFFFFFFFFFFF AND PUSH32 0xDDF252AD1BE2C89B69C2B068FC378DAA952BA7F163C4A11628F55A4DF523B3EF PUSH1 0x40 MLOAD PUSH1 0x40 MLOAD DUP1 SWAP2 SUB SWAP1 LOG4 POP POP POP JUMP JUMPDEST PUSH1 0x0 PUSH2 0x3418 DUP4 DUP4 PUSH2 0x30C5 JUMP JUMPDEST PUSH2 0x3425 JUMPI PUSH1 0x0 SWAP1 POP PUSH2 0x3694 JUMP JUMPDEST PUSH1 0x0 PUSH2 0x3431 DUP5 DUP5 PUSH2 0x3C83 JUMP JUMPDEST SWAP1 POP PUSH1 0x0 DUP1 PUSH1 0x0 DUP7 PUSH20 0xFFFFFFFFFFFFFFFFFFFFFFFFFFFFFFFFFFFFFFFF AND PUSH20 0xFFFFFFFFFFFFFFFFFFFFFFFFFFFFFFFFFFFFFFFF AND DUP2 MSTORE PUSH1 0x20 ADD SWAP1 DUP2 MSTORE PUSH1 0x20 ADD PUSH1 0x0 KECCAK256 DUP1 SLOAD SWAP1 POP SWAP1 POP PUSH1 0x0 DUP1 DUP7 PUSH20 0xFFFFFFFFFFFFFFFFFFFFFFFFFFFFFFFFFFFFFFFF AND PUSH20 0xFFFFFFFFFFFFFFFFFFFFFFFFFFFFFFFFFFFFFFFF AND DUP2 MSTORE PUSH1 0x20 ADD SWAP1 DUP2 MSTORE PUSH1 0x20 ADD PUSH1 0x0 KECCAK256 PUSH1 0x1 DUP3 PUSH2 0x34C4 SWAP2 SWAP1 PUSH2 0x4F8F JUMP JUMPDEST DUP2 SLOAD DUP2 LT PUSH2 0x34FB JUMPI PUSH32 0x4E487B7100000000000000000000000000000000000000000000000000000000 PUSH1 0x0 MSTORE PUSH1 0x32 PUSH1 0x4 MSTORE PUSH1 0x24 PUSH1 0x0 REVERT JUMPDEST SWAP1 PUSH1 0x0 MSTORE PUSH1 0x20 PUSH1 0x0 KECCAK256 ADD PUSH1 0x0 SWAP1 SLOAD SWAP1 PUSH2 0x100 EXP SWAP1 DIV PUSH20 0xFFFFFFFFFFFFFFFFFFFFFFFFFFFFFFFFFFFFFFFF AND PUSH1 0x0 DUP1 DUP8 PUSH20 0xFFFFFFFFFFFFFFFFFFFFFFFFFFFFFFFFFFFFFFFF AND PUSH20 0xFFFFFFFFFFFFFFFFFFFFFFFFFFFFFFFFFFFFFFFF AND DUP2 MSTORE PUSH1 0x20 ADD SWAP1 DUP2 MSTORE PUSH1 0x20 ADD PUSH1 0x0 KECCAK256 DUP4 DUP2 SLOAD DUP2 LT PUSH2 0x359C JUMPI PUSH32 0x4E487B7100000000000000000000000000000000000000000000000000000000 PUSH1 0x0 MSTORE PUSH1 0x32 PUSH1 0x4 MSTORE PUSH1 0x24 PUSH1 0x0 REVERT JUMPDEST SWAP1 PUSH1 0x0 MSTORE PUSH1 0x20 PUSH1 0x0 KECCAK256 ADD PUSH1 0x0 PUSH2 0x100 EXP DUP2 SLOAD DUP2 PUSH20 0xFFFFFFFFFFFFFFFFFFFFFFFFFFFFFFFFFFFFFFFF MUL NOT AND SWAP1 DUP4 PUSH20 0xFFFFFFFFFFFFFFFFFFFFFFFFFFFFFFFFFFFFFFFF AND MUL OR SWAP1 SSTORE POP PUSH1 0x0 DUP1 DUP7 PUSH20 0xFFFFFFFFFFFFFFFFFFFFFFFFFFFFFFFFFFFFFFFF AND PUSH20 0xFFFFFFFFFFFFFFFFFFFFFFFFFFFFFFFFFFFFFFFF AND DUP2 MSTORE PUSH1 0x20 ADD SWAP1 DUP2 MSTORE PUSH1 0x20 ADD PUSH1 0x0 KECCAK256 DUP1 SLOAD DUP1 PUSH2 0x3658 JUMPI PUSH32 0x4E487B7100000000000000000000000000000000000000000000000000000000 PUSH1 0x0 MSTORE PUSH1 0x31 PUSH1 0x4 MSTORE PUSH1 0x24 PUSH1 0x0 REVERT JUMPDEST PUSH1 0x1 SWAP1 SUB DUP2 DUP2 SWAP1 PUSH1 0x0 MSTORE PUSH1 0x20 PUSH1 0x0 KECCAK256 ADD PUSH1 0x0 PUSH2 0x100 EXP DUP2 SLOAD SWAP1 PUSH20 0xFFFFFFFFFFFFFFFFFFFFFFFFFFFFFFFFFFFFFFFF MUL NOT AND SWAP1 SSTORE SWAP1 SSTORE PUSH1 0x1 SWAP3 POP POP POP JUMPDEST SWAP3 SWAP2 POP POP JUMP JUMPDEST PUSH1 0x6 PUSH1 0x0 DUP3 PUSH1 0x0 ADD SLOAD DUP2 MSTORE PUSH1 0x20 ADD SWAP1 DUP2 MSTORE PUSH1 0x20 ADD PUSH1 0x0 KECCAK256 PUSH1 0x1 ADD SLOAD TIMESTAMP PUSH2 0x36C0 SWAP2 SWAP1 PUSH2 0x4EAE JUMP JUMPDEST PUSH4 0xFFFFFFFF AND DUP2 PUSH1 0x1 ADD DUP2 SWAP1 SSTORE POP POP JUMP JUMPDEST PUSH1 0x64 PUSH2 0x36EB TIMESTAMP DUP4 PUSH1 0x1 ADD SLOAD PUSH2 0x36E6 SWAP2 SWAP1 PUSH2 0x4F8F JUMP JUMPDEST PUSH2 0x3DC8 JUMP JUMPDEST TIMESTAMP PUSH2 0x36F6 SWAP2 SWAP1 PUSH2 0x4EAE JUMP JUMPDEST PUSH2 0x3700 SWAP2 SWAP1 PUSH2 0x4EAE JUMP JUMPDEST PUSH4 0xFFFFFFFF AND DUP2 PUSH1 0x3 ADD DUP2 SWAP1 SSTORE POP POP JUMP JUMPDEST PUSH1 0x64 PUSH2 0x372B TIMESTAMP DUP4 PUSH1 0x1 ADD SLOAD PUSH2 0x3726 SWAP2 SWAP1 PUSH2 0x4F8F JUMP JUMPDEST PUSH2 0x3DC8 JUMP JUMPDEST TIMESTAMP PUSH2 0x3736 SWAP2 SWAP1 PUSH2 0x4EAE JUMP JUMPDEST PUSH2 0x3740 SWAP2 SWAP1 PUSH2 0x4EAE JUMP JUMPDEST PUSH4 0xFFFFFFFF AND DUP2 PUSH1 0x4 ADD DUP2 SWAP1 SSTORE POP POP JUMP JUMPDEST PUSH1 0x0 PUSH2 0x375D DUP4 DUP4 PUSH2 0x30C5 JUMP JUMPDEST ISZERO PUSH2 0x376B JUMPI PUSH1 0x1 SWAP1 POP PUSH2 0x3770 JUMP JUMPDEST PUSH1 0x0 SWAP1 POP JUMPDEST SWAP3 SWAP2 POP POP JUMP JUMPDEST PUSH1 0x0 TIMESTAMP DUP3 PUSH1 0x1 ADD SLOAD GT ISZERO SWAP1 POP SWAP2 SWAP1 POP JUMP JUMPDEST PUSH1 0x0 TIMESTAMP DUP3 PUSH1 0x4 ADD SLOAD GT ISZERO SWAP1 POP SWAP2 SWAP1 POP JUMP JUMPDEST PUSH1 0x0 JUMPDEST DUP2 DUP2 LT ISZERO PUSH2 0x392D JUMPI PUSH1 0x0 PUSH1 0x1 DUP1 SLOAD SWAP1 POP SWAP1 POP PUSH1 0x1 PUSH1 0x40 MLOAD DUP1 PUSH1 0xE0 ADD PUSH1 0x40 MSTORE DUP1 PUSH1 0x0 DUP2 MSTORE PUSH1 0x20 ADD PUSH1 0x0 DUP2 MSTORE PUSH1 0x20 ADD PUSH1 0x0 DUP2 MSTORE PUSH1 0x20 ADD PUSH1 0x0 DUP2 MSTORE PUSH1 0x20 ADD PUSH1 0x0 DUP2 MSTORE PUSH1 0x20 ADD PUSH1 0x0 ISZERO ISZERO DUP2 MSTORE PUSH1 0x20 ADD PUSH1 0x1 DUP2 MSTORE POP SWAP1 DUP1 PUSH1 0x1 DUP2 SLOAD ADD DUP1 DUP3 SSTORE DUP1 SWAP2 POP POP PUSH1 0x1 SWAP1 SUB SWAP1 PUSH1 0x0 MSTORE PUSH1 0x20 PUSH1 0x0 KECCAK256 SWAP1 PUSH1 0x7 MUL ADD PUSH1 0x0 SWAP1 SWAP2 SWAP1 SWAP2 SWAP1 SWAP2 POP PUSH1 0x0 DUP3 ADD MLOAD DUP2 PUSH1 0x0 ADD SSTORE PUSH1 0x20 DUP3 ADD MLOAD DUP2 PUSH1 0x1 ADD SSTORE PUSH1 0x40 DUP3 ADD MLOAD DUP2 PUSH1 0x2 ADD SSTORE PUSH1 0x60 DUP3 ADD MLOAD DUP2 PUSH1 0x3 ADD SSTORE PUSH1 0x80 DUP3 ADD MLOAD DUP2 PUSH1 0x4 ADD SSTORE PUSH1 0xA0 DUP3 ADD MLOAD DUP2 PUSH1 0x5 ADD PUSH1 0x0 PUSH2 0x100 EXP DUP2 SLOAD DUP2 PUSH1 0xFF MUL NOT AND SWAP1 DUP4 ISZERO ISZERO MUL OR SWAP1 SSTORE POP PUSH1 0xC0 DUP3 ADD MLOAD DUP2 PUSH1 0x6 ADD SSTORE POP POP CALLER PUSH1 0x2 PUSH1 0x0 DUP4 DUP2 MSTORE PUSH1 0x20 ADD SWAP1 DUP2 MSTORE PUSH1 0x20 ADD PUSH1 0x0 KECCAK256 PUSH1 0x0 PUSH2 0x100 EXP DUP2 SLOAD DUP2 PUSH20 0xFFFFFFFFFFFFFFFFFFFFFFFFFFFFFFFFFFFFFFFF MUL NOT AND SWAP1 DUP4 PUSH20 0xFFFFFFFFFFFFFFFFFFFFFFFFFFFFFFFFFFFFFFFF AND MUL OR SWAP1 SSTORE POP PUSH1 0x4 PUSH1 0x0 CALLER PUSH20 0xFFFFFFFFFFFFFFFFFFFFFFFFFFFFFFFFFFFFFFFF AND PUSH20 0xFFFFFFFFFFFFFFFFFFFFFFFFFFFFFFFFFFFFFFFF AND DUP2 MSTORE PUSH1 0x20 ADD SWAP1 DUP2 MSTORE PUSH1 0x20 ADD PUSH1 0x0 KECCAK256 PUSH1 0x0 DUP2 SLOAD DUP1 SWAP3 SWAP2 SWAP1 PUSH2 0x3914 SWAP1 PUSH2 0x50E7 JUMP JUMPDEST SWAP2 SWAP1 POP SSTORE POP POP DUP1 DUP1 PUSH2 0x3925 SWAP1 PUSH2 0x50E7 JUMP JUMPDEST SWAP2 POP POP PUSH2 0x379B JUMP JUMPDEST POP CALLER PUSH20 0xFFFFFFFFFFFFFFFFFFFFFFFFFFFFFFFFFFFFFFFF AND PUSH32 0xFA75433B62FA9AA3569A596ACA6569A4687697E876289D01131561272E0E9048 PUSH1 0x40 MLOAD PUSH1 0x40 MLOAD DUP1 SWAP2 SUB SWAP1 LOG2 POP JUMP JUMPDEST PUSH1 0x0 PUSH2 0x397F DUP3 PUSH2 0x3051 JUMP JUMPDEST PUSH2 0x39BE JUMPI PUSH1 0x40 MLOAD PUSH32 0x8C379A000000000000000000000000000000000000000000000000000000000 DUP2 MSTORE PUSH1 0x4 ADD PUSH2 0x39B5 SWAP1 PUSH2 0x4AEF JUMP JUMPDEST PUSH1 0x40 MLOAD DUP1 SWAP2 SUB SWAP1 REVERT JUMPDEST PUSH1 0x0 PUSH2 0x39C9 DUP4 PUSH2 0x3E08 JUMP JUMPDEST SWAP1 POP DUP1 PUSH20 0xFFFFFFFFFFFFFFFFFFFFFFFFFFFFFFFFFFFFFFFF AND DUP5 PUSH20 0xFFFFFFFFFFFFFFFFFFFFFFFFFFFFFFFFFFFFFFFF AND EQ DUP1 PUSH2 0x3A38 JUMPI POP DUP4 PUSH20 0xFFFFFFFFFFFFFFFFFFFFFFFFFFFFFFFFFFFFFFFF AND PUSH2 0x3A20 DUP5 PUSH2 0xC04 JUMP JUMPDEST PUSH20 0xFFFFFFFFFFFFFFFFFFFFFFFFFFFFFFFFFFFFFFFF AND EQ JUMPDEST DUP1 PUSH2 0x3A49 JUMPI POP PUSH2 0x3A48 DUP2 DUP6 PUSH2 0x2C8E JUMP JUMPDEST JUMPDEST SWAP2 POP POP SWAP3 SWAP2 POP POP JUMP JUMPDEST PUSH2 0x3A5D DUP5 DUP5 DUP5 PUSH2 0x3264 JUMP JUMPDEST PUSH2 0x3A69 DUP5 DUP5 DUP5 DUP5 PUSH2 0x3EBA JUMP JUMPDEST PUSH2 0x3AA8 JUMPI PUSH1 0x40 MLOAD PUSH32 0x8C379A000000000000000000000000000000000000000000000000000000000 DUP2 MSTORE PUSH1 0x4 ADD PUSH2 0x3A9F SWAP1 PUSH2 0x4A8F JUMP JUMPDEST PUSH1 0x40 MLOAD DUP1 SWAP2 SUB SWAP1 REVERT JUMPDEST POP POP POP POP JUMP JUMPDEST PUSH1 0x0 TIMESTAMP DUP3 PUSH1 0x3 ADD SLOAD GT ISZERO SWAP1 POP SWAP2 SWAP1 POP JUMP JUMPDEST PUSH1 0x60 PUSH1 0x40 MLOAD DUP1 PUSH1 0x20 ADD PUSH1 0x40 MSTORE DUP1 PUSH1 0x0 DUP2 MSTORE POP SWAP1 POP SWAP1 JUMP JUMPDEST PUSH1 0x60 PUSH1 0x0 DUP3 EQ ISZERO PUSH2 0x3B1E JUMPI PUSH1 0x40 MLOAD DUP1 PUSH1 0x40 ADD PUSH1 0x40 MSTORE DUP1 PUSH1 0x1 DUP2 MSTORE PUSH1 0x20 ADD PUSH32 0x3000000000000000000000000000000000000000000000000000000000000000 DUP2 MSTORE POP SWAP1 POP PUSH2 0x3C7E JUMP JUMPDEST PUSH1 0x0 DUP3 SWAP1 POP PUSH1 0x0 JUMPDEST PUSH1 0x0 DUP3 EQ PUSH2 0x3B50 JUMPI DUP1 DUP1 PUSH2 0x3B39 SWAP1 PUSH2 0x50E7 JUMP JUMPDEST SWAP2 POP POP PUSH1 0xA DUP3 PUSH2 0x3B49 SWAP2 SWAP1 PUSH2 0x4F04 JUMP JUMPDEST SWAP2 POP PUSH2 0x3B26 JUMP JUMPDEST PUSH1 0x0 DUP2 PUSH8 0xFFFFFFFFFFFFFFFF DUP2 GT ISZERO PUSH2 0x3B92 JUMPI PUSH32 0x4E487B7100000000000000000000000000000000000000000000000000000000 PUSH1 0x0 MSTORE PUSH1 0x41 PUSH1 0x4 MSTORE PUSH1 0x24 PUSH1 0x0 REVERT JUMPDEST PUSH1 0x40 MLOAD SWAP1 DUP1 DUP3 MSTORE DUP1 PUSH1 0x1F ADD PUSH1 0x1F NOT AND PUSH1 0x20 ADD DUP3 ADD PUSH1 0x40 MSTORE DUP1 ISZERO PUSH2 0x3BC4 JUMPI DUP2 PUSH1 0x20 ADD PUSH1 0x1 DUP3 MUL DUP1 CALLDATASIZE DUP4 CALLDATACOPY DUP1 DUP3 ADD SWAP2 POP POP SWAP1 POP JUMPDEST POP SWAP1 POP JUMPDEST PUSH1 0x0 DUP6 EQ PUSH2 0x3C77 JUMPI PUSH1 0x1 DUP3 PUSH2 0x3BDD SWAP2 SWAP1 PUSH2 0x4F8F JUMP JUMPDEST SWAP2 POP PUSH1 0xA DUP6 PUSH2 0x3BEC SWAP2 SWAP1 PUSH2 0x515E JUMP JUMPDEST PUSH1 0x30 PUSH2 0x3BF8 SWAP2 SWAP1 PUSH2 0x4EAE JUMP JUMPDEST PUSH1 0xF8 SHL DUP2 DUP4 DUP2 MLOAD DUP2 LT PUSH2 0x3C34 JUMPI PUSH32 0x4E487B7100000000000000000000000000000000000000000000000000000000 PUSH1 0x0 MSTORE PUSH1 0x32 PUSH1 0x4 MSTORE PUSH1 0x24 PUSH1 0x0 REVERT JUMPDEST PUSH1 0x20 ADD ADD SWAP1 PUSH31 0xFFFFFFFFFFFFFFFFFFFFFFFFFFFFFFFFFFFFFFFFFFFFFFFFFFFFFFFFFFFFFF NOT AND SWAP1 DUP2 PUSH1 0x0 BYTE SWAP1 MSTORE8 POP PUSH1 0xA DUP6 PUSH2 0x3C70 SWAP2 SWAP1 PUSH2 0x4F04 JUMP JUMPDEST SWAP5 POP PUSH2 0x3BC8 JUMP JUMPDEST DUP1 SWAP4 POP POP POP POP JUMPDEST SWAP2 SWAP1 POP JUMP JUMPDEST PUSH1 0x0 DUP1 PUSH1 0x0 JUMPDEST PUSH1 0x0 DUP1 DUP7 PUSH20 0xFFFFFFFFFFFFFFFFFFFFFFFFFFFFFFFFFFFFFFFF AND PUSH20 0xFFFFFFFFFFFFFFFFFFFFFFFFFFFFFFFFFFFFFFFF AND DUP2 MSTORE PUSH1 0x20 ADD SWAP1 DUP2 MSTORE PUSH1 0x20 ADD PUSH1 0x0 KECCAK256 DUP1 SLOAD SWAP1 POP DUP2 LT ISZERO PUSH2 0x3DBD JUMPI PUSH1 0x0 DUP1 DUP7 PUSH20 0xFFFFFFFFFFFFFFFFFFFFFFFFFFFFFFFFFFFFFFFF AND PUSH20 0xFFFFFFFFFFFFFFFFFFFFFFFFFFFFFFFFFFFFFFFF AND DUP2 MSTORE PUSH1 0x20 ADD SWAP1 DUP2 MSTORE PUSH1 0x20 ADD PUSH1 0x0 KECCAK256 DUP2 DUP2 SLOAD DUP2 LT PUSH2 0x3D48 JUMPI PUSH32 0x4E487B7100000000000000000000000000000000000000000000000000000000 PUSH1 0x0 MSTORE PUSH1 0x32 PUSH1 0x4 MSTORE PUSH1 0x24 PUSH1 0x0 REVERT JUMPDEST SWAP1 PUSH1 0x0 MSTORE PUSH1 0x20 PUSH1 0x0 KECCAK256 ADD PUSH1 0x0 SWAP1 SLOAD SWAP1 PUSH2 0x100 EXP SWAP1 DIV PUSH20 0xFFFFFFFFFFFFFFFFFFFFFFFFFFFFFFFFFFFFFFFF AND PUSH20 0xFFFFFFFFFFFFFFFFFFFFFFFFFFFFFFFFFFFFFFFF AND DUP5 PUSH20 0xFFFFFFFFFFFFFFFFFFFFFFFFFFFFFFFFFFFFFFFF AND EQ ISZERO PUSH2 0x3DAA JUMPI DUP1 SWAP2 POP JUMPDEST DUP1 DUP1 PUSH2 0x3DB5 SWAP1 PUSH2 0x50E7 JUMP JUMPDEST SWAP2 POP POP PUSH2 0x3C89 JUMP JUMPDEST POP DUP1 SWAP2 POP POP SWAP3 SWAP2 POP POP JUMP JUMPDEST PUSH1 0x0 DUP2 CALLER TIMESTAMP PUSH1 0x40 MLOAD PUSH1 0x20 ADD PUSH2 0x3DDE SWAP3 SWAP2 SWAP1 PUSH2 0x4957 JUMP JUMPDEST PUSH1 0x40 MLOAD PUSH1 0x20 DUP2 DUP4 SUB SUB DUP2 MSTORE SWAP1 PUSH1 0x40 MSTORE DUP1 MLOAD SWAP1 PUSH1 0x20 ADD KECCAK256 PUSH1 0x0 SHR PUSH2 0x3E01 SWAP2 SWAP1 PUSH2 0x515E JUMP JUMPDEST SWAP1 POP SWAP2 SWAP1 POP JUMP JUMPDEST PUSH1 0x0 DUP1 PUSH1 0xA PUSH1 0x0 DUP5 DUP2 MSTORE PUSH1 0x20 ADD SWAP1 DUP2 MSTORE PUSH1 0x20 ADD PUSH1 0x0 KECCAK256 PUSH1 0x0 SWAP1 SLOAD SWAP1 PUSH2 0x100 EXP SWAP1 DIV PUSH20 0xFFFFFFFFFFFFFFFFFFFFFFFFFFFFFFFFFFFFFFFF AND SWAP1 POP PUSH1 0x0 PUSH20 0xFFFFFFFFFFFFFFFFFFFFFFFFFFFFFFFFFFFFFFFF AND DUP2 PUSH20 0xFFFFFFFFFFFFFFFFFFFFFFFFFFFFFFFFFFFFFFFF AND EQ ISZERO PUSH2 0x3EB1 JUMPI PUSH1 0x40 MLOAD PUSH32 0x8C379A000000000000000000000000000000000000000000000000000000000 DUP2 MSTORE PUSH1 0x4 ADD PUSH2 0x3EA8 SWAP1 PUSH2 0x4B0F JUMP JUMPDEST PUSH1 0x40 MLOAD DUP1 SWAP2 SUB SWAP1 REVERT JUMPDEST DUP1 SWAP2 POP POP SWAP2 SWAP1 POP JUMP JUMPDEST PUSH1 0x0 PUSH2 0x3EDB DUP5 PUSH20 0xFFFFFFFFFFFFFFFFFFFFFFFFFFFFFFFFFFFFFFFF AND PUSH2 0x4051 JUMP JUMPDEST ISZERO PUSH2 0x4044 JUMPI DUP4 PUSH20 0xFFFFFFFFFFFFFFFFFFFFFFFFFFFFFFFFFFFFFFFF AND PUSH4 0x150B7A02 PUSH2 0x3F04 PUSH2 0x30BD JUMP JUMPDEST DUP8 DUP7 DUP7 PUSH1 0x40 MLOAD DUP6 PUSH4 0xFFFFFFFF AND PUSH1 0xE0 SHL DUP2 MSTORE PUSH1 0x4 ADD PUSH2 0x3F26 SWAP5 SWAP4 SWAP3 SWAP2 SWAP1 PUSH2 0x49C2 JUMP JUMPDEST PUSH1 0x20 PUSH1 0x40 MLOAD DUP1 DUP4 SUB DUP2 PUSH1 0x0 DUP8 DUP1 EXTCODESIZE ISZERO DUP1 ISZERO PUSH2 0x3F40 JUMPI PUSH1 0x0 DUP1 REVERT JUMPDEST POP GAS CALL SWAP3 POP POP POP DUP1 ISZERO PUSH2 0x3F71 JUMPI POP PUSH1 0x40 MLOAD RETURNDATASIZE PUSH1 0x1F NOT PUSH1 0x1F DUP3 ADD AND DUP3 ADD DUP1 PUSH1 0x40 MSTORE POP DUP2 ADD SWAP1 PUSH2 0x3F6E SWAP2 SWAP1 PUSH2 0x4305 JUMP JUMPDEST PUSH1 0x1 JUMPDEST PUSH2 0x3FF4 JUMPI RETURNDATASIZE DUP1 PUSH1 0x0 DUP2 EQ PUSH2 0x3FA1 JUMPI PUSH1 0x40 MLOAD SWAP2 POP PUSH1 0x1F NOT PUSH1 0x3F RETURNDATASIZE ADD AND DUP3 ADD PUSH1 0x40 MSTORE RETURNDATASIZE DUP3 MSTORE RETURNDATASIZE PUSH1 0x0 PUSH1 0x20 DUP5 ADD RETURNDATACOPY PUSH2 0x3FA6 JUMP JUMPDEST PUSH1 0x60 SWAP2 POP JUMPDEST POP PUSH1 0x0 DUP2 MLOAD EQ ISZERO PUSH2 0x3FEC JUMPI PUSH1 0x40 MLOAD PUSH32 0x8C379A000000000000000000000000000000000000000000000000000000000 DUP2 MSTORE PUSH1 0x4 ADD PUSH2 0x3FE3 SWAP1 PUSH2 0x4A8F JUMP JUMPDEST PUSH1 0x40 MLOAD DUP1 SWAP2 SUB SWAP1 REVERT JUMPDEST DUP1 MLOAD DUP2 PUSH1 0x20 ADD REVERT JUMPDEST PUSH4 0x150B7A02 PUSH1 0xE0 SHL PUSH28 0xFFFFFFFFFFFFFFFFFFFFFFFFFFFFFFFFFFFFFFFFFFFFFFFFFFFFFFFF NOT AND DUP2 PUSH28 0xFFFFFFFFFFFFFFFFFFFFFFFFFFFFFFFFFFFFFFFFFFFFFFFFFFFFFFFF NOT AND EQ SWAP2 POP POP PUSH2 0x4049 JUMP JUMPDEST PUSH1 0x1 SWAP1 POP JUMPDEST SWAP5 SWAP4 POP POP POP POP JUMP JUMPDEST PUSH1 0x0 DUP1 DUP3 EXTCODESIZE SWAP1 POP PUSH1 0x0 DUP2 GT SWAP2 POP POP SWAP2 SWAP1 POP JUMP JUMPDEST PUSH1 0x0 PUSH2 0x4077 PUSH2 0x4072 DUP5 PUSH2 0x4DC9 JUMP JUMPDEST PUSH2 0x4D98 JUMP JUMPDEST SWAP1 POP DUP3 DUP2 MSTORE PUSH1 0x20 DUP2 ADD DUP5 DUP5 DUP5 ADD GT ISZERO PUSH2 0x408F JUMPI PUSH1 0x0 DUP1 REVERT JUMPDEST PUSH2 0x409A DUP5 DUP3 DUP6 PUSH2 0x5049 JUMP JUMPDEST POP SWAP4 SWAP3 POP POP POP JUMP JUMPDEST PUSH1 0x0 DUP2 CALLDATALOAD SWAP1 POP PUSH2 0x40B1 DUP2 PUSH2 0x5269 JUMP JUMPDEST SWAP3 SWAP2 POP POP JUMP JUMPDEST PUSH1 0x0 DUP2 CALLDATALOAD SWAP1 POP PUSH2 0x40C6 DUP2 PUSH2 0x5280 JUMP JUMPDEST SWAP3 SWAP2 POP POP JUMP JUMPDEST PUSH1 0x0 DUP2 CALLDATALOAD SWAP1 POP PUSH2 0x40DB DUP2 PUSH2 0x5297 JUMP JUMPDEST SWAP3 SWAP2 POP POP JUMP JUMPDEST PUSH1 0x0 DUP2 MLOAD SWAP1 POP PUSH2 0x40F0 DUP2 PUSH2 0x5297 JUMP JUMPDEST SWAP3 SWAP2 POP POP JUMP JUMPDEST PUSH1 0x0 DUP3 PUSH1 0x1F DUP4 ADD SLT PUSH2 0x4107 JUMPI PUSH1 0x0 DUP1 REVERT JUMPDEST DUP2 CALLDATALOAD PUSH2 0x4117 DUP5 DUP3 PUSH1 0x20 DUP7 ADD PUSH2 0x4064 JUMP JUMPDEST SWAP2 POP POP SWAP3 SWAP2 POP POP JUMP JUMPDEST PUSH1 0x0 DUP2 CALLDATALOAD SWAP1 POP PUSH2 0x412F DUP2 PUSH2 0x52AE JUMP JUMPDEST SWAP3 SWAP2 POP POP JUMP JUMPDEST PUSH1 0x0 PUSH1 0x20 DUP3 DUP5 SUB SLT ISZERO PUSH2 0x4147 JUMPI PUSH1 0x0 DUP1 REVERT JUMPDEST PUSH1 0x0 PUSH2 0x4155 DUP5 DUP3 DUP6 ADD PUSH2 0x40A2 JUMP JUMPDEST SWAP2 POP POP SWAP3 SWAP2 POP POP JUMP JUMPDEST PUSH1 0x0 DUP1 PUSH1 0x40 DUP4 DUP6 SUB SLT ISZERO PUSH2 0x4171 JUMPI PUSH1 0x0 DUP1 REVERT JUMPDEST PUSH1 0x0 PUSH2 0x417F DUP6 DUP3 DUP7 ADD PUSH2 0x40A2 JUMP JUMPDEST SWAP3 POP POP PUSH1 0x20 PUSH2 0x4190 DUP6 DUP3 DUP7 ADD PUSH2 0x40A2 JUMP JUMPDEST SWAP2 POP POP SWAP3 POP SWAP3 SWAP1 POP JUMP JUMPDEST PUSH1 0x0 DUP1 PUSH1 0x0 PUSH1 0x60 DUP5 DUP7 SUB SLT ISZERO PUSH2 0x41AF JUMPI PUSH1 0x0 DUP1 REVERT JUMPDEST PUSH1 0x0 PUSH2 0x41BD DUP7 DUP3 DUP8 ADD PUSH2 0x40A2 JUMP JUMPDEST SWAP4 POP POP PUSH1 0x20 PUSH2 0x41CE DUP7 DUP3 DUP8 ADD PUSH2 0x40A2 JUMP JUMPDEST SWAP3 POP POP PUSH1 0x40 PUSH2 0x41DF DUP7 DUP3 DUP8 ADD PUSH2 0x4120 JUMP JUMPDEST SWAP2 POP POP SWAP3 POP SWAP3 POP SWAP3 JUMP JUMPDEST PUSH1 0x0 DUP1 PUSH1 0x0 DUP1 PUSH1 0x80 DUP6 DUP8 SUB SLT ISZERO PUSH2 0x41FF JUMPI PUSH1 0x0 DUP1 REVERT JUMPDEST PUSH1 0x0 PUSH2 0x420D DUP8 DUP3 DUP9 ADD PUSH2 0x40A2 JUMP JUMPDEST SWAP5 POP POP PUSH1 0x20 PUSH2 0x421E DUP8 DUP3 DUP9 ADD PUSH2 0x40A2 JUMP JUMPDEST SWAP4 POP POP PUSH1 0x40 PUSH2 0x422F DUP8 DUP3 DUP9 ADD PUSH2 0x4120 JUMP JUMPDEST SWAP3 POP POP PUSH1 0x60 DUP6 ADD CALLDATALOAD PUSH8 0xFFFFFFFFFFFFFFFF DUP2 GT ISZERO PUSH2 0x424C JUMPI PUSH1 0x0 DUP1 REVERT JUMPDEST PUSH2 0x4258 DUP8 DUP3 DUP9 ADD PUSH2 0x40F6 JUMP JUMPDEST SWAP2 POP POP SWAP3 SWAP6 SWAP2 SWAP5 POP SWAP3 POP JUMP JUMPDEST PUSH1 0x0 DUP1 PUSH1 0x40 DUP4 DUP6 SUB SLT ISZERO PUSH2 0x4277 JUMPI PUSH1 0x0 DUP1 REVERT JUMPDEST PUSH1 0x0 PUSH2 0x4285 DUP6 DUP3 DUP7 ADD PUSH2 0x40A2 JUMP JUMPDEST SWAP3 POP POP PUSH1 0x20 PUSH2 0x4296 DUP6 DUP3 DUP7 ADD PUSH2 0x40B7 JUMP JUMPDEST SWAP2 POP POP SWAP3 POP SWAP3 SWAP1 POP JUMP JUMPDEST PUSH1 0x0 DUP1 PUSH1 0x40 DUP4 DUP6 SUB SLT ISZERO PUSH2 0x42B3 JUMPI PUSH1 0x0 DUP1 REVERT JUMPDEST PUSH1 0x0 PUSH2 0x42C1 DUP6 DUP3 DUP7 ADD PUSH2 0x40A2 JUMP JUMPDEST SWAP3 POP POP PUSH1 0x20 PUSH2 0x42D2 DUP6 DUP3 DUP7 ADD PUSH2 0x4120 JUMP JUMPDEST SWAP2 POP POP SWAP3 POP SWAP3 SWAP1 POP JUMP JUMPDEST PUSH1 0x0 PUSH1 0x20 DUP3 DUP5 SUB SLT ISZERO PUSH2 0x42EE JUMPI PUSH1 0x0 DUP1 REVERT JUMPDEST PUSH1 0x0 PUSH2 0x42FC DUP5 DUP3 DUP6 ADD PUSH2 0x40CC JUMP JUMPDEST SWAP2 POP POP SWAP3 SWAP2 POP POP JUMP JUMPDEST PUSH1 0x0 PUSH1 0x20 DUP3 DUP5 SUB SLT ISZERO PUSH2 0x4317 JUMPI PUSH1 0x0 DUP1 REVERT JUMPDEST PUSH1 0x0 PUSH2 0x4325 DUP5 DUP3 DUP6 ADD PUSH2 0x40E1 JUMP JUMPDEST SWAP2 POP POP SWAP3 SWAP2 POP POP JUMP JUMPDEST PUSH1 0x0 PUSH1 0x20 DUP3 DUP5 SUB SLT ISZERO PUSH2 0x4340 JUMPI PUSH1 0x0 DUP1 REVERT JUMPDEST PUSH1 0x0 PUSH2 0x434E DUP5 DUP3 DUP6 ADD PUSH2 0x4120 JUMP JUMPDEST SWAP2 POP POP SWAP3 SWAP2 POP POP JUMP JUMPDEST PUSH1 0x0 DUP1 PUSH1 0x40 DUP4 DUP6 SUB SLT ISZERO PUSH2 0x436A JUMPI PUSH1 0x0 DUP1 REVERT JUMPDEST PUSH1 0x0 PUSH2 0x4378 DUP6 DUP3 DUP7 ADD PUSH2 0x4120 JUMP JUMPDEST SWAP3 POP POP PUSH1 0x20 PUSH2 0x4389 DUP6 DUP3 DUP7 ADD PUSH2 0x4120 JUMP JUMPDEST SWAP2 POP POP SWAP3 POP SWAP3 SWAP1 POP JUMP JUMPDEST PUSH1 0x0 DUP1 PUSH1 0x0 DUP1 PUSH1 0x80 DUP6 DUP8 SUB SLT ISZERO PUSH2 0x43A9 JUMPI PUSH1 0x0 DUP1 REVERT JUMPDEST PUSH1 0x0 PUSH2 0x43B7 DUP8 DUP3 DUP9 ADD PUSH2 0x4120 JUMP JUMPDEST SWAP5 POP POP PUSH1 0x20 PUSH2 0x43C8 DUP8 DUP3 DUP9 ADD PUSH2 0x4120 JUMP JUMPDEST SWAP4 POP POP PUSH1 0x40 PUSH2 0x43D9 DUP8 DUP3 DUP9 ADD PUSH2 0x4120 JUMP JUMPDEST SWAP3 POP POP PUSH1 0x60 PUSH2 0x43EA DUP8 DUP3 DUP9 ADD PUSH2 0x4120 JUMP JUMPDEST SWAP2 POP POP SWAP3 SWAP6 SWAP2 SWAP5 POP SWAP3 POP JUMP JUMPDEST PUSH1 0x0 PUSH2 0x4402 DUP4 DUP4 PUSH2 0x4426 JUMP JUMPDEST PUSH1 0x20 DUP4 ADD SWAP1 POP SWAP3 SWAP2 POP POP JUMP JUMPDEST PUSH1 0x0 PUSH2 0x441A DUP4 DUP4 PUSH2 0x4922 JUMP JUMPDEST PUSH1 0x20 DUP4 ADD SWAP1 POP SWAP3 SWAP2 POP POP JUMP JUMPDEST PUSH2 0x442F DUP2 PUSH2 0x4FC3 JUMP JUMPDEST DUP3 MSTORE POP POP JUMP JUMPDEST PUSH2 0x443E DUP2 PUSH2 0x4FC3 JUMP JUMPDEST DUP3 MSTORE POP POP JUMP JUMPDEST PUSH2 0x4455 PUSH2 0x4450 DUP3 PUSH2 0x4FC3 JUMP JUMPDEST PUSH2 0x5130 JUMP JUMPDEST DUP3 MSTORE POP POP JUMP JUMPDEST PUSH1 0x0 PUSH2 0x4466 DUP3 PUSH2 0x4E19 JUMP JUMPDEST PUSH2 0x4470 DUP2 DUP6 PUSH2 0x4E5F JUMP JUMPDEST SWAP4 POP PUSH2 0x447B DUP4 PUSH2 0x4DF9 JUMP JUMPDEST DUP1 PUSH1 0x0 JUMPDEST DUP4 DUP2 LT ISZERO PUSH2 0x44AC JUMPI DUP2 MLOAD PUSH2 0x4493 DUP9 DUP3 PUSH2 0x43F6 JUMP JUMPDEST SWAP8 POP PUSH2 0x449E DUP4 PUSH2 0x4E45 JUMP JUMPDEST SWAP3 POP POP PUSH1 0x1 DUP2 ADD SWAP1 POP PUSH2 0x447F JUMP JUMPDEST POP DUP6 SWAP4 POP POP POP POP SWAP3 SWAP2 POP POP JUMP JUMPDEST PUSH1 0x0 PUSH2 0x44C4 DUP3 PUSH2 0x4E24 JUMP JUMPDEST PUSH2 0x44CE DUP2 DUP6 PUSH2 0x4E70 JUMP JUMPDEST SWAP4 POP PUSH2 0x44D9 DUP4 PUSH2 0x4E09 JUMP JUMPDEST DUP1 PUSH1 0x0 JUMPDEST DUP4 DUP2 LT ISZERO PUSH2 0x450A JUMPI DUP2 MLOAD PUSH2 0x44F1 DUP9 DUP3 PUSH2 0x440E JUMP JUMPDEST SWAP8 POP PUSH2 0x44FC DUP4 PUSH2 0x4E52 JUMP JUMPDEST SWAP3 POP POP PUSH1 0x1 DUP2 ADD SWAP1 POP PUSH2 0x44DD JUMP JUMPDEST POP DUP6 SWAP4 POP POP POP POP SWAP3 SWAP2 POP POP JUMP JUMPDEST PUSH2 0x4520 DUP2 PUSH2 0x4FD5 JUMP JUMPDEST DUP3 MSTORE POP POP JUMP JUMPDEST PUSH1 0x0 PUSH2 0x4531 DUP3 PUSH2 0x4E2F JUMP JUMPDEST PUSH2 0x453B DUP2 DUP6 PUSH2 0x4E81 JUMP JUMPDEST SWAP4 POP PUSH2 0x454B DUP2 DUP6 PUSH1 0x20 DUP7 ADD PUSH2 0x5058 JUMP JUMPDEST PUSH2 0x4554 DUP2 PUSH2 0x524B JUMP JUMPDEST DUP5 ADD SWAP2 POP POP SWAP3 SWAP2 POP POP JUMP JUMPDEST PUSH2 0x4568 DUP2 PUSH2 0x5037 JUMP JUMPDEST DUP3 MSTORE POP POP JUMP JUMPDEST PUSH1 0x0 PUSH2 0x4579 DUP3 PUSH2 0x4E3A JUMP JUMPDEST PUSH2 0x4583 DUP2 DUP6 PUSH2 0x4E92 JUMP JUMPDEST SWAP4 POP PUSH2 0x4593 DUP2 DUP6 PUSH1 0x20 DUP7 ADD PUSH2 0x5058 JUMP JUMPDEST PUSH2 0x459C DUP2 PUSH2 0x524B JUMP JUMPDEST DUP5 ADD SWAP2 POP POP SWAP3 SWAP2 POP POP JUMP JUMPDEST PUSH1 0x0 PUSH2 0x45B2 DUP3 PUSH2 0x4E3A JUMP JUMPDEST PUSH2 0x45BC DUP2 DUP6 PUSH2 0x4EA3 JUMP JUMPDEST SWAP4 POP PUSH2 0x45CC DUP2 DUP6 PUSH1 0x20 DUP7 ADD PUSH2 0x5058 JUMP JUMPDEST DUP1 DUP5 ADD SWAP2 POP POP SWAP3 SWAP2 POP POP JUMP JUMPDEST PUSH1 0x0 PUSH2 0x45E5 PUSH1 0x32 DUP4 PUSH2 0x4E92 JUMP JUMPDEST SWAP2 POP PUSH32 0x4552433732313A207472616E7366657220746F206E6F6E204552433732315265 PUSH1 0x0 DUP4 ADD MSTORE PUSH32 0x63656976657220696D706C656D656E7465720000000000000000000000000000 PUSH1 0x20 DUP4 ADD MSTORE PUSH1 0x40 DUP3 ADD SWAP1 POP SWAP2 SWAP1 POP JUMP JUMPDEST PUSH1 0x0 PUSH2 0x464B PUSH1 0x26 DUP4 PUSH2 0x4E92 JUMP JUMPDEST SWAP2 POP PUSH32 0x4F776E61626C653A206E6577206F776E657220697320746865207A65726F2061 PUSH1 0x0 DUP4 ADD MSTORE PUSH32 0x6464726573730000000000000000000000000000000000000000000000000000 PUSH1 0x20 DUP4 ADD MSTORE PUSH1 0x40 DUP3 ADD SWAP1 POP SWAP2 SWAP1 POP JUMP JUMPDEST PUSH1 0x0 PUSH2 0x46B1 PUSH1 0x19 DUP4 PUSH2 0x4E92 JUMP JUMPDEST SWAP2 POP PUSH32 0x4552433732313A20617070726F766520746F2063616C6C657200000000000000 PUSH1 0x0 DUP4 ADD MSTORE PUSH1 0x20 DUP3 ADD SWAP1 POP SWAP2 SWAP1 POP JUMP JUMPDEST PUSH1 0x0 PUSH2 0x46F1 PUSH1 0x2C DUP4 PUSH2 0x4E92 JUMP JUMPDEST SWAP2 POP PUSH32 0x4552433732313A206F70657261746F7220717565727920666F72206E6F6E6578 PUSH1 0x0 DUP4 ADD MSTORE PUSH32 0x697374656E7420746F6B656E0000000000000000000000000000000000000000 PUSH1 0x20 DUP4 ADD MSTORE PUSH1 0x40 DUP3 ADD SWAP1 POP SWAP2 SWAP1 POP JUMP JUMPDEST PUSH1 0x0 PUSH2 0x4757 PUSH1 0x29 DUP4 PUSH2 0x4E92 JUMP JUMPDEST SWAP2 POP PUSH32 0x4552433732313A206F776E657220717565727920666F72206E6F6E6578697374 PUSH1 0x0 DUP4 ADD MSTORE PUSH32 0x656E7420746F6B656E0000000000000000000000000000000000000000000000 PUSH1 0x20 DUP4 ADD MSTORE PUSH1 0x40 DUP3 ADD SWAP1 POP SWAP2 SWAP1 POP JUMP JUMPDEST PUSH1 0x0 PUSH2 0x47BD PUSH1 0x2C DUP4 PUSH2 0x4E92 JUMP JUMPDEST SWAP2 POP PUSH32 0x4552433732313A20617070726F76656420717565727920666F72206E6F6E6578 PUSH1 0x0 DUP4 ADD MSTORE PUSH32 0x697374656E7420746F6B656E0000000000000000000000000000000000000000 PUSH1 0x20 DUP4 ADD MSTORE PUSH1 0x40 DUP3 ADD SWAP1 POP SWAP2 SWAP1 POP JUMP JUMPDEST PUSH1 0x0 PUSH2 0x4823 PUSH1 0x20 DUP4 PUSH2 0x4E92 JUMP JUMPDEST SWAP2 POP PUSH32 0x4F776E61626C653A2063616C6C6572206973206E6F7420746865206F776E6572 PUSH1 0x0 DUP4 ADD MSTORE PUSH1 0x20 DUP3 ADD SWAP1 POP SWAP2 SWAP1 POP JUMP JUMPDEST PUSH1 0x0 PUSH2 0x4863 PUSH1 0x2F DUP4 PUSH2 0x4E92 JUMP JUMPDEST SWAP2 POP PUSH32 0x4552433732314D657461646174613A2055524920717565727920666F72206E6F PUSH1 0x0 DUP4 ADD MSTORE PUSH32 0x6E6578697374656E7420746F6B656E0000000000000000000000000000000000 PUSH1 0x20 DUP4 ADD MSTORE PUSH1 0x40 DUP3 ADD SWAP1 POP SWAP2 SWAP1 POP JUMP JUMPDEST PUSH1 0x0 PUSH2 0x48C9 PUSH1 0x31 DUP4 PUSH2 0x4E92 JUMP JUMPDEST SWAP2 POP PUSH32 0x4552433732313A207472616E736665722063616C6C6572206973206E6F74206F PUSH1 0x0 DUP4 ADD MSTORE PUSH32 0x776E6572206E6F7220617070726F766564000000000000000000000000000000 PUSH1 0x20 DUP4 ADD MSTORE PUSH1 0x40 DUP3 ADD SWAP1 POP SWAP2 SWAP1 POP JUMP JUMPDEST PUSH2 0x492B DUP2 PUSH2 0x502D JUMP JUMPDEST DUP3 MSTORE POP POP JUMP JUMPDEST PUSH2 0x493A DUP2 PUSH2 0x502D JUMP JUMPDEST DUP3 MSTORE POP POP JUMP JUMPDEST PUSH2 0x4951 PUSH2 0x494C DUP3 PUSH2 0x502D JUMP JUMPDEST PUSH2 0x5154 JUMP JUMPDEST DUP3 MSTORE POP POP JUMP JUMPDEST PUSH1 0x0 PUSH2 0x4963 DUP3 DUP6 PUSH2 0x4444 JUMP JUMPDEST PUSH1 0x14 DUP3 ADD SWAP2 POP PUSH2 0x4973 DUP3 DUP5 PUSH2 0x4940 JUMP JUMPDEST PUSH1 0x20 DUP3 ADD SWAP2 POP DUP2 SWAP1 POP SWAP4 SWAP3 POP POP POP JUMP JUMPDEST PUSH1 0x0 PUSH2 0x498F DUP3 DUP6 PUSH2 0x45A7 JUMP JUMPDEST SWAP2 POP PUSH2 0x499B DUP3 DUP5 PUSH2 0x45A7 JUMP JUMPDEST SWAP2 POP DUP2 SWAP1 POP SWAP4 SWAP3 POP POP POP JUMP JUMPDEST PUSH1 0x0 PUSH1 0x20 DUP3 ADD SWAP1 POP PUSH2 0x49BC PUSH1 0x0 DUP4 ADD DUP5 PUSH2 0x4435 JUMP JUMPDEST SWAP3 SWAP2 POP POP JUMP JUMPDEST PUSH1 0x0 PUSH1 0x80 DUP3 ADD SWAP1 POP PUSH2 0x49D7 PUSH1 0x0 DUP4 ADD DUP8 PUSH2 0x4435 JUMP JUMPDEST PUSH2 0x49E4 PUSH1 0x20 DUP4 ADD DUP7 PUSH2 0x4435 JUMP JUMPDEST PUSH2 0x49F1 PUSH1 0x40 DUP4 ADD DUP6 PUSH2 0x4931 JUMP JUMPDEST DUP2 DUP2 SUB PUSH1 0x60 DUP4 ADD MSTORE PUSH2 0x4A03 DUP2 DUP5 PUSH2 0x4526 JUMP JUMPDEST SWAP1 POP SWAP6 SWAP5 POP POP POP POP POP JUMP JUMPDEST PUSH1 0x0 PUSH1 0x20 DUP3 ADD SWAP1 POP DUP2 DUP2 SUB PUSH1 0x0 DUP4 ADD MSTORE PUSH2 0x4A28 DUP2 DUP5 PUSH2 0x445B JUMP JUMPDEST SWAP1 POP SWAP3 SWAP2 POP POP JUMP JUMPDEST PUSH1 0x0 PUSH1 0x20 DUP3 ADD SWAP1 POP DUP2 DUP2 SUB PUSH1 0x0 DUP4 ADD MSTORE PUSH2 0x4A4A DUP2 DUP5 PUSH2 0x44B9 JUMP JUMPDEST SWAP1 POP SWAP3 SWAP2 POP POP JUMP JUMPDEST PUSH1 0x0 PUSH1 0x20 DUP3 ADD SWAP1 POP PUSH2 0x4A67 PUSH1 0x0 DUP4 ADD DUP5 PUSH2 0x4517 JUMP JUMPDEST SWAP3 SWAP2 POP POP JUMP JUMPDEST PUSH1 0x0 PUSH1 0x20 DUP3 ADD SWAP1 POP DUP2 DUP2 SUB PUSH1 0x0 DUP4 ADD MSTORE PUSH2 0x4A87 DUP2 DUP5 PUSH2 0x456E JUMP JUMPDEST SWAP1 POP SWAP3 SWAP2 POP POP JUMP JUMPDEST PUSH1 0x0 PUSH1 0x20 DUP3 ADD SWAP1 POP DUP2 DUP2 SUB PUSH1 0x0 DUP4 ADD MSTORE PUSH2 0x4AA8 DUP2 PUSH2 0x45D8 JUMP JUMPDEST SWAP1 POP SWAP2 SWAP1 POP JUMP JUMPDEST PUSH1 0x0 PUSH1 0x20 DUP3 ADD SWAP1 POP DUP2 DUP2 SUB PUSH1 0x0 DUP4 ADD MSTORE PUSH2 0x4AC8 DUP2 PUSH2 0x463E JUMP JUMPDEST SWAP1 POP SWAP2 SWAP1 POP JUMP JUMPDEST PUSH1 0x0 PUSH1 0x20 DUP3 ADD SWAP1 POP DUP2 DUP2 SUB PUSH1 0x0 DUP4 ADD MSTORE PUSH2 0x4AE8 DUP2 PUSH2 0x46A4 JUMP JUMPDEST SWAP1 POP SWAP2 SWAP1 POP JUMP JUMPDEST PUSH1 0x0 PUSH1 0x20 DUP3 ADD SWAP1 POP DUP2 DUP2 SUB PUSH1 0x0 DUP4 ADD MSTORE PUSH2 0x4B08 DUP2 PUSH2 0x46E4 JUMP JUMPDEST SWAP1 POP SWAP2 SWAP1 POP JUMP JUMPDEST PUSH1 0x0 PUSH1 0x20 DUP3 ADD SWAP1 POP DUP2 DUP2 SUB PUSH1 0x0 DUP4 ADD MSTORE PUSH2 0x4B28 DUP2 PUSH2 0x474A JUMP JUMPDEST SWAP1 POP SWAP2 SWAP1 POP JUMP JUMPDEST PUSH1 0x0 PUSH1 0x20 DUP3 ADD SWAP1 POP DUP2 DUP2 SUB PUSH1 0x0 DUP4 ADD MSTORE PUSH2 0x4B48 DUP2 PUSH2 0x47B0 JUMP JUMPDEST SWAP1 POP SWAP2 SWAP1 POP JUMP JUMPDEST PUSH1 0x0 PUSH1 0x20 DUP3 ADD SWAP1 POP DUP2 DUP2 SUB PUSH1 0x0 DUP4 ADD MSTORE PUSH2 0x4B68 DUP2 PUSH2 0x4816 JUMP JUMPDEST SWAP1 POP SWAP2 SWAP1 POP JUMP JUMPDEST PUSH1 0x0 PUSH1 0x20 DUP3 ADD SWAP1 POP DUP2 DUP2 SUB PUSH1 0x0 DUP4 ADD MSTORE PUSH2 0x4B88 DUP2 PUSH2 0x4856 JUMP JUMPDEST SWAP1 POP SWAP2 SWAP1 POP JUMP JUMPDEST PUSH1 0x0 PUSH1 0x20 DUP3 ADD SWAP1 POP DUP2 DUP2 SUB PUSH1 0x0 DUP4 ADD MSTORE PUSH2 0x4BA8 DUP2 PUSH2 0x48BC JUMP JUMPDEST SWAP1 POP SWAP2 SWAP1 POP JUMP JUMPDEST PUSH1 0x0 PUSH1 0x20 DUP3 ADD SWAP1 POP PUSH2 0x4BC4 PUSH1 0x0 DUP4 ADD DUP5 PUSH2 0x4931 JUMP JUMPDEST SWAP3 SWAP2 POP POP JUMP JUMPDEST PUSH1 0x0 PUSH2 0x120 DUP3 ADD SWAP1 POP PUSH2 0x4BE0 PUSH1 0x0 DUP4 ADD DUP13 PUSH2 0x4931 JUMP JUMPDEST PUSH2 0x4BED PUSH1 0x20 DUP4 ADD DUP12 PUSH2 0x455F JUMP JUMPDEST PUSH2 0x4BFA PUSH1 0x40 DUP4 ADD DUP11 PUSH2 0x455F JUMP JUMPDEST PUSH2 0x4C07 PUSH1 0x60 DUP4 ADD DUP10 PUSH2 0x455F JUMP JUMPDEST PUSH2 0x4C14 PUSH1 0x80 DUP4 ADD DUP9 PUSH2 0x455F JUMP JUMPDEST PUSH2 0x4C21 PUSH1 0xA0 DUP4 ADD DUP8 PUSH2 0x455F JUMP JUMPDEST PUSH2 0x4C2E PUSH1 0xC0 DUP4 ADD DUP7 PUSH2 0x4517 JUMP JUMPDEST PUSH2 0x4C3B PUSH1 0xE0 DUP4 ADD DUP6 PUSH2 0x4931 JUMP JUMPDEST PUSH2 0x4C49 PUSH2 0x100 DUP4 ADD DUP5 PUSH2 0x4931 JUMP JUMPDEST SWAP11 SWAP10 POP POP POP POP POP POP POP POP POP POP JUMP JUMPDEST PUSH1 0x0 PUSH1 0x80 DUP3 ADD SWAP1 POP PUSH2 0x4C6C PUSH1 0x0 DUP4 ADD DUP8 PUSH2 0x4931 JUMP JUMPDEST PUSH2 0x4C79 PUSH1 0x20 DUP4 ADD DUP7 PUSH2 0x4931 JUMP JUMPDEST PUSH2 0x4C86 PUSH1 0x40 DUP4 ADD DUP6 PUSH2 0x4931 JUMP JUMPDEST PUSH2 0x4C93 PUSH1 0x60 DUP4 ADD DUP5 PUSH2 0x4931 JUMP JUMPDEST SWAP6 SWAP5 POP POP POP POP POP JUMP JUMPDEST PUSH1 0x0 PUSH1 0xE0 DUP3 ADD SWAP1 POP PUSH2 0x4CB1 PUSH1 0x0 DUP4 ADD DUP11 PUSH2 0x4931 JUMP JUMPDEST PUSH2 0x4CBE PUSH1 0x20 DUP4 ADD DUP10 PUSH2 0x4931 JUMP JUMPDEST PUSH2 0x4CCB PUSH1 0x40 DUP4 ADD DUP9 PUSH2 0x4931 JUMP JUMPDEST PUSH2 0x4CD8 PUSH1 0x60 DUP4 ADD DUP8 PUSH2 0x4931 JUMP JUMPDEST PUSH2 0x4CE5 PUSH1 0x80 DUP4 ADD DUP7 PUSH2 0x4931 JUMP JUMPDEST PUSH2 0x4CF2 PUSH1 0xA0 DUP4 ADD DUP6 PUSH2 0x4517 JUMP JUMPDEST PUSH2 0x4CFF PUSH1 0xC0 DUP4 ADD DUP5 PUSH2 0x4931 JUMP JUMPDEST SWAP9 SWAP8 POP POP POP POP POP POP POP POP JUMP JUMPDEST PUSH1 0x0 PUSH2 0x120 DUP3 ADD SWAP1 POP PUSH2 0x4D21 PUSH1 0x0 DUP4 ADD DUP13 PUSH2 0x4931 JUMP JUMPDEST PUSH2 0x4D2E PUSH1 0x20 DUP4 ADD DUP12 PUSH2 0x4931 JUMP JUMPDEST PUSH2 0x4D3B PUSH1 0x40 DUP4 ADD DUP11 PUSH2 0x4931 JUMP JUMPDEST PUSH2 0x4D48 PUSH1 0x60 DUP4 ADD DUP10 PUSH2 0x4931 JUMP JUMPDEST PUSH2 0x4D55 PUSH1 0x80 DUP4 ADD DUP9 PUSH2 0x4931 JUMP JUMPDEST PUSH2 0x4D62 PUSH1 0xA0 DUP4 ADD DUP8 PUSH2 0x4931 JUMP JUMPDEST PUSH2 0x4D6F PUSH1 0xC0 DUP4 ADD DUP7 PUSH2 0x4517 JUMP JUMPDEST PUSH2 0x4D7C PUSH1 0xE0 DUP4 ADD DUP6 PUSH2 0x4931 JUMP JUMPDEST PUSH2 0x4D8A PUSH2 0x100 DUP4 ADD DUP5 PUSH2 0x4931 JUMP JUMPDEST SWAP11 SWAP10 POP POP POP POP POP POP POP POP POP POP JUMP JUMPDEST PUSH1 0x0 PUSH1 0x40 MLOAD SWAP1 POP DUP2 DUP2 ADD DUP2 DUP2 LT PUSH8 0xFFFFFFFFFFFFFFFF DUP3 GT OR ISZERO PUSH2 0x4DBF JUMPI PUSH2 0x4DBE PUSH2 0x521C JUMP JUMPDEST JUMPDEST DUP1 PUSH1 0x40 MSTORE POP SWAP2 SWAP1 POP JUMP JUMPDEST PUSH1 0x0 PUSH8 0xFFFFFFFFFFFFFFFF DUP3 GT ISZERO PUSH2 0x4DE4 JUMPI PUSH2 0x4DE3 PUSH2 0x521C JUMP JUMPDEST JUMPDEST PUSH1 0x1F NOT PUSH1 0x1F DUP4 ADD AND SWAP1 POP PUSH1 0x20 DUP2 ADD SWAP1 POP SWAP2 SWAP1 POP JUMP JUMPDEST PUSH1 0x0 DUP2 SWAP1 POP PUSH1 0x20 DUP3 ADD SWAP1 POP SWAP2 SWAP1 POP JUMP JUMPDEST PUSH1 0x0 DUP2 SWAP1 POP PUSH1 0x20 DUP3 ADD SWAP1 POP SWAP2 SWAP1 POP JUMP JUMPDEST PUSH1 0x0 DUP2 MLOAD SWAP1 POP SWAP2 SWAP1 POP JUMP JUMPDEST PUSH1 0x0 DUP2 MLOAD SWAP1 POP SWAP2 SWAP1 POP JUMP JUMPDEST PUSH1 0x0 DUP2 MLOAD SWAP1 POP SWAP2 SWAP1 POP JUMP JUMPDEST PUSH1 0x0 DUP2 MLOAD SWAP1 POP SWAP2 SWAP1 POP JUMP JUMPDEST PUSH1 0x0 PUSH1 0x20 DUP3 ADD SWAP1 POP SWAP2 SWAP1 POP JUMP JUMPDEST PUSH1 0x0 PUSH1 0x20 DUP3 ADD SWAP1 POP SWAP2 SWAP1 POP JUMP JUMPDEST PUSH1 0x0 DUP3 DUP3 MSTORE PUSH1 0x20 DUP3 ADD SWAP1 POP SWAP3 SWAP2 POP POP JUMP JUMPDEST PUSH1 0x0 DUP3 DUP3 MSTORE PUSH1 0x20 DUP3 ADD SWAP1 POP SWAP3 SWAP2 POP POP JUMP JUMPDEST PUSH1 0x0 DUP3 DUP3 MSTORE PUSH1 0x20 DUP3 ADD SWAP1 POP SWAP3 SWAP2 POP POP JUMP JUMPDEST PUSH1 0x0 DUP3 DUP3 MSTORE PUSH1 0x20 DUP3 ADD SWAP1 POP SWAP3 SWAP2 POP POP JUMP JUMPDEST PUSH1 0x0 DUP2 SWAP1 POP SWAP3 SWAP2 POP POP JUMP JUMPDEST PUSH1 0x0 PUSH2 0x4EB9 DUP3 PUSH2 0x502D JUMP JUMPDEST SWAP2 POP PUSH2 0x4EC4 DUP4 PUSH2 0x502D JUMP JUMPDEST SWAP3 POP DUP3 PUSH32 0xFFFFFFFFFFFFFFFFFFFFFFFFFFFFFFFFFFFFFFFFFFFFFFFFFFFFFFFFFFFFFFFF SUB DUP3 GT ISZERO PUSH2 0x4EF9 JUMPI PUSH2 0x4EF8 PUSH2 0x518F JUMP JUMPDEST JUMPDEST DUP3 DUP3 ADD SWAP1 POP SWAP3 SWAP2 POP POP JUMP JUMPDEST PUSH1 0x0 PUSH2 0x4F0F DUP3 PUSH2 0x502D JUMP JUMPDEST SWAP2 POP PUSH2 0x4F1A DUP4 PUSH2 0x502D JUMP JUMPDEST SWAP3 POP DUP3 PUSH2 0x4F2A JUMPI PUSH2 0x4F29 PUSH2 0x51BE JUMP JUMPDEST JUMPDEST DUP3 DUP3 DIV SWAP1 POP SWAP3 SWAP2 POP POP JUMP JUMPDEST PUSH1 0x0 PUSH2 0x4F40 DUP3 PUSH2 0x502D JUMP JUMPDEST SWAP2 POP PUSH2 0x4F4B DUP4 PUSH2 0x502D JUMP JUMPDEST SWAP3 POP DUP2 PUSH32 0xFFFFFFFFFFFFFFFFFFFFFFFFFFFFFFFFFFFFFFFFFFFFFFFFFFFFFFFFFFFFFFFF DIV DUP4 GT DUP3 ISZERO ISZERO AND ISZERO PUSH2 0x4F84 JUMPI PUSH2 0x4F83 PUSH2 0x518F JUMP JUMPDEST JUMPDEST DUP3 DUP3 MUL SWAP1 POP SWAP3 SWAP2 POP POP JUMP JUMPDEST PUSH1 0x0 PUSH2 0x4F9A DUP3 PUSH2 0x502D JUMP JUMPDEST SWAP2 POP PUSH2 0x4FA5 DUP4 PUSH2 0x502D JUMP JUMPDEST SWAP3 POP DUP3 DUP3 LT ISZERO PUSH2 0x4FB8 JUMPI PUSH2 0x4FB7 PUSH2 0x518F JUMP JUMPDEST JUMPDEST DUP3 DUP3 SUB SWAP1 POP SWAP3 SWAP2 POP POP JUMP JUMPDEST PUSH1 0x0 PUSH2 0x4FCE DUP3 PUSH2 0x500D JUMP JUMPDEST SWAP1 POP SWAP2 SWAP1 POP JUMP JUMPDEST PUSH1 0x0 DUP2 ISZERO ISZERO SWAP1 POP SWAP2 SWAP1 POP JUMP JUMPDEST PUSH1 0x0 PUSH32 0xFFFFFFFF00000000000000000000000000000000000000000000000000000000 DUP3 AND SWAP1 POP SWAP2 SWAP1 POP JUMP JUMPDEST PUSH1 0x0 PUSH20 0xFFFFFFFFFFFFFFFFFFFFFFFFFFFFFFFFFFFFFFFF DUP3 AND SWAP1 POP SWAP2 SWAP1 POP JUMP JUMPDEST PUSH1 0x0 DUP2 SWAP1 POP SWAP2 SWAP1 POP JUMP JUMPDEST PUSH1 0x0 PUSH2 0x5042 DUP3 PUSH2 0x502D JUMP JUMPDEST SWAP1 POP SWAP2 SWAP1 POP JUMP JUMPDEST DUP3 DUP2 DUP4 CALLDATACOPY PUSH1 0x0 DUP4 DUP4 ADD MSTORE POP POP POP JUMP JUMPDEST PUSH1 0x0 JUMPDEST DUP4 DUP2 LT ISZERO PUSH2 0x5076 JUMPI DUP1 DUP3 ADD MLOAD DUP2 DUP5 ADD MSTORE PUSH1 0x20 DUP2 ADD SWAP1 POP PUSH2 0x505B JUMP JUMPDEST DUP4 DUP2 GT ISZERO PUSH2 0x5085 JUMPI PUSH1 0x0 DUP5 DUP5 ADD MSTORE JUMPDEST POP POP POP POP JUMP JUMPDEST PUSH1 0x0 PUSH2 0x5096 DUP3 PUSH2 0x502D JUMP JUMPDEST SWAP2 POP PUSH1 0x0 DUP3 EQ ISZERO PUSH2 0x50AA JUMPI PUSH2 0x50A9 PUSH2 0x518F JUMP JUMPDEST JUMPDEST PUSH1 0x1 DUP3 SUB SWAP1 POP SWAP2 SWAP1 POP JUMP JUMPDEST PUSH1 0x0 PUSH1 0x2 DUP3 DIV SWAP1 POP PUSH1 0x1 DUP3 AND DUP1 PUSH2 0x50CD JUMPI PUSH1 0x7F DUP3 AND SWAP2 POP JUMPDEST PUSH1 0x20 DUP3 LT DUP2 EQ ISZERO PUSH2 0x50E1 JUMPI PUSH2 0x50E0 PUSH2 0x51ED JUMP JUMPDEST JUMPDEST POP SWAP2 SWAP1 POP JUMP JUMPDEST PUSH1 0x0 PUSH2 0x50F2 DUP3 PUSH2 0x502D JUMP JUMPDEST SWAP2 POP PUSH32 0xFFFFFFFFFFFFFFFFFFFFFFFFFFFFFFFFFFFFFFFFFFFFFFFFFFFFFFFFFFFFFFFF DUP3 EQ ISZERO PUSH2 0x5125 JUMPI PUSH2 0x5124 PUSH2 0x518F JUMP JUMPDEST JUMPDEST PUSH1 0x1 DUP3 ADD SWAP1 POP SWAP2 SWAP1 POP JUMP JUMPDEST PUSH1 0x0 PUSH2 0x513B DUP3 PUSH2 0x5142 JUMP JUMPDEST SWAP1 POP SWAP2 SWAP1 POP JUMP JUMPDEST PUSH1 0x0 PUSH2 0x514D DUP3 PUSH2 0x525C JUMP JUMPDEST SWAP1 POP SWAP2 SWAP1 POP JUMP JUMPDEST PUSH1 0x0 DUP2 SWAP1 POP SWAP2 SWAP1 POP JUMP JUMPDEST PUSH1 0x0 PUSH2 0x5169 DUP3 PUSH2 0x502D JUMP JUMPDEST SWAP2 POP PUSH2 0x5174 DUP4 PUSH2 0x502D JUMP JUMPDEST SWAP3 POP DUP3 PUSH2 0x5184 JUMPI PUSH2 0x5183 PUSH2 0x51BE JUMP JUMPDEST JUMPDEST DUP3 DUP3 MOD SWAP1 POP SWAP3 SWAP2 POP POP JUMP JUMPDEST PUSH32 0x4E487B7100000000000000000000000000000000000000000000000000000000 PUSH1 0x0 MSTORE PUSH1 0x11 PUSH1 0x4 MSTORE PUSH1 0x24 PUSH1 0x0 REVERT JUMPDEST PUSH32 0x4E487B7100000000000000000000000000000000000000000000000000000000 PUSH1 0x0 MSTORE PUSH1 0x12 PUSH1 0x4 MSTORE PUSH1 0x24 PUSH1 0x0 REVERT JUMPDEST PUSH32 0x4E487B7100000000000000000000000000000000000000000000000000000000 PUSH1 0x0 MSTORE PUSH1 0x22 PUSH1 0x4 MSTORE PUSH1 0x24 PUSH1 0x0 REVERT JUMPDEST PUSH32 0x4E487B7100000000000000000000000000000000000000000000000000000000 PUSH1 0x0 MSTORE PUSH1 0x41 PUSH1 0x4 MSTORE PUSH1 0x24 PUSH1 0x0 REVERT JUMPDEST PUSH1 0x0 PUSH1 0x1F NOT PUSH1 0x1F DUP4 ADD AND SWAP1 POP SWAP2 SWAP1 POP JUMP JUMPDEST PUSH1 0x0 DUP2 PUSH1 0x60 SHL SWAP1 POP SWAP2 SWAP1 POP JUMP JUMPDEST PUSH2 0x5272 DUP2 PUSH2 0x4FC3 JUMP JUMPDEST DUP2 EQ PUSH2 0x527D JUMPI PUSH1 0x0 DUP1 REVERT JUMPDEST POP JUMP JUMPDEST PUSH2 0x5289 DUP2 PUSH2 0x4FD5 JUMP JUMPDEST DUP2 EQ PUSH2 0x5294 JUMPI PUSH1 0x0 DUP1 REVERT JUMPDEST POP JUMP JUMPDEST PUSH2 0x52A0 DUP2 PUSH2 0x4FE1 JUMP JUMPDEST DUP2 EQ PUSH2 0x52AB JUMPI PUSH1 0x0 DUP1 REVERT JUMPDEST POP JUMP JUMPDEST PUSH2 0x52B7 DUP2 PUSH2 0x502D JUMP JUMPDEST DUP2 EQ PUSH2 0x52C2 JUMPI PUSH1 0x0 DUP1 REVERT JUMPDEST POP JUMP INVALID LOG2 PUSH5 0x6970667358 0x22 SLT KECCAK256 PUSH10 0x435A6A2DFDCEEE53404E 0xD PUSH22 0x87C26A7988DDD86C9778D264AD49B42072CEEF64736F PUSH13 0x63430008000033000000000000 "
		},
		"gasEstimates": {
			"creation": {
				"codeDepositCost": "4248600",
				"executionCost": "infinite",
				"totalCost": "infinite"
			},
			"external": {
				"OwnerMoneyCount(address)": "1626",
				"OwnerSlotCount(address)": "1669",
				"UpgradeSlot(uint256)": "infinite",
				"addFriend(address,address)": "infinite",
				"addInLevelList(uint256)": "infinite",
				"approve(address,uint256)": "24561",
				"balanceOf(address)": "1608",
				"buySlot(uint256)": "infinite",
				"createFarm()": "infinite",
				"cropsList(uint256)": "infinite",
				"delInCropsList(uint256)": "infinite",
				"deleteFriend(address,address)": "infinite",
				"friendsDict(address,uint256)": "infinite",
				"getApproved(uint256)": "2651",
				"getFarmByOwner(address)": "infinite",
				"getFriendsByOwner(address)": "infinite",
				"getLevel(uint256)": "infinite",
				"harvest(uint256)": "infinite",
				"initLevelList()": "109730",
				"isApprovedForAll(address,address)": "infinite",
				"levelList(uint256)": "infinite",
				"modInCropsList(uint256,uint256,uint256,uint256)": "infinite",
				"name()": "infinite",
				"owner()": "1268",
				"ownerOf(uint256)": "1610",
				"plant(uint256,uint256)": "infinite",
				"renounceOwnership()": "24421",
				"safeTransferFrom(address,address,uint256)": "infinite",
				"safeTransferFrom(address,address,uint256,bytes)": "infinite",
				"setApprovalForAll(address,bool)": "infinite",
				"setLevelUpFee(uint256)": "21493",
				"slotToOwner(uint256)": "1674",
				"slots(uint256)": "infinite",
				"steal(uint256)": "infinite",
				"supportsInterface(bytes4)": "820",
				"symbol()": "infinite",
				"takeOwnership(uint256)": "infinite",
				"tokenURI(uint256)": "2140",
				"transfer(address,uint256)": "infinite",
				"transferFrom(address,address,uint256)": "infinite",
				"transferOwnership(address)": "24835",
				"watering(uint256)": "infinite",
				"weeding(uint256)": "infinite",
				"withdraw()": "infinite"
			},
			"internal": {
				"_transfer(address,address,uint256)": "infinite"
			}
		},
		"methodIdentifiers": {
			"OwnerMoneyCount(address)": "580405ba",
			"OwnerSlotCount(address)": "8871c9c5",
			"UpgradeSlot(uint256)": "27adc95e",
			"addFriend(address,address)": "10e96da5",
			"addInLevelList(uint256)": "eb320915",
			"approve(address,uint256)": "095ea7b3",
			"balanceOf(address)": "70a08231",
			"buySlot(uint256)": "ab2874cb",
			"createFarm()": "1d5ec3cb",
			"cropsList(uint256)": "a9bf928f",
			"delInCropsList(uint256)": "6099804d",
			"deleteFriend(address,address)": "72e6eaa6",
			"friendsDict(address,uint256)": "a7a624e0",
			"getApproved(uint256)": "081812fc",
			"getFarmByOwner(address)": "575c25b0",
			"getFriendsByOwner(address)": "d13e736a",
			"getLevel(uint256)": "86481d40",
			"harvest(uint256)": "ddc63262",
			"initLevelList()": "0d79e835",
			"isApprovedForAll(address,address)": "e985e9c5",
			"levelList(uint256)": "98815594",
			"modInCropsList(uint256,uint256,uint256,uint256)": "e1928ac9",
			"name()": "06fdde03",
			"owner()": "8da5cb5b",
			"ownerOf(uint256)": "6352211e",
			"plant(uint256,uint256)": "92658a28",
			"renounceOwnership()": "715018a6",
			"safeTransferFrom(address,address,uint256)": "42842e0e",
			"safeTransferFrom(address,address,uint256,bytes)": "b88d4fde",
			"setApprovalForAll(address,bool)": "a22cb465",
			"setLevelUpFee(uint256)": "ccf670f8",
			"slotToOwner(uint256)": "0c10e499",
			"slots(uint256)": "387dd9e9",
			"steal(uint256)": "9bcf5f0c",
			"supportsInterface(bytes4)": "01ffc9a7",
			"symbol()": "95d89b41",
			"takeOwnership(uint256)": "b2e6ceeb",
			"tokenURI(uint256)": "c87b56dd",
			"transfer(address,uint256)": "a9059cbb",
			"transferFrom(address,address,uint256)": "23b872dd",
			"transferOwnership(address)": "f2fde38b",
			"watering(uint256)": "b99c6e0a",
			"weeding(uint256)": "a5c14ec7",
			"withdraw()": "3ccfd60b"
		}
	},
	"abi": [
		{
			"inputs": [],
			"stateMutability": "nonpayable",
			"type": "constructor"
		},
		{
			"anonymous": false,
			"inputs": [
				{
					"indexed": true,
					"internalType": "address",
					"name": "owner",
					"type": "address"
				},
				{
					"indexed": true,
					"internalType": "address",
					"name": "approved",
					"type": "address"
				},
				{
					"indexed": true,
					"internalType": "uint256",
					"name": "tokenId",
					"type": "uint256"
				}
			],
			"name": "Approval",
			"type": "event"
		},
		{
			"anonymous": false,
			"inputs": [
				{
					"indexed": true,
					"internalType": "address",
					"name": "owner",
					"type": "address"
				},
				{
					"indexed": true,
					"internalType": "address",
					"name": "operator",
					"type": "address"
				},
				{
					"indexed": false,
					"internalType": "bool",
					"name": "approved",
					"type": "bool"
				}
			],
			"name": "ApprovalForAll",
			"type": "event"
		},
		{
			"anonymous": false,
			"inputs": [
				{
					"indexed": true,
					"internalType": "address",
					"name": "previousOwner",
					"type": "address"
				},
				{
					"indexed": true,
					"internalType": "address",
					"name": "newOwner",
					"type": "address"
				}
			],
			"name": "OwnershipTransferred",
			"type": "event"
		},
		{
			"anonymous": false,
			"inputs": [
				{
					"indexed": true,
					"internalType": "address",
					"name": "from",
					"type": "address"
				},
				{
					"indexed": true,
					"internalType": "address",
					"name": "to",
					"type": "address"
				},
				{
					"indexed": true,
					"internalType": "uint256",
					"name": "tokenId",
					"type": "uint256"
				}
			],
			"name": "Transfer",
			"type": "event"
		},
		{
			"anonymous": false,
			"inputs": [
				{
					"indexed": true,
					"internalType": "address",
					"name": "addr",
					"type": "address"
				}
			],
			"name": "createSlotEvent",
			"type": "event"
		},
		{
			"anonymous": false,
			"inputs": [
				{
					"indexed": false,
					"internalType": "uint256",
					"name": "cropID",
					"type": "uint256"
				}
			],
			"name": "deleteCropList",
			"type": "event"
		},
		{
			"anonymous": false,
			"inputs": [
				{
					"indexed": false,
					"internalType": "uint256",
					"name": "cropID",
					"type": "uint256"
				},
				{
					"indexed": false,
					"internalType": "uint256",
					"name": "grow_time",
					"type": "uint256"
				},
				{
					"indexed": false,
					"internalType": "uint256",
					"name": "price",
					"type": "uint256"
				},
				{
					"indexed": false,
					"internalType": "uint256",
					"name": "exp",
					"type": "uint256"
				}
			],
			"name": "updateCropList",
			"type": "event"
		},
		{
			"anonymous": false,
			"inputs": [
				{
					"indexed": true,
					"internalType": "address",
					"name": "owner",
					"type": "address"
				},
				{
					"indexed": false,
					"internalType": "uint256",
					"name": "slotID",
					"type": "uint256"
				},
				{
					"indexed": false,
					"internalType": "uint256",
					"name": "cropID",
					"type": "uint256"
				},
				{
					"indexed": false,
					"internalType": "uint256",
					"name": "grow_time",
					"type": "uint256"
				},
				{
					"indexed": false,
					"internalType": "uint256",
					"name": "price",
					"type": "uint256"
				},
				{
					"indexed": false,
					"internalType": "uint256",
					"name": "dry_time",
					"type": "uint256"
				},
				{
					"indexed": false,
					"internalType": "uint256",
					"name": "grass_time",
					"type": "uint256"
				},
				{
					"indexed": false,
					"internalType": "bool",
					"name": "stealed",
					"type": "bool"
				},
				{
					"indexed": false,
					"internalType": "uint256",
					"name": "exp",
					"type": "uint256"
				},
				{
					"indexed": false,
					"internalType": "uint256",
					"name": "balance",
					"type": "uint256"
				}
			],
			"name": "updateSlot",
			"type": "event"
		},
		{
			"inputs": [
				{
					"internalType": "address",
					"name": "",
					"type": "address"
				}
			],
			"name": "OwnerMoneyCount",
			"outputs": [
				{
					"internalType": "uint256",
					"name": "",
					"type": "uint256"
				}
			],
			"stateMutability": "view",
			"type": "function"
		},
		{
			"inputs": [
				{
					"internalType": "address",
					"name": "",
					"type": "address"
				}
			],
			"name": "OwnerSlotCount",
			"outputs": [
				{
					"internalType": "uint256",
					"name": "",
					"type": "uint256"
				}
			],
			"stateMutability": "view",
			"type": "function"
		},
		{
			"inputs": [
				{
					"internalType": "uint256",
					"name": "_slotID",
					"type": "uint256"
				}
			],
			"name": "UpgradeSlot",
			"outputs": [],
			"stateMutability": "payable",
			"type": "function"
		},
		{
			"inputs": [
				{
					"internalType": "address",
					"name": "owner",
					"type": "address"
				},
				{
					"internalType": "address",
					"name": "friend",
					"type": "address"
				}
			],
			"name": "addFriend",
			"outputs": [
				{
					"internalType": "bool",
					"name": "",
					"type": "bool"
				}
			],
			"stateMutability": "nonpayable",
			"type": "function"
		},
		{
			"inputs": [
				{
					"internalType": "uint256",
					"name": "_exp",
					"type": "uint256"
				}
			],
			"name": "addInLevelList",
			"outputs": [],
			"stateMutability": "nonpayable",
			"type": "function"
		},
		{
			"inputs": [
				{
					"internalType": "address",
					"name": "_to",
					"type": "address"
				},
				{
					"internalType": "uint256",
					"name": "_slotID",
					"type": "uint256"
				}
			],
			"name": "approve",
			"outputs": [],
			"stateMutability": "nonpayable",
			"type": "function"
		},
		{
			"inputs": [
				{
					"internalType": "address",
					"name": "_owner",
					"type": "address"
				}
			],
			"name": "balanceOf",
			"outputs": [
				{
					"internalType": "uint256",
					"name": "_balance",
					"type": "uint256"
				}
			],
			"stateMutability": "view",
			"type": "function"
		},
		{
			"inputs": [
				{
					"internalType": "uint256",
					"name": "_num",
					"type": "uint256"
				}
			],
			"name": "buySlot",
			"outputs": [],
			"stateMutability": "payable",
			"type": "function"
		},
		{
			"inputs": [],
			"name": "createFarm",
			"outputs": [],
			"stateMutability": "nonpayable",
			"type": "function"
		},
		{
			"inputs": [
				{
					"internalType": "uint256",
					"name": "",
					"type": "uint256"
				}
			],
			"name": "cropsList",
			"outputs": [
				{
					"internalType": "uint256",
					"name": "cropID",
					"type": "uint256"
				},
				{
					"internalType": "uint256",
					"name": "grow_time",
					"type": "uint256"
				},
				{
					"internalType": "uint256",
					"name": "price",
					"type": "uint256"
				},
				{
					"internalType": "uint256",
					"name": "dry_time",
					"type": "uint256"
				},
				{
					"internalType": "uint256",
					"name": "grass_time",
					"type": "uint256"
				},
				{
					"internalType": "bool",
					"name": "stealed",
					"type": "bool"
				},
				{
					"internalType": "uint256",
					"name": "exp",
					"type": "uint256"
				}
			],
			"stateMutability": "view",
			"type": "function"
		},
		{
			"inputs": [
				{
					"internalType": "uint256",
					"name": "_cropID",
					"type": "uint256"
				}
			],
			"name": "delInCropsList",
			"outputs": [],
			"stateMutability": "nonpayable",
			"type": "function"
		},
		{
			"inputs": [
				{
					"internalType": "address",
					"name": "owner",
					"type": "address"
				},
				{
					"internalType": "address",
					"name": "friend",
					"type": "address"
				}
			],
			"name": "deleteFriend",
			"outputs": [
				{
					"internalType": "bool",
					"name": "",
					"type": "bool"
				}
			],
			"stateMutability": "nonpayable",
			"type": "function"
		},
		{
			"inputs": [
				{
					"internalType": "address",
					"name": "",
					"type": "address"
				},
				{
					"internalType": "uint256",
					"name": "",
					"type": "uint256"
				}
			],
			"name": "friendsDict",
			"outputs": [
				{
					"internalType": "address",
					"name": "",
					"type": "address"
				}
			],
			"stateMutability": "view",
			"type": "function"
		},
		{
			"inputs": [
				{
					"internalType": "uint256",
					"name": "tokenId",
					"type": "uint256"
				}
			],
			"name": "getApproved",
			"outputs": [
				{
					"internalType": "address",
					"name": "",
					"type": "address"
				}
			],
			"stateMutability": "view",
			"type": "function"
		},
		{
			"inputs": [
				{
					"internalType": "address",
					"name": "_owner",
					"type": "address"
				}
			],
			"name": "getFarmByOwner",
			"outputs": [
				{
					"internalType": "uint256[]",
					"name": "",
					"type": "uint256[]"
				}
			],
			"stateMutability": "view",
			"type": "function"
		},
		{
			"inputs": [
				{
					"internalType": "address",
					"name": "owner",
					"type": "address"
				}
			],
			"name": "getFriendsByOwner",
			"outputs": [
				{
					"internalType": "address[]",
					"name": "",
					"type": "address[]"
				}
			],
			"stateMutability": "view",
			"type": "function"
		},
		{
			"inputs": [
				{
					"internalType": "uint256",
					"name": "exp",
					"type": "uint256"
				}
			],
			"name": "getLevel",
			"outputs": [
				{
					"internalType": "uint256",
					"name": "",
					"type": "uint256"
				}
			],
			"stateMutability": "view",
			"type": "function"
		},
		{
			"inputs": [
				{
					"internalType": "uint256",
					"name": "_slotID",
					"type": "uint256"
				}
			],
			"name": "harvest",
			"outputs": [],
			"stateMutability": "nonpayable",
			"type": "function"
		},
		{
			"inputs": [],
			"name": "initLevelList",
			"outputs": [],
			"stateMutability": "nonpayable",
			"type": "function"
		},
		{
			"inputs": [
				{
					"internalType": "address",
					"name": "owner",
					"type": "address"
				},
				{
					"internalType": "address",
					"name": "operator",
					"type": "address"
				}
			],
			"name": "isApprovedForAll",
			"outputs": [
				{
					"internalType": "bool",
					"name": "",
					"type": "bool"
				}
			],
			"stateMutability": "view",
			"type": "function"
		},
		{
			"inputs": [
				{
					"internalType": "uint256",
					"name": "",
					"type": "uint256"
				}
			],
			"name": "levelList",
			"outputs": [
				{
					"internalType": "uint256",
					"name": "",
					"type": "uint256"
				}
			],
			"stateMutability": "view",
			"type": "function"
		},
		{
			"inputs": [
				{
					"internalType": "uint256",
					"name": "_cropID",
					"type": "uint256"
				},
				{
					"internalType": "uint256",
					"name": "_grow_time",
					"type": "uint256"
				},
				{
					"internalType": "uint256",
					"name": "_price",
					"type": "uint256"
				},
				{
					"internalType": "uint256",
					"name": "_exp",
					"type": "uint256"
				}
			],
			"name": "modInCropsList",
			"outputs": [],
			"stateMutability": "nonpayable",
			"type": "function"
		},
		{
			"inputs": [],
			"name": "name",
			"outputs": [
				{
					"internalType": "string",
					"name": "",
					"type": "string"
				}
			],
			"stateMutability": "view",
			"type": "function"
		},
		{
			"inputs": [],
			"name": "owner",
			"outputs": [
				{
					"internalType": "address",
					"name": "",
					"type": "address"
				}
			],
			"stateMutability": "view",
			"type": "function"
		},
		{
			"inputs": [
				{
					"internalType": "uint256",
					"name": "_slotID",
					"type": "uint256"
				}
			],
			"name": "ownerOf",
			"outputs": [
				{
					"internalType": "address",
					"name": "_owner",
					"type": "address"
				}
			],
			"stateMutability": "view",
			"type": "function"
		},
		{
			"inputs": [
				{
					"internalType": "uint256",
					"name": "_cropID",
					"type": "uint256"
				},
				{
					"internalType": "uint256",
					"name": "_slotID",
					"type": "uint256"
				}
			],
			"name": "plant",
			"outputs": [],
			"stateMutability": "nonpayable",
			"type": "function"
		},
		{
			"inputs": [],
			"name": "renounceOwnership",
			"outputs": [],
			"stateMutability": "nonpayable",
			"type": "function"
		},
		{
			"inputs": [
				{
					"internalType": "address",
					"name": "from",
					"type": "address"
				},
				{
					"internalType": "address",
					"name": "to",
					"type": "address"
				},
				{
					"internalType": "uint256",
					"name": "tokenId",
					"type": "uint256"
				}
			],
			"name": "safeTransferFrom",
			"outputs": [],
			"stateMutability": "nonpayable",
			"type": "function"
		},
		{
			"inputs": [
				{
					"internalType": "address",
					"name": "from",
					"type": "address"
				},
				{
					"internalType": "address",
					"name": "to",
					"type": "address"
				},
				{
					"internalType": "uint256",
					"name": "tokenId",
					"type": "uint256"
				},
				{
					"internalType": "bytes",
					"name": "_data",
					"type": "bytes"
				}
			],
			"name": "safeTransferFrom",
			"outputs": [],
			"stateMutability": "nonpayable",
			"type": "function"
		},
		{
			"inputs": [
				{
					"internalType": "address",
					"name": "operator",
					"type": "address"
				},
				{
					"internalType": "bool",
					"name": "approved",
					"type": "bool"
				}
			],
			"name": "setApprovalForAll",
			"outputs": [],
			"stateMutability": "nonpayable",
			"type": "function"
		},
		{
			"inputs": [
				{
					"internalType": "uint256",
					"name": "_fee",
					"type": "uint256"
				}
			],
			"name": "setLevelUpFee",
			"outputs": [],
			"stateMutability": "nonpayable",
			"type": "function"
		},
		{
			"inputs": [
				{
					"internalType": "uint256",
					"name": "",
					"type": "uint256"
				}
			],
			"name": "slotToOwner",
			"outputs": [
				{
					"internalType": "address",
					"name": "",
					"type": "address"
				}
			],
			"stateMutability": "view",
			"type": "function"
		},
		{
			"inputs": [
				{
					"internalType": "uint256",
					"name": "",
					"type": "uint256"
				}
			],
			"name": "slots",
			"outputs": [
				{
					"internalType": "uint256",
					"name": "cropID",
					"type": "uint256"
				},
				{
					"internalType": "uint256",
					"name": "grow_time",
					"type": "uint256"
				},
				{
					"internalType": "uint256",
					"name": "price",
					"type": "uint256"
				},
				{
					"internalType": "uint256",
					"name": "dry_time",
					"type": "uint256"
				},
				{
					"internalType": "uint256",
					"name": "grass_time",
					"type": "uint256"
				},
				{
					"internalType": "bool",
					"name": "stealed",
					"type": "bool"
				},
				{
					"internalType": "uint256",
					"name": "exp",
					"type": "uint256"
				}
			],
			"stateMutability": "view",
			"type": "function"
		},
		{
			"inputs": [
				{
					"internalType": "uint256",
					"name": "_slotID",
					"type": "uint256"
				}
			],
			"name": "steal",
			"outputs": [],
			"stateMutability": "nonpayable",
			"type": "function"
		},
		{
			"inputs": [
				{
					"internalType": "bytes4",
					"name": "interfaceId",
					"type": "bytes4"
				}
			],
			"name": "supportsInterface",
			"outputs": [
				{
					"internalType": "bool",
					"name": "",
					"type": "bool"
				}
			],
			"stateMutability": "view",
			"type": "function"
		},
		{
			"inputs": [],
			"name": "symbol",
			"outputs": [
				{
					"internalType": "string",
					"name": "",
					"type": "string"
				}
			],
			"stateMutability": "view",
			"type": "function"
		},
		{
			"inputs": [
				{
					"internalType": "uint256",
					"name": "_slotID",
					"type": "uint256"
				}
			],
			"name": "takeOwnership",
			"outputs": [],
			"stateMutability": "nonpayable",
			"type": "function"
		},
		{
			"inputs": [
				{
					"internalType": "uint256",
					"name": "tokenId",
					"type": "uint256"
				}
			],
			"name": "tokenURI",
			"outputs": [
				{
					"internalType": "string",
					"name": "",
					"type": "string"
				}
			],
			"stateMutability": "view",
			"type": "function"
		},
		{
			"inputs": [
				{
					"internalType": "address",
					"name": "_to",
					"type": "address"
				},
				{
					"internalType": "uint256",
					"name": "_slotID",
					"type": "uint256"
				}
			],
			"name": "transfer",
			"outputs": [],
			"stateMutability": "nonpayable",
			"type": "function"
		},
		{
			"inputs": [
				{
					"internalType": "address",
					"name": "_from",
					"type": "address"
				},
				{
					"internalType": "address",
					"name": "_to",
					"type": "address"
				},
				{
					"internalType": "uint256",
					"name": "_slotID",
					"type": "uint256"
				}
			],
			"name": "transferFrom",
			"outputs": [],
			"stateMutability": "nonpayable",
			"type": "function"
		},
		{
			"inputs": [
				{
					"internalType": "address",
					"name": "newOwner",
					"type": "address"
				}
			],
			"name": "transferOwnership",
			"outputs": [],
			"stateMutability": "nonpayable",
			"type": "function"
		},
		{
			"inputs": [
				{
					"internalType": "uint256",
					"name": "_slotID",
					"type": "uint256"
				}
			],
			"name": "watering",
			"outputs": [],
			"stateMutability": "nonpayable",
			"type": "function"
		},
		{
			"inputs": [
				{
					"internalType": "uint256",
					"name": "_slotID",
					"type": "uint256"
				}
			],
			"name": "weeding",
			"outputs": [],
			"stateMutability": "nonpayable",
			"type": "function"
		},
		{
			"inputs": [],
			"name": "withdraw",
			"outputs": [],
			"stateMutability": "nonpayable",
			"type": "function"
		}
	]
}