{
  "contractName": "Friend",
  "abi": [
    {
      "inputs": [
        {
          "internalType": "address",
          "name": "",
          "type": "address"
        },
        {
          "internalType": "uint256",
          "name": "",
          "type": "uint256"
        }
      ],
      "name": "friendsDict",
      "outputs": [
        {
          "internalType": "address",
          "name": "",
          "type": "address"
        }
      ],
      "stateMutability": "view",
      "type": "function"
    },
    {
      "inputs": [
        {
          "internalType": "address",
          "name": "owner",
          "type": "address"
        },
        {
          "internalType": "address",
          "name": "friend",
          "type": "address"
        }
      ],
      "name": "addFriend",
      "outputs": [
        {
          "internalType": "bool",
          "name": "",
          "type": "bool"
        }
      ],
      "stateMutability": "nonpayable",
      "type": "function"
    },
    {
      "inputs": [
        {
          "internalType": "address",
          "name": "owner",
          "type": "address"
        },
        {
          "internalType": "address",
          "name": "friend",
          "type": "address"
        }
      ],
      "name": "deleteFriend",
      "outputs": [
        {
          "internalType": "bool",
          "name": "",
          "type": "bool"
        }
      ],
      "stateMutability": "nonpayable",
      "type": "function"
    },
    {
      "inputs": [
        {
          "internalType": "address",
          "name": "owner",
          "type": "address"
        }
      ],
      "name": "getFrinedsByOwner",
      "outputs": [
        {
          "internalType": "address[]",
          "name": "",
          "type": "address[]"
        }
      ],
      "stateMutability": "view",
      "type": "function"
    }
  ],
  "bytecode": "0x608060405234801561001057600080fd5b50610ba1806100206000396000f3fe608060405234801561001057600080fd5b506004361061004c5760003560e01c806310e96da514610051578063316b75e41461008157806372e6eaa6146100b1578063a7a624e0146100e1575b600080fd5b61006b6004803603810190610066919061089d565b610111565b60405161007891906109f5565b60405180910390f35b61009b60048036038101906100969190610874565b6101d5565b6040516100a891906109d3565b60405180910390f35b6100cb60048036038101906100c6919061089d565b6102a1565b6040516100d891906109f5565b60405180910390f35b6100fb60048036038101906100f691906108d9565b6102db565b60405161010891906109b8565b60405180910390f35b600061011d8383610329565b1561012b57600090506101cf565b6000808473ffffffffffffffffffffffffffffffffffffffff1673ffffffffffffffffffffffffffffffffffffffff168152602001908152602001600020829080600181540180825580915050600190039060005260206000200160009091909190916101000a81548173ffffffffffffffffffffffffffffffffffffffff021916908373ffffffffffffffffffffffffffffffffffffffff160217905550600190505b92915050565b60606000808373ffffffffffffffffffffffffffffffffffffffff1673ffffffffffffffffffffffffffffffffffffffff16815260200190815260200160002080548060200260200160405190810160405280929190818152602001828054801561029557602002820191906000526020600020905b8160009054906101000a900473ffffffffffffffffffffffffffffffffffffffff1673ffffffffffffffffffffffffffffffffffffffff168152602001906001019080831161024b575b50505050509050919050565b60006102ad8383610329565b6102ba57600090506102d5565b6102c48383610477565b506102cf8284610477565b50600190505b92915050565b600060205281600052604060002081815481106102f757600080fd5b906000526020600020016000915091509054906101000a900473ffffffffffffffffffffffffffffffffffffffff1681565b600080600090505b6000808573ffffffffffffffffffffffffffffffffffffffff1673ffffffffffffffffffffffffffffffffffffffff1681526020019081526020016000208054905081101561046b576000808573ffffffffffffffffffffffffffffffffffffffff1673ffffffffffffffffffffffffffffffffffffffff16815260200190815260200160002081815481106103f0577f4e487b7100000000000000000000000000000000000000000000000000000000600052603260045260246000fd5b9060005260206000200160009054906101000a900473ffffffffffffffffffffffffffffffffffffffff1673ffffffffffffffffffffffffffffffffffffffff168373ffffffffffffffffffffffffffffffffffffffff161415610458576001915050610471565b808061046390610ac5565b915050610331565b50600090505b92915050565b60006104838383610329565b61049057600090506106ff565b600061049c8484610705565b905060008060008673ffffffffffffffffffffffffffffffffffffffff1673ffffffffffffffffffffffffffffffffffffffff1681526020019081526020016000208054905090506000808673ffffffffffffffffffffffffffffffffffffffff1673ffffffffffffffffffffffffffffffffffffffff16815260200190815260200160002060018261052f9190610a49565b81548110610566577f4e487b7100000000000000000000000000000000000000000000000000000000600052603260045260246000fd5b9060005260206000200160009054906101000a900473ffffffffffffffffffffffffffffffffffffffff166000808773ffffffffffffffffffffffffffffffffffffffff1673ffffffffffffffffffffffffffffffffffffffff1681526020019081526020016000208381548110610607577f4e487b7100000000000000000000000000000000000000000000000000000000600052603260045260246000fd5b9060005260206000200160006101000a81548173ffffffffffffffffffffffffffffffffffffffff021916908373ffffffffffffffffffffffffffffffffffffffff1602179055506000808673ffffffffffffffffffffffffffffffffffffffff1673ffffffffffffffffffffffffffffffffffffffff1681526020019081526020016000208054806106c3577f4e487b7100000000000000000000000000000000000000000000000000000000600052603160045260246000fd5b6001900381819060005260206000200160006101000a81549073ffffffffffffffffffffffffffffffffffffffff021916905590556001925050505b92915050565b60008060005b6000808673ffffffffffffffffffffffffffffffffffffffff1673ffffffffffffffffffffffffffffffffffffffff1681526020019081526020016000208054905081101561083f576000808673ffffffffffffffffffffffffffffffffffffffff1673ffffffffffffffffffffffffffffffffffffffff16815260200190815260200160002081815481106107ca577f4e487b7100000000000000000000000000000000000000000000000000000000600052603260045260246000fd5b9060005260206000200160009054906101000a900473ffffffffffffffffffffffffffffffffffffffff1673ffffffffffffffffffffffffffffffffffffffff168473ffffffffffffffffffffffffffffffffffffffff16141561082c578091505b808061083790610ac5565b91505061070b565b508091505092915050565b60008135905061085981610b3d565b92915050565b60008135905061086e81610b54565b92915050565b60006020828403121561088657600080fd5b60006108948482850161084a565b91505092915050565b600080604083850312156108b057600080fd5b60006108be8582860161084a565b92505060206108cf8582860161084a565b9150509250929050565b600080604083850312156108ec57600080fd5b60006108fa8582860161084a565b925050602061090b8582860161085f565b9150509250929050565b6000610921838361092d565b60208301905092915050565b61093681610a7d565b82525050565b61094581610a7d565b82525050565b600061095682610a20565b6109608185610a38565b935061096b83610a10565b8060005b8381101561099c5781516109838882610915565b975061098e83610a2b565b92505060018101905061096f565b5085935050505092915050565b6109b281610a8f565b82525050565b60006020820190506109cd600083018461093c565b92915050565b600060208201905081810360008301526109ed818461094b565b905092915050565b6000602082019050610a0a60008301846109a9565b92915050565b6000819050602082019050919050565b600081519050919050565b6000602082019050919050565b600082825260208201905092915050565b6000610a5482610abb565b9150610a5f83610abb565b925082821015610a7257610a71610b0e565b5b828203905092915050565b6000610a8882610a9b565b9050919050565b60008115159050919050565b600073ffffffffffffffffffffffffffffffffffffffff82169050919050565b6000819050919050565b6000610ad082610abb565b91507fffffffffffffffffffffffffffffffffffffffffffffffffffffffffffffffff821415610b0357610b02610b0e565b5b600182019050919050565b7f4e487b7100000000000000000000000000000000000000000000000000000000600052601160045260246000fd5b610b4681610a7d565b8114610b5157600080fd5b50565b610b5d81610abb565b8114610b6857600080fd5b5056fea264697066735822122038807a9bf17430c81a833cf70f1e4ab8dbf67190bb926439b70a6c0715b5775f64736f6c63430008020033",
  "immutableReferences": {},
  "source": "// SPDX-License-Identifier: MIT\npragma solidity ^0.8.0;\n\ncontract Friend {\n\n    mapping (address => address[]) public friendsDict;\n\n    function contains(address owner, address friend) internal view returns (bool) {\n        for (uint i = 0; i < friendsDict[owner].length; i++) {\n            if (friend == friendsDict[owner][i]) {\n                return true;\n            }\n        }\n        return false;\n    }\n    function getIndex(address owner, address friend) internal view returns (uint) {\n        uint idx;\n        for (uint i = 0; i < friendsDict[owner].length; i++) {\n            if (friend == friendsDict[owner][i]) {\n                idx = i;\n            }\n        }\n        return idx;\n    }\n\n    function removeFriend(address owner, address friend) internal returns (bool) {\n        if (!contains(owner, friend)) {\n            return false;\n        }\n        uint idx = getIndex(owner, friend);\n        uint len = friendsDict[owner].length;\n        friendsDict[owner][idx] = friendsDict[owner][len - 1];\n        friendsDict[owner].pop();\n        return true;\n    }\n\n    function addFriend(address owner, address friend) external returns (bool) {\n        // if owner and friend are already friends, return;\n        if (contains(owner, friend)) {\n            return false;\n        }\n\n        friendsDict[owner].push(friend);\n        return true;\n    }\n\n    function deleteFriend(address owner, address friend) external returns (bool) {\n        if (!contains(owner, friend)) {\n            return false;\n        }\n        removeFriend(owner, friend);\n        removeFriend(friend, owner);\n        return true;\n    }\n\n    function getFrinedsByOwner(address owner) external view returns (address [] memory) {\n        return friendsDict[owner];\n    }\n\n    function isFriend(address f1, address f2) internal view returns (bool) {\n        if (contains(f1, f2)) {\n            return true;\n        }\n\n        return false;\n    }\n\n}",
  "sourcePath": "/Users/Cirno/Desktop/distributed_ether_farm-main/contracts/Friend.sol",
  "compiler": {
    "name": "solc",
    "version": "0.8.2+commit.661d1103.Emscripten.clang"
  },
  "schemaVersion": "3.3.4",
  "updatedAt": "2021-03-14T20:58:05.310Z",
  "devdoc": {
    "kind": "dev",
    "methods": {},
    "version": 1
  },
  "userdoc": {
    "kind": "user",
    "methods": {},
    "version": 1
  }
}