{
  "contractName": "SlotUpgrade",
  "abi": [
    {
      "anonymous": false,
      "inputs": [
        {
          "indexed": true,
          "internalType": "address",
          "name": "previousOwner",
          "type": "address"
        },
        {
          "indexed": true,
          "internalType": "address",
          "name": "newOwner",
          "type": "address"
        }
      ],
      "name": "OwnershipTransferred",
      "type": "event"
    },
    {
      "anonymous": false,
      "inputs": [
        {
          "indexed": true,
          "internalType": "address",
          "name": "addr",
          "type": "address"
        },
        {
          "indexed": false,
          "internalType": "uint256[]",
          "name": "cropIDs",
          "type": "uint256[]"
        }
      ],
      "name": "createSlotEvent",
      "type": "event"
    },
    {
      "inputs": [
        {
          "internalType": "address",
          "name": "",
          "type": "address"
        }
      ],
      "name": "OwnerMoneyCount",
      "outputs": [
        {
          "internalType": "uint256",
          "name": "",
          "type": "uint256"
        }
      ],
      "stateMutability": "view",
      "type": "function"
    },
    {
      "inputs": [
        {
          "internalType": "address",
          "name": "",
          "type": "address"
        }
      ],
      "name": "OwnerSlotCount",
      "outputs": [
        {
          "internalType": "uint256",
          "name": "",
          "type": "uint256"
        }
      ],
      "stateMutability": "view",
      "type": "function"
    },
    {
      "inputs": [],
      "name": "createFarm",
      "outputs": [],
      "stateMutability": "nonpayable",
      "type": "function"
    },
    {
      "inputs": [
        {
          "internalType": "address",
          "name": "_owner",
          "type": "address"
        }
      ],
      "name": "getFarmByOwner",
      "outputs": [
        {
          "internalType": "uint256[]",
          "name": "",
          "type": "uint256[]"
        }
      ],
      "stateMutability": "view",
      "type": "function"
    },
    {
      "inputs": [
        {
          "internalType": "uint256",
          "name": "exp",
          "type": "uint256"
        }
      ],
      "name": "getLevel",
      "outputs": [
        {
          "internalType": "uint256",
          "name": "",
          "type": "uint256"
        }
      ],
      "stateMutability": "pure",
      "type": "function"
    },
    {
      "inputs": [],
      "name": "owner",
      "outputs": [
        {
          "internalType": "address",
          "name": "",
          "type": "address"
        }
      ],
      "stateMutability": "view",
      "type": "function"
    },
    {
      "inputs": [],
      "name": "renounceOwnership",
      "outputs": [],
      "stateMutability": "nonpayable",
      "type": "function"
    },
    {
      "inputs": [
        {
          "internalType": "uint256",
          "name": "",
          "type": "uint256"
        }
      ],
      "name": "slotToOwner",
      "outputs": [
        {
          "internalType": "address",
          "name": "",
          "type": "address"
        }
      ],
      "stateMutability": "view",
      "type": "function"
    },
    {
      "inputs": [
        {
          "internalType": "uint256",
          "name": "",
          "type": "uint256"
        }
      ],
      "name": "slots",
      "outputs": [
        {
          "internalType": "uint256",
          "name": "cropID",
          "type": "uint256"
        },
        {
          "internalType": "uint256",
          "name": "grow_time",
          "type": "uint256"
        },
        {
          "internalType": "uint256",
          "name": "price",
          "type": "uint256"
        },
        {
          "internalType": "uint256",
          "name": "dry_time",
          "type": "uint256"
        },
        {
          "internalType": "uint256",
          "name": "grass_time",
          "type": "uint256"
        },
        {
          "internalType": "bool",
          "name": "stealed",
          "type": "bool"
        },
        {
          "internalType": "uint256",
          "name": "exp",
          "type": "uint256"
        }
      ],
      "stateMutability": "view",
      "type": "function"
    },
    {
      "inputs": [
        {
          "internalType": "address",
          "name": "newOwner",
          "type": "address"
        }
      ],
      "name": "transferOwnership",
      "outputs": [],
      "stateMutability": "nonpayable",
      "type": "function"
    },
    {
      "inputs": [
        {
          "internalType": "uint256",
          "name": "_num",
          "type": "uint256"
        }
      ],
      "name": "buySlot",
      "outputs": [],
      "stateMutability": "payable",
      "type": "function"
    },
    {
      "inputs": [
        {
          "internalType": "uint256",
          "name": "_slotID",
          "type": "uint256"
        }
      ],
      "name": "UpgradeSlot",
      "outputs": [],
      "stateMutability": "payable",
      "type": "function"
    },
    {
      "inputs": [],
      "name": "withdraw",
      "outputs": [],
      "stateMutability": "nonpayable",
      "type": "function"
    },
    {
      "inputs": [
        {
          "internalType": "uint256",
          "name": "_fee",
          "type": "uint256"
        }
      ],
      "name": "setLevelUpFee",
      "outputs": [],
      "stateMutability": "nonpayable",
      "type": "function"
    }
  ],
  "bytecode": "0x608060405266038d7ea4c6800060055534801561001b57600080fd5b50600061002c6100d060201b60201c565b905080600460006101000a81548173ffffffffffffffffffffffffffffffffffffffff021916908373ffffffffffffffffffffffffffffffffffffffff1602179055508073ffffffffffffffffffffffffffffffffffffffff16600073ffffffffffffffffffffffffffffffffffffffff167f8be0079c531659141344cd1fd0a4f28419497f9722a3daafe3b4186f6b6457e060405160405180910390a3506100d8565b600033905090565b6113d4806100e76000396000f3fe6080604052600436106100dd5760003560e01c8063715018a61161007f5780638da5cb5b116100595780638da5cb5b146102b7578063ab2874cb146102e2578063ccf670f8146102fe578063f2fde38b14610327576100dd565b8063715018a61461022657806386481d401461023d5780638871c9c51461027a576100dd565b8063387dd9e9116100bb578063387dd9e9146101525780633ccfd60b14610195578063575c25b0146101ac578063580405ba146101e9576100dd565b80630c10e499146100e25780631d5ec3cb1461011f57806327adc95e14610136575b600080fd5b3480156100ee57600080fd5b5061010960048036038101906101049190610eb6565b610350565b6040516101169190610fd7565b60405180910390f35b34801561012b57600080fd5b50610134610383565b005b610150600480360381019061014b9190610eb6565b6103d9565b005b34801561015e57600080fd5b5061017960048036038101906101749190610eb6565b610475565b60405161018c979695949392919061106f565b60405180910390f35b3480156101a157600080fd5b506101aa6104d4565b005b3480156101b857600080fd5b506101d360048036038101906101ce9190610e8d565b6105a0565b6040516101e09190610ff2565b60405180910390f35b3480156101f557600080fd5b50610210600480360381019061020b9190610e8d565b61073f565b60405161021d9190611054565b60405180910390f35b34801561023257600080fd5b5061023b610757565b005b34801561024957600080fd5b50610264600480360381019061025f9190610eb6565b610894565b6040516102719190611054565b60405180910390f35b34801561028657600080fd5b506102a1600480360381019061029c9190610e8d565b6108d1565b6040516102ae9190611054565b60405180910390f35b3480156102c357600080fd5b506102cc6108e9565b6040516102d99190610fd7565b60405180910390f35b6102fc60048036038101906102f79190610eb6565b610913565b005b34801561030a57600080fd5b5061032560048036038101906103209190610eb6565b610938565b005b34801561033357600080fd5b5061034e60048036038101906103499190610e8d565b6109be565b005b60016020528060005260406000206000915054906101000a900473ffffffffffffffffffffffffffffffffffffffff1681565b6000600360003373ffffffffffffffffffffffffffffffffffffffff1673ffffffffffffffffffffffffffffffffffffffff16815260200190815260200160002054146103cf57600080fd5b6103d7610b6a565b565b60055434146103e757600080fd5b6000808281548110610422577f4e487b7100000000000000000000000000000000000000000000000000000000600052603260045260246000fd5b9060005260206000209060070201905061044b600182600601546104469190611128565b610894565b600a61045791906111af565b81600601600082825461046a9190611128565b925050819055505050565b6000818154811061048557600080fd5b90600052602060002090600702016000915090508060000154908060010154908060020154908060030154908060040154908060050160009054906101000a900460ff16908060060154905087565b6104dc610bbb565b73ffffffffffffffffffffffffffffffffffffffff166104fa6108e9565b73ffffffffffffffffffffffffffffffffffffffff1614610550576040517f08c379a000000000000000000000000000000000000000000000000000000000815260040161054790611034565b60405180910390fd5b6105586108e9565b73ffffffffffffffffffffffffffffffffffffffff166108fc479081150290604051600060405180830381858888f1935050505015801561059d573d6000803e3d6000fd5b50565b60606000600360008473ffffffffffffffffffffffffffffffffffffffff1673ffffffffffffffffffffffffffffffffffffffff1681526020019081526020016000205467ffffffffffffffff811115610623577f4e487b7100000000000000000000000000000000000000000000000000000000600052604160045260246000fd5b6040519080825280602002602001820160405280156106515781602001602082028036833780820191505090505b5090506000805b600080549050811015610734578473ffffffffffffffffffffffffffffffffffffffff166001600083815260200190815260200160002060009054906101000a900473ffffffffffffffffffffffffffffffffffffffff1673ffffffffffffffffffffffffffffffffffffffff1614156107215780838381518110610706577f4e487b7100000000000000000000000000000000000000000000000000000000600052603260045260246000fd5b602002602001018181525050818061071d90611251565b9250505b808061072c90611251565b915050610658565b508192505050919050565b60026020528060005260406000206000915090505481565b61075f610bbb565b73ffffffffffffffffffffffffffffffffffffffff1661077d6108e9565b73ffffffffffffffffffffffffffffffffffffffff16146107d3576040517f08c379a00000000000000000000000000000000000000000000000000000000081526004016107ca90611034565b60405180910390fd5b600073ffffffffffffffffffffffffffffffffffffffff16600460009054906101000a900473ffffffffffffffffffffffffffffffffffffffff1673ffffffffffffffffffffffffffffffffffffffff167f8be0079c531659141344cd1fd0a4f28419497f9722a3daafe3b4186f6b6457e060405160405180910390a36000600460006101000a81548173ffffffffffffffffffffffffffffffffffffffff021916908373ffffffffffffffffffffffffffffffffffffffff160217905550565b60008082905060005b600082146108c757600a826108b2919061117e565b915080806108bf90611251565b91505061089d565b8092505050919050565b60036020528060005260406000206000915090505481565b6000600460009054906101000a900473ffffffffffffffffffffffffffffffffffffffff16905090565b8060055461092191906111af565b341461092c57600080fd5b61093581610bc3565b50565b610940610bbb565b73ffffffffffffffffffffffffffffffffffffffff1661095e6108e9565b73ffffffffffffffffffffffffffffffffffffffff16146109b4576040517f08c379a00000000000000000000000000000000000000000000000000000000081526004016109ab90611034565b60405180910390fd5b8060058190555050565b6109c6610bbb565b73ffffffffffffffffffffffffffffffffffffffff166109e46108e9565b73ffffffffffffffffffffffffffffffffffffffff1614610a3a576040517f08c379a0000000000000000000000000000000000000000000000000000000008152600401610a3190611034565b60405180910390fd5b600073ffffffffffffffffffffffffffffffffffffffff168173ffffffffffffffffffffffffffffffffffffffff161415610aaa576040517f08c379a0000000000000000000000000000000000000000000000000000000008152600401610aa190611014565b60405180910390fd5b8073ffffffffffffffffffffffffffffffffffffffff16600460009054906101000a900473ffffffffffffffffffffffffffffffffffffffff1673ffffffffffffffffffffffffffffffffffffffff167f8be0079c531659141344cd1fd0a4f28419497f9722a3daafe3b4186f6b6457e060405160405180910390a380600460006101000a81548173ffffffffffffffffffffffffffffffffffffffff021916908373ffffffffffffffffffffffffffffffffffffffff16021790555050565b610b746006610bc3565b6064600260003373ffffffffffffffffffffffffffffffffffffffff1673ffffffffffffffffffffffffffffffffffffffff16815260200190815260200160002081905550565b600033905090565b60008167ffffffffffffffff811115610c05577f4e487b7100000000000000000000000000000000000000000000000000000000600052604160045260246000fd5b604051908082528060200260200182016040528015610c335781602001602082028036833780820191505090505b50905060005b82811015610e105760008080549050905060006040518060e00160405280600081526020016000815260200160008152602001600081526020016000815260200160001515815260200160018152509080600181540180825580915050600190039060005260206000209060070201600090919091909150600082015181600001556020820151816001015560408201518160020155606082015181600301556080820151816004015560a08201518160050160006101000a81548160ff02191690831515021790555060c082015181600601555050336001600083815260200190815260200160002060006101000a81548173ffffffffffffffffffffffffffffffffffffffff021916908373ffffffffffffffffffffffffffffffffffffffff160217905550600360003373ffffffffffffffffffffffffffffffffffffffff1673ffffffffffffffffffffffffffffffffffffffff1681526020019081526020016000206000815480929190610db190611251565b919050555080838381518110610df0577f4e487b7100000000000000000000000000000000000000000000000000000000600052603260045260246000fd5b602002602001018181525050508080610e0890611251565b915050610c39565b503373ffffffffffffffffffffffffffffffffffffffff167fce4da1507f61651bc32ca862ea68b0475c1966d58fd2f176d12e3ccfee4c92ea82604051610e579190610ff2565b60405180910390a25050565b600081359050610e7281611370565b92915050565b600081359050610e8781611387565b92915050565b600060208284031215610e9f57600080fd5b6000610ead84828501610e63565b91505092915050565b600060208284031215610ec857600080fd5b6000610ed684828501610e78565b91505092915050565b6000610eeb8383610fb9565b60208301905092915050565b610f0081611209565b82525050565b6000610f11826110ee565b610f1b8185611106565b9350610f26836110de565b8060005b83811015610f57578151610f3e8882610edf565b9750610f49836110f9565b925050600181019050610f2a565b5085935050505092915050565b610f6d8161121b565b82525050565b6000610f80602683611117565b9150610f8b826112f8565b604082019050919050565b6000610fa3602083611117565b9150610fae82611347565b602082019050919050565b610fc281611247565b82525050565b610fd181611247565b82525050565b6000602082019050610fec6000830184610ef7565b92915050565b6000602082019050818103600083015261100c8184610f06565b905092915050565b6000602082019050818103600083015261102d81610f73565b9050919050565b6000602082019050818103600083015261104d81610f96565b9050919050565b60006020820190506110696000830184610fc8565b92915050565b600060e082019050611084600083018a610fc8565b6110916020830189610fc8565b61109e6040830188610fc8565b6110ab6060830187610fc8565b6110b86080830186610fc8565b6110c560a0830185610f64565b6110d260c0830184610fc8565b98975050505050505050565b6000819050602082019050919050565b600081519050919050565b6000602082019050919050565b600082825260208201905092915050565b600082825260208201905092915050565b600061113382611247565b915061113e83611247565b9250827fffffffffffffffffffffffffffffffffffffffffffffffffffffffffffffffff038211156111735761117261129a565b5b828201905092915050565b600061118982611247565b915061119483611247565b9250826111a4576111a36112c9565b5b828204905092915050565b60006111ba82611247565b91506111c583611247565b9250817fffffffffffffffffffffffffffffffffffffffffffffffffffffffffffffffff04831182151516156111fe576111fd61129a565b5b828202905092915050565b600061121482611227565b9050919050565b60008115159050919050565b600073ffffffffffffffffffffffffffffffffffffffff82169050919050565b6000819050919050565b600061125c82611247565b91507fffffffffffffffffffffffffffffffffffffffffffffffffffffffffffffffff82141561128f5761128e61129a565b5b600182019050919050565b7f4e487b7100000000000000000000000000000000000000000000000000000000600052601160045260246000fd5b7f4e487b7100000000000000000000000000000000000000000000000000000000600052601260045260246000fd5b7f4f776e61626c653a206e6577206f776e657220697320746865207a65726f206160008201527f6464726573730000000000000000000000000000000000000000000000000000602082015250565b7f4f776e61626c653a2063616c6c6572206973206e6f7420746865206f776e6572600082015250565b61137981611209565b811461138457600080fd5b50565b61139081611247565b811461139b57600080fd5b5056fea26469706673582212204cdff71aa7a024234d8db79fca6099052a52431e5df8420a05593488843dfe0e64736f6c63430008020033",
  "immutableReferences": {},
  "source": "// SPDX-License-Identifier: MIT\npragma solidity ^0.8.0;\nimport \"./SlotFactory.sol\";\ncontract SlotUpgrade is SlotFactory, Ownable{\n    uint levelUpFee = 0.001 ether;\n    function buySlot(uint _num) external payable {\n        require(msg.value == levelUpFee *_num);\n        _createCrops(_num);\n    }\n    function UpgradeSlot(uint _slotID) external payable {\n        require(msg.value == levelUpFee);\n        Slot storage mySlot = slots[_slotID];\n        mySlot.exp += 10*getLevel(mySlot.exp+1);\n    }\n    function withdraw() external onlyOwner {\n        payable(owner()).transfer(address(this).balance);\n    }\n    function setLevelUpFee(uint _fee) external onlyOwner {\n        levelUpFee = _fee;\n    }\n}",
  "sourcePath": "/Users/Cirno/Desktop/distributed_ether_farm-main/contracts/SlotUpgrade.sol",
  "compiler": {
    "name": "solc",
    "version": "0.8.2+commit.661d1103.Emscripten.clang"
  },
  "schemaVersion": "3.3.4",
  "updatedAt": "2021-03-14T20:58:05.372Z",
  "devdoc": {
    "kind": "dev",
    "methods": {
      "owner()": {
        "details": "Returns the address of the current owner."
      },
      "renounceOwnership()": {
        "details": "Leaves the contract without owner. It will not be possible to call `onlyOwner` functions anymore. Can only be called by the current owner. NOTE: Renouncing ownership will leave the contract without an owner, thereby removing any functionality that is only available to the owner."
      },
      "transferOwnership(address)": {
        "details": "Transfers ownership of the contract to a new account (`newOwner`). Can only be called by the current owner."
      }
    },
    "version": 1
  },
  "userdoc": {
    "kind": "user",
    "methods": {},
    "version": 1
  }
}