{
  "contractName": "SlotUpgrade",
  "abi": [
    {
      "anonymous": false,
      "inputs": [
        {
          "indexed": true,
          "internalType": "address",
          "name": "addr",
          "type": "address"
        },
        {
          "indexed": false,
          "internalType": "uint256[]",
          "name": "cropIDs",
          "type": "uint256[]"
        }
      ],
      "name": "createSlotEvent",
      "type": "event"
    },
    {
      "inputs": [
        {
          "internalType": "address",
          "name": "",
          "type": "address"
        }
      ],
      "name": "OwnerMoneyCount",
      "outputs": [
        {
          "internalType": "uint256",
          "name": "",
          "type": "uint256"
        }
      ],
      "stateMutability": "view",
      "type": "function",
      "constant": true
    },
    {
      "inputs": [
        {
          "internalType": "address",
          "name": "",
          "type": "address"
        }
      ],
      "name": "OwnerSlotCount",
      "outputs": [
        {
          "internalType": "uint256",
          "name": "",
          "type": "uint256"
        }
      ],
      "stateMutability": "view",
      "type": "function",
      "constant": true
    },
    {
      "inputs": [],
      "name": "createFarm",
      "outputs": [],
      "stateMutability": "nonpayable",
      "type": "function"
    },
    {
      "inputs": [
        {
          "internalType": "address",
          "name": "_owner",
          "type": "address"
        }
      ],
      "name": "getFarmByOwner",
      "outputs": [
        {
          "internalType": "uint256[]",
          "name": "",
          "type": "uint256[]"
        }
      ],
      "stateMutability": "view",
      "type": "function",
      "constant": true
    },
    {
      "inputs": [
        {
          "internalType": "uint256",
          "name": "level",
          "type": "uint256"
        }
      ],
      "name": "getLevel",
      "outputs": [
        {
          "internalType": "uint256",
          "name": "",
          "type": "uint256"
        }
      ],
      "stateMutability": "pure",
      "type": "function",
      "constant": true
    },
    {
      "inputs": [
        {
          "internalType": "uint256",
          "name": "",
          "type": "uint256"
        }
      ],
      "name": "slotToOwner",
      "outputs": [
        {
          "internalType": "address",
          "name": "",
          "type": "address"
        }
      ],
      "stateMutability": "view",
      "type": "function",
      "constant": true
    },
    {
      "inputs": [
        {
          "internalType": "uint256",
          "name": "",
          "type": "uint256"
        }
      ],
      "name": "slots",
      "outputs": [
        {
          "internalType": "uint256",
          "name": "cropID",
          "type": "uint256"
        },
        {
          "internalType": "uint256",
          "name": "grow_time",
          "type": "uint256"
        },
        {
          "internalType": "uint256",
          "name": "price",
          "type": "uint256"
        },
        {
          "internalType": "uint256",
          "name": "dry_time",
          "type": "uint256"
        },
        {
          "internalType": "uint256",
          "name": "grass_time",
          "type": "uint256"
        },
        {
          "internalType": "bool",
          "name": "stealed",
          "type": "bool"
        },
        {
          "internalType": "uint256",
          "name": "level",
          "type": "uint256"
        }
      ],
      "stateMutability": "view",
      "type": "function",
      "constant": true
    },
    {
      "inputs": [
        {
          "internalType": "uint256",
          "name": "_num",
          "type": "uint256"
        }
      ],
      "name": "buySlot",
      "outputs": [],
      "stateMutability": "payable",
      "type": "function",
      "payable": true
    },
    {
      "inputs": [
        {
          "internalType": "uint256",
          "name": "_slotID",
          "type": "uint256"
        }
      ],
      "name": "UpgradeSlot",
      "outputs": [],
      "stateMutability": "payable",
      "type": "function",
      "payable": true
    },
    {
      "inputs": [],
      "name": "withdraw",
      "outputs": [],
      "stateMutability": "nonpayable",
      "type": "function"
    },
    {
      "inputs": [
        {
          "internalType": "uint256",
          "name": "_fee",
          "type": "uint256"
        }
      ],
      "name": "setLevelUpFee",
      "outputs": [],
      "stateMutability": "nonpayable",
      "type": "function"
    }
  ],
  "bytecode": "0x608060405266038d7ea4c6800060045534801561001b57600080fd5b50610db88061002b6000396000f3fe60806040526004361061009c5760003560e01c8063575c25b011610064578063575c25b01461016b578063580405ba146101a857806386481d40146101e55780638871c9c514610222578063ab2874cb1461025f578063ccf670f81461027b5761009c565b80630c10e499146100a15780631d5ec3cb146100de57806327adc95e146100f5578063387dd9e9146101115780633ccfd60b14610154575b600080fd5b3480156100ad57600080fd5b506100c860048036038101906100c391906109a9565b6102a4565b6040516100d59190610a84565b60405180910390f35b3480156100ea57600080fd5b506100f36102d7565b005b61010f600480360381019061010a91906109a9565b61032d565b005b34801561011d57600080fd5b50610138600480360381019061013391906109a9565b6103c9565b60405161014b9796959493929190610adc565b60405180910390f35b34801561016057600080fd5b50610169610428565b005b34801561017757600080fd5b50610192600480360381019061018d9190610980565b61042a565b60405161019f9190610a9f565b60405180910390f35b3480156101b457600080fd5b506101cf60048036038101906101ca9190610980565b6105c9565b6040516101dc9190610ac1565b60405180910390f35b3480156101f157600080fd5b5061020c600480360381019061020791906109a9565b6105e1565b6040516102199190610ac1565b60405180910390f35b34801561022e57600080fd5b5061024960048036038101906102449190610980565b61061e565b6040516102569190610ac1565b60405180910390f35b610279600480360381019061027491906109a9565b610636565b005b34801561028757600080fd5b506102a2600480360381019061029d91906109a9565b61065b565b005b60016020528060005260406000206000915054906101000a900473ffffffffffffffffffffffffffffffffffffffff1681565b6000600360003373ffffffffffffffffffffffffffffffffffffffff1673ffffffffffffffffffffffffffffffffffffffff168152602001908152602001600020541461032357600080fd5b61032b610665565b565b600454341461033b57600080fd5b6000808281548110610376577f4e487b7100000000000000000000000000000000000000000000000000000000600052603260045260246000fd5b9060005260206000209060070201905061039f6001826006015461039a9190610b84565b6105e1565b600a6103ab9190610c0b565b8160060160008282546103be9190610b84565b925050819055505050565b600081815481106103d957600080fd5b90600052602060002090600702016000915090508060000154908060010154908060020154908060030154908060040154908060050160009054906101000a900460ff16908060060154905087565b565b60606000600360008473ffffffffffffffffffffffffffffffffffffffff1673ffffffffffffffffffffffffffffffffffffffff1681526020019081526020016000205467ffffffffffffffff8111156104ad577f4e487b7100000000000000000000000000000000000000000000000000000000600052604160045260246000fd5b6040519080825280602002602001820160405280156104db5781602001602082028036833780820191505090505b5090506000805b6000805490508110156105be578473ffffffffffffffffffffffffffffffffffffffff166001600083815260200190815260200160002060009054906101000a900473ffffffffffffffffffffffffffffffffffffffff1673ffffffffffffffffffffffffffffffffffffffff1614156105ab5780838381518110610590577f4e487b7100000000000000000000000000000000000000000000000000000000600052603260045260246000fd5b60200260200101818152505081806105a790610cad565b9250505b80806105b690610cad565b9150506104e2565b508192505050919050565b60026020528060005260406000206000915090505481565b60008082905060005b6000821461061457600a826105ff9190610bda565b9150808061060c90610cad565b9150506105ea565b8092505050919050565b60036020528060005260406000206000915090505481565b806004546106449190610c0b565b341461064f57600080fd5b610658816106b6565b50565b8060048190555050565b61066f60066106b6565b6064600260003373ffffffffffffffffffffffffffffffffffffffff1673ffffffffffffffffffffffffffffffffffffffff16815260200190815260200160002081905550565b60008167ffffffffffffffff8111156106f8577f4e487b7100000000000000000000000000000000000000000000000000000000600052604160045260246000fd5b6040519080825280602002602001820160405280156107265781602001602082028036833780820191505090505b50905060005b828110156109035760008080549050905060006040518060e00160405280600081526020016000815260200160008152602001600081526020016000815260200160001515815260200160018152509080600181540180825580915050600190039060005260206000209060070201600090919091909150600082015181600001556020820151816001015560408201518160020155606082015181600301556080820151816004015560a08201518160050160006101000a81548160ff02191690831515021790555060c082015181600601555050336001600083815260200190815260200160002060006101000a81548173ffffffffffffffffffffffffffffffffffffffff021916908373ffffffffffffffffffffffffffffffffffffffff160217905550600360003373ffffffffffffffffffffffffffffffffffffffff1673ffffffffffffffffffffffffffffffffffffffff16815260200190815260200160002060008154809291906108a490610cad565b9190505550808383815181106108e3577f4e487b7100000000000000000000000000000000000000000000000000000000600052603260045260246000fd5b6020026020010181815250505080806108fb90610cad565b91505061072c565b503373ffffffffffffffffffffffffffffffffffffffff167fce4da1507f61651bc32ca862ea68b0475c1966d58fd2f176d12e3ccfee4c92ea8260405161094a9190610a9f565b60405180910390a25050565b60008135905061096581610d54565b92915050565b60008135905061097a81610d6b565b92915050565b60006020828403121561099257600080fd5b60006109a084828501610956565b91505092915050565b6000602082840312156109bb57600080fd5b60006109c98482850161096b565b91505092915050565b60006109de8383610a66565b60208301905092915050565b6109f381610c65565b82525050565b6000610a0482610b5b565b610a0e8185610b73565b9350610a1983610b4b565b8060005b83811015610a4a578151610a3188826109d2565b9750610a3c83610b66565b925050600181019050610a1d565b5085935050505092915050565b610a6081610c77565b82525050565b610a6f81610ca3565b82525050565b610a7e81610ca3565b82525050565b6000602082019050610a9960008301846109ea565b92915050565b60006020820190508181036000830152610ab981846109f9565b905092915050565b6000602082019050610ad66000830184610a75565b92915050565b600060e082019050610af1600083018a610a75565b610afe6020830189610a75565b610b0b6040830188610a75565b610b186060830187610a75565b610b256080830186610a75565b610b3260a0830185610a57565b610b3f60c0830184610a75565b98975050505050505050565b6000819050602082019050919050565b600081519050919050565b6000602082019050919050565b600082825260208201905092915050565b6000610b8f82610ca3565b9150610b9a83610ca3565b9250827fffffffffffffffffffffffffffffffffffffffffffffffffffffffffffffffff03821115610bcf57610bce610cf6565b5b828201905092915050565b6000610be582610ca3565b9150610bf083610ca3565b925082610c0057610bff610d25565b5b828204905092915050565b6000610c1682610ca3565b9150610c2183610ca3565b9250817fffffffffffffffffffffffffffffffffffffffffffffffffffffffffffffffff0483118215151615610c5a57610c59610cf6565b5b828202905092915050565b6000610c7082610c83565b9050919050565b60008115159050919050565b600073ffffffffffffffffffffffffffffffffffffffff82169050919050565b6000819050919050565b6000610cb882610ca3565b91507fffffffffffffffffffffffffffffffffffffffffffffffffffffffffffffffff821415610ceb57610cea610cf6565b5b600182019050919050565b7f4e487b7100000000000000000000000000000000000000000000000000000000600052601160045260246000fd5b7f4e487b7100000000000000000000000000000000000000000000000000000000600052601260045260246000fd5b610d5d81610c65565b8114610d6857600080fd5b50565b610d7481610ca3565b8114610d7f57600080fd5b5056fea26469706673582212203b8d1974b8a67caf5b569b1c48fb0f4f569f3ff27f5032bf33942b413cc6cb8664736f6c63430008020033",
  "immutableReferences": {},
  "source": "pragma solidity ^0.8.0;\r\nimport \"./SlotFactory.sol\";\r\ncontract SlotUpgrade is SlotFactory {\r\n    uint levelUpFee = 0.001 ether;\r\n    function buySlot(uint _num) external payable {\r\n        require(msg.value == levelUpFee *_num);\r\n        _createCrops(_num);\r\n    }\r\n    function UpgradeSlot(uint _slotID) external payable {\r\n        require(msg.value == levelUpFee);\r\n        Slot storage mySlot = slots[_slotID];\r\n        mySlot.level += 10*getLevel(mySlot.level+1);\r\n    }\r\n    function withdraw() external /*onlyOwner*/ {\r\n        // owner.transfer(this.balance);\r\n    }\r\n    function setLevelUpFee(uint _fee) external /*onlyOwner*/ {\r\n        levelUpFee = _fee;\r\n    }\r\n    \r\n}",
  "sourcePath": "E:/CSC2125/project/contracts/SlotUpgrade.sol",
  "compiler": {
    "name": "solc",
    "version": "0.8.2+commit.661d1103.Emscripten.clang"
  },
  "schemaVersion": "3.3.4",
  "updatedAt": "2021-03-13T13:00:51.385Z",
  "networkType": "ethereum",
  "devdoc": {
    "kind": "dev",
    "methods": {},
    "version": 1
  },
  "userdoc": {
    "kind": "user",
    "methods": {},
    "version": 1
  }
}