{
  "contractName": "SlotManagement",
  "abi": [
    {
      "anonymous": false,
      "inputs": [
        {
          "indexed": true,
          "internalType": "address",
          "name": "addr",
          "type": "address"
        },
        {
          "indexed": false,
          "internalType": "uint256[]",
          "name": "cropIDs",
          "type": "uint256[]"
        }
      ],
      "name": "createSlotEvent",
      "type": "event"
    },
    {
      "anonymous": false,
      "inputs": [
        {
          "indexed": false,
          "internalType": "uint256",
          "name": "cropID",
          "type": "uint256"
        }
      ],
      "name": "deleteCropList",
      "type": "event"
    },
    {
      "anonymous": false,
      "inputs": [
        {
          "indexed": false,
          "internalType": "uint256",
          "name": "cropID",
          "type": "uint256"
        },
        {
          "indexed": false,
          "internalType": "uint256",
          "name": "grow_time",
          "type": "uint256"
        },
        {
          "indexed": false,
          "internalType": "uint256",
          "name": "price",
          "type": "uint256"
        },
        {
          "indexed": false,
          "internalType": "uint256",
          "name": "level",
          "type": "uint256"
        }
      ],
      "name": "updateCropList",
      "type": "event"
    },
    {
      "anonymous": false,
      "inputs": [
        {
          "indexed": true,
          "internalType": "address",
          "name": "owner",
          "type": "address"
        },
        {
          "indexed": false,
          "internalType": "uint256",
          "name": "slotID",
          "type": "uint256"
        },
        {
          "indexed": false,
          "internalType": "uint256",
          "name": "cropID",
          "type": "uint256"
        },
        {
          "indexed": false,
          "internalType": "uint256",
          "name": "grow_time",
          "type": "uint256"
        },
        {
          "indexed": false,
          "internalType": "uint256",
          "name": "price",
          "type": "uint256"
        },
        {
          "indexed": false,
          "internalType": "uint256",
          "name": "dry_time",
          "type": "uint256"
        },
        {
          "indexed": false,
          "internalType": "uint256",
          "name": "grass_time",
          "type": "uint256"
        },
        {
          "indexed": false,
          "internalType": "bool",
          "name": "stealed",
          "type": "bool"
        },
        {
          "indexed": false,
          "internalType": "uint256",
          "name": "level",
          "type": "uint256"
        }
      ],
      "name": "updateSlot",
      "type": "event"
    },
    {
      "inputs": [
        {
          "internalType": "address",
          "name": "",
          "type": "address"
        }
      ],
      "name": "OwnerMoneyCount",
      "outputs": [
        {
          "internalType": "uint256",
          "name": "",
          "type": "uint256"
        }
      ],
      "stateMutability": "view",
      "type": "function",
      "constant": true
    },
    {
      "inputs": [
        {
          "internalType": "address",
          "name": "",
          "type": "address"
        }
      ],
      "name": "OwnerSlotCount",
      "outputs": [
        {
          "internalType": "uint256",
          "name": "",
          "type": "uint256"
        }
      ],
      "stateMutability": "view",
      "type": "function",
      "constant": true
    },
    {
      "inputs": [],
      "name": "createFarm",
      "outputs": [],
      "stateMutability": "nonpayable",
      "type": "function"
    },
    {
      "inputs": [
        {
          "internalType": "uint256",
          "name": "",
          "type": "uint256"
        }
      ],
      "name": "cropsList",
      "outputs": [
        {
          "internalType": "uint256",
          "name": "cropID",
          "type": "uint256"
        },
        {
          "internalType": "uint256",
          "name": "grow_time",
          "type": "uint256"
        },
        {
          "internalType": "uint256",
          "name": "price",
          "type": "uint256"
        },
        {
          "internalType": "uint256",
          "name": "dry_time",
          "type": "uint256"
        },
        {
          "internalType": "uint256",
          "name": "grass_time",
          "type": "uint256"
        },
        {
          "internalType": "bool",
          "name": "stealed",
          "type": "bool"
        },
        {
          "internalType": "uint256",
          "name": "level",
          "type": "uint256"
        }
      ],
      "stateMutability": "view",
      "type": "function",
      "constant": true
    },
    {
      "inputs": [
        {
          "internalType": "address",
          "name": "_owner",
          "type": "address"
        }
      ],
      "name": "getFarmByOwner",
      "outputs": [
        {
          "internalType": "uint256[]",
          "name": "",
          "type": "uint256[]"
        }
      ],
      "stateMutability": "view",
      "type": "function",
      "constant": true
    },
    {
      "inputs": [
        {
          "internalType": "uint256",
          "name": "level",
          "type": "uint256"
        }
      ],
      "name": "getLevel",
      "outputs": [
        {
          "internalType": "uint256",
          "name": "",
          "type": "uint256"
        }
      ],
      "stateMutability": "pure",
      "type": "function",
      "constant": true
    },
    {
      "inputs": [
        {
          "internalType": "uint256",
          "name": "",
          "type": "uint256"
        }
      ],
      "name": "slotToOwner",
      "outputs": [
        {
          "internalType": "address",
          "name": "",
          "type": "address"
        }
      ],
      "stateMutability": "view",
      "type": "function",
      "constant": true
    },
    {
      "inputs": [
        {
          "internalType": "uint256",
          "name": "",
          "type": "uint256"
        }
      ],
      "name": "slots",
      "outputs": [
        {
          "internalType": "uint256",
          "name": "cropID",
          "type": "uint256"
        },
        {
          "internalType": "uint256",
          "name": "grow_time",
          "type": "uint256"
        },
        {
          "internalType": "uint256",
          "name": "price",
          "type": "uint256"
        },
        {
          "internalType": "uint256",
          "name": "dry_time",
          "type": "uint256"
        },
        {
          "internalType": "uint256",
          "name": "grass_time",
          "type": "uint256"
        },
        {
          "internalType": "bool",
          "name": "stealed",
          "type": "bool"
        },
        {
          "internalType": "uint256",
          "name": "level",
          "type": "uint256"
        }
      ],
      "stateMutability": "view",
      "type": "function",
      "constant": true
    },
    {
      "inputs": [
        {
          "internalType": "uint256",
          "name": "_cropID",
          "type": "uint256"
        },
        {
          "internalType": "uint256",
          "name": "_grow_time",
          "type": "uint256"
        },
        {
          "internalType": "uint256",
          "name": "_price",
          "type": "uint256"
        },
        {
          "internalType": "uint256",
          "name": "_level",
          "type": "uint256"
        }
      ],
      "name": "modInCropsList",
      "outputs": [],
      "stateMutability": "nonpayable",
      "type": "function"
    },
    {
      "inputs": [
        {
          "internalType": "uint256",
          "name": "_cropID",
          "type": "uint256"
        }
      ],
      "name": "delInCropsList",
      "outputs": [],
      "stateMutability": "nonpayable",
      "type": "function"
    },
    {
      "inputs": [
        {
          "internalType": "uint256",
          "name": "_cropID",
          "type": "uint256"
        },
        {
          "internalType": "uint256",
          "name": "_slotID",
          "type": "uint256"
        }
      ],
      "name": "plant",
      "outputs": [],
      "stateMutability": "nonpayable",
      "type": "function"
    },
    {
      "inputs": [
        {
          "internalType": "uint256",
          "name": "_slotID",
          "type": "uint256"
        }
      ],
      "name": "harvest",
      "outputs": [],
      "stateMutability": "nonpayable",
      "type": "function"
    },
    {
      "inputs": [
        {
          "internalType": "uint256",
          "name": "_slotID",
          "type": "uint256"
        }
      ],
      "name": "watering",
      "outputs": [],
      "stateMutability": "nonpayable",
      "type": "function"
    },
    {
      "inputs": [
        {
          "internalType": "uint256",
          "name": "_slotID",
          "type": "uint256"
        }
      ],
      "name": "weeding",
      "outputs": [],
      "stateMutability": "nonpayable",
      "type": "function"
    },
    {
      "inputs": [
        {
          "internalType": "uint256",
          "name": "_slotID",
          "type": "uint256"
        }
      ],
      "name": "steal",
      "outputs": [],
      "stateMutability": "nonpayable",
      "type": "function"
    }
  ],
  "bytecode": "0x608060405234801561001057600080fd5b50611dc4806100206000396000f3fe608060405234801561001057600080fd5b50600436106100f55760003560e01c80638871c9c511610097578063a9bf928f11610066578063a9bf928f1461029a578063b99c6e0a146102d0578063ddc63262146102ec578063e1928ac914610308576100f5565b80638871c9c51461021657806392658a28146102465780639bcf5f0c14610262578063a5c14ec71461027e576100f5565b8063575c25b0116100d3578063575c25b01461016a578063580405ba1461019a5780636099804d146101ca57806386481d40146101e6576100f5565b80630c10e499146100fa5780631d5ec3cb1461012a578063387dd9e914610134575b600080fd5b610114600480360381019061010f9190611690565b610324565b6040516101219190611873565b60405180910390f35b610132610357565b005b61014e60048036038101906101499190611690565b6103ad565b604051610161979695949392919061198e565b60405180910390f35b610184600480360381019061017f9190611667565b61040c565b604051610191919061188e565b60405180910390f35b6101b460048036038101906101af9190611667565b6105ab565b6040516101c191906118b0565b60405180910390f35b6101e460048036038101906101df9190611690565b6105c3565b005b61020060048036038101906101fb9190611690565b6106ab565b60405161020d91906118b0565b60405180910390f35b610230600480360381019061022b9190611667565b6106e8565b60405161023d91906118b0565b60405180910390f35b610260600480360381019061025b91906116b9565b610700565b005b61027c60048036038101906102779190611690565b610a07565b005b61029860048036038101906102939190611690565b610ba8565b005b6102b460048036038101906102af9190611690565b610d06565b6040516102c7979695949392919061198e565b60405180910390f35b6102ea60048036038101906102e59190611690565b610d55565b005b61030660048036038101906103019190611690565b610eb3565b005b610322600480360381019061031d91906116f5565b61111a565b005b60016020528060005260406000206000915054906101000a900473ffffffffffffffffffffffffffffffffffffffff1681565b6000600360003373ffffffffffffffffffffffffffffffffffffffff1673ffffffffffffffffffffffffffffffffffffffff16815260200190815260200160002054146103a357600080fd5b6103ab611207565b565b600081815481106103bd57600080fd5b90600052602060002090600702016000915090508060000154908060010154908060020154908060030154908060040154908060050160009054906101000a900460ff16908060060154905087565b60606000600360008473ffffffffffffffffffffffffffffffffffffffff1673ffffffffffffffffffffffffffffffffffffffff1681526020019081526020016000205467ffffffffffffffff81111561048f577f4e487b7100000000000000000000000000000000000000000000000000000000600052604160045260246000fd5b6040519080825280602002602001820160405280156104bd5781602001602082028036833780820191505090505b5090506000805b6000805490508110156105a0578473ffffffffffffffffffffffffffffffffffffffff166001600083815260200190815260200160002060009054906101000a900473ffffffffffffffffffffffffffffffffffffffff1673ffffffffffffffffffffffffffffffffffffffff16141561058d5780838381518110610572577f4e487b7100000000000000000000000000000000000000000000000000000000600052603260045260246000fd5b602002602001018181525050818061058990611c4d565b9250505b808061059890611c4d565b9150506104c4565b508192505050919050565b60026020528060005260406000206000915090505481565b6040518060e001604052806000815260200160008152602001600081526020016000815260200160008152602001600015158152602001600181525060046000838152602001908152602001600020600082015181600001556020820151816001015560408201518160020155606082015181600301556080820151816004015560a08201518160050160006101000a81548160ff02191690831515021790555060c082015181600601559050507fda5207af4ca2a8f617e7b6b247ccb5495c765df30e98c115443a569b8ac3d264816040516106a091906118b0565b60405180910390a150565b60008082905060005b600082146106de57600a826106c99190611b0a565b915080806106d690611c4d565b9150506106b4565b8092505050919050565b60036020528060005260406000206000915090505481565b806001600082815260200190815260200160002060009054906101000a900473ffffffffffffffffffffffffffffffffffffffff1673ffffffffffffffffffffffffffffffffffffffff163373ffffffffffffffffffffffffffffffffffffffff161461076c57600080fd5b60008083815481106107a7577f4e487b7100000000000000000000000000000000000000000000000000000000600052603260045260246000fd5b906000526020600020906007020190506000816000015414801561082057506004600085815260200190815260200160002060020154600260003373ffffffffffffffffffffffffffffffffffffffff1673ffffffffffffffffffffffffffffffffffffffff1681526020019081526020016000205410155b801561084e5750600460008581526020019081526020016000206006015461084b82600601546106ab565b10155b61085757600080fd5b6004600085815260200190815260200160002060020154600260003373ffffffffffffffffffffffffffffffffffffffff1673ffffffffffffffffffffffffffffffffffffffff168152602001908152602001600020546108b89190611b95565b600260003373ffffffffffffffffffffffffffffffffffffffff1673ffffffffffffffffffffffffffffffffffffffff1681526020019081526020016000208190555060046000858152602001908152602001600020600001548160000181905550600460008581526020019081526020016000206001015481600101819055506004600085815260200190815260200160002060020154816002018190555060008160050160006101000a81548160ff02191690831515021790555061097e81611258565b610987816112aa565b610990816112ea565b3373ffffffffffffffffffffffffffffffffffffffff167f4f0cb23b258deb04c50db92a3e8fe09691102acc7be902aad4acc1b9d218175e84868460010154856002015486600301548760040154600089600601546040516109f99897969594939291906119fd565b60405180910390a250505050565b6000808281548110610a42577f4e487b7100000000000000000000000000000000000000000000000000000000600052603260045260246000fd5b90600052602060002090600702019050610a5b8161132a565b610a6457600080fd5b8060050160009054906101000a900460ff1615610a8057600080fd5b8060020154600260003373ffffffffffffffffffffffffffffffffffffffff1673ffffffffffffffffffffffffffffffffffffffff16815260200190815260200160002054610acf9190611ab4565b600260003373ffffffffffffffffffffffffffffffffffffffff1673ffffffffffffffffffffffffffffffffffffffff1681526020019081526020016000208190555060018160050160006101000a81548160ff0219169083151502179055503373ffffffffffffffffffffffffffffffffffffffff167f4f0cb23b258deb04c50db92a3e8fe09691102acc7be902aad4acc1b9d218175e838360000154846001015485600201548660030154876004015460018960060154604051610b9c9897969594939291906119fd565b60405180910390a25050565b806001600082815260200190815260200160002060009054906101000a900473ffffffffffffffffffffffffffffffffffffffff1673ffffffffffffffffffffffffffffffffffffffff163373ffffffffffffffffffffffffffffffffffffffff1614610c1457600080fd5b6000808381548110610c4f577f4e487b7100000000000000000000000000000000000000000000000000000000600052603260045260246000fd5b90600052602060002090600702019050610c688161132a565b158015610c7a5750610c798161133b565b5b610c8357600080fd5b610c8c816112ea565b3373ffffffffffffffffffffffffffffffffffffffff167f4f0cb23b258deb04c50db92a3e8fe09691102acc7be902aad4acc1b9d218175e848360000154846001015485600201548660030154876004015460008960060154604051610cf99897969594939291906119fd565b60405180910390a2505050565b60046020528060005260406000206000915090508060000154908060010154908060020154908060030154908060040154908060050160009054906101000a900460ff16908060060154905087565b806001600082815260200190815260200160002060009054906101000a900473ffffffffffffffffffffffffffffffffffffffff1673ffffffffffffffffffffffffffffffffffffffff163373ffffffffffffffffffffffffffffffffffffffff1614610dc157600080fd5b6000808381548110610dfc577f4e487b7100000000000000000000000000000000000000000000000000000000600052603260045260246000fd5b90600052602060002090600702019050610e158161132a565b158015610e275750610e268161134c565b5b610e3057600080fd5b610e39816112aa565b3373ffffffffffffffffffffffffffffffffffffffff167f4f0cb23b258deb04c50db92a3e8fe09691102acc7be902aad4acc1b9d218175e848360000154846001015485600201548660030154876004015460008960060154604051610ea69897969594939291906119fd565b60405180910390a2505050565b806001600082815260200190815260200160002060009054906101000a900473ffffffffffffffffffffffffffffffffffffffff1673ffffffffffffffffffffffffffffffffffffffff163373ffffffffffffffffffffffffffffffffffffffff1614610f1f57600080fd5b6000808381548110610f5a577f4e487b7100000000000000000000000000000000000000000000000000000000600052603260045260246000fd5b90600052602060002090600702019050610f738161132a565b610f7c57600080fd5b600060059050816001015482600301541115610fa1578080610f9d90611c23565b9150505b816001015482600401541115610fc0578080610fbc90611c23565b9150505b8160050160009054906101000a900460ff1615610fe6578080610fe290611c23565b9150505b808260020154610ff69190611b3b565b600260003373ffffffffffffffffffffffffffffffffffffffff1673ffffffffffffffffffffffffffffffffffffffff168152602001908152602001600020546110409190611ab4565b600260003373ffffffffffffffffffffffffffffffffffffffff1673ffffffffffffffffffffffffffffffffffffffff168152602001908152602001600020819055506000826000018190555060058114156110b1578160060160008154809291906110ab90611c4d565b91905055505b3373ffffffffffffffffffffffffffffffffffffffff167f4f0cb23b258deb04c50db92a3e8fe09691102acc7be902aad4acc1b9d218175e856000806000806000808a6006015460405161110c9897969594939291906118cb565b60405180910390a250505050565b6040518060e0016040528085815260200184815260200183815260200160008152602001600081526020016000151581526020018281525060046000868152602001908152602001600020600082015181600001556020820151816001015560408201518160020155606082015181600301556080820151816004015560a08201518160050160006101000a81548160ff02191690831515021790555060c082015181600601559050507f0a99a7515cce8c21202b55bdd8c634a45cf0fc5ffc970a5faf445f6e26665057848484846040516111f99493929190611949565b60405180910390a150505050565b611211600661135d565b6064600260003373ffffffffffffffffffffffffffffffffffffffff1673ffffffffffffffffffffffffffffffffffffffff16815260200190815260200160002081905550565b8060060154600a6112699190611b95565b60046000836000015481526020019081526020016000206001015461128e9190611b3b565b426112999190611ab4565b63ffffffff16816001018190555050565b60646112c44283600101546112bf9190611b95565b6115fd565b426112cf9190611ab4565b6112d99190611ab4565b63ffffffff16816003018190555050565b60646113044283600101546112ff9190611b95565b6115fd565b4261130f9190611ab4565b6113199190611ab4565b63ffffffff16816004018190555050565b600042826001015411159050919050565b600042826004015411159050919050565b600042826003015411159050919050565b60008167ffffffffffffffff81111561139f577f4e487b7100000000000000000000000000000000000000000000000000000000600052604160045260246000fd5b6040519080825280602002602001820160405280156113cd5781602001602082028036833780820191505090505b50905060005b828110156115aa5760008080549050905060006040518060e00160405280600081526020016000815260200160008152602001600081526020016000815260200160001515815260200160018152509080600181540180825580915050600190039060005260206000209060070201600090919091909150600082015181600001556020820151816001015560408201518160020155606082015181600301556080820151816004015560a08201518160050160006101000a81548160ff02191690831515021790555060c082015181600601555050336001600083815260200190815260200160002060006101000a81548173ffffffffffffffffffffffffffffffffffffffff021916908373ffffffffffffffffffffffffffffffffffffffff160217905550600360003373ffffffffffffffffffffffffffffffffffffffff1673ffffffffffffffffffffffffffffffffffffffff168152602001908152602001600020600081548092919061154b90611c4d565b91905055508083838151811061158a577f4e487b7100000000000000000000000000000000000000000000000000000000600052603260045260246000fd5b6020026020010181815250505080806115a290611c4d565b9150506113d3565b503373ffffffffffffffffffffffffffffffffffffffff167fce4da1507f61651bc32ca862ea68b0475c1966d58fd2f176d12e3ccfee4c92ea826040516115f1919061188e565b60405180910390a25050565b6000813342604051602001611613929190611847565b6040516020818303038152906040528051906020012060001c6116369190611cc4565b9050919050565b60008135905061164c81611d60565b92915050565b60008135905061166181611d77565b92915050565b60006020828403121561167957600080fd5b60006116878482850161163d565b91505092915050565b6000602082840312156116a257600080fd5b60006116b084828501611652565b91505092915050565b600080604083850312156116cc57600080fd5b60006116da85828601611652565b92505060206116eb85828601611652565b9150509250929050565b6000806000806080858703121561170b57600080fd5b600061171987828801611652565b945050602061172a87828801611652565b935050604061173b87828801611652565b925050606061174c87828801611652565b91505092959194509250565b60006117648383611812565b60208301905092915050565b61177981611bc9565b82525050565b61179061178b82611bc9565b611c96565b82525050565b60006117a182611a8b565b6117ab8185611aa3565b93506117b683611a7b565b8060005b838110156117e75781516117ce8882611758565b97506117d983611a96565b9250506001810190506117ba565b5085935050505092915050565b6117fd81611bdb565b82525050565b61180c81611c11565b82525050565b61181b81611c07565b82525050565b61182a81611c07565b82525050565b61184161183c82611c07565b611cba565b82525050565b6000611853828561177f565b6014820191506118638284611830565b6020820191508190509392505050565b60006020820190506118886000830184611770565b92915050565b600060208201905081810360008301526118a88184611796565b905092915050565b60006020820190506118c56000830184611821565b92915050565b6000610100820190506118e1600083018b611821565b6118ee602083018a611803565b6118fb6040830189611803565b6119086060830188611803565b6119156080830187611803565b61192260a0830186611803565b61192f60c08301856117f4565b61193c60e0830184611821565b9998505050505050505050565b600060808201905061195e6000830187611821565b61196b6020830186611821565b6119786040830185611821565b6119856060830184611821565b95945050505050565b600060e0820190506119a3600083018a611821565b6119b06020830189611821565b6119bd6040830188611821565b6119ca6060830187611821565b6119d76080830186611821565b6119e460a08301856117f4565b6119f160c0830184611821565b98975050505050505050565b600061010082019050611a13600083018b611821565b611a20602083018a611821565b611a2d6040830189611821565b611a3a6060830188611821565b611a476080830187611821565b611a5460a0830186611821565b611a6160c08301856117f4565b611a6e60e0830184611821565b9998505050505050505050565b6000819050602082019050919050565b600081519050919050565b6000602082019050919050565b600082825260208201905092915050565b6000611abf82611c07565b9150611aca83611c07565b9250827fffffffffffffffffffffffffffffffffffffffffffffffffffffffffffffffff03821115611aff57611afe611cf5565b5b828201905092915050565b6000611b1582611c07565b9150611b2083611c07565b925082611b3057611b2f611d24565b5b828204905092915050565b6000611b4682611c07565b9150611b5183611c07565b9250817fffffffffffffffffffffffffffffffffffffffffffffffffffffffffffffffff0483118215151615611b8a57611b89611cf5565b5b828202905092915050565b6000611ba082611c07565b9150611bab83611c07565b925082821015611bbe57611bbd611cf5565b5b828203905092915050565b6000611bd482611be7565b9050919050565b60008115159050919050565b600073ffffffffffffffffffffffffffffffffffffffff82169050919050565b6000819050919050565b6000611c1c82611c07565b9050919050565b6000611c2e82611c07565b91506000821415611c4257611c41611cf5565b5b600182039050919050565b6000611c5882611c07565b91507fffffffffffffffffffffffffffffffffffffffffffffffffffffffffffffffff821415611c8b57611c8a611cf5565b5b600182019050919050565b6000611ca182611ca8565b9050919050565b6000611cb382611d53565b9050919050565b6000819050919050565b6000611ccf82611c07565b9150611cda83611c07565b925082611cea57611ce9611d24565b5b828206905092915050565b7f4e487b7100000000000000000000000000000000000000000000000000000000600052601160045260246000fd5b7f4e487b7100000000000000000000000000000000000000000000000000000000600052601260045260246000fd5b60008160601b9050919050565b611d6981611bc9565b8114611d7457600080fd5b50565b611d8081611c07565b8114611d8b57600080fd5b5056fea2646970667358221220cbf7b9a236d3b13cce47c2bd27bc72fdaeb26f7cb49af694d0f168416f7839e564736f6c63430008020033",
  "immutableReferences": {},
  "source": "pragma solidity ^0.8.0;\r\nimport \"./SlotFactory.sol\";\r\ncontract SlotManagement is SlotFactory {\r\n    event updateSlot(address indexed owner, uint slotID,uint cropID,uint grow_time,uint price,uint dry_time,uint grass_time,bool stealed, uint level);\r\n    event updateCropList(uint cropID,uint grow_time, uint price, uint level);\r\n    event deleteCropList(uint cropID);\r\n    mapping (uint => Slot) public cropsList;\r\n\r\n    modifier ownerOf(uint _slotID) {\r\n        require(msg.sender == slotToOwner[_slotID]);\r\n        _;\r\n    }\r\n    function _randomNumber(uint _limit) internal view returns (uint) {\r\n        return uint(keccak256(abi.encodePacked(msg.sender, block.timestamp))) % _limit;\r\n\r\n    }\r\n    function modInCropsList(uint _cropID, uint _grow_time, uint _price, uint _level) external {\r\n        cropsList[_cropID] = Slot(_cropID, _grow_time, _price, 0, 0, false, _level);\r\n        emit updateCropList(_cropID, _grow_time, _price, _level);\r\n    }\r\n    function delInCropsList(uint _cropID) external {\r\n        cropsList[_cropID] = Slot(0, 0, 0, 0, 0, false, 1);\r\n        emit deleteCropList(_cropID);\r\n    }\r\n    function _triggerGrow(Slot storage _slot) internal {\r\n        _slot.grow_time = uint32(block.timestamp + (cropsList[_slot.cropID].grow_time * (10-_slot.level)));\r\n    }\r\n    function _triggerDry(Slot storage _slot) internal {\r\n        _slot.dry_time = uint32(block.timestamp + _randomNumber(_slot.grow_time - block.timestamp) + 100);\r\n    }\r\n    function _triggerGrass(Slot storage _slot) internal {\r\n        _slot.grass_time = uint32(block.timestamp + _randomNumber(_slot.grow_time - block.timestamp) + 100);\r\n    }\r\n    function _isReady(Slot storage _slot) internal view returns (bool) {\r\n        return (_slot.grow_time <= block.timestamp);\r\n    }\r\n    function _isDry(Slot storage _slot) internal view returns (bool) {\r\n        return (_slot.dry_time <= block.timestamp);\r\n    }\r\n    function _isGrass(Slot storage _slot) internal view returns (bool) {\r\n        return (_slot.grass_time <= block.timestamp);\r\n    }\r\n\r\n    function plant(uint _cropID, uint _slotID) public ownerOf(_slotID){\r\n        Slot storage mySlot = slots[_slotID];\r\n        require(mySlot.cropID == 0 && OwnerMoneyCount[msg.sender] >= cropsList[_cropID].price && getLevel(mySlot.level) >=cropsList[_cropID].level);\r\n        OwnerMoneyCount[msg.sender] = OwnerMoneyCount[msg.sender] - (cropsList[_cropID].price);\r\n        mySlot.cropID = cropsList[_cropID].cropID;\r\n        mySlot.grow_time = cropsList[_cropID].grow_time;\r\n        mySlot.price = cropsList[_cropID].price;\r\n        mySlot.stealed = false;\r\n        _triggerGrow(mySlot);\r\n        _triggerDry(mySlot);\r\n        _triggerGrass(mySlot);\r\n        emit updateSlot(msg.sender, _slotID, _cropID, mySlot.grow_time, mySlot.price, mySlot.dry_time, mySlot.grass_time, false, mySlot.level);\r\n    }\r\n    function harvest(uint _slotID) public ownerOf(_slotID){\r\n        Slot storage mySlot = slots[_slotID];\r\n        require(_isReady(mySlot));\r\n        uint _tag = 5;\r\n        if(mySlot.dry_time > mySlot.grow_time){\r\n            _tag --;\r\n        }\r\n        if(mySlot.grass_time > mySlot.grow_time){\r\n            _tag --;\r\n        }\r\n        if(mySlot.stealed){\r\n            _tag --;\r\n        }\r\n        OwnerMoneyCount[msg.sender] = OwnerMoneyCount[msg.sender] + (mySlot.price * _tag);\r\n        mySlot.cropID = 0;\r\n        if(_tag == 5){\r\n            mySlot.level ++;\r\n        }\r\n        emit updateSlot(msg.sender, _slotID, 0, 0, 0, 0, 0, false, mySlot.level);\r\n\r\n    }\r\n\r\n    function watering(uint _slotID) public ownerOf(_slotID){\r\n        Slot storage mySlot = slots[_slotID];\r\n        require(! _isReady(mySlot) && _isDry(mySlot));\r\n        _triggerDry(mySlot);\r\n        emit updateSlot(msg.sender, _slotID, mySlot.cropID, mySlot.grow_time, mySlot.price, mySlot.dry_time, mySlot.grass_time, false, mySlot.level);\r\n\r\n    }\r\n    function weeding(uint _slotID) public ownerOf(_slotID){\r\n        Slot storage mySlot = slots[_slotID];\r\n        require(! _isReady(mySlot) && _isGrass(mySlot));\r\n        _triggerGrass(mySlot);\r\n        emit updateSlot(msg.sender, _slotID, mySlot.cropID, mySlot.grow_time, mySlot.price, mySlot.dry_time, mySlot.grass_time, false, mySlot.level);\r\n\r\n    }\r\n    function steal(uint _slotID) public {\r\n        Slot storage mySlot = slots[_slotID];\r\n        require(_isReady(mySlot));\r\n        require(!mySlot.stealed);\r\n        OwnerMoneyCount[msg.sender] = OwnerMoneyCount[msg.sender] + (mySlot.price);\r\n        mySlot.stealed = true;\r\n        emit updateSlot(msg.sender, _slotID, mySlot.cropID, mySlot.grow_time, mySlot.price, mySlot.dry_time, mySlot.grass_time, true, mySlot.level);\r\n\r\n    }\r\n}",
  "sourcePath": "E:/CSC2125/project/contracts/SlotManagement.sol",
  "compiler": {
    "name": "solc",
    "version": "0.8.2+commit.661d1103.Emscripten.clang"
  },
  "schemaVersion": "3.3.4",
  "updatedAt": "2021-03-13T13:00:51.378Z",
  "networkType": "ethereum",
  "devdoc": {
    "kind": "dev",
    "methods": {},
    "version": 1
  },
  "userdoc": {
    "kind": "user",
    "methods": {},
    "version": 1
  }
}