{
  "contractName": "SlotOwnership",
  "abi": [
    {
      "inputs": [],
      "stateMutability": "nonpayable",
      "type": "constructor"
    },
    {
      "anonymous": false,
      "inputs": [
        {
          "indexed": true,
          "internalType": "address",
          "name": "owner",
          "type": "address"
        },
        {
          "indexed": true,
          "internalType": "address",
          "name": "approved",
          "type": "address"
        },
        {
          "indexed": true,
          "internalType": "uint256",
          "name": "tokenId",
          "type": "uint256"
        }
      ],
      "name": "Approval",
      "type": "event"
    },
    {
      "anonymous": false,
      "inputs": [
        {
          "indexed": true,
          "internalType": "address",
          "name": "owner",
          "type": "address"
        },
        {
          "indexed": true,
          "internalType": "address",
          "name": "operator",
          "type": "address"
        },
        {
          "indexed": false,
          "internalType": "bool",
          "name": "approved",
          "type": "bool"
        }
      ],
      "name": "ApprovalForAll",
      "type": "event"
    },
    {
      "anonymous": false,
      "inputs": [
        {
          "indexed": true,
          "internalType": "address",
          "name": "from",
          "type": "address"
        },
        {
          "indexed": true,
          "internalType": "address",
          "name": "to",
          "type": "address"
        },
        {
          "indexed": true,
          "internalType": "uint256",
          "name": "tokenId",
          "type": "uint256"
        }
      ],
      "name": "Transfer",
      "type": "event"
    },
    {
      "anonymous": false,
      "inputs": [
        {
          "indexed": true,
          "internalType": "address",
          "name": "addr",
          "type": "address"
        },
        {
          "indexed": false,
          "internalType": "uint256[]",
          "name": "cropIDs",
          "type": "uint256[]"
        }
      ],
      "name": "createSlotEvent",
      "type": "event"
    },
    {
      "inputs": [
        {
          "internalType": "address",
          "name": "",
          "type": "address"
        }
      ],
      "name": "OwnerMoneyCount",
      "outputs": [
        {
          "internalType": "uint256",
          "name": "",
          "type": "uint256"
        }
      ],
      "stateMutability": "view",
      "type": "function"
    },
    {
      "inputs": [
        {
          "internalType": "address",
          "name": "",
          "type": "address"
        }
      ],
      "name": "OwnerSlotCount",
      "outputs": [
        {
          "internalType": "uint256",
          "name": "",
          "type": "uint256"
        }
      ],
      "stateMutability": "view",
      "type": "function"
    },
    {
      "inputs": [],
      "name": "createFarm",
      "outputs": [],
      "stateMutability": "nonpayable",
      "type": "function"
    },
    {
      "inputs": [
        {
          "internalType": "uint256",
          "name": "tokenId",
          "type": "uint256"
        }
      ],
      "name": "getApproved",
      "outputs": [
        {
          "internalType": "address",
          "name": "",
          "type": "address"
        }
      ],
      "stateMutability": "view",
      "type": "function"
    },
    {
      "inputs": [
        {
          "internalType": "address",
          "name": "_owner",
          "type": "address"
        }
      ],
      "name": "getFarmByOwner",
      "outputs": [
        {
          "internalType": "uint256[]",
          "name": "",
          "type": "uint256[]"
        }
      ],
      "stateMutability": "view",
      "type": "function"
    },
    {
      "inputs": [
        {
          "internalType": "uint256",
          "name": "exp",
          "type": "uint256"
        }
      ],
      "name": "getLevel",
      "outputs": [
        {
          "internalType": "uint256",
          "name": "",
          "type": "uint256"
        }
      ],
      "stateMutability": "pure",
      "type": "function"
    },
    {
      "inputs": [
        {
          "internalType": "address",
          "name": "owner",
          "type": "address"
        },
        {
          "internalType": "address",
          "name": "operator",
          "type": "address"
        }
      ],
      "name": "isApprovedForAll",
      "outputs": [
        {
          "internalType": "bool",
          "name": "",
          "type": "bool"
        }
      ],
      "stateMutability": "view",
      "type": "function"
    },
    {
      "inputs": [],
      "name": "name",
      "outputs": [
        {
          "internalType": "string",
          "name": "",
          "type": "string"
        }
      ],
      "stateMutability": "view",
      "type": "function"
    },
    {
      "inputs": [
        {
          "internalType": "address",
          "name": "from",
          "type": "address"
        },
        {
          "internalType": "address",
          "name": "to",
          "type": "address"
        },
        {
          "internalType": "uint256",
          "name": "tokenId",
          "type": "uint256"
        }
      ],
      "name": "safeTransferFrom",
      "outputs": [],
      "stateMutability": "nonpayable",
      "type": "function"
    },
    {
      "inputs": [
        {
          "internalType": "address",
          "name": "from",
          "type": "address"
        },
        {
          "internalType": "address",
          "name": "to",
          "type": "address"
        },
        {
          "internalType": "uint256",
          "name": "tokenId",
          "type": "uint256"
        },
        {
          "internalType": "bytes",
          "name": "_data",
          "type": "bytes"
        }
      ],
      "name": "safeTransferFrom",
      "outputs": [],
      "stateMutability": "nonpayable",
      "type": "function"
    },
    {
      "inputs": [
        {
          "internalType": "address",
          "name": "operator",
          "type": "address"
        },
        {
          "internalType": "bool",
          "name": "approved",
          "type": "bool"
        }
      ],
      "name": "setApprovalForAll",
      "outputs": [],
      "stateMutability": "nonpayable",
      "type": "function"
    },
    {
      "inputs": [
        {
          "internalType": "uint256",
          "name": "",
          "type": "uint256"
        }
      ],
      "name": "slotToOwner",
      "outputs": [
        {
          "internalType": "address",
          "name": "",
          "type": "address"
        }
      ],
      "stateMutability": "view",
      "type": "function"
    },
    {
      "inputs": [
        {
          "internalType": "uint256",
          "name": "",
          "type": "uint256"
        }
      ],
      "name": "slots",
      "outputs": [
        {
          "internalType": "uint256",
          "name": "cropID",
          "type": "uint256"
        },
        {
          "internalType": "uint256",
          "name": "grow_time",
          "type": "uint256"
        },
        {
          "internalType": "uint256",
          "name": "price",
          "type": "uint256"
        },
        {
          "internalType": "uint256",
          "name": "dry_time",
          "type": "uint256"
        },
        {
          "internalType": "uint256",
          "name": "grass_time",
          "type": "uint256"
        },
        {
          "internalType": "bool",
          "name": "stealed",
          "type": "bool"
        },
        {
          "internalType": "uint256",
          "name": "exp",
          "type": "uint256"
        }
      ],
      "stateMutability": "view",
      "type": "function"
    },
    {
      "inputs": [
        {
          "internalType": "bytes4",
          "name": "interfaceId",
          "type": "bytes4"
        }
      ],
      "name": "supportsInterface",
      "outputs": [
        {
          "internalType": "bool",
          "name": "",
          "type": "bool"
        }
      ],
      "stateMutability": "view",
      "type": "function"
    },
    {
      "inputs": [],
      "name": "symbol",
      "outputs": [
        {
          "internalType": "string",
          "name": "",
          "type": "string"
        }
      ],
      "stateMutability": "view",
      "type": "function"
    },
    {
      "inputs": [
        {
          "internalType": "uint256",
          "name": "tokenId",
          "type": "uint256"
        }
      ],
      "name": "tokenURI",
      "outputs": [
        {
          "internalType": "string",
          "name": "",
          "type": "string"
        }
      ],
      "stateMutability": "view",
      "type": "function"
    },
    {
      "inputs": [
        {
          "internalType": "address",
          "name": "_owner",
          "type": "address"
        }
      ],
      "name": "balanceOf",
      "outputs": [
        {
          "internalType": "uint256",
          "name": "_balance",
          "type": "uint256"
        }
      ],
      "stateMutability": "view",
      "type": "function"
    },
    {
      "inputs": [
        {
          "internalType": "uint256",
          "name": "_slotID",
          "type": "uint256"
        }
      ],
      "name": "ownerOf",
      "outputs": [
        {
          "internalType": "address",
          "name": "_owner",
          "type": "address"
        }
      ],
      "stateMutability": "view",
      "type": "function"
    },
    {
      "inputs": [
        {
          "internalType": "address",
          "name": "_to",
          "type": "address"
        },
        {
          "internalType": "uint256",
          "name": "_slotID",
          "type": "uint256"
        }
      ],
      "name": "transfer",
      "outputs": [],
      "stateMutability": "nonpayable",
      "type": "function"
    },
    {
      "inputs": [
        {
          "internalType": "address",
          "name": "_from",
          "type": "address"
        },
        {
          "internalType": "address",
          "name": "_to",
          "type": "address"
        },
        {
          "internalType": "uint256",
          "name": "_slotID",
          "type": "uint256"
        }
      ],
      "name": "transferFrom",
      "outputs": [],
      "stateMutability": "nonpayable",
      "type": "function"
    },
    {
      "inputs": [
        {
          "internalType": "address",
          "name": "_to",
          "type": "address"
        },
        {
          "internalType": "uint256",
          "name": "_slotID",
          "type": "uint256"
        }
      ],
      "name": "approve",
      "outputs": [],
      "stateMutability": "nonpayable",
      "type": "function"
    },
    {
      "inputs": [
        {
          "internalType": "uint256",
          "name": "_slotID",
          "type": "uint256"
        }
      ],
      "name": "takeOwnership",
      "outputs": [],
      "stateMutability": "nonpayable",
      "type": "function"
    }
  ],
  "bytecode": "0x60806040523480156200001157600080fd5b506040518060400160405280600481526020017f536c6f74000000000000000000000000000000000000000000000000000000008152506040518060400160405280600381526020017f46414d0000000000000000000000000000000000000000000000000000000000815250816004908051906020019062000096929190620000b8565b508060059080519060200190620000af929190620000b8565b505050620001cd565b828054620000c69062000168565b90600052602060002090601f016020900481019282620000ea576000855562000136565b82601f106200010557805160ff191683800117855562000136565b8280016001018555821562000136579182015b828111156200013557825182559160200191906001019062000118565b5b50905062000145919062000149565b5090565b5b80821115620001645760008160009055506001016200014a565b5090565b600060028204905060018216806200018157607f821691505b602082108114156200019857620001976200019e565b5b50919050565b7f4e487b7100000000000000000000000000000000000000000000000000000000600052602260045260246000fd5b61293a80620001dd6000396000f3fe608060405234801561001057600080fd5b50600436106101425760003560e01c80636352211e116100b8578063a22cb4651161007c578063a22cb465146103c7578063a9059cbb146103e3578063b2e6ceeb146103ff578063b88d4fde1461041b578063c87b56dd14610437578063e985e9c51461046757610142565b80636352211e146102e957806370a082311461031957806386481d40146103495780638871c9c51461037957806395d89b41146103a957610142565b80631d5ec3cb1161010a5780631d5ec3cb1461021157806323b872dd1461021b578063387dd9e91461023757806342842e0e1461026d578063575c25b014610289578063580405ba146102b957610142565b806301ffc9a71461014757806306fdde0314610177578063081812fc14610195578063095ea7b3146101c55780630c10e499146101e1575b600080fd5b610161600480360381019061015c9190611d75565b610497565b60405161016e91906120e7565b60405180910390f35b61017f610579565b60405161018c9190612102565b60405180910390f35b6101af60048036038101906101aa9190611dc7565b61060b565b6040516101bc919061205e565b60405180910390f35b6101df60048036038101906101da9190611d39565b610690565b005b6101fb60048036038101906101f69190611dc7565b6107ae565b604051610208919061205e565b60405180910390f35b6102196107e1565b005b61023560048036038101906102309190611c33565b610837565b005b610251600480360381019061024c9190611dc7565b6108b4565b604051610264979695949392919061221f565b60405180910390f35b61028760048036038101906102829190611c33565b610913565b005b6102a3600480360381019061029e9190611bce565b610933565b6040516102b091906120c5565b60405180910390f35b6102d360048036038101906102ce9190611bce565b610ad2565b6040516102e09190612204565b60405180910390f35b61030360048036038101906102fe9190611dc7565b610aea565b604051610310919061205e565b60405180910390f35b610333600480360381019061032e9190611bce565b610b27565b6040516103409190612204565b60405180910390f35b610363600480360381019061035e9190611dc7565b610b70565b6040516103709190612204565b60405180910390f35b610393600480360381019061038e9190611bce565b610bad565b6040516103a09190612204565b60405180910390f35b6103b1610bc5565b6040516103be9190612102565b60405180910390f35b6103e160048036038101906103dc9190611cfd565b610c57565b005b6103fd60048036038101906103f89190611d39565b610dd8565b005b61041960048036038101906104149190611dc7565b610e54565b005b61043560048036038101906104309190611c82565b610edb565b005b610451600480360381019061044c9190611dc7565b610f3d565b60405161045e9190612102565b60405180910390f35b610481600480360381019061047c9190611bf7565b610fe4565b60405161048e91906120e7565b60405180910390f35b60007f80ac58cd000000000000000000000000000000000000000000000000000000007bffffffffffffffffffffffffffffffffffffffffffffffffffffffff1916827bffffffffffffffffffffffffffffffffffffffffffffffffffffffff1916148061056257507f5b5e139f000000000000000000000000000000000000000000000000000000007bffffffffffffffffffffffffffffffffffffffffffffffffffffffff1916827bffffffffffffffffffffffffffffffffffffffffffffffffffffffff1916145b80610572575061057182611078565b5b9050919050565b606060048054610588906124fb565b80601f01602080910402602001604051908101604052809291908181526020018280546105b4906124fb565b80156106015780601f106105d657610100808354040283529160200191610601565b820191906000526020600020905b8154815290600101906020018083116105e457829003601f168201915b5050505050905090565b6000610616826110e2565b610655576040517f08c379a000000000000000000000000000000000000000000000000000000000815260040161064c906121a4565b60405180910390fd5b6008600083815260200190815260200160002060009054906101000a900473ffffffffffffffffffffffffffffffffffffffff169050919050565b806001600082815260200190815260200160002060009054906101000a900473ffffffffffffffffffffffffffffffffffffffff1673ffffffffffffffffffffffffffffffffffffffff163373ffffffffffffffffffffffffffffffffffffffff16146106fc57600080fd5b82600a600084815260200190815260200160002060006101000a81548173ffffffffffffffffffffffffffffffffffffffff021916908373ffffffffffffffffffffffffffffffffffffffff160217905550818373ffffffffffffffffffffffffffffffffffffffff163373ffffffffffffffffffffffffffffffffffffffff167f8c5be1e5ebec7d5bd14f71427d1e84f3dd0314c0f7b2291e5b200ac8c7c3b92560405160405180910390a4505050565b60016020528060005260406000206000915054906101000a900473ffffffffffffffffffffffffffffffffffffffff1681565b6000600360003373ffffffffffffffffffffffffffffffffffffffff1673ffffffffffffffffffffffffffffffffffffffff168152602001908152602001600020541461082d57600080fd5b61083561114e565b565b806001600082815260200190815260200160002060009054906101000a900473ffffffffffffffffffffffffffffffffffffffff1673ffffffffffffffffffffffffffffffffffffffff163373ffffffffffffffffffffffffffffffffffffffff16146108a357600080fd5b6108ae84848461119f565b50505050565b600081815481106108c457600080fd5b90600052602060002090600702016000915090508060000154908060010154908060020154908060030154908060040154908060050160009054906101000a900460ff16908060060154905087565b61092e83838360405180602001604052806000815250610edb565b505050565b60606000600360008473ffffffffffffffffffffffffffffffffffffffff1673ffffffffffffffffffffffffffffffffffffffff1681526020019081526020016000205467ffffffffffffffff8111156109b6577f4e487b7100000000000000000000000000000000000000000000000000000000600052604160045260246000fd5b6040519080825280602002602001820160405280156109e45781602001602082028036833780820191505090505b5090506000805b600080549050811015610ac7578473ffffffffffffffffffffffffffffffffffffffff166001600083815260200190815260200160002060009054906101000a900473ffffffffffffffffffffffffffffffffffffffff1673ffffffffffffffffffffffffffffffffffffffff161415610ab45780838381518110610a99577f4e487b7100000000000000000000000000000000000000000000000000000000600052603260045260246000fd5b6020026020010181815250508180610ab09061255e565b9250505b8080610abf9061255e565b9150506109eb565b508192505050919050565b60026020528060005260406000206000915090505481565b60006001600083815260200190815260200160002060009054906101000a900473ffffffffffffffffffffffffffffffffffffffff169050919050565b6000600360008373ffffffffffffffffffffffffffffffffffffffff1673ffffffffffffffffffffffffffffffffffffffff168152602001908152602001600020549050919050565b60008082905060005b60008214610ba357600a82610b8e91906123b6565b91508080610b9b9061255e565b915050610b79565b8092505050919050565b60036020528060005260406000206000915090505481565b606060058054610bd4906124fb565b80601f0160208091040260200160405190810160405280929190818152602001828054610c00906124fb565b8015610c4d5780601f10610c2257610100808354040283529160200191610c4d565b820191906000526020600020905b815481529060010190602001808311610c3057829003601f168201915b5050505050905090565b610c5f6112fb565b73ffffffffffffffffffffffffffffffffffffffff168273ffffffffffffffffffffffffffffffffffffffff161415610ccd576040517f08c379a0000000000000000000000000000000000000000000000000000000008152600401610cc490612144565b60405180910390fd5b8060096000610cda6112fb565b73ffffffffffffffffffffffffffffffffffffffff1673ffffffffffffffffffffffffffffffffffffffff16815260200190815260200160002060008473ffffffffffffffffffffffffffffffffffffffff1673ffffffffffffffffffffffffffffffffffffffff16815260200190815260200160002060006101000a81548160ff0219169083151502179055508173ffffffffffffffffffffffffffffffffffffffff16610d876112fb565b73ffffffffffffffffffffffffffffffffffffffff167f17307eab39ab6107e8899845ad3d59bd9653f200f220920489ca2b5937696c3183604051610dcc91906120e7565b60405180910390a35050565b806001600082815260200190815260200160002060009054906101000a900473ffffffffffffffffffffffffffffffffffffffff1673ffffffffffffffffffffffffffffffffffffffff163373ffffffffffffffffffffffffffffffffffffffff1614610e4457600080fd5b610e4f33848461119f565b505050565b3373ffffffffffffffffffffffffffffffffffffffff16600a600083815260200190815260200160002060009054906101000a900473ffffffffffffffffffffffffffffffffffffffff1673ffffffffffffffffffffffffffffffffffffffff1614610ebf57600080fd5b6000610eca82610aea565b9050610ed781338461119f565b5050565b610eec610ee66112fb565b83611303565b610f2b576040517f08c379a0000000000000000000000000000000000000000000000000000000008152600401610f22906121e4565b60405180910390fd5b610f37848484846113e1565b50505050565b6060610f48826110e2565b610f87576040517f08c379a0000000000000000000000000000000000000000000000000000000008152600401610f7e906121c4565b60405180910390fd5b6000610f9161143d565b90506000815111610fb15760405180602001604052806000815250610fdc565b80610fbb84611454565b604051602001610fcc92919061203a565b6040516020818303038152906040525b915050919050565b6000600960008473ffffffffffffffffffffffffffffffffffffffff1673ffffffffffffffffffffffffffffffffffffffff16815260200190815260200160002060008373ffffffffffffffffffffffffffffffffffffffff1673ffffffffffffffffffffffffffffffffffffffff16815260200190815260200160002060009054906101000a900460ff16905092915050565b60007f01ffc9a7000000000000000000000000000000000000000000000000000000007bffffffffffffffffffffffffffffffffffffffffffffffffffffffff1916827bffffffffffffffffffffffffffffffffffffffffffffffffffffffff1916149050919050565b60008073ffffffffffffffffffffffffffffffffffffffff166006600084815260200190815260200160002060009054906101000a900473ffffffffffffffffffffffffffffffffffffffff1673ffffffffffffffffffffffffffffffffffffffff1614159050919050565b6111586006611601565b6064600260003373ffffffffffffffffffffffffffffffffffffffff1673ffffffffffffffffffffffffffffffffffffffff16815260200190815260200160002081905550565b600360008373ffffffffffffffffffffffffffffffffffffffff1673ffffffffffffffffffffffffffffffffffffffff16815260200190815260200160002060008154809291906111ef9061255e565b9190505550600360008473ffffffffffffffffffffffffffffffffffffffff1673ffffffffffffffffffffffffffffffffffffffff1681526020019081526020016000206000815480929190611244906124d1565b9190505550816001600083815260200190815260200160002060006101000a81548173ffffffffffffffffffffffffffffffffffffffff021916908373ffffffffffffffffffffffffffffffffffffffff160217905550808273ffffffffffffffffffffffffffffffffffffffff168473ffffffffffffffffffffffffffffffffffffffff167fddf252ad1be2c89b69c2b068fc378daa952ba7f163c4a11628f55a4df523b3ef60405160405180910390a4505050565b600033905090565b600061130e826110e2565b61134d576040517f08c379a000000000000000000000000000000000000000000000000000000000815260040161134490612164565b60405180910390fd5b6000611358836118a1565b90508073ffffffffffffffffffffffffffffffffffffffff168473ffffffffffffffffffffffffffffffffffffffff1614806113c757508373ffffffffffffffffffffffffffffffffffffffff166113af8461060b565b73ffffffffffffffffffffffffffffffffffffffff16145b806113d857506113d78185610fe4565b5b91505092915050565b6113ec84848461119f565b6113f884848484611953565b611437576040517f08c379a000000000000000000000000000000000000000000000000000000000815260040161142e90612124565b60405180910390fd5b50505050565b606060405180602001604052806000815250905090565b6060600082141561149c576040518060400160405280600181526020017f300000000000000000000000000000000000000000000000000000000000000081525090506115fc565b600082905060005b600082146114ce5780806114b79061255e565b915050600a826114c791906123b6565b91506114a4565b60008167ffffffffffffffff811115611510577f4e487b7100000000000000000000000000000000000000000000000000000000600052604160045260246000fd5b6040519080825280601f01601f1916602001820160405280156115425781602001600182028036833780820191505090505b5090505b600085146115f55760018261155b91906123e7565b9150600a8561156a91906125a7565b60306115769190612360565b60f81b8183815181106115b2577f4e487b7100000000000000000000000000000000000000000000000000000000600052603260045260246000fd5b60200101907effffffffffffffffffffffffffffffffffffffffffffffffffffffffffffff1916908160001a905350600a856115ee91906123b6565b9450611546565b8093505050505b919050565b60008167ffffffffffffffff811115611643577f4e487b7100000000000000000000000000000000000000000000000000000000600052604160045260246000fd5b6040519080825280602002602001820160405280156116715781602001602082028036833780820191505090505b50905060005b8281101561184e5760008080549050905060006040518060e00160405280600081526020016000815260200160008152602001600081526020016000815260200160001515815260200160018152509080600181540180825580915050600190039060005260206000209060070201600090919091909150600082015181600001556020820151816001015560408201518160020155606082015181600301556080820151816004015560a08201518160050160006101000a81548160ff02191690831515021790555060c082015181600601555050336001600083815260200190815260200160002060006101000a81548173ffffffffffffffffffffffffffffffffffffffff021916908373ffffffffffffffffffffffffffffffffffffffff160217905550600360003373ffffffffffffffffffffffffffffffffffffffff1673ffffffffffffffffffffffffffffffffffffffff16815260200190815260200160002060008154809291906117ef9061255e565b91905055508083838151811061182e577f4e487b7100000000000000000000000000000000000000000000000000000000600052603260045260246000fd5b6020026020010181815250505080806118469061255e565b915050611677565b503373ffffffffffffffffffffffffffffffffffffffff167fce4da1507f61651bc32ca862ea68b0475c1966d58fd2f176d12e3ccfee4c92ea8260405161189591906120c5565b60405180910390a25050565b6000806006600084815260200190815260200160002060009054906101000a900473ffffffffffffffffffffffffffffffffffffffff169050600073ffffffffffffffffffffffffffffffffffffffff168173ffffffffffffffffffffffffffffffffffffffff16141561194a576040517f08c379a000000000000000000000000000000000000000000000000000000000815260040161194190612184565b60405180910390fd5b80915050919050565b60006119748473ffffffffffffffffffffffffffffffffffffffff16611aea565b15611add578373ffffffffffffffffffffffffffffffffffffffff1663150b7a0261199d6112fb565b8786866040518563ffffffff1660e01b81526004016119bf9493929190612079565b602060405180830381600087803b1580156119d957600080fd5b505af1925050508015611a0a57506040513d601f19601f82011682018060405250810190611a079190611d9e565b60015b611a8d573d8060008114611a3a576040519150601f19603f3d011682016040523d82523d6000602084013e611a3f565b606091505b50600081511415611a85576040517f08c379a0000000000000000000000000000000000000000000000000000000008152600401611a7c90612124565b60405180910390fd5b805181602001fd5b63150b7a0260e01b7bffffffffffffffffffffffffffffffffffffffffffffffffffffffff1916817bffffffffffffffffffffffffffffffffffffffffffffffffffffffff191614915050611ae2565b600190505b949350505050565b600080823b905060008111915050919050565b6000611b10611b0b846122b3565b61228e565b905082815260208101848484011115611b2857600080fd5b611b3384828561248f565b509392505050565b600081359050611b4a816128a8565b92915050565b600081359050611b5f816128bf565b92915050565b600081359050611b74816128d6565b92915050565b600081519050611b89816128d6565b92915050565b600082601f830112611ba057600080fd5b8135611bb0848260208601611afd565b91505092915050565b600081359050611bc8816128ed565b92915050565b600060208284031215611be057600080fd5b6000611bee84828501611b3b565b91505092915050565b60008060408385031215611c0a57600080fd5b6000611c1885828601611b3b565b9250506020611c2985828601611b3b565b9150509250929050565b600080600060608486031215611c4857600080fd5b6000611c5686828701611b3b565b9350506020611c6786828701611b3b565b9250506040611c7886828701611bb9565b9150509250925092565b60008060008060808587031215611c9857600080fd5b6000611ca687828801611b3b565b9450506020611cb787828801611b3b565b9350506040611cc887828801611bb9565b925050606085013567ffffffffffffffff811115611ce557600080fd5b611cf187828801611b8f565b91505092959194509250565b60008060408385031215611d1057600080fd5b6000611d1e85828601611b3b565b9250506020611d2f85828601611b50565b9150509250929050565b60008060408385031215611d4c57600080fd5b6000611d5a85828601611b3b565b9250506020611d6b85828601611bb9565b9150509250929050565b600060208284031215611d8757600080fd5b6000611d9584828501611b65565b91505092915050565b600060208284031215611db057600080fd5b6000611dbe84828501611b7a565b91505092915050565b600060208284031215611dd957600080fd5b6000611de784828501611bb9565b91505092915050565b6000611dfc838361201c565b60208301905092915050565b611e118161241b565b82525050565b6000611e22826122f4565b611e2c8185612322565b9350611e37836122e4565b8060005b83811015611e68578151611e4f8882611df0565b9750611e5a83612315565b925050600181019050611e3b565b5085935050505092915050565b611e7e8161242d565b82525050565b6000611e8f826122ff565b611e998185612333565b9350611ea981856020860161249e565b611eb281612694565b840191505092915050565b6000611ec88261230a565b611ed28185612344565b9350611ee281856020860161249e565b611eeb81612694565b840191505092915050565b6000611f018261230a565b611f0b8185612355565b9350611f1b81856020860161249e565b80840191505092915050565b6000611f34603283612344565b9150611f3f826126a5565b604082019050919050565b6000611f57601983612344565b9150611f62826126f4565b602082019050919050565b6000611f7a602c83612344565b9150611f858261271d565b604082019050919050565b6000611f9d602983612344565b9150611fa88261276c565b604082019050919050565b6000611fc0602c83612344565b9150611fcb826127bb565b604082019050919050565b6000611fe3602f83612344565b9150611fee8261280a565b604082019050919050565b6000612006603183612344565b915061201182612859565b604082019050919050565b61202581612485565b82525050565b61203481612485565b82525050565b60006120468285611ef6565b91506120528284611ef6565b91508190509392505050565b60006020820190506120736000830184611e08565b92915050565b600060808201905061208e6000830187611e08565b61209b6020830186611e08565b6120a8604083018561202b565b81810360608301526120ba8184611e84565b905095945050505050565b600060208201905081810360008301526120df8184611e17565b905092915050565b60006020820190506120fc6000830184611e75565b92915050565b6000602082019050818103600083015261211c8184611ebd565b905092915050565b6000602082019050818103600083015261213d81611f27565b9050919050565b6000602082019050818103600083015261215d81611f4a565b9050919050565b6000602082019050818103600083015261217d81611f6d565b9050919050565b6000602082019050818103600083015261219d81611f90565b9050919050565b600060208201905081810360008301526121bd81611fb3565b9050919050565b600060208201905081810360008301526121dd81611fd6565b9050919050565b600060208201905081810360008301526121fd81611ff9565b9050919050565b6000602082019050612219600083018461202b565b92915050565b600060e082019050612234600083018a61202b565b612241602083018961202b565b61224e604083018861202b565b61225b606083018761202b565b612268608083018661202b565b61227560a0830185611e75565b61228260c083018461202b565b98975050505050505050565b60006122986122a9565b90506122a4828261252d565b919050565b6000604051905090565b600067ffffffffffffffff8211156122ce576122cd612665565b5b6122d782612694565b9050602081019050919050565b6000819050602082019050919050565b600081519050919050565b600081519050919050565b600081519050919050565b6000602082019050919050565b600082825260208201905092915050565b600082825260208201905092915050565b600082825260208201905092915050565b600081905092915050565b600061236b82612485565b915061237683612485565b9250827fffffffffffffffffffffffffffffffffffffffffffffffffffffffffffffffff038211156123ab576123aa6125d8565b5b828201905092915050565b60006123c182612485565b91506123cc83612485565b9250826123dc576123db612607565b5b828204905092915050565b60006123f282612485565b91506123fd83612485565b9250828210156124105761240f6125d8565b5b828203905092915050565b600061242682612465565b9050919050565b60008115159050919050565b60007fffffffff0000000000000000000000000000000000000000000000000000000082169050919050565b600073ffffffffffffffffffffffffffffffffffffffff82169050919050565b6000819050919050565b82818337600083830152505050565b60005b838110156124bc5780820151818401526020810190506124a1565b838111156124cb576000848401525b50505050565b60006124dc82612485565b915060008214156124f0576124ef6125d8565b5b600182039050919050565b6000600282049050600182168061251357607f821691505b6020821081141561252757612526612636565b5b50919050565b61253682612694565b810181811067ffffffffffffffff8211171561255557612554612665565b5b80604052505050565b600061256982612485565b91507fffffffffffffffffffffffffffffffffffffffffffffffffffffffffffffffff82141561259c5761259b6125d8565b5b600182019050919050565b60006125b282612485565b91506125bd83612485565b9250826125cd576125cc612607565b5b828206905092915050565b7f4e487b7100000000000000000000000000000000000000000000000000000000600052601160045260246000fd5b7f4e487b7100000000000000000000000000000000000000000000000000000000600052601260045260246000fd5b7f4e487b7100000000000000000000000000000000000000000000000000000000600052602260045260246000fd5b7f4e487b7100000000000000000000000000000000000000000000000000000000600052604160045260246000fd5b6000601f19601f8301169050919050565b7f4552433732313a207472616e7366657220746f206e6f6e20455243373231526560008201527f63656976657220696d706c656d656e7465720000000000000000000000000000602082015250565b7f4552433732313a20617070726f766520746f2063616c6c657200000000000000600082015250565b7f4552433732313a206f70657261746f7220717565727920666f72206e6f6e657860008201527f697374656e7420746f6b656e0000000000000000000000000000000000000000602082015250565b7f4552433732313a206f776e657220717565727920666f72206e6f6e657869737460008201527f656e7420746f6b656e0000000000000000000000000000000000000000000000602082015250565b7f4552433732313a20617070726f76656420717565727920666f72206e6f6e657860008201527f697374656e7420746f6b656e0000000000000000000000000000000000000000602082015250565b7f4552433732314d657461646174613a2055524920717565727920666f72206e6f60008201527f6e6578697374656e7420746f6b656e0000000000000000000000000000000000602082015250565b7f4552433732313a207472616e736665722063616c6c6572206973206e6f74206f60008201527f776e6572206e6f7220617070726f766564000000000000000000000000000000602082015250565b6128b18161241b565b81146128bc57600080fd5b50565b6128c88161242d565b81146128d357600080fd5b50565b6128df81612439565b81146128ea57600080fd5b50565b6128f681612485565b811461290157600080fd5b5056fea26469706673582212200519792a63b56f4172b8c9d55a857dc3c22bbcdeb0008fb48f0f54d1dc01d3fe64736f6c63430008020033",
  "immutableReferences": {},
  "source": "// SPDX-License-Identifier: MIT\npragma solidity ^0.8.0;\nimport \"./SlotUpgrade.sol\";\nimport \"./SlotUtils.sol\";\nimport \"@openzeppelin/contracts/token/ERC721/ERC721.sol\";\ncontract SlotOwnership is SlotUtils, ERC721 {\n    mapping (uint => address) slotApprovals;\n    constructor() public ERC721(\"Slot\", \"FAM\") {}\n    \n    function balanceOf(address _owner) override public view returns (uint256 _balance) {\n        return OwnerSlotCount[_owner];\n    }\n    function ownerOf(uint256 _slotID) override public view returns (address _owner) {\n        return slotToOwner[_slotID];\n    }\n    function _transfer(address _from, address _to, uint256 _slotID) override internal {\n        OwnerSlotCount[_to]++;\n        OwnerSlotCount[_from]--;\n        slotToOwner[_slotID] = _to;\n        emit Transfer(_from, _to, _slotID);\n    }\n    function transfer(address _to, uint256 _slotID) public onlyOwnerOf(_slotID) {\n        _transfer(msg.sender, _to, _slotID);\n    }\n\n    function transferFrom(address _from, address _to, uint256 _slotID) override public onlyOwnerOf(_slotID) {\n        _transfer(_from, _to, _slotID);\n    }\n\n    function approve(address _to, uint256 _slotID) override public onlyOwnerOf(_slotID) {\n        slotApprovals[_slotID] = _to;\n        emit Approval(msg.sender, _to, _slotID);\n    }\n    function takeOwnership(uint256 _slotID) public {\n        require(slotApprovals[_slotID] == msg.sender);\n        address owner = ownerOf(_slotID);\n        _transfer(owner, msg.sender, _slotID);\n    }\n\n}",
  "sourcePath": "/Users/Cirno/Desktop/distributed_ether_farm-main/contracts/SlotOwnership.sol",
  "compiler": {
    "name": "solc",
    "version": "0.8.2+commit.661d1103.Emscripten.clang"
  },
  "schemaVersion": "3.3.4",
  "updatedAt": "2021-03-14T20:58:05.363Z",
  "devdoc": {
    "kind": "dev",
    "methods": {
      "getApproved(uint256)": {
        "details": "See {IERC721-getApproved}."
      },
      "isApprovedForAll(address,address)": {
        "details": "See {IERC721-isApprovedForAll}."
      },
      "name()": {
        "details": "See {IERC721Metadata-name}."
      },
      "safeTransferFrom(address,address,uint256)": {
        "details": "See {IERC721-safeTransferFrom}."
      },
      "safeTransferFrom(address,address,uint256,bytes)": {
        "details": "See {IERC721-safeTransferFrom}."
      },
      "setApprovalForAll(address,bool)": {
        "details": "See {IERC721-setApprovalForAll}."
      },
      "supportsInterface(bytes4)": {
        "details": "See {IERC165-supportsInterface}."
      },
      "symbol()": {
        "details": "See {IERC721Metadata-symbol}."
      },
      "tokenURI(uint256)": {
        "details": "See {IERC721Metadata-tokenURI}."
      }
    },
    "version": 1
  },
  "userdoc": {
    "kind": "user",
    "methods": {},
    "version": 1
  }
}