{
  "contractName": "SlotManagement",
  "abi": [
    {
      "anonymous": false,
      "inputs": [
        {
          "indexed": true,
          "internalType": "address",
          "name": "previousOwner",
          "type": "address"
        },
        {
          "indexed": true,
          "internalType": "address",
          "name": "newOwner",
          "type": "address"
        }
      ],
      "name": "OwnershipTransferred",
      "type": "event"
    },
    {
      "anonymous": false,
      "inputs": [
        {
          "indexed": true,
          "internalType": "address",
          "name": "addr",
          "type": "address"
        },
        {
          "indexed": false,
          "internalType": "uint256[]",
          "name": "cropIDs",
          "type": "uint256[]"
        }
      ],
      "name": "createSlotEvent",
      "type": "event"
    },
    {
      "anonymous": false,
      "inputs": [
        {
          "indexed": false,
          "internalType": "uint256",
          "name": "cropID",
          "type": "uint256"
        }
      ],
      "name": "deleteCropList",
      "type": "event"
    },
    {
      "anonymous": false,
      "inputs": [
        {
          "indexed": false,
          "internalType": "uint256",
          "name": "cropID",
          "type": "uint256"
        },
        {
          "indexed": false,
          "internalType": "uint256",
          "name": "grow_time",
          "type": "uint256"
        },
        {
          "indexed": false,
          "internalType": "uint256",
          "name": "price",
          "type": "uint256"
        },
        {
          "indexed": false,
          "internalType": "uint256",
          "name": "exp",
          "type": "uint256"
        }
      ],
      "name": "updateCropList",
      "type": "event"
    },
    {
      "anonymous": false,
      "inputs": [
        {
          "indexed": true,
          "internalType": "address",
          "name": "owner",
          "type": "address"
        },
        {
          "indexed": false,
          "internalType": "uint256",
          "name": "slotID",
          "type": "uint256"
        },
        {
          "indexed": false,
          "internalType": "uint256",
          "name": "cropID",
          "type": "uint256"
        },
        {
          "indexed": false,
          "internalType": "uint256",
          "name": "grow_time",
          "type": "uint256"
        },
        {
          "indexed": false,
          "internalType": "uint256",
          "name": "price",
          "type": "uint256"
        },
        {
          "indexed": false,
          "internalType": "uint256",
          "name": "dry_time",
          "type": "uint256"
        },
        {
          "indexed": false,
          "internalType": "uint256",
          "name": "grass_time",
          "type": "uint256"
        },
        {
          "indexed": false,
          "internalType": "bool",
          "name": "stealed",
          "type": "bool"
        },
        {
          "indexed": false,
          "internalType": "uint256",
          "name": "exp",
          "type": "uint256"
        }
      ],
      "name": "updateSlot",
      "type": "event"
    },
    {
      "inputs": [
        {
          "internalType": "address",
          "name": "",
          "type": "address"
        }
      ],
      "name": "OwnerMoneyCount",
      "outputs": [
        {
          "internalType": "uint256",
          "name": "",
          "type": "uint256"
        }
      ],
      "stateMutability": "view",
      "type": "function"
    },
    {
      "inputs": [
        {
          "internalType": "address",
          "name": "",
          "type": "address"
        }
      ],
      "name": "OwnerSlotCount",
      "outputs": [
        {
          "internalType": "uint256",
          "name": "",
          "type": "uint256"
        }
      ],
      "stateMutability": "view",
      "type": "function"
    },
    {
      "inputs": [
        {
          "internalType": "address",
          "name": "owner",
          "type": "address"
        },
        {
          "internalType": "address",
          "name": "friend",
          "type": "address"
        }
      ],
      "name": "addFriend",
      "outputs": [
        {
          "internalType": "bool",
          "name": "",
          "type": "bool"
        }
      ],
      "stateMutability": "nonpayable",
      "type": "function"
    },
    {
      "inputs": [],
      "name": "createFarm",
      "outputs": [],
      "stateMutability": "nonpayable",
      "type": "function"
    },
    {
      "inputs": [
        {
          "internalType": "uint256",
          "name": "",
          "type": "uint256"
        }
      ],
      "name": "cropsList",
      "outputs": [
        {
          "internalType": "uint256",
          "name": "cropID",
          "type": "uint256"
        },
        {
          "internalType": "uint256",
          "name": "grow_time",
          "type": "uint256"
        },
        {
          "internalType": "uint256",
          "name": "price",
          "type": "uint256"
        },
        {
          "internalType": "uint256",
          "name": "dry_time",
          "type": "uint256"
        },
        {
          "internalType": "uint256",
          "name": "grass_time",
          "type": "uint256"
        },
        {
          "internalType": "bool",
          "name": "stealed",
          "type": "bool"
        },
        {
          "internalType": "uint256",
          "name": "exp",
          "type": "uint256"
        }
      ],
      "stateMutability": "view",
      "type": "function"
    },
    {
      "inputs": [
        {
          "internalType": "address",
          "name": "owner",
          "type": "address"
        },
        {
          "internalType": "address",
          "name": "friend",
          "type": "address"
        }
      ],
      "name": "deleteFriend",
      "outputs": [
        {
          "internalType": "bool",
          "name": "",
          "type": "bool"
        }
      ],
      "stateMutability": "nonpayable",
      "type": "function"
    },
    {
      "inputs": [
        {
          "internalType": "address",
          "name": "",
          "type": "address"
        },
        {
          "internalType": "uint256",
          "name": "",
          "type": "uint256"
        }
      ],
      "name": "friendsDict",
      "outputs": [
        {
          "internalType": "address",
          "name": "",
          "type": "address"
        }
      ],
      "stateMutability": "view",
      "type": "function"
    },
    {
      "inputs": [
        {
          "internalType": "address",
          "name": "_owner",
          "type": "address"
        }
      ],
      "name": "getFarmByOwner",
      "outputs": [
        {
          "internalType": "uint256[]",
          "name": "",
          "type": "uint256[]"
        }
      ],
      "stateMutability": "view",
      "type": "function"
    },
    {
      "inputs": [
        {
          "internalType": "address",
          "name": "owner",
          "type": "address"
        }
      ],
      "name": "getFrinedsByOwner",
      "outputs": [
        {
          "internalType": "address[]",
          "name": "",
          "type": "address[]"
        }
      ],
      "stateMutability": "view",
      "type": "function"
    },
    {
      "inputs": [
        {
          "internalType": "uint256",
          "name": "exp",
          "type": "uint256"
        }
      ],
      "name": "getLevel",
      "outputs": [
        {
          "internalType": "uint256",
          "name": "",
          "type": "uint256"
        }
      ],
      "stateMutability": "pure",
      "type": "function"
    },
    {
      "inputs": [],
      "name": "owner",
      "outputs": [
        {
          "internalType": "address",
          "name": "",
          "type": "address"
        }
      ],
      "stateMutability": "view",
      "type": "function"
    },
    {
      "inputs": [],
      "name": "renounceOwnership",
      "outputs": [],
      "stateMutability": "nonpayable",
      "type": "function"
    },
    {
      "inputs": [
        {
          "internalType": "uint256",
          "name": "",
          "type": "uint256"
        }
      ],
      "name": "slotToOwner",
      "outputs": [
        {
          "internalType": "address",
          "name": "",
          "type": "address"
        }
      ],
      "stateMutability": "view",
      "type": "function"
    },
    {
      "inputs": [
        {
          "internalType": "uint256",
          "name": "",
          "type": "uint256"
        }
      ],
      "name": "slots",
      "outputs": [
        {
          "internalType": "uint256",
          "name": "cropID",
          "type": "uint256"
        },
        {
          "internalType": "uint256",
          "name": "grow_time",
          "type": "uint256"
        },
        {
          "internalType": "uint256",
          "name": "price",
          "type": "uint256"
        },
        {
          "internalType": "uint256",
          "name": "dry_time",
          "type": "uint256"
        },
        {
          "internalType": "uint256",
          "name": "grass_time",
          "type": "uint256"
        },
        {
          "internalType": "bool",
          "name": "stealed",
          "type": "bool"
        },
        {
          "internalType": "uint256",
          "name": "exp",
          "type": "uint256"
        }
      ],
      "stateMutability": "view",
      "type": "function"
    },
    {
      "inputs": [
        {
          "internalType": "address",
          "name": "newOwner",
          "type": "address"
        }
      ],
      "name": "transferOwnership",
      "outputs": [],
      "stateMutability": "nonpayable",
      "type": "function"
    },
    {
      "inputs": [
        {
          "internalType": "uint256",
          "name": "_cropID",
          "type": "uint256"
        },
        {
          "internalType": "uint256",
          "name": "_grow_time",
          "type": "uint256"
        },
        {
          "internalType": "uint256",
          "name": "_price",
          "type": "uint256"
        },
        {
          "internalType": "uint256",
          "name": "_exp",
          "type": "uint256"
        }
      ],
      "name": "modInCropsList",
      "outputs": [],
      "stateMutability": "nonpayable",
      "type": "function"
    },
    {
      "inputs": [
        {
          "internalType": "uint256",
          "name": "_cropID",
          "type": "uint256"
        }
      ],
      "name": "delInCropsList",
      "outputs": [],
      "stateMutability": "nonpayable",
      "type": "function"
    },
    {
      "inputs": [
        {
          "internalType": "uint256",
          "name": "_cropID",
          "type": "uint256"
        },
        {
          "internalType": "uint256",
          "name": "_slotID",
          "type": "uint256"
        }
      ],
      "name": "plant",
      "outputs": [],
      "stateMutability": "nonpayable",
      "type": "function"
    },
    {
      "inputs": [
        {
          "internalType": "uint256",
          "name": "_slotID",
          "type": "uint256"
        }
      ],
      "name": "harvest",
      "outputs": [],
      "stateMutability": "nonpayable",
      "type": "function"
    },
    {
      "inputs": [
        {
          "internalType": "uint256",
          "name": "_slotID",
          "type": "uint256"
        }
      ],
      "name": "watering",
      "outputs": [],
      "stateMutability": "nonpayable",
      "type": "function"
    },
    {
      "inputs": [
        {
          "internalType": "uint256",
          "name": "_slotID",
          "type": "uint256"
        }
      ],
      "name": "weeding",
      "outputs": [],
      "stateMutability": "nonpayable",
      "type": "function"
    },
    {
      "inputs": [
        {
          "internalType": "uint256",
          "name": "_slotID",
          "type": "uint256"
        }
      ],
      "name": "steal",
      "outputs": [],
      "stateMutability": "nonpayable",
      "type": "function"
    }
  ],
  "bytecode": "0x608060405234801561001057600080fd5b5060006100216100c560201b60201c565b905080600560006101000a81548173ffffffffffffffffffffffffffffffffffffffff021916908373ffffffffffffffffffffffffffffffffffffffff1602179055508073ffffffffffffffffffffffffffffffffffffffff16600073ffffffffffffffffffffffffffffffffffffffff167f8be0079c531659141344cd1fd0a4f28419497f9722a3daafe3b4186f6b6457e060405160405180910390a3506100cd565b600033905090565b612d3d80620000dd6000396000f3fe608060405234801561001057600080fd5b50600436106101425760003560e01c80638871c9c5116100b8578063a7a624e01161007c578063a7a624e01461039f578063a9bf928f146103cf578063b99c6e0a14610405578063ddc6326214610421578063e1928ac91461043d578063f2fde38b1461045957610142565b80638871c9c5146102fd5780638da5cb5b1461032d57806392658a281461034b5780639bcf5f0c14610367578063a5c14ec71461038357610142565b8063575c25b01161010a578063575c25b014610217578063580405ba146102475780636099804d14610277578063715018a61461029357806372e6eaa61461029d57806386481d40146102cd57610142565b80630c10e4991461014757806310e96da5146101775780631d5ec3cb146101a7578063316b75e4146101b1578063387dd9e9146101e1575b600080fd5b610161600480360381019061015c91906123ff565b610475565b60405161016e91906126ad565b60405180910390f35b610191600480360381019061018c9190612387565b6104a8565b60405161019e919061270c565b60405180910390f35b6101af61056d565b005b6101cb60048036038101906101c6919061235e565b6105c3565b6040516101d891906126c8565b60405180910390f35b6101fb60048036038101906101f691906123ff565b610690565b60405161020e9796959493929190612845565b60405180910390f35b610231600480360381019061022c919061235e565b6106ef565b60405161023e91906126ea565b60405180910390f35b610261600480360381019061025c919061235e565b61088e565b60405161026e9190612767565b60405180910390f35b610291600480360381019061028c91906123ff565b6108a6565b005b61029b610a0a565b005b6102b760048036038101906102b29190612387565b610b47565b6040516102c4919061270c565b60405180910390f35b6102e760048036038101906102e291906123ff565b610b81565b6040516102f49190612767565b60405180910390f35b6103176004803603810190610312919061235e565b610bbe565b6040516103249190612767565b60405180910390f35b610335610bd6565b60405161034291906126ad565b60405180910390f35b61036560048036038101906103609190612428565b610c00565b005b610381600480360381019061037c91906123ff565b610f07565b005b61039d600480360381019061039891906123ff565b6110ee565b005b6103b960048036038101906103b491906123c3565b61124c565b6040516103c691906126ad565b60405180910390f35b6103e960048036038101906103e491906123ff565b61129a565b6040516103fc9796959493929190612845565b60405180910390f35b61041f600480360381019061041a91906123ff565b6112e9565b005b61043b600480360381019061043691906123ff565b611447565b005b61045760048036038101906104529190612464565b6116ae565b005b610473600480360381019061046e919061235e565b611817565b005b60016020528060005260406000206000915054906101000a900473ffffffffffffffffffffffffffffffffffffffff1681565b60006104b483836119c3565b156104c25760009050610567565b600460008473ffffffffffffffffffffffffffffffffffffffff1673ffffffffffffffffffffffffffffffffffffffff168152602001908152602001600020829080600181540180825580915050600190039060005260206000200160009091909190916101000a81548173ffffffffffffffffffffffffffffffffffffffff021916908373ffffffffffffffffffffffffffffffffffffffff160217905550600190505b92915050565b6000600360003373ffffffffffffffffffffffffffffffffffffffff1673ffffffffffffffffffffffffffffffffffffffff16815260200190815260200160002054146105b957600080fd5b6105c1611b13565b565b6060600460008373ffffffffffffffffffffffffffffffffffffffff1673ffffffffffffffffffffffffffffffffffffffff16815260200190815260200160002080548060200260200160405190810160405280929190818152602001828054801561068457602002820191906000526020600020905b8160009054906101000a900473ffffffffffffffffffffffffffffffffffffffff1673ffffffffffffffffffffffffffffffffffffffff168152602001906001019080831161063a575b50505050509050919050565b600081815481106106a057600080fd5b90600052602060002090600702016000915090508060000154908060010154908060020154908060030154908060040154908060050160009054906101000a900460ff16908060060154905087565b60606000600360008473ffffffffffffffffffffffffffffffffffffffff1673ffffffffffffffffffffffffffffffffffffffff1681526020019081526020016000205467ffffffffffffffff811115610772577f4e487b7100000000000000000000000000000000000000000000000000000000600052604160045260246000fd5b6040519080825280602002602001820160405280156107a05781602001602082028036833780820191505090505b5090506000805b600080549050811015610883578473ffffffffffffffffffffffffffffffffffffffff166001600083815260200190815260200160002060009054906101000a900473ffffffffffffffffffffffffffffffffffffffff1673ffffffffffffffffffffffffffffffffffffffff1614156108705780838381518110610855577f4e487b7100000000000000000000000000000000000000000000000000000000600052603260045260246000fd5b602002602001018181525050818061086c90612b4e565b9250505b808061087b90612b4e565b9150506107a7565b508192505050919050565b60026020528060005260406000206000915090505481565b6108ae611b64565b73ffffffffffffffffffffffffffffffffffffffff166108cc610bd6565b73ffffffffffffffffffffffffffffffffffffffff1614610922576040517f08c379a000000000000000000000000000000000000000000000000000000000815260040161091990612747565b60405180910390fd5b6040518060e001604052806000815260200160008152602001600081526020016000815260200160008152602001600015158152602001600081525060066000838152602001908152602001600020600082015181600001556020820151816001015560408201518160020155606082015181600301556080820151816004015560a08201518160050160006101000a81548160ff02191690831515021790555060c082015181600601559050507fda5207af4ca2a8f617e7b6b247ccb5495c765df30e98c115443a569b8ac3d264816040516109ff9190612767565b60405180910390a150565b610a12611b64565b73ffffffffffffffffffffffffffffffffffffffff16610a30610bd6565b73ffffffffffffffffffffffffffffffffffffffff1614610a86576040517f08c379a0000000000000000000000000000000000000000000000000000000008152600401610a7d90612747565b60405180910390fd5b600073ffffffffffffffffffffffffffffffffffffffff16600560009054906101000a900473ffffffffffffffffffffffffffffffffffffffff1673ffffffffffffffffffffffffffffffffffffffff167f8be0079c531659141344cd1fd0a4f28419497f9722a3daafe3b4186f6b6457e060405160405180910390a36000600560006101000a81548173ffffffffffffffffffffffffffffffffffffffff021916908373ffffffffffffffffffffffffffffffffffffffff160217905550565b6000610b5383836119c3565b610b605760009050610b7b565b610b6a8383611b6c565b50610b758284611b6c565b50600190505b92915050565b60008082905060005b60008214610bb457600a82610b9f9190612a0b565b91508080610bac90612b4e565b915050610b8a565b8092505050919050565b60036020528060005260406000206000915090505481565b6000600560009054906101000a900473ffffffffffffffffffffffffffffffffffffffff16905090565b806001600082815260200190815260200160002060009054906101000a900473ffffffffffffffffffffffffffffffffffffffff1673ffffffffffffffffffffffffffffffffffffffff163373ffffffffffffffffffffffffffffffffffffffff1614610c6c57600080fd5b6000808381548110610ca7577f4e487b7100000000000000000000000000000000000000000000000000000000600052603260045260246000fd5b9060005260206000209060070201905060008160000154148015610d2057506006600085815260200190815260200160002060020154600260003373ffffffffffffffffffffffffffffffffffffffff1673ffffffffffffffffffffffffffffffffffffffff1681526020019081526020016000205410155b8015610d4e57506006600085815260200190815260200160002060060154610d4b8260060154610b81565b10155b610d5757600080fd5b6006600085815260200190815260200160002060020154600260003373ffffffffffffffffffffffffffffffffffffffff1673ffffffffffffffffffffffffffffffffffffffff16815260200190815260200160002054610db89190612a96565b600260003373ffffffffffffffffffffffffffffffffffffffff1673ffffffffffffffffffffffffffffffffffffffff1681526020019081526020016000208190555060066000858152602001908152602001600020600001548160000181905550600660008581526020019081526020016000206001015481600101819055506006600085815260200190815260200160002060020154816002018190555060008160050160006101000a81548160ff021916908315150217905550610e7e81611dfe565b610e8781611e35565b610e9081611e75565b3373ffffffffffffffffffffffffffffffffffffffff167f4f0cb23b258deb04c50db92a3e8fe09691102acc7be902aad4acc1b9d218175e8486846001015485600201548660030154876004015460008960060154604051610ef99897969594939291906128b4565b60405180910390a250505050565b610f44336001600084815260200190815260200160002060009054906101000a900473ffffffffffffffffffffffffffffffffffffffff16611eb5565b610f4d57600080fd5b6000808281548110610f88577f4e487b7100000000000000000000000000000000000000000000000000000000600052603260045260246000fd5b90600052602060002090600702019050610fa181611eda565b610faa57600080fd5b8060050160009054906101000a900460ff1615610fc657600080fd5b8060020154600260003373ffffffffffffffffffffffffffffffffffffffff1673ffffffffffffffffffffffffffffffffffffffff1681526020019081526020016000205461101591906129b5565b600260003373ffffffffffffffffffffffffffffffffffffffff1673ffffffffffffffffffffffffffffffffffffffff1681526020019081526020016000208190555060018160050160006101000a81548160ff0219169083151502179055503373ffffffffffffffffffffffffffffffffffffffff167f4f0cb23b258deb04c50db92a3e8fe09691102acc7be902aad4acc1b9d218175e8383600001548460010154856002015486600301548760040154600189600601546040516110e29897969594939291906128b4565b60405180910390a25050565b806001600082815260200190815260200160002060009054906101000a900473ffffffffffffffffffffffffffffffffffffffff1673ffffffffffffffffffffffffffffffffffffffff163373ffffffffffffffffffffffffffffffffffffffff161461115a57600080fd5b6000808381548110611195577f4e487b7100000000000000000000000000000000000000000000000000000000600052603260045260246000fd5b906000526020600020906007020190506111ae81611eda565b1580156111c057506111bf81611eeb565b5b6111c957600080fd5b6111d281611e75565b3373ffffffffffffffffffffffffffffffffffffffff167f4f0cb23b258deb04c50db92a3e8fe09691102acc7be902aad4acc1b9d218175e84836000015484600101548560020154866003015487600401546000896006015460405161123f9897969594939291906128b4565b60405180910390a2505050565b6004602052816000526040600020818154811061126857600080fd5b906000526020600020016000915091509054906101000a900473ffffffffffffffffffffffffffffffffffffffff1681565b60066020528060005260406000206000915090508060000154908060010154908060020154908060030154908060040154908060050160009054906101000a900460ff16908060060154905087565b806001600082815260200190815260200160002060009054906101000a900473ffffffffffffffffffffffffffffffffffffffff1673ffffffffffffffffffffffffffffffffffffffff163373ffffffffffffffffffffffffffffffffffffffff161461135557600080fd5b6000808381548110611390577f4e487b7100000000000000000000000000000000000000000000000000000000600052603260045260246000fd5b906000526020600020906007020190506113a981611eda565b1580156113bb57506113ba81611efc565b5b6113c457600080fd5b6113cd81611e35565b3373ffffffffffffffffffffffffffffffffffffffff167f4f0cb23b258deb04c50db92a3e8fe09691102acc7be902aad4acc1b9d218175e84836000015484600101548560020154866003015487600401546000896006015460405161143a9897969594939291906128b4565b60405180910390a2505050565b806001600082815260200190815260200160002060009054906101000a900473ffffffffffffffffffffffffffffffffffffffff1673ffffffffffffffffffffffffffffffffffffffff163373ffffffffffffffffffffffffffffffffffffffff16146114b357600080fd5b60008083815481106114ee577f4e487b7100000000000000000000000000000000000000000000000000000000600052603260045260246000fd5b9060005260206000209060070201905061150781611eda565b61151057600080fd5b60006005905081600101548260030154111561153557808061153190612b24565b9150505b81600101548260040154111561155457808061155090612b24565b9150505b8160050160009054906101000a900460ff161561157a57808061157690612b24565b9150505b80826002015461158a9190612a3c565b600260003373ffffffffffffffffffffffffffffffffffffffff1673ffffffffffffffffffffffffffffffffffffffff168152602001908152602001600020546115d491906129b5565b600260003373ffffffffffffffffffffffffffffffffffffffff1673ffffffffffffffffffffffffffffffffffffffff168152602001908152602001600020819055506000826000018190555060058114156116455781600601600081548092919061163f90612b4e565b91905055505b3373ffffffffffffffffffffffffffffffffffffffff167f4f0cb23b258deb04c50db92a3e8fe09691102acc7be902aad4acc1b9d218175e856000806000806000808a600601546040516116a0989796959493929190612782565b60405180910390a250505050565b6116b6611b64565b73ffffffffffffffffffffffffffffffffffffffff166116d4610bd6565b73ffffffffffffffffffffffffffffffffffffffff161461172a576040517f08c379a000000000000000000000000000000000000000000000000000000000815260040161172190612747565b60405180910390fd5b6040518060e0016040528085815260200184815260200183815260200160008152602001600081526020016000151581526020018281525060066000868152602001908152602001600020600082015181600001556020820151816001015560408201518160020155606082015181600301556080820151816004015560a08201518160050160006101000a81548160ff02191690831515021790555060c082015181600601559050507f0a99a7515cce8c21202b55bdd8c634a45cf0fc5ffc970a5faf445f6e26665057848484846040516118099493929190612800565b60405180910390a150505050565b61181f611b64565b73ffffffffffffffffffffffffffffffffffffffff1661183d610bd6565b73ffffffffffffffffffffffffffffffffffffffff1614611893576040517f08c379a000000000000000000000000000000000000000000000000000000000815260040161188a90612747565b60405180910390fd5b600073ffffffffffffffffffffffffffffffffffffffff168173ffffffffffffffffffffffffffffffffffffffff161415611903576040517f08c379a00000000000000000000000000000000000000000000000000000000081526004016118fa90612727565b60405180910390fd5b8073ffffffffffffffffffffffffffffffffffffffff16600560009054906101000a900473ffffffffffffffffffffffffffffffffffffffff1673ffffffffffffffffffffffffffffffffffffffff167f8be0079c531659141344cd1fd0a4f28419497f9722a3daafe3b4186f6b6457e060405160405180910390a380600560006101000a81548173ffffffffffffffffffffffffffffffffffffffff021916908373ffffffffffffffffffffffffffffffffffffffff16021790555050565b600080600090505b600460008573ffffffffffffffffffffffffffffffffffffffff1673ffffffffffffffffffffffffffffffffffffffff16815260200190815260200160002080549050811015611b0757600460008573ffffffffffffffffffffffffffffffffffffffff1673ffffffffffffffffffffffffffffffffffffffff1681526020019081526020016000208181548110611a8c577f4e487b7100000000000000000000000000000000000000000000000000000000600052603260045260246000fd5b9060005260206000200160009054906101000a900473ffffffffffffffffffffffffffffffffffffffff1673ffffffffffffffffffffffffffffffffffffffff168373ffffffffffffffffffffffffffffffffffffffff161415611af4576001915050611b0d565b8080611aff90612b4e565b9150506119cb565b50600090505b92915050565b611b1d6006611f0d565b6064600260003373ffffffffffffffffffffffffffffffffffffffff1673ffffffffffffffffffffffffffffffffffffffff16815260200190815260200160002081905550565b600033905090565b6000611b7883836119c3565b611b855760009050611df8565b6000611b9184846121ad565b90506000600460008673ffffffffffffffffffffffffffffffffffffffff1673ffffffffffffffffffffffffffffffffffffffff168152602001908152602001600020805490509050600460008673ffffffffffffffffffffffffffffffffffffffff1673ffffffffffffffffffffffffffffffffffffffff168152602001908152602001600020600182611c269190612a96565b81548110611c5d577f4e487b7100000000000000000000000000000000000000000000000000000000600052603260045260246000fd5b9060005260206000200160009054906101000a900473ffffffffffffffffffffffffffffffffffffffff16600460008773ffffffffffffffffffffffffffffffffffffffff1673ffffffffffffffffffffffffffffffffffffffff1681526020019081526020016000208381548110611cff577f4e487b7100000000000000000000000000000000000000000000000000000000600052603260045260246000fd5b9060005260206000200160006101000a81548173ffffffffffffffffffffffffffffffffffffffff021916908373ffffffffffffffffffffffffffffffffffffffff160217905550600460008673ffffffffffffffffffffffffffffffffffffffff1673ffffffffffffffffffffffffffffffffffffffff168152602001908152602001600020805480611dbc577f4e487b7100000000000000000000000000000000000000000000000000000000600052603160045260246000fd5b6001900381819060005260206000200160006101000a81549073ffffffffffffffffffffffffffffffffffffffff021916905590556001925050505b92915050565b60066000826000015481526020019081526020016000206001015442611e2491906129b5565b63ffffffff16816001018190555050565b6064611e4f428360010154611e4a9190612a96565b6122f4565b42611e5a91906129b5565b611e6491906129b5565b63ffffffff16816003018190555050565b6064611e8f428360010154611e8a9190612a96565b6122f4565b42611e9a91906129b5565b611ea491906129b5565b63ffffffff16816004018190555050565b6000611ec183836119c3565b15611ecf5760019050611ed4565b600090505b92915050565b600042826001015411159050919050565b600042826004015411159050919050565b600042826003015411159050919050565b60008167ffffffffffffffff811115611f4f577f4e487b7100000000000000000000000000000000000000000000000000000000600052604160045260246000fd5b604051908082528060200260200182016040528015611f7d5781602001602082028036833780820191505090505b50905060005b8281101561215a5760008080549050905060006040518060e00160405280600081526020016000815260200160008152602001600081526020016000815260200160001515815260200160018152509080600181540180825580915050600190039060005260206000209060070201600090919091909150600082015181600001556020820151816001015560408201518160020155606082015181600301556080820151816004015560a08201518160050160006101000a81548160ff02191690831515021790555060c082015181600601555050336001600083815260200190815260200160002060006101000a81548173ffffffffffffffffffffffffffffffffffffffff021916908373ffffffffffffffffffffffffffffffffffffffff160217905550600360003373ffffffffffffffffffffffffffffffffffffffff1673ffffffffffffffffffffffffffffffffffffffff16815260200190815260200160002060008154809291906120fb90612b4e565b91905055508083838151811061213a577f4e487b7100000000000000000000000000000000000000000000000000000000600052603260045260246000fd5b60200260200101818152505050808061215290612b4e565b915050611f83565b503373ffffffffffffffffffffffffffffffffffffffff167fce4da1507f61651bc32ca862ea68b0475c1966d58fd2f176d12e3ccfee4c92ea826040516121a191906126ea565b60405180910390a25050565b60008060005b600460008673ffffffffffffffffffffffffffffffffffffffff1673ffffffffffffffffffffffffffffffffffffffff168152602001908152602001600020805490508110156122e957600460008673ffffffffffffffffffffffffffffffffffffffff1673ffffffffffffffffffffffffffffffffffffffff1681526020019081526020016000208181548110612274577f4e487b7100000000000000000000000000000000000000000000000000000000600052603260045260246000fd5b9060005260206000200160009054906101000a900473ffffffffffffffffffffffffffffffffffffffff1673ffffffffffffffffffffffffffffffffffffffff168473ffffffffffffffffffffffffffffffffffffffff1614156122d6578091505b80806122e190612b4e565b9150506121b3565b508091505092915050565b600081334260405160200161230a929190612681565b6040516020818303038152906040528051906020012060001c61232d9190612bc5565b9050919050565b60008135905061234381612cd9565b92915050565b60008135905061235881612cf0565b92915050565b60006020828403121561237057600080fd5b600061237e84828501612334565b91505092915050565b6000806040838503121561239a57600080fd5b60006123a885828601612334565b92505060206123b985828601612334565b9150509250929050565b600080604083850312156123d657600080fd5b60006123e485828601612334565b92505060206123f585828601612349565b9150509250929050565b60006020828403121561241157600080fd5b600061241f84828501612349565b91505092915050565b6000806040838503121561243b57600080fd5b600061244985828601612349565b925050602061245a85828601612349565b9150509250929050565b6000806000806080858703121561247a57600080fd5b600061248887828801612349565b945050602061249987828801612349565b93505060406124aa87828801612349565b92505060606124bb87828801612349565b91505092959194509250565b60006124d383836124f7565b60208301905092915050565b60006124eb838361264c565b60208301905092915050565b61250081612aca565b82525050565b61250f81612aca565b82525050565b61252661252182612aca565b612b97565b82525050565b600061253782612952565b6125418185612982565b935061254c83612932565b8060005b8381101561257d57815161256488826124c7565b975061256f83612968565b925050600181019050612550565b5085935050505092915050565b60006125958261295d565b61259f8185612993565b93506125aa83612942565b8060005b838110156125db5781516125c288826124df565b97506125cd83612975565b9250506001810190506125ae565b5085935050505092915050565b6125f181612adc565b82525050565b61260081612b12565b82525050565b60006126136026836129a4565b915061261e82612c61565b604082019050919050565b60006126366020836129a4565b915061264182612cb0565b602082019050919050565b61265581612b08565b82525050565b61266481612b08565b82525050565b61267b61267682612b08565b612bbb565b82525050565b600061268d8285612515565b60148201915061269d828461266a565b6020820191508190509392505050565b60006020820190506126c26000830184612506565b92915050565b600060208201905081810360008301526126e2818461252c565b905092915050565b60006020820190508181036000830152612704818461258a565b905092915050565b600060208201905061272160008301846125e8565b92915050565b6000602082019050818103600083015261274081612606565b9050919050565b6000602082019050818103600083015261276081612629565b9050919050565b600060208201905061277c600083018461265b565b92915050565b600061010082019050612798600083018b61265b565b6127a5602083018a6125f7565b6127b260408301896125f7565b6127bf60608301886125f7565b6127cc60808301876125f7565b6127d960a08301866125f7565b6127e660c08301856125e8565b6127f360e083018461265b565b9998505050505050505050565b6000608082019050612815600083018761265b565b612822602083018661265b565b61282f604083018561265b565b61283c606083018461265b565b95945050505050565b600060e08201905061285a600083018a61265b565b612867602083018961265b565b612874604083018861265b565b612881606083018761265b565b61288e608083018661265b565b61289b60a08301856125e8565b6128a860c083018461265b565b98975050505050505050565b6000610100820190506128ca600083018b61265b565b6128d7602083018a61265b565b6128e4604083018961265b565b6128f1606083018861265b565b6128fe608083018761265b565b61290b60a083018661265b565b61291860c08301856125e8565b61292560e083018461265b565b9998505050505050505050565b6000819050602082019050919050565b6000819050602082019050919050565b600081519050919050565b600081519050919050565b6000602082019050919050565b6000602082019050919050565b600082825260208201905092915050565b600082825260208201905092915050565b600082825260208201905092915050565b60006129c082612b08565b91506129cb83612b08565b9250827fffffffffffffffffffffffffffffffffffffffffffffffffffffffffffffffff03821115612a00576129ff612bf6565b5b828201905092915050565b6000612a1682612b08565b9150612a2183612b08565b925082612a3157612a30612c25565b5b828204905092915050565b6000612a4782612b08565b9150612a5283612b08565b9250817fffffffffffffffffffffffffffffffffffffffffffffffffffffffffffffffff0483118215151615612a8b57612a8a612bf6565b5b828202905092915050565b6000612aa182612b08565b9150612aac83612b08565b925082821015612abf57612abe612bf6565b5b828203905092915050565b6000612ad582612ae8565b9050919050565b60008115159050919050565b600073ffffffffffffffffffffffffffffffffffffffff82169050919050565b6000819050919050565b6000612b1d82612b08565b9050919050565b6000612b2f82612b08565b91506000821415612b4357612b42612bf6565b5b600182039050919050565b6000612b5982612b08565b91507fffffffffffffffffffffffffffffffffffffffffffffffffffffffffffffffff821415612b8c57612b8b612bf6565b5b600182019050919050565b6000612ba282612ba9565b9050919050565b6000612bb482612c54565b9050919050565b6000819050919050565b6000612bd082612b08565b9150612bdb83612b08565b925082612beb57612bea612c25565b5b828206905092915050565b7f4e487b7100000000000000000000000000000000000000000000000000000000600052601160045260246000fd5b7f4e487b7100000000000000000000000000000000000000000000000000000000600052601260045260246000fd5b60008160601b9050919050565b7f4f776e61626c653a206e6577206f776e657220697320746865207a65726f206160008201527f6464726573730000000000000000000000000000000000000000000000000000602082015250565b7f4f776e61626c653a2063616c6c6572206973206e6f7420746865206f776e6572600082015250565b612ce281612aca565b8114612ced57600080fd5b50565b612cf981612b08565b8114612d0457600080fd5b5056fea2646970667358221220ff79b5693d5ae15221059eb956b30872e5eb2dd7a5eaf98287a885e692c7002664736f6c63430008020033",
  "immutableReferences": {},
  "source": "// SPDX-License-Identifier: MIT\npragma solidity ^0.8.0;\nimport \"./SlotUtils.sol\";\nimport \"./Friend.sol\";\ncontract SlotManagement is SlotUtils, Friend, Ownable{\n    event updateSlot(address indexed owner, uint slotID,uint cropID,uint grow_time,uint price,uint dry_time,uint grass_time,bool stealed, uint exp);\n    event updateCropList(uint cropID,uint grow_time, uint price, uint exp);\n    event deleteCropList(uint cropID);\n    mapping (uint => Slot) public cropsList;\n\n    \n    function modInCropsList(uint _cropID, uint _grow_time, uint _price, uint _exp) external onlyOwner{\n        cropsList[_cropID] = Slot(_cropID, _grow_time, _price, 0, 0, false, _exp);\n        emit updateCropList(_cropID, _grow_time, _price, _exp);\n    }\n    function delInCropsList(uint _cropID) external onlyOwner {\n        cropsList[_cropID] = Slot(0, 0, 0, 0, 0, false, 0);\n        emit deleteCropList(_cropID);\n    }\n\n    function _triggerGrow(Slot storage _slot) internal {\n        _slot.grow_time = uint32(block.timestamp + (cropsList[_slot.cropID].grow_time));\n    }\n    function _triggerDry(Slot storage _slot) internal {\n        _slot.dry_time = uint32(block.timestamp + _randomNumber(_slot.grow_time - block.timestamp) + 100);\n    }\n    function _triggerGrass(Slot storage _slot) internal {\n        _slot.grass_time = uint32(block.timestamp + _randomNumber(_slot.grow_time - block.timestamp) + 100);\n    }\n    function _isReady(Slot storage _slot) internal view returns (bool) {\n        return (_slot.grow_time <= block.timestamp);\n    }\n    function _isDry(Slot storage _slot) internal view returns (bool) {\n        return (_slot.dry_time <= block.timestamp);\n    }\n    function _isGrass(Slot storage _slot) internal view returns (bool) {\n        return (_slot.grass_time <= block.timestamp);\n    }\n\n    function plant(uint _cropID, uint _slotID) external onlyOwnerOf(_slotID){\n        Slot storage mySlot = slots[_slotID];\n        require(mySlot.cropID == 0 && OwnerMoneyCount[msg.sender] >= cropsList[_cropID].price && getLevel(mySlot.exp) >=cropsList[_cropID].exp);\n        OwnerMoneyCount[msg.sender] = OwnerMoneyCount[msg.sender] - (cropsList[_cropID].price);\n        mySlot.cropID = cropsList[_cropID].cropID;\n        mySlot.grow_time = cropsList[_cropID].grow_time;\n        mySlot.price = cropsList[_cropID].price;\n        mySlot.stealed = false;\n        _triggerGrow(mySlot);\n        _triggerDry(mySlot);\n        _triggerGrass(mySlot);\n        emit updateSlot(msg.sender, _slotID, _cropID, mySlot.grow_time, mySlot.price, mySlot.dry_time, mySlot.grass_time, false, mySlot.exp);\n    }\n    function harvest(uint _slotID) public onlyOwnerOf(_slotID){\n        Slot storage mySlot = slots[_slotID];\n        require(_isReady(mySlot));\n        uint _tag = 5;\n        if(mySlot.dry_time > mySlot.grow_time){\n            _tag --;\n        }\n        if(mySlot.grass_time > mySlot.grow_time){\n            _tag --;\n        }\n        if(mySlot.stealed){\n            _tag --;\n        }\n        OwnerMoneyCount[msg.sender] = OwnerMoneyCount[msg.sender] + (mySlot.price * _tag);\n        mySlot.cropID = 0;\n        if(_tag == 5){\n            mySlot.exp ++;\n        }\n        emit updateSlot(msg.sender, _slotID, 0, 0, 0, 0, 0, false, mySlot.exp);\n\n    }\n\n    function watering(uint _slotID) external onlyOwnerOf(_slotID){\n        Slot storage mySlot = slots[_slotID];\n        require(! _isReady(mySlot) && _isDry(mySlot));\n        _triggerDry(mySlot);\n        emit updateSlot(msg.sender, _slotID, mySlot.cropID, mySlot.grow_time, mySlot.price, mySlot.dry_time, mySlot.grass_time, false, mySlot.exp);\n\n    }\n    function weeding(uint _slotID) external onlyOwnerOf(_slotID){\n        Slot storage mySlot = slots[_slotID];\n        require(! _isReady(mySlot) && _isGrass(mySlot));\n        _triggerGrass(mySlot);\n        emit updateSlot(msg.sender, _slotID, mySlot.cropID, mySlot.grow_time, mySlot.price, mySlot.dry_time, mySlot.grass_time, false, mySlot.exp);\n\n    }\n    function steal(uint _slotID) external {\n        require(isFriend(msg.sender, slotToOwner[_slotID]));\n        Slot storage mySlot = slots[_slotID];\n        require(_isReady(mySlot));\n        require(!mySlot.stealed);\n        OwnerMoneyCount[msg.sender] = OwnerMoneyCount[msg.sender] + (mySlot.price);\n        mySlot.stealed = true;\n        emit updateSlot(msg.sender, _slotID, mySlot.cropID, mySlot.grow_time, mySlot.price, mySlot.dry_time, mySlot.grass_time, true, mySlot.exp);\n\n    }\n}",
  "sourcePath": "/Users/Cirno/Desktop/distributed_ether_farm-main/contracts/SlotManagement.sol",
  "compiler": {
    "name": "solc",
    "version": "0.8.2+commit.661d1103.Emscripten.clang"
  },
  "schemaVersion": "3.3.4",
  "updatedAt": "2021-03-14T20:58:05.342Z",
  "devdoc": {
    "kind": "dev",
    "methods": {
      "owner()": {
        "details": "Returns the address of the current owner."
      },
      "renounceOwnership()": {
        "details": "Leaves the contract without owner. It will not be possible to call `onlyOwner` functions anymore. Can only be called by the current owner. NOTE: Renouncing ownership will leave the contract without an owner, thereby removing any functionality that is only available to the owner."
      },
      "transferOwnership(address)": {
        "details": "Transfers ownership of the contract to a new account (`newOwner`). Can only be called by the current owner."
      }
    },
    "version": 1
  },
  "userdoc": {
    "kind": "user",
    "methods": {},
    "version": 1
  }
}