{
  "contractName": "SlotFactory",
  "abi": [
    {
      "anonymous": false,
      "inputs": [
        {
          "indexed": true,
          "internalType": "address",
          "name": "addr",
          "type": "address"
        },
        {
          "indexed": false,
          "internalType": "uint256[]",
          "name": "cropIDs",
          "type": "uint256[]"
        }
      ],
      "name": "createSlotEvent",
      "type": "event"
    },
    {
      "inputs": [
        {
          "internalType": "address",
          "name": "",
          "type": "address"
        }
      ],
      "name": "OwnerMoneyCount",
      "outputs": [
        {
          "internalType": "uint256",
          "name": "",
          "type": "uint256"
        }
      ],
      "stateMutability": "view",
      "type": "function"
    },
    {
      "inputs": [
        {
          "internalType": "address",
          "name": "",
          "type": "address"
        }
      ],
      "name": "OwnerSlotCount",
      "outputs": [
        {
          "internalType": "uint256",
          "name": "",
          "type": "uint256"
        }
      ],
      "stateMutability": "view",
      "type": "function"
    },
    {
      "inputs": [
        {
          "internalType": "uint256",
          "name": "",
          "type": "uint256"
        }
      ],
      "name": "slotToOwner",
      "outputs": [
        {
          "internalType": "address",
          "name": "",
          "type": "address"
        }
      ],
      "stateMutability": "view",
      "type": "function"
    },
    {
      "inputs": [
        {
          "internalType": "uint256",
          "name": "",
          "type": "uint256"
        }
      ],
      "name": "slots",
      "outputs": [
        {
          "internalType": "uint256",
          "name": "cropID",
          "type": "uint256"
        },
        {
          "internalType": "uint256",
          "name": "grow_time",
          "type": "uint256"
        },
        {
          "internalType": "uint256",
          "name": "price",
          "type": "uint256"
        },
        {
          "internalType": "uint256",
          "name": "dry_time",
          "type": "uint256"
        },
        {
          "internalType": "uint256",
          "name": "grass_time",
          "type": "uint256"
        },
        {
          "internalType": "bool",
          "name": "stealed",
          "type": "bool"
        },
        {
          "internalType": "uint256",
          "name": "exp",
          "type": "uint256"
        }
      ],
      "stateMutability": "view",
      "type": "function"
    },
    {
      "inputs": [],
      "name": "createFarm",
      "outputs": [],
      "stateMutability": "nonpayable",
      "type": "function"
    },
    {
      "inputs": [
        {
          "internalType": "address",
          "name": "_owner",
          "type": "address"
        }
      ],
      "name": "getFarmByOwner",
      "outputs": [
        {
          "internalType": "uint256[]",
          "name": "",
          "type": "uint256[]"
        }
      ],
      "stateMutability": "view",
      "type": "function"
    },
    {
      "inputs": [
        {
          "internalType": "uint256",
          "name": "exp",
          "type": "uint256"
        }
      ],
      "name": "getLevel",
      "outputs": [
        {
          "internalType": "uint256",
          "name": "",
          "type": "uint256"
        }
      ],
      "stateMutability": "pure",
      "type": "function"
    }
  ],
  "bytecode": "0x608060405234801561001057600080fd5b50610b49806100206000396000f3fe608060405234801561001057600080fd5b506004361061007d5760003560e01c8063575c25b01161005b578063575c25b0146100f2578063580405ba1461012257806386481d40146101525780638871c9c5146101825761007d565b80630c10e499146100825780631d5ec3cb146100b2578063387dd9e9146100bc575b600080fd5b61009c600480360381019061009791906107ea565b6101b2565b6040516100a991906108c5565b60405180910390f35b6100ba6101e5565b005b6100d660048036038101906100d191906107ea565b61023b565b6040516100e9979695949392919061091d565b60405180910390f35b61010c600480360381019061010791906107c1565b61029a565b60405161011991906108e0565b60405180910390f35b61013c600480360381019061013791906107c1565b610439565b6040516101499190610902565b60405180910390f35b61016c600480360381019061016791906107ea565b610451565b6040516101799190610902565b60405180910390f35b61019c600480360381019061019791906107c1565b61048e565b6040516101a99190610902565b60405180910390f35b60016020528060005260406000206000915054906101000a900473ffffffffffffffffffffffffffffffffffffffff1681565b6000600360003373ffffffffffffffffffffffffffffffffffffffff1673ffffffffffffffffffffffffffffffffffffffff168152602001908152602001600020541461023157600080fd5b6102396104a6565b565b6000818154811061024b57600080fd5b90600052602060002090600702016000915090508060000154908060010154908060020154908060030154908060040154908060050160009054906101000a900460ff16908060060154905087565b60606000600360008473ffffffffffffffffffffffffffffffffffffffff1673ffffffffffffffffffffffffffffffffffffffff1681526020019081526020016000205467ffffffffffffffff81111561031d577f4e487b7100000000000000000000000000000000000000000000000000000000600052604160045260246000fd5b60405190808252806020026020018201604052801561034b5781602001602082028036833780820191505090505b5090506000805b60008054905081101561042e578473ffffffffffffffffffffffffffffffffffffffff166001600083815260200190815260200160002060009054906101000a900473ffffffffffffffffffffffffffffffffffffffff1673ffffffffffffffffffffffffffffffffffffffff16141561041b5780838381518110610400577f4e487b7100000000000000000000000000000000000000000000000000000000600052603260045260246000fd5b602002602001018181525050818061041790610a3e565b9250505b808061042690610a3e565b915050610352565b508192505050919050565b60026020528060005260406000206000915090505481565b60008082905060005b6000821461048457600a8261046f91906109c5565b9150808061047c90610a3e565b91505061045a565b8092505050919050565b60036020528060005260406000206000915090505481565b6104b060066104f7565b6064600260003373ffffffffffffffffffffffffffffffffffffffff1673ffffffffffffffffffffffffffffffffffffffff16815260200190815260200160002081905550565b60008167ffffffffffffffff811115610539577f4e487b7100000000000000000000000000000000000000000000000000000000600052604160045260246000fd5b6040519080825280602002602001820160405280156105675781602001602082028036833780820191505090505b50905060005b828110156107445760008080549050905060006040518060e00160405280600081526020016000815260200160008152602001600081526020016000815260200160001515815260200160018152509080600181540180825580915050600190039060005260206000209060070201600090919091909150600082015181600001556020820151816001015560408201518160020155606082015181600301556080820151816004015560a08201518160050160006101000a81548160ff02191690831515021790555060c082015181600601555050336001600083815260200190815260200160002060006101000a81548173ffffffffffffffffffffffffffffffffffffffff021916908373ffffffffffffffffffffffffffffffffffffffff160217905550600360003373ffffffffffffffffffffffffffffffffffffffff1673ffffffffffffffffffffffffffffffffffffffff16815260200190815260200160002060008154809291906106e590610a3e565b919050555080838381518110610724577f4e487b7100000000000000000000000000000000000000000000000000000000600052603260045260246000fd5b60200260200101818152505050808061073c90610a3e565b91505061056d565b503373ffffffffffffffffffffffffffffffffffffffff167fce4da1507f61651bc32ca862ea68b0475c1966d58fd2f176d12e3ccfee4c92ea8260405161078b91906108e0565b60405180910390a25050565b6000813590506107a681610ae5565b92915050565b6000813590506107bb81610afc565b92915050565b6000602082840312156107d357600080fd5b60006107e184828501610797565b91505092915050565b6000602082840312156107fc57600080fd5b600061080a848285016107ac565b91505092915050565b600061081f83836108a7565b60208301905092915050565b610834816109f6565b82525050565b60006108458261099c565b61084f81856109b4565b935061085a8361098c565b8060005b8381101561088b5781516108728882610813565b975061087d836109a7565b92505060018101905061085e565b5085935050505092915050565b6108a181610a08565b82525050565b6108b081610a34565b82525050565b6108bf81610a34565b82525050565b60006020820190506108da600083018461082b565b92915050565b600060208201905081810360008301526108fa818461083a565b905092915050565b600060208201905061091760008301846108b6565b92915050565b600060e082019050610932600083018a6108b6565b61093f60208301896108b6565b61094c60408301886108b6565b61095960608301876108b6565b61096660808301866108b6565b61097360a0830185610898565b61098060c08301846108b6565b98975050505050505050565b6000819050602082019050919050565b600081519050919050565b6000602082019050919050565b600082825260208201905092915050565b60006109d082610a34565b91506109db83610a34565b9250826109eb576109ea610ab6565b5b828204905092915050565b6000610a0182610a14565b9050919050565b60008115159050919050565b600073ffffffffffffffffffffffffffffffffffffffff82169050919050565b6000819050919050565b6000610a4982610a34565b91507fffffffffffffffffffffffffffffffffffffffffffffffffffffffffffffffff821415610a7c57610a7b610a87565b5b600182019050919050565b7f4e487b7100000000000000000000000000000000000000000000000000000000600052601160045260246000fd5b7f4e487b7100000000000000000000000000000000000000000000000000000000600052601260045260246000fd5b610aee816109f6565b8114610af957600080fd5b50565b610b0581610a34565b8114610b1057600080fd5b5056fea264697066735822122082437213a477f3ab20a1336a9f465dc7c6edbc3b4714e6a3269c878fe40d194364736f6c63430008020033",
  "immutableReferences": {},
  "source": "// SPDX-License-Identifier: MIT\npragma solidity ^0.8.0;\nimport \"@openzeppelin/contracts/access/Ownable.sol\";\ncontract SlotFactory{\n    \n    event createSlotEvent(address indexed addr, uint[] cropIDs);\n\n    struct Slot {\n        uint cropID;\n        uint grow_time;\n        uint price;\n        uint dry_time;\n        uint grass_time;\n        bool stealed;\n        uint exp;\n    }\n\n    Slot[] public slots;\n\n    mapping (uint => address) public slotToOwner;\n    mapping (address => uint) public OwnerMoneyCount;\n    mapping (address => uint) public OwnerSlotCount;\n    // mapping (address => string) public OwnerName;\n\n    function _createFarm() internal {\n        _createCrops(6);\n        OwnerMoneyCount[msg.sender] = 100;\n        // OwnerName[msg.sender] = _name;\n        \n    }\n    function _createCrops(uint num) internal {\n        uint[] memory result = new uint[](num);\n        for (uint256 index = 0; index < num; index++) {\n            uint id = slots.length;\n            slots.push(Slot(0, 0, 0, 0, 0, false, 1));\n            slotToOwner[id] = msg.sender;\n            OwnerSlotCount[msg.sender]++;\n            result[index] = id;\n        }\n        emit createSlotEvent(msg.sender, result);\n    }\n    function createFarm() public{\n        require(OwnerSlotCount[msg.sender] == 0);\n        _createFarm();\n    }\n    function getFarmByOwner(address _owner) external view returns(uint[] memory) {\n        uint[] memory result = new uint[](OwnerSlotCount[_owner]);\n        uint counter = 0;\n        for (uint i = 0; i < slots.length; i++) {\n            if (slotToOwner[i] == _owner) {\n                result[counter] = i;\n                counter++;\n            }\n        }\n        return result;\n    }\n    function getLevel(uint exp) public pure returns (uint) {\n        uint a = exp;\n        uint res = 0;\n        while(a != 0){\n            a = a/10;\n            res++;\n        }\n        return res;\n    }\n}",
  "sourcePath": "/Users/Cirno/Desktop/distributed_ether_farm-main/contracts/SlotFactory.sol",
  "compiler": {
    "name": "solc",
    "version": "0.8.2+commit.661d1103.Emscripten.clang"
  },
  "schemaVersion": "3.3.4",
  "updatedAt": "2021-03-14T20:58:05.332Z",
  "devdoc": {
    "kind": "dev",
    "methods": {},
    "version": 1
  },
  "userdoc": {
    "kind": "user",
    "methods": {},
    "version": 1
  }
}